{
	"contracts/Type1.sol": {
		"Type1": {
			"abi": [
				{
					"anonymous": false,
					"inputs": [
						{
							"indexed": false,
							"internalType": "string",
							"name": "message",
							"type": "string"
						}
					],
					"name": "Log",
					"type": "event"
				},
				{
					"anonymous": false,
					"inputs": [
						{
							"indexed": false,
							"internalType": "uint256",
							"name": "number",
							"type": "uint256"
						}
					],
					"name": "LogNumber",
					"type": "event"
				},
				{
					"inputs": [],
					"name": "GX",
					"outputs": [
						{
							"internalType": "uint256",
							"name": "",
							"type": "uint256"
						}
					],
					"stateMutability": "view",
					"type": "function"
				},
				{
					"inputs": [],
					"name": "GY",
					"outputs": [
						{
							"internalType": "uint256",
							"name": "",
							"type": "uint256"
						}
					],
					"stateMutability": "view",
					"type": "function"
				},
				{
					"inputs": [],
					"name": "HX",
					"outputs": [
						{
							"internalType": "uint256",
							"name": "",
							"type": "uint256"
						}
					],
					"stateMutability": "view",
					"type": "function"
				},
				{
					"inputs": [],
					"name": "HY",
					"outputs": [
						{
							"internalType": "uint256",
							"name": "",
							"type": "uint256"
						}
					],
					"stateMutability": "view",
					"type": "function"
				},
				{
					"inputs": [],
					"name": "PP",
					"outputs": [
						{
							"internalType": "uint256",
							"name": "",
							"type": "uint256"
						}
					],
					"stateMutability": "view",
					"type": "function"
				},
				{
					"inputs": [
						{
							"internalType": "uint256",
							"name": "a",
							"type": "uint256"
						},
						{
							"internalType": "uint256",
							"name": "b",
							"type": "uint256"
						}
					],
					"name": "mod",
					"outputs": [
						{
							"internalType": "uint256",
							"name": "",
							"type": "uint256"
						}
					],
					"stateMutability": "pure",
					"type": "function"
				},
				{
					"inputs": [
						{
							"components": [
								{
									"internalType": "uint256",
									"name": "x",
									"type": "uint256"
								},
								{
									"internalType": "uint256",
									"name": "y",
									"type": "uint256"
								}
							],
							"internalType": "struct Type1.Point",
							"name": "p",
							"type": "tuple"
						},
						{
							"internalType": "uint256",
							"name": "k",
							"type": "uint256"
						}
					],
					"name": "multiply",
					"outputs": [
						{
							"components": [
								{
									"internalType": "uint256",
									"name": "x",
									"type": "uint256"
								},
								{
									"internalType": "uint256",
									"name": "y",
									"type": "uint256"
								}
							],
							"internalType": "struct Type1.Point",
							"name": "",
							"type": "tuple"
						}
					],
					"stateMutability": "nonpayable",
					"type": "function"
				},
				{
					"inputs": [
						{
							"components": [
								{
									"internalType": "uint256",
									"name": "x",
									"type": "uint256"
								},
								{
									"internalType": "uint256",
									"name": "y",
									"type": "uint256"
								}
							],
							"internalType": "struct Type1.Point",
							"name": "p1",
							"type": "tuple"
						},
						{
							"components": [
								{
									"internalType": "uint256",
									"name": "x",
									"type": "uint256"
								},
								{
									"internalType": "uint256",
									"name": "y",
									"type": "uint256"
								}
							],
							"internalType": "struct Type1.Point",
							"name": "p2",
							"type": "tuple"
						}
					],
					"name": "sub",
					"outputs": [
						{
							"components": [
								{
									"internalType": "uint256",
									"name": "x",
									"type": "uint256"
								},
								{
									"internalType": "uint256",
									"name": "y",
									"type": "uint256"
								}
							],
							"internalType": "struct Type1.Point",
							"name": "",
							"type": "tuple"
						}
					],
					"stateMutability": "nonpayable",
					"type": "function"
				},
				{
					"inputs": [
						{
							"components": [
								{
									"components": [
										{
											"internalType": "uint256",
											"name": "x",
											"type": "uint256"
										},
										{
											"internalType": "uint256",
											"name": "y",
											"type": "uint256"
										}
									],
									"internalType": "struct Type1.Point",
									"name": "cy",
									"type": "tuple"
								},
								{
									"components": [
										{
											"internalType": "uint256",
											"name": "x",
											"type": "uint256"
										},
										{
											"internalType": "uint256",
											"name": "y",
											"type": "uint256"
										}
									],
									"internalType": "struct Type1.Point[]",
									"name": "cts",
									"type": "tuple[]"
								},
								{
									"components": [
										{
											"internalType": "uint256",
											"name": "x",
											"type": "uint256"
										},
										{
											"internalType": "uint256",
											"name": "y",
											"type": "uint256"
										}
									],
									"internalType": "struct Type1.Point[]",
									"name": "cws",
									"type": "tuple[]"
								},
								{
									"components": [
										{
											"internalType": "uint256",
											"name": "x",
											"type": "uint256"
										},
										{
											"internalType": "uint256",
											"name": "y",
											"type": "uint256"
										}
									],
									"internalType": "struct Type1.Point",
									"name": "bigS",
									"type": "tuple"
								},
								{
									"components": [
										{
											"internalType": "uint256",
											"name": "x",
											"type": "uint256"
										},
										{
											"internalType": "uint256",
											"name": "y",
											"type": "uint256"
										}
									],
									"internalType": "struct Type1.Point",
									"name": "bigR",
									"type": "tuple"
								},
								{
									"internalType": "uint256",
									"name": "eta1",
									"type": "uint256"
								},
								{
									"internalType": "uint256",
									"name": "eta2",
									"type": "uint256"
								},
								{
									"internalType": "uint256[]",
									"name": "vs",
									"type": "uint256[]"
								}
							],
							"internalType": "struct Type1.Part1",
							"name": "zkp1",
							"type": "tuple"
						},
						{
							"internalType": "uint256",
							"name": "nbits",
							"type": "uint256"
						},
						{
							"internalType": "uint256",
							"name": "K",
							"type": "uint256"
						},
						{
							"internalType": "uint256",
							"name": "L",
							"type": "uint256"
						}
					],
					"name": "verifyRangeArgument",
					"outputs": [
						{
							"internalType": "uint256",
							"name": "",
							"type": "uint256"
						}
					],
					"stateMutability": "nonpayable",
					"type": "function"
				}
			],
			"devdoc": {
				"kind": "dev",
				"methods": {},
				"version": 1
			},
			"evm": {
				"assembly": "    /* \"contracts/Type1.sol\":127:18294  contract Type1 {... */\n  mstore(0x40, 0x80)\n  callvalue\n  dup1\n  iszero\n  tag_1\n  jumpi\n  0x00\n  dup1\n  revert\ntag_1:\n  pop\n  dataSize(sub_0)\n  dup1\n  dataOffset(sub_0)\n  0x00\n  codecopy\n  0x00\n  return\nstop\n\nsub_0: assembly {\n        /* \"contracts/Type1.sol\":127:18294  contract Type1 {... */\n      mstore(0x40, 0x80)\n      callvalue\n      dup1\n      iszero\n      tag_1\n      jumpi\n      0x00\n      dup1\n      revert\n    tag_1:\n      pop\n      jumpi(tag_2, lt(calldatasize, 0x04))\n      shr(0xe0, calldataload(0x00))\n      dup1\n      0x96b41bdd\n      gt\n      tag_12\n      jumpi\n      dup1\n      0x96b41bdd\n      eq\n      tag_7\n      jumpi\n      dup1\n      0xc11b8ad7\n      eq\n      tag_8\n      jumpi\n      dup1\n      0xd42dadde\n      eq\n      tag_9\n      jumpi\n      dup1\n      0xeeeac01e\n      eq\n      tag_10\n      jumpi\n      dup1\n      0xf43f523a\n      eq\n      tag_11\n      jumpi\n      jump(tag_2)\n    tag_12:\n      dup1\n      0x03a507be\n      eq\n      tag_3\n      jumpi\n      dup1\n      0x4e93d4a2\n      eq\n      tag_4\n      jumpi\n      dup1\n      0x58163b92\n      eq\n      tag_5\n      jumpi\n      dup1\n      0x7a308a4c\n      eq\n      tag_6\n      jumpi\n    tag_2:\n      0x00\n      dup1\n      revert\n        /* \"contracts/Type1.sol\":509:539  uint256 public constant GX = 1 */\n    tag_3:\n      tag_13\n      tag_14\n      jump\t// in\n    tag_13:\n      mload(0x40)\n      tag_15\n      swap2\n      swap1\n      tag_16\n      jump\t// in\n    tag_15:\n      mload(0x40)\n      dup1\n      swap2\n      sub\n      swap1\n      return\n        /* \"contracts/Type1.sol\":692:797  uint256 public constant HY = 5031696974169251245229961296941447383441169981934237515842977230762345915487 */\n    tag_4:\n      tag_17\n      tag_18\n      jump\t// in\n    tag_17:\n      mload(0x40)\n      tag_19\n      swap2\n      swap1\n      tag_16\n      jump\t// in\n    tag_19:\n      mload(0x40)\n      dup1\n      swap2\n      sub\n      swap1\n      return\n        /* \"contracts/Type1.sol\":7115:7468  function verifyRangeArgument(Part1 memory zkp1, uint nbits, uint K, uint L)... */\n    tag_5:\n      tag_20\n      0x04\n      dup1\n      calldatasize\n      sub\n      dup2\n      add\n      swap1\n      tag_21\n      swap2\n      swap1\n      tag_22\n      jump\t// in\n    tag_21:\n      tag_23\n      jump\t// in\n    tag_20:\n      mload(0x40)\n      tag_24\n      swap2\n      swap1\n      tag_16\n      jump\t// in\n    tag_24:\n      mload(0x40)\n      dup1\n      swap2\n      sub\n      swap1\n      return\n        /* \"contracts/Type1.sol\":656:686  uint256 public constant GY = 2 */\n    tag_6:\n      tag_25\n      tag_26\n      jump\t// in\n    tag_25:\n      mload(0x40)\n      tag_27\n      swap2\n      swap1\n      tag_16\n      jump\t// in\n    tag_27:\n      mload(0x40)\n      dup1\n      swap2\n      sub\n      swap1\n      return\n        /* \"contracts/Type1.sol\":6023:6519  function sub(Point memory p1, Point memory p2)... */\n    tag_7:\n      tag_28\n      0x04\n      dup1\n      calldatasize\n      sub\n      dup2\n      add\n      swap1\n      tag_29\n      swap2\n      swap1\n      tag_30\n      jump\t// in\n    tag_29:\n      tag_31\n      jump\t// in\n    tag_28:\n      mload(0x40)\n      tag_32\n      swap2\n      swap1\n      tag_33\n      jump\t// in\n    tag_32:\n      mload(0x40)\n      dup1\n      swap2\n      sub\n      swap1\n      return\n        /* \"contracts/Type1.sol\":545:650  uint256 public constant HX = 9727523064272218541460723335320998459488975639302513747055235660443850046724 */\n    tag_8:\n      tag_34\n      tag_35\n      jump\t// in\n    tag_34:\n      mload(0x40)\n      tag_36\n      swap2\n      swap1\n      tag_16\n      jump\t// in\n    tag_36:\n      mload(0x40)\n      dup1\n      swap2\n      sub\n      swap1\n      return\n        /* \"contracts/Type1.sol\":4797:5268  function multiply(Point memory p, uint256 k)... */\n    tag_9:\n      tag_37\n      0x04\n      dup1\n      calldatasize\n      sub\n      dup2\n      add\n      swap1\n      tag_38\n      swap2\n      swap1\n      tag_39\n      jump\t// in\n    tag_38:\n      tag_40\n      jump\t// in\n    tag_37:\n      mload(0x40)\n      tag_41\n      swap2\n      swap1\n      tag_33\n      jump\t// in\n    tag_41:\n      mload(0x40)\n      dup1\n      swap2\n      sub\n      swap1\n      return\n        /* \"contracts/Type1.sol\":880:975  uint256 public constant PP = 0x30644e72e131a029b85045b68181585d97816a916871ca8d3c208c16d87cfd47 */\n    tag_10:\n      tag_42\n      tag_43\n      jump\t// in\n    tag_42:\n      mload(0x40)\n      tag_44\n      swap2\n      swap1\n      tag_16\n      jump\t// in\n    tag_44:\n      mload(0x40)\n      dup1\n      swap2\n      sub\n      swap1\n      return\n        /* \"contracts/Type1.sol\":5273:5521  function mod(uint256 a, uint256 b)... */\n    tag_11:\n      tag_45\n      0x04\n      dup1\n      calldatasize\n      sub\n      dup2\n      add\n      swap1\n      tag_46\n      swap2\n      swap1\n      tag_47\n      jump\t// in\n    tag_46:\n      tag_48\n      jump\t// in\n    tag_45:\n      mload(0x40)\n      tag_49\n      swap2\n      swap1\n      tag_16\n      jump\t// in\n    tag_49:\n      mload(0x40)\n      dup1\n      swap2\n      sub\n      swap1\n      return\n        /* \"contracts/Type1.sol\":509:539  uint256 public constant GX = 1 */\n    tag_14:\n        /* \"contracts/Type1.sol\":538:539  1 */\n      0x01\n        /* \"contracts/Type1.sol\":509:539  uint256 public constant GX = 1 */\n      dup2\n      jump\t// out\n        /* \"contracts/Type1.sol\":692:797  uint256 public constant HY = 5031696974169251245229961296941447383441169981934237515842977230762345915487 */\n    tag_18:\n        /* \"contracts/Type1.sol\":721:797  5031696974169251245229961296941447383441169981934237515842977230762345915487 */\n      0x0b1fd6eda65bd4e6866a28bccfee143309bfb597378217a2002e5cac8cfe645f\n        /* \"contracts/Type1.sol\":692:797  uint256 public constant HY = 5031696974169251245229961296941447383441169981934237515842977230762345915487 */\n      dup2\n      jump\t// out\n        /* \"contracts/Type1.sol\":7115:7468  function verifyRangeArgument(Part1 memory zkp1, uint nbits, uint K, uint L)... */\n    tag_23:\n        /* \"contracts/Type1.sol\":7225:7232  uint256 */\n      0x00\n        /* \"contracts/Type1.sol\":7401:7420  Log(\"111111111111\") */\n      0xcf34ef537ac33ee1ac626ca1587a0a7e8e51561e5514f8cb36afa1c5102b3bab\n      mload(0x40)\n      tag_51\n      swap1\n      tag_52\n      jump\t// in\n    tag_51:\n      mload(0x40)\n      dup1\n      swap2\n      sub\n      swap1\n      log1\n        /* \"contracts/Type1.sol\":7431:7461  assertCond3(zkp1.cy, zkp1.cws) */\n      tag_53\n        /* \"contracts/Type1.sol\":7443:7447  zkp1 */\n      dup6\n        /* \"contracts/Type1.sol\":7443:7450  zkp1.cy */\n      0x00\n      add\n      mload\n        /* \"contracts/Type1.sol\":7452:7456  zkp1 */\n      dup7\n        /* \"contracts/Type1.sol\":7452:7460  zkp1.cws */\n      0x40\n      add\n      mload\n        /* \"contracts/Type1.sol\":7431:7442  assertCond3 */\n      tag_54\n        /* \"contracts/Type1.sol\":7431:7461  assertCond3(zkp1.cy, zkp1.cws) */\n      jump\t// in\n    tag_53:\n        /* \"contracts/Type1.sol\":7115:7468  function verifyRangeArgument(Part1 memory zkp1, uint nbits, uint K, uint L)... */\n      swap5\n      swap4\n      pop\n      pop\n      pop\n      pop\n      jump\t// out\n        /* \"contracts/Type1.sol\":656:686  uint256 public constant GY = 2 */\n    tag_26:\n        /* \"contracts/Type1.sol\":685:686  2 */\n      0x02\n        /* \"contracts/Type1.sol\":656:686  uint256 public constant GY = 2 */\n      dup2\n      jump\t// out\n        /* \"contracts/Type1.sol\":6023:6519  function sub(Point memory p1, Point memory p2)... */\n    tag_31:\n        /* \"contracts/Type1.sol\":6102:6114  Point memory */\n      tag_55\n      tag_56\n      jump\t// in\n    tag_55:\n        /* \"contracts/Type1.sol\":6130:6153  uint256[4] memory input */\n      tag_58\n      tag_59\n      jump\t// in\n    tag_58:\n        /* \"contracts/Type1.sol\":6174:6176  p1 */\n      dup4\n        /* \"contracts/Type1.sol\":6174:6178  p1.x */\n      0x00\n      add\n      mload\n        /* \"contracts/Type1.sol\":6163:6168  input */\n      dup2\n        /* \"contracts/Type1.sol\":6169:6170  0 */\n      0x00\n        /* \"contracts/Type1.sol\":6163:6171  input[0] */\n      0x04\n      dup2\n      lt\n      tag_60\n      jumpi\n      tag_61\n      tag_62\n      jump\t// in\n    tag_61:\n    tag_60:\n      0x20\n      mul\n      add\n        /* \"contracts/Type1.sol\":6163:6178  input[0] = p1.x */\n      dup2\n      dup2\n      mstore\n      pop\n      pop\n        /* \"contracts/Type1.sol\":6199:6201  p1 */\n      dup4\n        /* \"contracts/Type1.sol\":6199:6203  p1.y */\n      0x20\n      add\n      mload\n        /* \"contracts/Type1.sol\":6188:6193  input */\n      dup2\n        /* \"contracts/Type1.sol\":6194:6195  1 */\n      0x01\n        /* \"contracts/Type1.sol\":6188:6196  input[1] */\n      0x04\n      dup2\n      lt\n      tag_63\n      jumpi\n      tag_64\n      tag_62\n      jump\t// in\n    tag_64:\n    tag_63:\n      0x20\n      mul\n      add\n        /* \"contracts/Type1.sol\":6188:6203  input[1] = p1.y */\n      dup2\n      dup2\n      mstore\n      pop\n      pop\n        /* \"contracts/Type1.sol\":6224:6226  p2 */\n      dup3\n        /* \"contracts/Type1.sol\":6224:6228  p2.x */\n      0x00\n      add\n      mload\n        /* \"contracts/Type1.sol\":6213:6218  input */\n      dup2\n        /* \"contracts/Type1.sol\":6219:6220  2 */\n      0x02\n        /* \"contracts/Type1.sol\":6213:6221  input[2] */\n      0x04\n      dup2\n      lt\n      tag_65\n      jumpi\n      tag_66\n      tag_62\n      jump\t// in\n    tag_66:\n    tag_65:\n      0x20\n      mul\n      add\n        /* \"contracts/Type1.sol\":6213:6228  input[2] = p2.x */\n      dup2\n      dup2\n      mstore\n      pop\n      pop\n        /* \"contracts/Type1.sol\":6254:6256  p2 */\n      dup3\n        /* \"contracts/Type1.sol\":6254:6258  p2.y */\n      0x20\n      add\n      mload\n        /* \"contracts/Type1.sol\":909:975  0x30644e72e131a029b85045b68181585d97816a916871ca8d3c208c16d87cfd47 */\n      0x30644e72e131a029b85045b68181585d97816a916871ca8d3c208c16d87cfd47\n        /* \"contracts/Type1.sol\":6249:6258  PP - p2.y */\n      tag_67\n      swap2\n      swap1\n      tag_68\n      jump\t// in\n    tag_67:\n        /* \"contracts/Type1.sol\":6238:6243  input */\n      dup2\n        /* \"contracts/Type1.sol\":6244:6245  3 */\n      0x03\n        /* \"contracts/Type1.sol\":6238:6246  input[3] */\n      0x04\n      dup2\n      lt\n      tag_69\n      jumpi\n      tag_70\n      tag_62\n      jump\t// in\n    tag_70:\n    tag_69:\n      0x20\n      mul\n      add\n        /* \"contracts/Type1.sol\":6238:6258  input[3] = PP - p2.y */\n      dup2\n      dup2\n      mstore\n      pop\n      pop\n        /* \"contracts/Type1.sol\":6269:6281  bool success */\n      0x00\n        /* \"contracts/Type1.sol\":6291:6315  uint256[2] memory result */\n      tag_71\n      tag_72\n      jump\t// in\n    tag_71:\n        /* \"contracts/Type1.sol\":6401:6403  64 */\n      0x40\n        /* \"contracts/Type1.sol\":6393:6399  result */\n      dup2\n        /* \"contracts/Type1.sol\":6388:6391  128 */\n      0x80\n        /* \"contracts/Type1.sol\":6381:6386  input */\n      dup6\n        /* \"contracts/Type1.sol\":6378:6379  0 */\n      0x00\n        /* \"contracts/Type1.sol\":6372:6376  0x06 */\n      0x06\n        /* \"contracts/Type1.sol\":6368:6369  0 */\n      0x00\n        /* \"contracts/Type1.sol\":6364:6370  not(0) */\n      not\n        /* \"contracts/Type1.sol\":6359:6404  call(not(0), 0x06, 0, input, 128, result, 64) */\n      call\n        /* \"contracts/Type1.sol\":6348:6404  success := call(not(0), 0x06, 0, input, 128, result, 64) */\n      swap2\n      pop\n        /* \"contracts/Type1.sol\":6432:6439  success */\n      dup2\n        /* \"contracts/Type1.sol\":6424:6468  require(success, \"bn256 subtraction failed\") */\n      tag_73\n      jumpi\n      mload(0x40)\n      0x08c379a000000000000000000000000000000000000000000000000000000000\n      dup2\n      mstore\n      0x04\n      add\n      tag_74\n      swap1\n      tag_75\n      jump\t// in\n    tag_74:\n      mload(0x40)\n      dup1\n      swap2\n      sub\n      swap1\n      revert\n    tag_73:\n        /* \"contracts/Type1.sol\":6485:6512  Point(result[0], result[1]) */\n      mload(0x40)\n      dup1\n      0x40\n      add\n      0x40\n      mstore\n      dup1\n        /* \"contracts/Type1.sol\":6491:6497  result */\n      dup3\n        /* \"contracts/Type1.sol\":6498:6499  0 */\n      0x00\n        /* \"contracts/Type1.sol\":6491:6500  result[0] */\n      0x02\n      dup2\n      lt\n      tag_76\n      jumpi\n      tag_77\n      tag_62\n      jump\t// in\n    tag_77:\n    tag_76:\n      0x20\n      mul\n      add\n      mload\n        /* \"contracts/Type1.sol\":6485:6512  Point(result[0], result[1]) */\n      dup2\n      mstore\n      0x20\n      add\n        /* \"contracts/Type1.sol\":6502:6508  result */\n      dup3\n        /* \"contracts/Type1.sol\":6509:6510  1 */\n      0x01\n        /* \"contracts/Type1.sol\":6502:6511  result[1] */\n      0x02\n      dup2\n      lt\n      tag_78\n      jumpi\n      tag_79\n      tag_62\n      jump\t// in\n    tag_79:\n    tag_78:\n      0x20\n      mul\n      add\n      mload\n        /* \"contracts/Type1.sol\":6485:6512  Point(result[0], result[1]) */\n      dup2\n      mstore\n      pop\n        /* \"contracts/Type1.sol\":6478:6512  return Point(result[0], result[1]) */\n      swap4\n      pop\n      pop\n      pop\n      pop\n        /* \"contracts/Type1.sol\":6023:6519  function sub(Point memory p1, Point memory p2)... */\n      swap3\n      swap2\n      pop\n      pop\n      jump\t// out\n        /* \"contracts/Type1.sol\":545:650  uint256 public constant HX = 9727523064272218541460723335320998459488975639302513747055235660443850046724 */\n    tag_35:\n        /* \"contracts/Type1.sol\":574:650  9727523064272218541460723335320998459488975639302513747055235660443850046724 */\n      0x1581953bcf3ce078038fa19d974e26e4757a0e65573d9628ec8939bb77a6fd04\n        /* \"contracts/Type1.sol\":545:650  uint256 public constant HX = 9727523064272218541460723335320998459488975639302513747055235660443850046724 */\n      dup2\n      jump\t// out\n        /* \"contracts/Type1.sol\":4797:5268  function multiply(Point memory p, uint256 k)... */\n    tag_40:\n        /* \"contracts/Type1.sol\":4874:4886  Point memory */\n      tag_80\n      tag_56\n      jump\t// in\n    tag_80:\n        /* \"contracts/Type1.sol\":4902:4925  uint256[3] memory input */\n      tag_82\n      tag_83\n      jump\t// in\n    tag_82:\n        /* \"contracts/Type1.sol\":4946:4947  p */\n      dup4\n        /* \"contracts/Type1.sol\":4946:4949  p.x */\n      0x00\n      add\n      mload\n        /* \"contracts/Type1.sol\":4935:4940  input */\n      dup2\n        /* \"contracts/Type1.sol\":4941:4942  0 */\n      0x00\n        /* \"contracts/Type1.sol\":4935:4943  input[0] */\n      0x03\n      dup2\n      lt\n      tag_84\n      jumpi\n      tag_85\n      tag_62\n      jump\t// in\n    tag_85:\n    tag_84:\n      0x20\n      mul\n      add\n        /* \"contracts/Type1.sol\":4935:4949  input[0] = p.x */\n      dup2\n      dup2\n      mstore\n      pop\n      pop\n        /* \"contracts/Type1.sol\":4970:4971  p */\n      dup4\n        /* \"contracts/Type1.sol\":4970:4973  p.y */\n      0x20\n      add\n      mload\n        /* \"contracts/Type1.sol\":4959:4964  input */\n      dup2\n        /* \"contracts/Type1.sol\":4965:4966  1 */\n      0x01\n        /* \"contracts/Type1.sol\":4959:4967  input[1] */\n      0x03\n      dup2\n      lt\n      tag_86\n      jumpi\n      tag_87\n      tag_62\n      jump\t// in\n    tag_87:\n    tag_86:\n      0x20\n      mul\n      add\n        /* \"contracts/Type1.sol\":4959:4973  input[1] = p.y */\n      dup2\n      dup2\n      mstore\n      pop\n      pop\n        /* \"contracts/Type1.sol\":4994:4995  k */\n      dup3\n        /* \"contracts/Type1.sol\":4983:4988  input */\n      dup2\n        /* \"contracts/Type1.sol\":4989:4990  2 */\n      0x02\n        /* \"contracts/Type1.sol\":4983:4991  input[2] */\n      0x03\n      dup2\n      lt\n      tag_88\n      jumpi\n      tag_89\n      tag_62\n      jump\t// in\n    tag_89:\n    tag_88:\n      0x20\n      mul\n      add\n        /* \"contracts/Type1.sol\":4983:4995  input[2] = k */\n      dup2\n      dup2\n      mstore\n      pop\n      pop\n        /* \"contracts/Type1.sol\":5006:5018  bool success */\n      0x00\n        /* \"contracts/Type1.sol\":5028:5052  uint256[2] memory result */\n      tag_90\n      tag_72\n      jump\t// in\n    tag_90:\n        /* \"contracts/Type1.sol\":5138:5140  64 */\n      0x40\n        /* \"contracts/Type1.sol\":5130:5136  result */\n      dup2\n        /* \"contracts/Type1.sol\":5126:5128  96 */\n      0x60\n        /* \"contracts/Type1.sol\":5119:5124  input */\n      dup6\n        /* \"contracts/Type1.sol\":5116:5117  0 */\n      0x00\n        /* \"contracts/Type1.sol\":5110:5114  0x07 */\n      0x07\n        /* \"contracts/Type1.sol\":5106:5107  0 */\n      0x00\n        /* \"contracts/Type1.sol\":5102:5108  not(0) */\n      not\n        /* \"contracts/Type1.sol\":5097:5141  call(not(0), 0x07, 0, input, 96, result, 64) */\n      call\n        /* \"contracts/Type1.sol\":5086:5141  success := call(not(0), 0x07, 0, input, 96, result, 64) */\n      swap2\n      pop\n        /* \"contracts/Type1.sol\":5168:5175  success */\n      dup2\n        /* \"contracts/Type1.sol\":5160:5216  require(success, \"elliptic curve multiplication failed\") */\n      tag_91\n      jumpi\n      mload(0x40)\n      0x08c379a000000000000000000000000000000000000000000000000000000000\n      dup2\n      mstore\n      0x04\n      add\n      tag_92\n      swap1\n      tag_93\n      jump\t// in\n    tag_92:\n      mload(0x40)\n      dup1\n      swap2\n      sub\n      swap1\n      revert\n    tag_91:\n        /* \"contracts/Type1.sol\":5234:5261  Point(result[0], result[1]) */\n      mload(0x40)\n      dup1\n      0x40\n      add\n      0x40\n      mstore\n      dup1\n        /* \"contracts/Type1.sol\":5240:5246  result */\n      dup3\n        /* \"contracts/Type1.sol\":5247:5248  0 */\n      0x00\n        /* \"contracts/Type1.sol\":5240:5249  result[0] */\n      0x02\n      dup2\n      lt\n      tag_94\n      jumpi\n      tag_95\n      tag_62\n      jump\t// in\n    tag_95:\n    tag_94:\n      0x20\n      mul\n      add\n      mload\n        /* \"contracts/Type1.sol\":5234:5261  Point(result[0], result[1]) */\n      dup2\n      mstore\n      0x20\n      add\n        /* \"contracts/Type1.sol\":5251:5257  result */\n      dup3\n        /* \"contracts/Type1.sol\":5258:5259  1 */\n      0x01\n        /* \"contracts/Type1.sol\":5251:5260  result[1] */\n      0x02\n      dup2\n      lt\n      tag_96\n      jumpi\n      tag_97\n      tag_62\n      jump\t// in\n    tag_97:\n    tag_96:\n      0x20\n      mul\n      add\n      mload\n        /* \"contracts/Type1.sol\":5234:5261  Point(result[0], result[1]) */\n      dup2\n      mstore\n      pop\n        /* \"contracts/Type1.sol\":5227:5261  return Point(result[0], result[1]) */\n      swap4\n      pop\n      pop\n      pop\n      pop\n        /* \"contracts/Type1.sol\":4797:5268  function multiply(Point memory p, uint256 k)... */\n      swap3\n      swap2\n      pop\n      pop\n      jump\t// out\n        /* \"contracts/Type1.sol\":880:975  uint256 public constant PP = 0x30644e72e131a029b85045b68181585d97816a916871ca8d3c208c16d87cfd47 */\n    tag_43:\n        /* \"contracts/Type1.sol\":909:975  0x30644e72e131a029b85045b68181585d97816a916871ca8d3c208c16d87cfd47 */\n      0x30644e72e131a029b85045b68181585d97816a916871ca8d3c208c16d87cfd47\n        /* \"contracts/Type1.sol\":880:975  uint256 public constant PP = 0x30644e72e131a029b85045b68181585d97816a916871ca8d3c208c16d87cfd47 */\n      dup2\n      jump\t// out\n        /* \"contracts/Type1.sol\":5273:5521  function mod(uint256 a, uint256 b)... */\n    tag_48:\n        /* \"contracts/Type1.sol\":5353:5360  uint256 */\n      0x00\n        /* \"contracts/Type1.sol\":5389:5390  0 */\n      dup1\n        /* \"contracts/Type1.sol\":5384:5385  b */\n      dup3\n        /* \"contracts/Type1.sol\":5384:5390  b != 0 */\n      sub\n        /* \"contracts/Type1.sol\":5376:5419  require(b != 0, \"SafeMath: modulo by zero\") */\n      tag_99\n      jumpi\n      mload(0x40)\n      0x08c379a000000000000000000000000000000000000000000000000000000000\n      dup2\n      mstore\n      0x04\n      add\n      tag_100\n      swap1\n      tag_101\n      jump\t// in\n    tag_100:\n      mload(0x40)\n      dup1\n      swap2\n      sub\n      swap1\n      revert\n    tag_99:\n        /* \"contracts/Type1.sol\":5430:5439  uint256 c */\n      0x00\n        /* \"contracts/Type1.sol\":5484:5485  b */\n      dup3\n        /* \"contracts/Type1.sol\":5481:5482  a */\n      dup5\n        /* \"contracts/Type1.sol\":5477:5486  mod(a, b) */\n      mod\n        /* \"contracts/Type1.sol\":5472:5486  c := mod(a, b) */\n      swap1\n      pop\n        /* \"contracts/Type1.sol\":5513:5514  c */\n      dup1\n        /* \"contracts/Type1.sol\":5506:5514  return c */\n      swap2\n      pop\n      pop\n        /* \"contracts/Type1.sol\":5273:5521  function mod(uint256 a, uint256 b)... */\n      swap3\n      swap2\n      pop\n      pop\n      jump\t// out\n        /* \"contracts/Type1.sol\":15801:16511  function assertCond3(Point memory cy, Point[] memory cws)... */\n    tag_54:\n        /* \"contracts/Type1.sol\":15890:15900  uint wsize */\n      0x00\n        /* \"contracts/Type1.sol\":15916:15917  1 */\n      0x01\n        /* \"contracts/Type1.sol\":15903:15906  cws */\n      dup3\n        /* \"contracts/Type1.sol\":15903:15913  cws.length */\n      mload\n        /* \"contracts/Type1.sol\":15903:15917  cws.length - 1 */\n      tag_103\n      swap2\n      swap1\n      tag_68\n      jump\t// in\n    tag_103:\n        /* \"contracts/Type1.sol\":15890:15917  uint wsize = cws.length - 1 */\n      swap1\n      pop\n        /* \"contracts/Type1.sol\":15927:15954  uint256[4] memory add_input */\n      tag_104\n      tag_59\n      jump\t// in\n    tag_104:\n        /* \"contracts/Type1.sol\":15964:15976  bool success */\n      0x00\n        /* \"contracts/Type1.sol\":15987:16001  Point memory p */\n      dup1\n        /* \"contracts/Type1.sol\":16004:16007  cws */\n      dup5\n        /* \"contracts/Type1.sol\":16008:16009  0 */\n      0x00\n        /* \"contracts/Type1.sol\":16004:16010  cws[0] */\n      dup2\n      mload\n      dup2\n      lt\n      tag_105\n      jumpi\n      tag_106\n      tag_62\n      jump\t// in\n    tag_106:\n    tag_105:\n      0x20\n      mul\n      0x20\n      add\n      add\n      mload\n        /* \"contracts/Type1.sol\":15987:16010  Point memory p = cws[0] */\n      swap1\n      pop\n        /* \"contracts/Type1.sol\":16035:16036  p */\n      dup1\n        /* \"contracts/Type1.sol\":16035:16038  p.x */\n      0x00\n      add\n      mload\n        /* \"contracts/Type1.sol\":16020:16029  add_input */\n      dup4\n        /* \"contracts/Type1.sol\":16030:16031  0 */\n      0x00\n        /* \"contracts/Type1.sol\":16020:16032  add_input[0] */\n      0x04\n      dup2\n      lt\n      tag_107\n      jumpi\n      tag_108\n      tag_62\n      jump\t// in\n    tag_108:\n    tag_107:\n      0x20\n      mul\n      add\n        /* \"contracts/Type1.sol\":16020:16038  add_input[0] = p.x */\n      dup2\n      dup2\n      mstore\n      pop\n      pop\n        /* \"contracts/Type1.sol\":16063:16064  p */\n      dup1\n        /* \"contracts/Type1.sol\":16063:16066  p.y */\n      0x20\n      add\n      mload\n        /* \"contracts/Type1.sol\":16048:16057  add_input */\n      dup4\n        /* \"contracts/Type1.sol\":16058:16059  1 */\n      0x01\n        /* \"contracts/Type1.sol\":16048:16060  add_input[1] */\n      0x04\n      dup2\n      lt\n      tag_109\n      jumpi\n      tag_110\n      tag_62\n      jump\t// in\n    tag_110:\n    tag_109:\n      0x20\n      mul\n      add\n        /* \"contracts/Type1.sol\":16048:16066  add_input[1] = p.y */\n      dup2\n      dup2\n      mstore\n      pop\n      pop\n        /* \"contracts/Type1.sol\":16080:16086  uint i */\n      0x00\n        /* \"contracts/Type1.sol\":16087:16088  1 */\n      0x01\n        /* \"contracts/Type1.sol\":16080:16088  uint i=1 */\n      swap1\n      pop\n        /* \"contracts/Type1.sol\":16076:16331  for(uint i=1;i<wsize;i++) {... */\n    tag_111:\n        /* \"contracts/Type1.sol\":16091:16096  wsize */\n      dup5\n        /* \"contracts/Type1.sol\":16089:16090  i */\n      dup2\n        /* \"contracts/Type1.sol\":16089:16096  i<wsize */\n      lt\n        /* \"contracts/Type1.sol\":16076:16331  for(uint i=1;i<wsize;i++) {... */\n      iszero\n      tag_112\n      jumpi\n        /* \"contracts/Type1.sol\":16116:16130  Point memory p */\n      0x00\n        /* \"contracts/Type1.sol\":16133:16136  cws */\n      dup7\n        /* \"contracts/Type1.sol\":16137:16138  i */\n      dup3\n        /* \"contracts/Type1.sol\":16133:16139  cws[i] */\n      dup2\n      mload\n      dup2\n      lt\n      tag_114\n      jumpi\n      tag_115\n      tag_62\n      jump\t// in\n    tag_115:\n    tag_114:\n      0x20\n      mul\n      0x20\n      add\n      add\n      mload\n        /* \"contracts/Type1.sol\":16116:16139  Point memory p = cws[i] */\n      swap1\n      pop\n        /* \"contracts/Type1.sol\":16168:16169  p */\n      dup1\n        /* \"contracts/Type1.sol\":16168:16171  p.x */\n      0x00\n      add\n      mload\n        /* \"contracts/Type1.sol\":16153:16162  add_input */\n      dup6\n        /* \"contracts/Type1.sol\":16163:16164  2 */\n      0x02\n        /* \"contracts/Type1.sol\":16153:16165  add_input[2] */\n      0x04\n      dup2\n      lt\n      tag_116\n      jumpi\n      tag_117\n      tag_62\n      jump\t// in\n    tag_117:\n    tag_116:\n      0x20\n      mul\n      add\n        /* \"contracts/Type1.sol\":16153:16171  add_input[2] = p.x */\n      dup2\n      dup2\n      mstore\n      pop\n      pop\n        /* \"contracts/Type1.sol\":16200:16201  p */\n      dup1\n        /* \"contracts/Type1.sol\":16200:16203  p.y */\n      0x20\n      add\n      mload\n        /* \"contracts/Type1.sol\":16185:16194  add_input */\n      dup6\n        /* \"contracts/Type1.sol\":16195:16196  3 */\n      0x03\n        /* \"contracts/Type1.sol\":16185:16197  add_input[3] */\n      0x04\n      dup2\n      lt\n      tag_118\n      jumpi\n      tag_119\n      tag_62\n      jump\t// in\n    tag_119:\n    tag_118:\n      0x20\n      mul\n      add\n        /* \"contracts/Type1.sol\":16185:16203  add_input[3] = p.y */\n      dup2\n      dup2\n      mstore\n      pop\n      pop\n        /* \"contracts/Type1.sol\":16302:16306  0x60 */\n      0x60\n        /* \"contracts/Type1.sol\":16291:16300  add_input */\n      dup6\n        /* \"contracts/Type1.sol\":16285:16289  0x80 */\n      0x80\n        /* \"contracts/Type1.sol\":16274:16283  add_input */\n      dup8\n        /* \"contracts/Type1.sol\":16271:16272  0 */\n      0x00\n        /* \"contracts/Type1.sol\":16268:16269  6 */\n      0x06\n        /* \"contracts/Type1.sol\":16264:16265  0 */\n      0x00\n        /* \"contracts/Type1.sol\":16260:16266  not(0) */\n      not\n        /* \"contracts/Type1.sol\":16255:16307  call(not(0), 6, 0, add_input, 0x80, add_input, 0x60) */\n      call\n        /* \"contracts/Type1.sol\":16244:16307  success := call(not(0), 6, 0, add_input, 0x80, add_input, 0x60) */\n      swap4\n      pop\n        /* \"contracts/Type1.sol\":16226:16321  {... */\n      pop\n        /* \"contracts/Type1.sol\":16097:16100  i++ */\n      dup1\n      dup1\n      0x01\n      add\n      swap2\n      pop\n      pop\n        /* \"contracts/Type1.sol\":16076:16331  for(uint i=1;i<wsize;i++) {... */\n      jump(tag_111)\n    tag_112:\n      pop\n        /* \"contracts/Type1.sol\":16345:16368  LogNumber(add_input[0]) */\n      0x2012ef02e82e91abf55727cc31c3b6e3375003aa9e879f855db72d9e78822c40\n        /* \"contracts/Type1.sol\":16355:16364  add_input */\n      dup4\n        /* \"contracts/Type1.sol\":16365:16366  0 */\n      0x00\n        /* \"contracts/Type1.sol\":16355:16367  add_input[0] */\n      0x04\n      dup2\n      lt\n      tag_120\n      jumpi\n      tag_121\n      tag_62\n      jump\t// in\n    tag_121:\n    tag_120:\n      0x20\n      mul\n      add\n      mload\n        /* \"contracts/Type1.sol\":16345:16368  LogNumber(add_input[0]) */\n      mload(0x40)\n      tag_122\n      swap2\n      swap1\n      tag_16\n      jump\t// in\n    tag_122:\n      mload(0x40)\n      dup1\n      swap2\n      sub\n      swap1\n      log1\n        /* \"contracts/Type1.sol\":16383:16406  LogNumber(add_input[1]) */\n      0x2012ef02e82e91abf55727cc31c3b6e3375003aa9e879f855db72d9e78822c40\n        /* \"contracts/Type1.sol\":16393:16402  add_input */\n      dup4\n        /* \"contracts/Type1.sol\":16403:16404  1 */\n      0x01\n        /* \"contracts/Type1.sol\":16393:16405  add_input[1] */\n      0x04\n      dup2\n      lt\n      tag_123\n      jumpi\n      tag_124\n      tag_62\n      jump\t// in\n    tag_124:\n    tag_123:\n      0x20\n      mul\n      add\n      mload\n        /* \"contracts/Type1.sol\":16383:16406  LogNumber(add_input[1]) */\n      mload(0x40)\n      tag_125\n      swap2\n      swap1\n      tag_16\n      jump\t// in\n    tag_125:\n      mload(0x40)\n      dup1\n      swap2\n      sub\n      swap1\n      log1\n        /* \"contracts/Type1.sol\":16421:16437  Log(\"?????????\") */\n      0xcf34ef537ac33ee1ac626ca1587a0a7e8e51561e5514f8cb36afa1c5102b3bab\n      mload(0x40)\n      tag_126\n      swap1\n      tag_127\n      jump\t// in\n    tag_126:\n      mload(0x40)\n      dup1\n      swap2\n      sub\n      swap1\n      log1\n        /* \"contracts/Type1.sol\":15880:16511  {... */\n      pop\n      pop\n      pop\n      pop\n        /* \"contracts/Type1.sol\":15801:16511  function assertCond3(Point memory cy, Point[] memory cws)... */\n      pop\n      pop\n      jump\t// out\n    tag_56:\n      mload(0x40)\n      dup1\n      0x40\n      add\n      0x40\n      mstore\n      dup1\n      0x00\n      dup2\n      mstore\n      0x20\n      add\n      0x00\n      dup2\n      mstore\n      pop\n      swap1\n      jump\t// out\n    tag_59:\n      mload(0x40)\n      dup1\n      0x80\n      add\n      0x40\n      mstore\n      dup1\n      0x04\n      swap1\n      0x20\n      dup3\n      mul\n      dup1\n      calldatasize\n      dup4\n      calldatacopy\n      dup1\n      dup3\n      add\n      swap2\n      pop\n      pop\n      swap1\n      pop\n      pop\n      swap1\n      jump\t// out\n    tag_72:\n      mload(0x40)\n      dup1\n      0x40\n      add\n      0x40\n      mstore\n      dup1\n      0x02\n      swap1\n      0x20\n      dup3\n      mul\n      dup1\n      calldatasize\n      dup4\n      calldatacopy\n      dup1\n      dup3\n      add\n      swap2\n      pop\n      pop\n      swap1\n      pop\n      pop\n      swap1\n      jump\t// out\n    tag_83:\n      mload(0x40)\n      dup1\n      0x60\n      add\n      0x40\n      mstore\n      dup1\n      0x03\n      swap1\n      0x20\n      dup3\n      mul\n      dup1\n      calldatasize\n      dup4\n      calldatacopy\n      dup1\n      dup3\n      add\n      swap2\n      pop\n      pop\n      swap1\n      pop\n      pop\n      swap1\n      jump\t// out\n        /* \"#utility.yul\":7:84   */\n    tag_128:\n        /* \"#utility.yul\":44:51   */\n      0x00\n        /* \"#utility.yul\":73:78   */\n      dup2\n        /* \"#utility.yul\":62:78   */\n      swap1\n      pop\n        /* \"#utility.yul\":7:84   */\n      swap2\n      swap1\n      pop\n      jump\t// out\n        /* \"#utility.yul\":90:208   */\n    tag_129:\n        /* \"#utility.yul\":177:201   */\n      tag_168\n        /* \"#utility.yul\":195:200   */\n      dup2\n        /* \"#utility.yul\":177:201   */\n      tag_128\n      jump\t// in\n    tag_168:\n        /* \"#utility.yul\":172:175   */\n      dup3\n        /* \"#utility.yul\":165:202   */\n      mstore\n        /* \"#utility.yul\":90:208   */\n      pop\n      pop\n      jump\t// out\n        /* \"#utility.yul\":214:436   */\n    tag_16:\n        /* \"#utility.yul\":307:311   */\n      0x00\n        /* \"#utility.yul\":345:347   */\n      0x20\n        /* \"#utility.yul\":334:343   */\n      dup3\n        /* \"#utility.yul\":330:348   */\n      add\n        /* \"#utility.yul\":322:348   */\n      swap1\n      pop\n        /* \"#utility.yul\":358:429   */\n      tag_170\n        /* \"#utility.yul\":426:427   */\n      0x00\n        /* \"#utility.yul\":415:424   */\n      dup4\n        /* \"#utility.yul\":411:428   */\n      add\n        /* \"#utility.yul\":402:408   */\n      dup5\n        /* \"#utility.yul\":358:429   */\n      tag_129\n      jump\t// in\n    tag_170:\n        /* \"#utility.yul\":214:436   */\n      swap3\n      swap2\n      pop\n      pop\n      jump\t// out\n        /* \"#utility.yul\":442:517   */\n    tag_130:\n        /* \"#utility.yul\":475:481   */\n      0x00\n        /* \"#utility.yul\":508:510   */\n      0x40\n        /* \"#utility.yul\":502:511   */\n      mload\n        /* \"#utility.yul\":492:511   */\n      swap1\n      pop\n        /* \"#utility.yul\":442:517   */\n      swap1\n      jump\t// out\n        /* \"#utility.yul\":523:640   */\n    tag_131:\n        /* \"#utility.yul\":632:633   */\n      0x00\n        /* \"#utility.yul\":629:630   */\n      dup1\n        /* \"#utility.yul\":622:634   */\n      revert\n        /* \"#utility.yul\":646:763   */\n    tag_132:\n        /* \"#utility.yul\":755:756   */\n      0x00\n        /* \"#utility.yul\":752:753   */\n      dup1\n        /* \"#utility.yul\":745:757   */\n      revert\n        /* \"#utility.yul\":769:886   */\n    tag_133:\n        /* \"#utility.yul\":878:879   */\n      0x00\n        /* \"#utility.yul\":875:876   */\n      dup1\n        /* \"#utility.yul\":868:880   */\n      revert\n        /* \"#utility.yul\":892:994   */\n    tag_134:\n        /* \"#utility.yul\":933:939   */\n      0x00\n        /* \"#utility.yul\":984:986   */\n      0x1f\n        /* \"#utility.yul\":980:987   */\n      not\n        /* \"#utility.yul\":975:977   */\n      0x1f\n        /* \"#utility.yul\":968:973   */\n      dup4\n        /* \"#utility.yul\":964:978   */\n      add\n        /* \"#utility.yul\":960:988   */\n      and\n        /* \"#utility.yul\":950:988   */\n      swap1\n      pop\n        /* \"#utility.yul\":892:994   */\n      swap2\n      swap1\n      pop\n      jump\t// out\n        /* \"#utility.yul\":1000:1180   */\n    tag_135:\n        /* \"#utility.yul\":1048:1125   */\n      0x4e487b7100000000000000000000000000000000000000000000000000000000\n        /* \"#utility.yul\":1045:1046   */\n      0x00\n        /* \"#utility.yul\":1038:1126   */\n      mstore\n        /* \"#utility.yul\":1145:1149   */\n      0x41\n        /* \"#utility.yul\":1142:1143   */\n      0x04\n        /* \"#utility.yul\":1135:1150   */\n      mstore\n        /* \"#utility.yul\":1169:1173   */\n      0x24\n        /* \"#utility.yul\":1166:1167   */\n      0x00\n        /* \"#utility.yul\":1159:1174   */\n      revert\n        /* \"#utility.yul\":1186:1467   */\n    tag_136:\n        /* \"#utility.yul\":1269:1296   */\n      tag_178\n        /* \"#utility.yul\":1291:1295   */\n      dup3\n        /* \"#utility.yul\":1269:1296   */\n      tag_134\n      jump\t// in\n    tag_178:\n        /* \"#utility.yul\":1261:1267   */\n      dup2\n        /* \"#utility.yul\":1257:1297   */\n      add\n        /* \"#utility.yul\":1399:1405   */\n      dup2\n        /* \"#utility.yul\":1387:1397   */\n      dup2\n        /* \"#utility.yul\":1384:1406   */\n      lt\n        /* \"#utility.yul\":1363:1381   */\n      0xffffffffffffffff\n        /* \"#utility.yul\":1351:1361   */\n      dup3\n        /* \"#utility.yul\":1348:1382   */\n      gt\n        /* \"#utility.yul\":1345:1407   */\n      or\n        /* \"#utility.yul\":1342:1430   */\n      iszero\n      tag_179\n      jumpi\n        /* \"#utility.yul\":1410:1428   */\n      tag_180\n      tag_135\n      jump\t// in\n    tag_180:\n        /* \"#utility.yul\":1342:1430   */\n    tag_179:\n        /* \"#utility.yul\":1450:1460   */\n      dup1\n        /* \"#utility.yul\":1446:1448   */\n      0x40\n        /* \"#utility.yul\":1439:1461   */\n      mstore\n        /* \"#utility.yul\":1229:1467   */\n      pop\n        /* \"#utility.yul\":1186:1467   */\n      pop\n      pop\n      jump\t// out\n        /* \"#utility.yul\":1473:1602   */\n    tag_137:\n        /* \"#utility.yul\":1507:1513   */\n      0x00\n        /* \"#utility.yul\":1534:1554   */\n      tag_182\n      tag_130\n      jump\t// in\n    tag_182:\n        /* \"#utility.yul\":1524:1554   */\n      swap1\n      pop\n        /* \"#utility.yul\":1563:1596   */\n      tag_183\n        /* \"#utility.yul\":1591:1595   */\n      dup3\n        /* \"#utility.yul\":1583:1589   */\n      dup3\n        /* \"#utility.yul\":1563:1596   */\n      tag_136\n      jump\t// in\n    tag_183:\n        /* \"#utility.yul\":1473:1602   */\n      swap2\n      swap1\n      pop\n      jump\t// out\n        /* \"#utility.yul\":1608:1725   */\n    tag_138:\n        /* \"#utility.yul\":1717:1718   */\n      0x00\n        /* \"#utility.yul\":1714:1715   */\n      dup1\n        /* \"#utility.yul\":1707:1719   */\n      revert\n        /* \"#utility.yul\":1731:1853   */\n    tag_139:\n        /* \"#utility.yul\":1804:1828   */\n      tag_186\n        /* \"#utility.yul\":1822:1827   */\n      dup2\n        /* \"#utility.yul\":1804:1828   */\n      tag_128\n      jump\t// in\n    tag_186:\n        /* \"#utility.yul\":1797:1802   */\n      dup2\n        /* \"#utility.yul\":1794:1829   */\n      eq\n        /* \"#utility.yul\":1784:1847   */\n      tag_187\n      jumpi\n        /* \"#utility.yul\":1843:1844   */\n      0x00\n        /* \"#utility.yul\":1840:1841   */\n      dup1\n        /* \"#utility.yul\":1833:1845   */\n      revert\n        /* \"#utility.yul\":1784:1847   */\n    tag_187:\n        /* \"#utility.yul\":1731:1853   */\n      pop\n      jump\t// out\n        /* \"#utility.yul\":1859:1998   */\n    tag_140:\n        /* \"#utility.yul\":1905:1910   */\n      0x00\n        /* \"#utility.yul\":1943:1949   */\n      dup2\n        /* \"#utility.yul\":1930:1950   */\n      calldataload\n        /* \"#utility.yul\":1921:1950   */\n      swap1\n      pop\n        /* \"#utility.yul\":1959:1992   */\n      tag_189\n        /* \"#utility.yul\":1986:1991   */\n      dup2\n        /* \"#utility.yul\":1959:1992   */\n      tag_139\n      jump\t// in\n    tag_189:\n        /* \"#utility.yul\":1859:1998   */\n      swap3\n      swap2\n      pop\n      pop\n      jump\t// out\n        /* \"#utility.yul\":2030:2593   */\n    tag_141:\n        /* \"#utility.yul\":2099:2104   */\n      0x00\n        /* \"#utility.yul\":2143:2147   */\n      0x40\n        /* \"#utility.yul\":2131:2140   */\n      dup3\n        /* \"#utility.yul\":2126:2129   */\n      dup5\n        /* \"#utility.yul\":2122:2141   */\n      sub\n        /* \"#utility.yul\":2118:2148   */\n      slt\n        /* \"#utility.yul\":2115:2232   */\n      iszero\n      tag_191\n      jumpi\n        /* \"#utility.yul\":2151:2230   */\n      tag_192\n      tag_133\n      jump\t// in\n    tag_192:\n        /* \"#utility.yul\":2115:2232   */\n    tag_191:\n        /* \"#utility.yul\":2250:2271   */\n      tag_193\n        /* \"#utility.yul\":2266:2270   */\n      0x40\n        /* \"#utility.yul\":2250:2271   */\n      tag_137\n      jump\t// in\n    tag_193:\n        /* \"#utility.yul\":2241:2271   */\n      swap1\n      pop\n        /* \"#utility.yul\":2327:2328   */\n      0x00\n        /* \"#utility.yul\":2367:2416   */\n      tag_194\n        /* \"#utility.yul\":2412:2415   */\n      dup5\n        /* \"#utility.yul\":2403:2409   */\n      dup3\n        /* \"#utility.yul\":2392:2401   */\n      dup6\n        /* \"#utility.yul\":2388:2410   */\n      add\n        /* \"#utility.yul\":2367:2416   */\n      tag_140\n      jump\t// in\n    tag_194:\n        /* \"#utility.yul\":2360:2364   */\n      0x00\n        /* \"#utility.yul\":2353:2358   */\n      dup4\n        /* \"#utility.yul\":2349:2365   */\n      add\n        /* \"#utility.yul\":2342:2417   */\n      mstore\n        /* \"#utility.yul\":2281:2428   */\n      pop\n        /* \"#utility.yul\":2484:2486   */\n      0x20\n        /* \"#utility.yul\":2525:2574   */\n      tag_195\n        /* \"#utility.yul\":2570:2573   */\n      dup5\n        /* \"#utility.yul\":2561:2567   */\n      dup3\n        /* \"#utility.yul\":2550:2559   */\n      dup6\n        /* \"#utility.yul\":2546:2568   */\n      add\n        /* \"#utility.yul\":2525:2574   */\n      tag_140\n      jump\t// in\n    tag_195:\n        /* \"#utility.yul\":2518:2522   */\n      0x20\n        /* \"#utility.yul\":2511:2516   */\n      dup4\n        /* \"#utility.yul\":2507:2523   */\n      add\n        /* \"#utility.yul\":2500:2575   */\n      mstore\n        /* \"#utility.yul\":2438:2586   */\n      pop\n        /* \"#utility.yul\":2030:2593   */\n      swap3\n      swap2\n      pop\n      pop\n      jump\t// out\n        /* \"#utility.yul\":2599:2716   */\n    tag_142:\n        /* \"#utility.yul\":2708:2709   */\n      0x00\n        /* \"#utility.yul\":2705:2706   */\n      dup1\n        /* \"#utility.yul\":2698:2710   */\n      revert\n        /* \"#utility.yul\":2722:3053   */\n    tag_143:\n        /* \"#utility.yul\":2819:2823   */\n      0x00\n        /* \"#utility.yul\":2909:2927   */\n      0xffffffffffffffff\n        /* \"#utility.yul\":2901:2907   */\n      dup3\n        /* \"#utility.yul\":2898:2928   */\n      gt\n        /* \"#utility.yul\":2895:2951   */\n      iszero\n      tag_198\n      jumpi\n        /* \"#utility.yul\":2931:2949   */\n      tag_199\n      tag_135\n      jump\t// in\n    tag_199:\n        /* \"#utility.yul\":2895:2951   */\n    tag_198:\n        /* \"#utility.yul\":2981:2985   */\n      0x20\n        /* \"#utility.yul\":2973:2979   */\n      dup3\n        /* \"#utility.yul\":2969:2986   */\n      mul\n        /* \"#utility.yul\":2961:2986   */\n      swap1\n      pop\n        /* \"#utility.yul\":3041:3045   */\n      0x20\n        /* \"#utility.yul\":3035:3039   */\n      dup2\n        /* \"#utility.yul\":3031:3046   */\n      add\n        /* \"#utility.yul\":3023:3046   */\n      swap1\n      pop\n        /* \"#utility.yul\":2722:3053   */\n      swap2\n      swap1\n      pop\n      jump\t// out\n        /* \"#utility.yul\":3059:3176   */\n    tag_144:\n        /* \"#utility.yul\":3168:3169   */\n      0x00\n        /* \"#utility.yul\":3165:3166   */\n      dup1\n        /* \"#utility.yul\":3158:3170   */\n      revert\n        /* \"#utility.yul\":3210:3980   */\n    tag_145:\n        /* \"#utility.yul\":3326:3331   */\n      0x00\n        /* \"#utility.yul\":3351:3452   */\n      tag_202\n        /* \"#utility.yul\":3367:3451   */\n      tag_203\n        /* \"#utility.yul\":3444:3450   */\n      dup5\n        /* \"#utility.yul\":3367:3451   */\n      tag_143\n      jump\t// in\n    tag_203:\n        /* \"#utility.yul\":3351:3452   */\n      tag_137\n      jump\t// in\n    tag_202:\n        /* \"#utility.yul\":3342:3452   */\n      swap1\n      pop\n        /* \"#utility.yul\":3472:3477   */\n      dup1\n        /* \"#utility.yul\":3501:3507   */\n      dup4\n        /* \"#utility.yul\":3494:3499   */\n      dup3\n        /* \"#utility.yul\":3487:3508   */\n      mstore\n        /* \"#utility.yul\":3535:3539   */\n      0x20\n        /* \"#utility.yul\":3528:3533   */\n      dup3\n        /* \"#utility.yul\":3524:3540   */\n      add\n        /* \"#utility.yul\":3517:3540   */\n      swap1\n      pop\n        /* \"#utility.yul\":3588:3592   */\n      0x40\n        /* \"#utility.yul\":3580:3586   */\n      dup5\n        /* \"#utility.yul\":3576:3593   */\n      mul\n        /* \"#utility.yul\":3568:3574   */\n      dup4\n        /* \"#utility.yul\":3564:3594   */\n      add\n        /* \"#utility.yul\":3617:3620   */\n      dup6\n        /* \"#utility.yul\":3609:3615   */\n      dup2\n        /* \"#utility.yul\":3606:3621   */\n      gt\n        /* \"#utility.yul\":3603:3725   */\n      iszero\n      tag_204\n      jumpi\n        /* \"#utility.yul\":3636:3715   */\n      tag_205\n      tag_144\n      jump\t// in\n    tag_205:\n        /* \"#utility.yul\":3603:3725   */\n    tag_204:\n        /* \"#utility.yul\":3751:3757   */\n      dup4\n        /* \"#utility.yul\":3734:3974   */\n    tag_206:\n        /* \"#utility.yul\":3768:3774   */\n      dup2\n        /* \"#utility.yul\":3763:3766   */\n      dup2\n        /* \"#utility.yul\":3760:3775   */\n      lt\n        /* \"#utility.yul\":3734:3974   */\n      iszero\n      tag_208\n      jumpi\n        /* \"#utility.yul\":3843:3846   */\n      dup1\n        /* \"#utility.yul\":3872:3929   */\n      tag_209\n        /* \"#utility.yul\":3925:3928   */\n      dup9\n        /* \"#utility.yul\":3913:3923   */\n      dup3\n        /* \"#utility.yul\":3872:3929   */\n      tag_141\n      jump\t// in\n    tag_209:\n        /* \"#utility.yul\":3867:3870   */\n      dup5\n        /* \"#utility.yul\":3860:3930   */\n      mstore\n        /* \"#utility.yul\":3959:3963   */\n      0x20\n        /* \"#utility.yul\":3954:3957   */\n      dup5\n        /* \"#utility.yul\":3950:3964   */\n      add\n        /* \"#utility.yul\":3943:3964   */\n      swap4\n      pop\n        /* \"#utility.yul\":3810:3974   */\n      pop\n        /* \"#utility.yul\":3794:3798   */\n      0x40\n        /* \"#utility.yul\":3789:3792   */\n      dup2\n        /* \"#utility.yul\":3785:3799   */\n      add\n        /* \"#utility.yul\":3778:3799   */\n      swap1\n      pop\n        /* \"#utility.yul\":3734:3974   */\n      jump(tag_206)\n    tag_208:\n        /* \"#utility.yul\":3738:3759   */\n      pop\n        /* \"#utility.yul\":3332:3980   */\n      pop\n      pop\n        /* \"#utility.yul\":3210:3980   */\n      swap4\n      swap3\n      pop\n      pop\n      pop\n      jump\t// out\n        /* \"#utility.yul\":4014:4424   */\n    tag_146:\n        /* \"#utility.yul\":4105:4110   */\n      0x00\n        /* \"#utility.yul\":4154:4157   */\n      dup3\n        /* \"#utility.yul\":4147:4151   */\n      0x1f\n        /* \"#utility.yul\":4139:4145   */\n      dup4\n        /* \"#utility.yul\":4135:4152   */\n      add\n        /* \"#utility.yul\":4131:4158   */\n      slt\n        /* \"#utility.yul\":4121:4243   */\n      tag_211\n      jumpi\n        /* \"#utility.yul\":4162:4241   */\n      tag_212\n      tag_142\n      jump\t// in\n    tag_212:\n        /* \"#utility.yul\":4121:4243   */\n    tag_211:\n        /* \"#utility.yul\":4279:4285   */\n      dup2\n        /* \"#utility.yul\":4266:4286   */\n      calldataload\n        /* \"#utility.yul\":4304:4418   */\n      tag_213\n        /* \"#utility.yul\":4414:4417   */\n      dup5\n        /* \"#utility.yul\":4406:4412   */\n      dup3\n        /* \"#utility.yul\":4399:4403   */\n      0x20\n        /* \"#utility.yul\":4391:4397   */\n      dup7\n        /* \"#utility.yul\":4387:4404   */\n      add\n        /* \"#utility.yul\":4304:4418   */\n      tag_145\n      jump\t// in\n    tag_213:\n        /* \"#utility.yul\":4295:4418   */\n      swap2\n      pop\n        /* \"#utility.yul\":4111:4424   */\n      pop\n        /* \"#utility.yul\":4014:4424   */\n      swap3\n      swap2\n      pop\n      pop\n      jump\t// out\n        /* \"#utility.yul\":4430:4741   */\n    tag_147:\n        /* \"#utility.yul\":4507:4511   */\n      0x00\n        /* \"#utility.yul\":4597:4615   */\n      0xffffffffffffffff\n        /* \"#utility.yul\":4589:4595   */\n      dup3\n        /* \"#utility.yul\":4586:4616   */\n      gt\n        /* \"#utility.yul\":4583:4639   */\n      iszero\n      tag_215\n      jumpi\n        /* \"#utility.yul\":4619:4637   */\n      tag_216\n      tag_135\n      jump\t// in\n    tag_216:\n        /* \"#utility.yul\":4583:4639   */\n    tag_215:\n        /* \"#utility.yul\":4669:4673   */\n      0x20\n        /* \"#utility.yul\":4661:4667   */\n      dup3\n        /* \"#utility.yul\":4657:4674   */\n      mul\n        /* \"#utility.yul\":4649:4674   */\n      swap1\n      pop\n        /* \"#utility.yul\":4729:4733   */\n      0x20\n        /* \"#utility.yul\":4723:4727   */\n      dup2\n        /* \"#utility.yul\":4719:4734   */\n      add\n        /* \"#utility.yul\":4711:4734   */\n      swap1\n      pop\n        /* \"#utility.yul\":4430:4741   */\n      swap2\n      swap1\n      pop\n      jump\t// out\n        /* \"#utility.yul\":4764:5474   */\n    tag_148:\n        /* \"#utility.yul\":4860:4865   */\n      0x00\n        /* \"#utility.yul\":4885:4966   */\n      tag_218\n        /* \"#utility.yul\":4901:4965   */\n      tag_219\n        /* \"#utility.yul\":4958:4964   */\n      dup5\n        /* \"#utility.yul\":4901:4965   */\n      tag_147\n      jump\t// in\n    tag_219:\n        /* \"#utility.yul\":4885:4966   */\n      tag_137\n      jump\t// in\n    tag_218:\n        /* \"#utility.yul\":4876:4966   */\n      swap1\n      pop\n        /* \"#utility.yul\":4986:4991   */\n      dup1\n        /* \"#utility.yul\":5015:5021   */\n      dup4\n        /* \"#utility.yul\":5008:5013   */\n      dup3\n        /* \"#utility.yul\":5001:5022   */\n      mstore\n        /* \"#utility.yul\":5049:5053   */\n      0x20\n        /* \"#utility.yul\":5042:5047   */\n      dup3\n        /* \"#utility.yul\":5038:5054   */\n      add\n        /* \"#utility.yul\":5031:5054   */\n      swap1\n      pop\n        /* \"#utility.yul\":5102:5106   */\n      0x20\n        /* \"#utility.yul\":5094:5100   */\n      dup5\n        /* \"#utility.yul\":5090:5107   */\n      mul\n        /* \"#utility.yul\":5082:5088   */\n      dup4\n        /* \"#utility.yul\":5078:5108   */\n      add\n        /* \"#utility.yul\":5131:5134   */\n      dup6\n        /* \"#utility.yul\":5123:5129   */\n      dup2\n        /* \"#utility.yul\":5120:5135   */\n      gt\n        /* \"#utility.yul\":5117:5239   */\n      iszero\n      tag_220\n      jumpi\n        /* \"#utility.yul\":5150:5229   */\n      tag_221\n      tag_144\n      jump\t// in\n    tag_221:\n        /* \"#utility.yul\":5117:5239   */\n    tag_220:\n        /* \"#utility.yul\":5265:5271   */\n      dup4\n        /* \"#utility.yul\":5248:5468   */\n    tag_222:\n        /* \"#utility.yul\":5282:5288   */\n      dup2\n        /* \"#utility.yul\":5277:5280   */\n      dup2\n        /* \"#utility.yul\":5274:5289   */\n      lt\n        /* \"#utility.yul\":5248:5468   */\n      iszero\n      tag_224\n      jumpi\n        /* \"#utility.yul\":5357:5360   */\n      dup1\n        /* \"#utility.yul\":5386:5423   */\n      tag_225\n        /* \"#utility.yul\":5419:5422   */\n      dup9\n        /* \"#utility.yul\":5407:5417   */\n      dup3\n        /* \"#utility.yul\":5386:5423   */\n      tag_140\n      jump\t// in\n    tag_225:\n        /* \"#utility.yul\":5381:5384   */\n      dup5\n        /* \"#utility.yul\":5374:5424   */\n      mstore\n        /* \"#utility.yul\":5453:5457   */\n      0x20\n        /* \"#utility.yul\":5448:5451   */\n      dup5\n        /* \"#utility.yul\":5444:5458   */\n      add\n        /* \"#utility.yul\":5437:5458   */\n      swap4\n      pop\n        /* \"#utility.yul\":5324:5468   */\n      pop\n        /* \"#utility.yul\":5308:5312   */\n      0x20\n        /* \"#utility.yul\":5303:5306   */\n      dup2\n        /* \"#utility.yul\":5299:5313   */\n      add\n        /* \"#utility.yul\":5292:5313   */\n      swap1\n      pop\n        /* \"#utility.yul\":5248:5468   */\n      jump(tag_222)\n    tag_224:\n        /* \"#utility.yul\":5252:5273   */\n      pop\n        /* \"#utility.yul\":4866:5474   */\n      pop\n      pop\n        /* \"#utility.yul\":4764:5474   */\n      swap4\n      swap3\n      pop\n      pop\n      pop\n      jump\t// out\n        /* \"#utility.yul\":5497:5867   */\n    tag_149:\n        /* \"#utility.yul\":5568:5573   */\n      0x00\n        /* \"#utility.yul\":5617:5620   */\n      dup3\n        /* \"#utility.yul\":5610:5614   */\n      0x1f\n        /* \"#utility.yul\":5602:5608   */\n      dup4\n        /* \"#utility.yul\":5598:5615   */\n      add\n        /* \"#utility.yul\":5594:5621   */\n      slt\n        /* \"#utility.yul\":5584:5706   */\n      tag_227\n      jumpi\n        /* \"#utility.yul\":5625:5704   */\n      tag_228\n      tag_142\n      jump\t// in\n    tag_228:\n        /* \"#utility.yul\":5584:5706   */\n    tag_227:\n        /* \"#utility.yul\":5742:5748   */\n      dup2\n        /* \"#utility.yul\":5729:5749   */\n      calldataload\n        /* \"#utility.yul\":5767:5861   */\n      tag_229\n        /* \"#utility.yul\":5857:5860   */\n      dup5\n        /* \"#utility.yul\":5849:5855   */\n      dup3\n        /* \"#utility.yul\":5842:5846   */\n      0x20\n        /* \"#utility.yul\":5834:5840   */\n      dup7\n        /* \"#utility.yul\":5830:5847   */\n      add\n        /* \"#utility.yul\":5767:5861   */\n      tag_148\n      jump\t// in\n    tag_229:\n        /* \"#utility.yul\":5758:5861   */\n      swap2\n      pop\n        /* \"#utility.yul\":5574:5867   */\n      pop\n        /* \"#utility.yul\":5497:5867   */\n      swap3\n      swap2\n      pop\n      pop\n      jump\t// out\n        /* \"#utility.yul\":5899:8093   */\n    tag_150:\n        /* \"#utility.yul\":5969:5974   */\n      0x00\n        /* \"#utility.yul\":6013:6019   */\n      0x0160\n        /* \"#utility.yul\":6001:6010   */\n      dup3\n        /* \"#utility.yul\":5996:5999   */\n      dup5\n        /* \"#utility.yul\":5992:6011   */\n      sub\n        /* \"#utility.yul\":5988:6020   */\n      slt\n        /* \"#utility.yul\":5985:6104   */\n      iszero\n      tag_231\n      jumpi\n        /* \"#utility.yul\":6023:6102   */\n      tag_232\n      tag_133\n      jump\t// in\n    tag_232:\n        /* \"#utility.yul\":5985:6104   */\n    tag_231:\n        /* \"#utility.yul\":6122:6145   */\n      tag_233\n        /* \"#utility.yul\":6138:6144   */\n      0x0100\n        /* \"#utility.yul\":6122:6145   */\n      tag_137\n      jump\t// in\n    tag_233:\n        /* \"#utility.yul\":6113:6145   */\n      swap1\n      pop\n        /* \"#utility.yul\":6202:6203   */\n      0x00\n        /* \"#utility.yul\":6242:6311   */\n      tag_234\n        /* \"#utility.yul\":6307:6310   */\n      dup5\n        /* \"#utility.yul\":6298:6304   */\n      dup3\n        /* \"#utility.yul\":6287:6296   */\n      dup6\n        /* \"#utility.yul\":6283:6305   */\n      add\n        /* \"#utility.yul\":6242:6311   */\n      tag_141\n      jump\t// in\n    tag_234:\n        /* \"#utility.yul\":6235:6239   */\n      0x00\n        /* \"#utility.yul\":6228:6233   */\n      dup4\n        /* \"#utility.yul\":6224:6240   */\n      add\n        /* \"#utility.yul\":6217:6312   */\n      mstore\n        /* \"#utility.yul\":6155:6323   */\n      pop\n        /* \"#utility.yul\":6409:6411   */\n      0x40\n        /* \"#utility.yul\":6398:6407   */\n      dup3\n        /* \"#utility.yul\":6394:6412   */\n      add\n        /* \"#utility.yul\":6381:6413   */\n      calldataload\n        /* \"#utility.yul\":6440:6458   */\n      0xffffffffffffffff\n        /* \"#utility.yul\":6432:6438   */\n      dup2\n        /* \"#utility.yul\":6429:6459   */\n      gt\n        /* \"#utility.yul\":6426:6543   */\n      iszero\n      tag_235\n      jumpi\n        /* \"#utility.yul\":6462:6541   */\n      tag_236\n      tag_138\n      jump\t// in\n    tag_236:\n        /* \"#utility.yul\":6426:6543   */\n    tag_235:\n        /* \"#utility.yul\":6582:6676   */\n      tag_237\n        /* \"#utility.yul\":6672:6675   */\n      dup5\n        /* \"#utility.yul\":6663:6669   */\n      dup3\n        /* \"#utility.yul\":6652:6661   */\n      dup6\n        /* \"#utility.yul\":6648:6670   */\n      add\n        /* \"#utility.yul\":6582:6676   */\n      tag_146\n      jump\t// in\n    tag_237:\n        /* \"#utility.yul\":6575:6579   */\n      0x20\n        /* \"#utility.yul\":6568:6573   */\n      dup4\n        /* \"#utility.yul\":6564:6580   */\n      add\n        /* \"#utility.yul\":6557:6677   */\n      mstore\n        /* \"#utility.yul\":6333:6688   */\n      pop\n        /* \"#utility.yul\":6774:6776   */\n      0x60\n        /* \"#utility.yul\":6763:6772   */\n      dup3\n        /* \"#utility.yul\":6759:6777   */\n      add\n        /* \"#utility.yul\":6746:6778   */\n      calldataload\n        /* \"#utility.yul\":6805:6823   */\n      0xffffffffffffffff\n        /* \"#utility.yul\":6797:6803   */\n      dup2\n        /* \"#utility.yul\":6794:6824   */\n      gt\n        /* \"#utility.yul\":6791:6908   */\n      iszero\n      tag_238\n      jumpi\n        /* \"#utility.yul\":6827:6906   */\n      tag_239\n      tag_138\n      jump\t// in\n    tag_239:\n        /* \"#utility.yul\":6791:6908   */\n    tag_238:\n        /* \"#utility.yul\":6947:7041   */\n      tag_240\n        /* \"#utility.yul\":7037:7040   */\n      dup5\n        /* \"#utility.yul\":7028:7034   */\n      dup3\n        /* \"#utility.yul\":7017:7026   */\n      dup6\n        /* \"#utility.yul\":7013:7035   */\n      add\n        /* \"#utility.yul\":6947:7041   */\n      tag_146\n      jump\t// in\n    tag_240:\n        /* \"#utility.yul\":6940:6944   */\n      0x40\n        /* \"#utility.yul\":6933:6938   */\n      dup4\n        /* \"#utility.yul\":6929:6945   */\n      add\n        /* \"#utility.yul\":6922:7042   */\n      mstore\n        /* \"#utility.yul\":6698:7053   */\n      pop\n        /* \"#utility.yul\":7112:7115   */\n      0x80\n        /* \"#utility.yul\":7154:7223   */\n      tag_241\n        /* \"#utility.yul\":7219:7222   */\n      dup5\n        /* \"#utility.yul\":7210:7216   */\n      dup3\n        /* \"#utility.yul\":7199:7208   */\n      dup6\n        /* \"#utility.yul\":7195:7217   */\n      add\n        /* \"#utility.yul\":7154:7223   */\n      tag_141\n      jump\t// in\n    tag_241:\n        /* \"#utility.yul\":7147:7151   */\n      0x60\n        /* \"#utility.yul\":7140:7145   */\n      dup4\n        /* \"#utility.yul\":7136:7152   */\n      add\n        /* \"#utility.yul\":7129:7224   */\n      mstore\n        /* \"#utility.yul\":7063:7235   */\n      pop\n        /* \"#utility.yul\":7294:7297   */\n      0xc0\n        /* \"#utility.yul\":7336:7405   */\n      tag_242\n        /* \"#utility.yul\":7401:7404   */\n      dup5\n        /* \"#utility.yul\":7392:7398   */\n      dup3\n        /* \"#utility.yul\":7381:7390   */\n      dup6\n        /* \"#utility.yul\":7377:7399   */\n      add\n        /* \"#utility.yul\":7336:7405   */\n      tag_141\n      jump\t// in\n    tag_242:\n        /* \"#utility.yul\":7329:7333   */\n      0x80\n        /* \"#utility.yul\":7322:7327   */\n      dup4\n        /* \"#utility.yul\":7318:7334   */\n      add\n        /* \"#utility.yul\":7311:7406   */\n      mstore\n        /* \"#utility.yul\":7245:7417   */\n      pop\n        /* \"#utility.yul\":7476:7479   */\n      0x0100\n        /* \"#utility.yul\":7518:7567   */\n      tag_243\n        /* \"#utility.yul\":7563:7566   */\n      dup5\n        /* \"#utility.yul\":7554:7560   */\n      dup3\n        /* \"#utility.yul\":7543:7552   */\n      dup6\n        /* \"#utility.yul\":7539:7561   */\n      add\n        /* \"#utility.yul\":7518:7567   */\n      tag_140\n      jump\t// in\n    tag_243:\n        /* \"#utility.yul\":7511:7515   */\n      0xa0\n        /* \"#utility.yul\":7504:7509   */\n      dup4\n        /* \"#utility.yul\":7500:7516   */\n      add\n        /* \"#utility.yul\":7493:7568   */\n      mstore\n        /* \"#utility.yul\":7427:7579   */\n      pop\n        /* \"#utility.yul\":7638:7641   */\n      0x0120\n        /* \"#utility.yul\":7680:7729   */\n      tag_244\n        /* \"#utility.yul\":7725:7728   */\n      dup5\n        /* \"#utility.yul\":7716:7722   */\n      dup3\n        /* \"#utility.yul\":7705:7714   */\n      dup6\n        /* \"#utility.yul\":7701:7723   */\n      add\n        /* \"#utility.yul\":7680:7729   */\n      tag_140\n      jump\t// in\n    tag_244:\n        /* \"#utility.yul\":7673:7677   */\n      0xc0\n        /* \"#utility.yul\":7666:7671   */\n      dup4\n        /* \"#utility.yul\":7662:7678   */\n      add\n        /* \"#utility.yul\":7655:7730   */\n      mstore\n        /* \"#utility.yul\":7589:7741   */\n      pop\n        /* \"#utility.yul\":7826:7829   */\n      0x0140\n        /* \"#utility.yul\":7815:7824   */\n      dup3\n        /* \"#utility.yul\":7811:7830   */\n      add\n        /* \"#utility.yul\":7798:7831   */\n      calldataload\n        /* \"#utility.yul\":7858:7876   */\n      0xffffffffffffffff\n        /* \"#utility.yul\":7850:7856   */\n      dup2\n        /* \"#utility.yul\":7847:7877   */\n      gt\n        /* \"#utility.yul\":7844:7961   */\n      iszero\n      tag_245\n      jumpi\n        /* \"#utility.yul\":7880:7959   */\n      tag_246\n      tag_138\n      jump\t// in\n    tag_246:\n        /* \"#utility.yul\":7844:7961   */\n    tag_245:\n        /* \"#utility.yul\":8000:8074   */\n      tag_247\n        /* \"#utility.yul\":8070:8073   */\n      dup5\n        /* \"#utility.yul\":8061:8067   */\n      dup3\n        /* \"#utility.yul\":8050:8059   */\n      dup6\n        /* \"#utility.yul\":8046:8068   */\n      add\n        /* \"#utility.yul\":8000:8074   */\n      tag_149\n      jump\t// in\n    tag_247:\n        /* \"#utility.yul\":7993:7997   */\n      0xe0\n        /* \"#utility.yul\":7986:7991   */\n      dup4\n        /* \"#utility.yul\":7982:7998   */\n      add\n        /* \"#utility.yul\":7975:8075   */\n      mstore\n        /* \"#utility.yul\":7751:8086   */\n      pop\n        /* \"#utility.yul\":5899:8093   */\n      swap3\n      swap2\n      pop\n      pop\n      jump\t// out\n        /* \"#utility.yul\":8099:9066   */\n    tag_22:\n        /* \"#utility.yul\":8206:8212   */\n      0x00\n        /* \"#utility.yul\":8214:8220   */\n      dup1\n        /* \"#utility.yul\":8222:8228   */\n      0x00\n        /* \"#utility.yul\":8230:8236   */\n      dup1\n        /* \"#utility.yul\":8279:8282   */\n      0x80\n        /* \"#utility.yul\":8267:8276   */\n      dup6\n        /* \"#utility.yul\":8258:8265   */\n      dup8\n        /* \"#utility.yul\":8254:8277   */\n      sub\n        /* \"#utility.yul\":8250:8283   */\n      slt\n        /* \"#utility.yul\":8247:8367   */\n      iszero\n      tag_249\n      jumpi\n        /* \"#utility.yul\":8286:8365   */\n      tag_250\n      tag_131\n      jump\t// in\n    tag_250:\n        /* \"#utility.yul\":8247:8367   */\n    tag_249:\n        /* \"#utility.yul\":8434:8435   */\n      0x00\n        /* \"#utility.yul\":8423:8432   */\n      dup6\n        /* \"#utility.yul\":8419:8436   */\n      add\n        /* \"#utility.yul\":8406:8437   */\n      calldataload\n        /* \"#utility.yul\":8464:8482   */\n      0xffffffffffffffff\n        /* \"#utility.yul\":8456:8462   */\n      dup2\n        /* \"#utility.yul\":8453:8483   */\n      gt\n        /* \"#utility.yul\":8450:8567   */\n      iszero\n      tag_251\n      jumpi\n        /* \"#utility.yul\":8486:8565   */\n      tag_252\n      tag_132\n      jump\t// in\n    tag_252:\n        /* \"#utility.yul\":8450:8567   */\n    tag_251:\n        /* \"#utility.yul\":8591:8665   */\n      tag_253\n        /* \"#utility.yul\":8657:8664   */\n      dup8\n        /* \"#utility.yul\":8648:8654   */\n      dup3\n        /* \"#utility.yul\":8637:8646   */\n      dup9\n        /* \"#utility.yul\":8633:8655   */\n      add\n        /* \"#utility.yul\":8591:8665   */\n      tag_150\n      jump\t// in\n    tag_253:\n        /* \"#utility.yul\":8581:8665   */\n      swap5\n      pop\n        /* \"#utility.yul\":8377:8675   */\n      pop\n        /* \"#utility.yul\":8714:8716   */\n      0x20\n        /* \"#utility.yul\":8740:8793   */\n      tag_254\n        /* \"#utility.yul\":8785:8792   */\n      dup8\n        /* \"#utility.yul\":8776:8782   */\n      dup3\n        /* \"#utility.yul\":8765:8774   */\n      dup9\n        /* \"#utility.yul\":8761:8783   */\n      add\n        /* \"#utility.yul\":8740:8793   */\n      tag_140\n      jump\t// in\n    tag_254:\n        /* \"#utility.yul\":8730:8793   */\n      swap4\n      pop\n        /* \"#utility.yul\":8685:8803   */\n      pop\n        /* \"#utility.yul\":8842:8844   */\n      0x40\n        /* \"#utility.yul\":8868:8921   */\n      tag_255\n        /* \"#utility.yul\":8913:8920   */\n      dup8\n        /* \"#utility.yul\":8904:8910   */\n      dup3\n        /* \"#utility.yul\":8893:8902   */\n      dup9\n        /* \"#utility.yul\":8889:8911   */\n      add\n        /* \"#utility.yul\":8868:8921   */\n      tag_140\n      jump\t// in\n    tag_255:\n        /* \"#utility.yul\":8858:8921   */\n      swap3\n      pop\n        /* \"#utility.yul\":8813:8931   */\n      pop\n        /* \"#utility.yul\":8970:8972   */\n      0x60\n        /* \"#utility.yul\":8996:9049   */\n      tag_256\n        /* \"#utility.yul\":9041:9048   */\n      dup8\n        /* \"#utility.yul\":9032:9038   */\n      dup3\n        /* \"#utility.yul\":9021:9030   */\n      dup9\n        /* \"#utility.yul\":9017:9039   */\n      add\n        /* \"#utility.yul\":8996:9049   */\n      tag_140\n      jump\t// in\n    tag_256:\n        /* \"#utility.yul\":8986:9049   */\n      swap2\n      pop\n        /* \"#utility.yul\":8941:9059   */\n      pop\n        /* \"#utility.yul\":8099:9066   */\n      swap3\n      swap6\n      swap2\n      swap5\n      pop\n      swap3\n      pop\n      jump\t// out\n        /* \"#utility.yul\":9072:9627   */\n    tag_30:\n        /* \"#utility.yul\":9180:9186   */\n      0x00\n        /* \"#utility.yul\":9188:9194   */\n      dup1\n        /* \"#utility.yul\":9237:9240   */\n      0x80\n        /* \"#utility.yul\":9225:9234   */\n      dup4\n        /* \"#utility.yul\":9216:9223   */\n      dup6\n        /* \"#utility.yul\":9212:9235   */\n      sub\n        /* \"#utility.yul\":9208:9241   */\n      slt\n        /* \"#utility.yul\":9205:9325   */\n      iszero\n      tag_258\n      jumpi\n        /* \"#utility.yul\":9244:9323   */\n      tag_259\n      tag_131\n      jump\t// in\n    tag_259:\n        /* \"#utility.yul\":9205:9325   */\n    tag_258:\n        /* \"#utility.yul\":9364:9365   */\n      0x00\n        /* \"#utility.yul\":9389:9462   */\n      tag_260\n        /* \"#utility.yul\":9454:9461   */\n      dup6\n        /* \"#utility.yul\":9445:9451   */\n      dup3\n        /* \"#utility.yul\":9434:9443   */\n      dup7\n        /* \"#utility.yul\":9430:9452   */\n      add\n        /* \"#utility.yul\":9389:9462   */\n      tag_141\n      jump\t// in\n    tag_260:\n        /* \"#utility.yul\":9379:9462   */\n      swap3\n      pop\n        /* \"#utility.yul\":9335:9472   */\n      pop\n        /* \"#utility.yul\":9511:9513   */\n      0x40\n        /* \"#utility.yul\":9537:9610   */\n      tag_261\n        /* \"#utility.yul\":9602:9609   */\n      dup6\n        /* \"#utility.yul\":9593:9599   */\n      dup3\n        /* \"#utility.yul\":9582:9591   */\n      dup7\n        /* \"#utility.yul\":9578:9600   */\n      add\n        /* \"#utility.yul\":9537:9610   */\n      tag_141\n      jump\t// in\n    tag_261:\n        /* \"#utility.yul\":9527:9610   */\n      swap2\n      pop\n        /* \"#utility.yul\":9482:9620   */\n      pop\n        /* \"#utility.yul\":9072:9627   */\n      swap3\n      pop\n      swap3\n      swap1\n      pop\n      jump\t// out\n        /* \"#utility.yul\":9633:9741   */\n    tag_151:\n        /* \"#utility.yul\":9710:9734   */\n      tag_263\n        /* \"#utility.yul\":9728:9733   */\n      dup2\n        /* \"#utility.yul\":9710:9734   */\n      tag_128\n      jump\t// in\n    tag_263:\n        /* \"#utility.yul\":9705:9708   */\n      dup3\n        /* \"#utility.yul\":9698:9735   */\n      mstore\n        /* \"#utility.yul\":9633:9741   */\n      pop\n      pop\n      jump\t// out\n        /* \"#utility.yul\":9795:10286   */\n    tag_152:\n        /* \"#utility.yul\":9932:9936   */\n      0x40\n        /* \"#utility.yul\":9927:9930   */\n      dup3\n        /* \"#utility.yul\":9923:9937   */\n      add\n        /* \"#utility.yul\":10016:10020   */\n      0x00\n        /* \"#utility.yul\":10009:10014   */\n      dup3\n        /* \"#utility.yul\":10005:10021   */\n      add\n        /* \"#utility.yul\":9999:10022   */\n      mload\n        /* \"#utility.yul\":10035:10098   */\n      tag_265\n        /* \"#utility.yul\":10092:10096   */\n      0x00\n        /* \"#utility.yul\":10087:10090   */\n      dup6\n        /* \"#utility.yul\":10083:10097   */\n      add\n        /* \"#utility.yul\":10069:10081   */\n      dup3\n        /* \"#utility.yul\":10035:10098   */\n      tag_151\n      jump\t// in\n    tag_265:\n        /* \"#utility.yul\":9947:10108   */\n      pop\n        /* \"#utility.yul\":10187:10191   */\n      0x20\n        /* \"#utility.yul\":10180:10185   */\n      dup3\n        /* \"#utility.yul\":10176:10192   */\n      add\n        /* \"#utility.yul\":10170:10193   */\n      mload\n        /* \"#utility.yul\":10206:10269   */\n      tag_266\n        /* \"#utility.yul\":10263:10267   */\n      0x20\n        /* \"#utility.yul\":10258:10261   */\n      dup6\n        /* \"#utility.yul\":10254:10268   */\n      add\n        /* \"#utility.yul\":10240:10252   */\n      dup3\n        /* \"#utility.yul\":10206:10269   */\n      tag_151\n      jump\t// in\n    tag_266:\n        /* \"#utility.yul\":10118:10279   */\n      pop\n        /* \"#utility.yul\":9901:10286   */\n      pop\n        /* \"#utility.yul\":9795:10286   */\n      pop\n      pop\n      jump\t// out\n        /* \"#utility.yul\":10292:10594   */\n    tag_33:\n        /* \"#utility.yul\":10425:10429   */\n      0x00\n        /* \"#utility.yul\":10463:10465   */\n      0x40\n        /* \"#utility.yul\":10452:10461   */\n      dup3\n        /* \"#utility.yul\":10448:10466   */\n      add\n        /* \"#utility.yul\":10440:10466   */\n      swap1\n      pop\n        /* \"#utility.yul\":10476:10587   */\n      tag_268\n        /* \"#utility.yul\":10584:10585   */\n      0x00\n        /* \"#utility.yul\":10573:10582   */\n      dup4\n        /* \"#utility.yul\":10569:10586   */\n      add\n        /* \"#utility.yul\":10560:10566   */\n      dup5\n        /* \"#utility.yul\":10476:10587   */\n      tag_152\n      jump\t// in\n    tag_268:\n        /* \"#utility.yul\":10292:10594   */\n      swap3\n      swap2\n      pop\n      pop\n      jump\t// out\n        /* \"#utility.yul\":10600:11114   */\n    tag_39:\n        /* \"#utility.yul\":10688:10694   */\n      0x00\n        /* \"#utility.yul\":10696:10702   */\n      dup1\n        /* \"#utility.yul\":10745:10747   */\n      0x60\n        /* \"#utility.yul\":10733:10742   */\n      dup4\n        /* \"#utility.yul\":10724:10731   */\n      dup6\n        /* \"#utility.yul\":10720:10743   */\n      sub\n        /* \"#utility.yul\":10716:10748   */\n      slt\n        /* \"#utility.yul\":10713:10832   */\n      iszero\n      tag_270\n      jumpi\n        /* \"#utility.yul\":10751:10830   */\n      tag_271\n      tag_131\n      jump\t// in\n    tag_271:\n        /* \"#utility.yul\":10713:10832   */\n    tag_270:\n        /* \"#utility.yul\":10871:10872   */\n      0x00\n        /* \"#utility.yul\":10896:10969   */\n      tag_272\n        /* \"#utility.yul\":10961:10968   */\n      dup6\n        /* \"#utility.yul\":10952:10958   */\n      dup3\n        /* \"#utility.yul\":10941:10950   */\n      dup7\n        /* \"#utility.yul\":10937:10959   */\n      add\n        /* \"#utility.yul\":10896:10969   */\n      tag_141\n      jump\t// in\n    tag_272:\n        /* \"#utility.yul\":10886:10969   */\n      swap3\n      pop\n        /* \"#utility.yul\":10842:10979   */\n      pop\n        /* \"#utility.yul\":11018:11020   */\n      0x40\n        /* \"#utility.yul\":11044:11097   */\n      tag_273\n        /* \"#utility.yul\":11089:11096   */\n      dup6\n        /* \"#utility.yul\":11080:11086   */\n      dup3\n        /* \"#utility.yul\":11069:11078   */\n      dup7\n        /* \"#utility.yul\":11065:11087   */\n      add\n        /* \"#utility.yul\":11044:11097   */\n      tag_140\n      jump\t// in\n    tag_273:\n        /* \"#utility.yul\":11034:11097   */\n      swap2\n      pop\n        /* \"#utility.yul\":10989:11107   */\n      pop\n        /* \"#utility.yul\":10600:11114   */\n      swap3\n      pop\n      swap3\n      swap1\n      pop\n      jump\t// out\n        /* \"#utility.yul\":11120:11594   */\n    tag_47:\n        /* \"#utility.yul\":11188:11194   */\n      0x00\n        /* \"#utility.yul\":11196:11202   */\n      dup1\n        /* \"#utility.yul\":11245:11247   */\n      0x40\n        /* \"#utility.yul\":11233:11242   */\n      dup4\n        /* \"#utility.yul\":11224:11231   */\n      dup6\n        /* \"#utility.yul\":11220:11243   */\n      sub\n        /* \"#utility.yul\":11216:11248   */\n      slt\n        /* \"#utility.yul\":11213:11332   */\n      iszero\n      tag_275\n      jumpi\n        /* \"#utility.yul\":11251:11330   */\n      tag_276\n      tag_131\n      jump\t// in\n    tag_276:\n        /* \"#utility.yul\":11213:11332   */\n    tag_275:\n        /* \"#utility.yul\":11371:11372   */\n      0x00\n        /* \"#utility.yul\":11396:11449   */\n      tag_277\n        /* \"#utility.yul\":11441:11448   */\n      dup6\n        /* \"#utility.yul\":11432:11438   */\n      dup3\n        /* \"#utility.yul\":11421:11430   */\n      dup7\n        /* \"#utility.yul\":11417:11439   */\n      add\n        /* \"#utility.yul\":11396:11449   */\n      tag_140\n      jump\t// in\n    tag_277:\n        /* \"#utility.yul\":11386:11449   */\n      swap3\n      pop\n        /* \"#utility.yul\":11342:11459   */\n      pop\n        /* \"#utility.yul\":11498:11500   */\n      0x20\n        /* \"#utility.yul\":11524:11577   */\n      tag_278\n        /* \"#utility.yul\":11569:11576   */\n      dup6\n        /* \"#utility.yul\":11560:11566   */\n      dup3\n        /* \"#utility.yul\":11549:11558   */\n      dup7\n        /* \"#utility.yul\":11545:11567   */\n      add\n        /* \"#utility.yul\":11524:11577   */\n      tag_140\n      jump\t// in\n    tag_278:\n        /* \"#utility.yul\":11514:11577   */\n      swap2\n      pop\n        /* \"#utility.yul\":11469:11587   */\n      pop\n        /* \"#utility.yul\":11120:11594   */\n      swap3\n      pop\n      swap3\n      swap1\n      pop\n      jump\t// out\n        /* \"#utility.yul\":11600:11769   */\n    tag_153:\n        /* \"#utility.yul\":11684:11695   */\n      0x00\n        /* \"#utility.yul\":11718:11724   */\n      dup3\n        /* \"#utility.yul\":11713:11716   */\n      dup3\n        /* \"#utility.yul\":11706:11725   */\n      mstore\n        /* \"#utility.yul\":11758:11762   */\n      0x20\n        /* \"#utility.yul\":11753:11756   */\n      dup3\n        /* \"#utility.yul\":11749:11763   */\n      add\n        /* \"#utility.yul\":11734:11763   */\n      swap1\n      pop\n        /* \"#utility.yul\":11600:11769   */\n      swap3\n      swap2\n      pop\n      pop\n      jump\t// out\n        /* \"#utility.yul\":11775:11937   */\n    tag_154:\n        /* \"#utility.yul\":11915:11929   */\n      0x3131313131313131313131310000000000000000000000000000000000000000\n        /* \"#utility.yul\":11911:11912   */\n      0x00\n        /* \"#utility.yul\":11903:11909   */\n      dup3\n        /* \"#utility.yul\":11899:11913   */\n      add\n        /* \"#utility.yul\":11892:11930   */\n      mstore\n        /* \"#utility.yul\":11775:11937   */\n      pop\n      jump\t// out\n        /* \"#utility.yul\":11943:12309   */\n    tag_155:\n        /* \"#utility.yul\":12085:12088   */\n      0x00\n        /* \"#utility.yul\":12106:12173   */\n      tag_282\n        /* \"#utility.yul\":12170:12172   */\n      0x0c\n        /* \"#utility.yul\":12165:12168   */\n      dup4\n        /* \"#utility.yul\":12106:12173   */\n      tag_153\n      jump\t// in\n    tag_282:\n        /* \"#utility.yul\":12099:12173   */\n      swap2\n      pop\n        /* \"#utility.yul\":12182:12275   */\n      tag_283\n        /* \"#utility.yul\":12271:12274   */\n      dup3\n        /* \"#utility.yul\":12182:12275   */\n      tag_154\n      jump\t// in\n    tag_283:\n        /* \"#utility.yul\":12300:12302   */\n      0x20\n        /* \"#utility.yul\":12295:12298   */\n      dup3\n        /* \"#utility.yul\":12291:12303   */\n      add\n        /* \"#utility.yul\":12284:12303   */\n      swap1\n      pop\n        /* \"#utility.yul\":11943:12309   */\n      swap2\n      swap1\n      pop\n      jump\t// out\n        /* \"#utility.yul\":12315:12734   */\n    tag_52:\n        /* \"#utility.yul\":12481:12485   */\n      0x00\n        /* \"#utility.yul\":12519:12521   */\n      0x20\n        /* \"#utility.yul\":12508:12517   */\n      dup3\n        /* \"#utility.yul\":12504:12522   */\n      add\n        /* \"#utility.yul\":12496:12522   */\n      swap1\n      pop\n        /* \"#utility.yul\":12568:12577   */\n      dup2\n        /* \"#utility.yul\":12562:12566   */\n      dup2\n        /* \"#utility.yul\":12558:12578   */\n      sub\n        /* \"#utility.yul\":12554:12555   */\n      0x00\n        /* \"#utility.yul\":12543:12552   */\n      dup4\n        /* \"#utility.yul\":12539:12556   */\n      add\n        /* \"#utility.yul\":12532:12579   */\n      mstore\n        /* \"#utility.yul\":12596:12727   */\n      tag_285\n        /* \"#utility.yul\":12722:12726   */\n      dup2\n        /* \"#utility.yul\":12596:12727   */\n      tag_155\n      jump\t// in\n    tag_285:\n        /* \"#utility.yul\":12588:12727   */\n      swap1\n      pop\n        /* \"#utility.yul\":12315:12734   */\n      swap2\n      swap1\n      pop\n      jump\t// out\n        /* \"#utility.yul\":12740:12920   */\n    tag_62:\n        /* \"#utility.yul\":12788:12865   */\n      0x4e487b7100000000000000000000000000000000000000000000000000000000\n        /* \"#utility.yul\":12785:12786   */\n      0x00\n        /* \"#utility.yul\":12778:12866   */\n      mstore\n        /* \"#utility.yul\":12885:12889   */\n      0x32\n        /* \"#utility.yul\":12882:12883   */\n      0x04\n        /* \"#utility.yul\":12875:12890   */\n      mstore\n        /* \"#utility.yul\":12909:12913   */\n      0x24\n        /* \"#utility.yul\":12906:12907   */\n      0x00\n        /* \"#utility.yul\":12899:12914   */\n      revert\n        /* \"#utility.yul\":12926:13106   */\n    tag_156:\n        /* \"#utility.yul\":12974:13051   */\n      0x4e487b7100000000000000000000000000000000000000000000000000000000\n        /* \"#utility.yul\":12971:12972   */\n      0x00\n        /* \"#utility.yul\":12964:13052   */\n      mstore\n        /* \"#utility.yul\":13071:13075   */\n      0x11\n        /* \"#utility.yul\":13068:13069   */\n      0x04\n        /* \"#utility.yul\":13061:13076   */\n      mstore\n        /* \"#utility.yul\":13095:13099   */\n      0x24\n        /* \"#utility.yul\":13092:13093   */\n      0x00\n        /* \"#utility.yul\":13085:13100   */\n      revert\n        /* \"#utility.yul\":13112:13306   */\n    tag_68:\n        /* \"#utility.yul\":13152:13156   */\n      0x00\n        /* \"#utility.yul\":13172:13192   */\n      tag_289\n        /* \"#utility.yul\":13190:13191   */\n      dup3\n        /* \"#utility.yul\":13172:13192   */\n      tag_128\n      jump\t// in\n    tag_289:\n        /* \"#utility.yul\":13167:13192   */\n      swap2\n      pop\n        /* \"#utility.yul\":13206:13226   */\n      tag_290\n        /* \"#utility.yul\":13224:13225   */\n      dup4\n        /* \"#utility.yul\":13206:13226   */\n      tag_128\n      jump\t// in\n    tag_290:\n        /* \"#utility.yul\":13201:13226   */\n      swap3\n      pop\n        /* \"#utility.yul\":13250:13251   */\n      dup3\n        /* \"#utility.yul\":13247:13248   */\n      dup3\n        /* \"#utility.yul\":13243:13252   */\n      sub\n        /* \"#utility.yul\":13235:13252   */\n      swap1\n      pop\n        /* \"#utility.yul\":13274:13275   */\n      dup2\n        /* \"#utility.yul\":13268:13272   */\n      dup2\n        /* \"#utility.yul\":13265:13276   */\n      gt\n        /* \"#utility.yul\":13262:13299   */\n      iszero\n      tag_291\n      jumpi\n        /* \"#utility.yul\":13279:13297   */\n      tag_292\n      tag_156\n      jump\t// in\n    tag_292:\n        /* \"#utility.yul\":13262:13299   */\n    tag_291:\n        /* \"#utility.yul\":13112:13306   */\n      swap3\n      swap2\n      pop\n      pop\n      jump\t// out\n        /* \"#utility.yul\":13312:13486   */\n    tag_157:\n        /* \"#utility.yul\":13452:13478   */\n      0x626e323536207375627472616374696f6e206661696c65640000000000000000\n        /* \"#utility.yul\":13448:13449   */\n      0x00\n        /* \"#utility.yul\":13440:13446   */\n      dup3\n        /* \"#utility.yul\":13436:13450   */\n      add\n        /* \"#utility.yul\":13429:13479   */\n      mstore\n        /* \"#utility.yul\":13312:13486   */\n      pop\n      jump\t// out\n        /* \"#utility.yul\":13492:13858   */\n    tag_158:\n        /* \"#utility.yul\":13634:13637   */\n      0x00\n        /* \"#utility.yul\":13655:13722   */\n      tag_295\n        /* \"#utility.yul\":13719:13721   */\n      0x18\n        /* \"#utility.yul\":13714:13717   */\n      dup4\n        /* \"#utility.yul\":13655:13722   */\n      tag_153\n      jump\t// in\n    tag_295:\n        /* \"#utility.yul\":13648:13722   */\n      swap2\n      pop\n        /* \"#utility.yul\":13731:13824   */\n      tag_296\n        /* \"#utility.yul\":13820:13823   */\n      dup3\n        /* \"#utility.yul\":13731:13824   */\n      tag_157\n      jump\t// in\n    tag_296:\n        /* \"#utility.yul\":13849:13851   */\n      0x20\n        /* \"#utility.yul\":13844:13847   */\n      dup3\n        /* \"#utility.yul\":13840:13852   */\n      add\n        /* \"#utility.yul\":13833:13852   */\n      swap1\n      pop\n        /* \"#utility.yul\":13492:13858   */\n      swap2\n      swap1\n      pop\n      jump\t// out\n        /* \"#utility.yul\":13864:14283   */\n    tag_75:\n        /* \"#utility.yul\":14030:14034   */\n      0x00\n        /* \"#utility.yul\":14068:14070   */\n      0x20\n        /* \"#utility.yul\":14057:14066   */\n      dup3\n        /* \"#utility.yul\":14053:14071   */\n      add\n        /* \"#utility.yul\":14045:14071   */\n      swap1\n      pop\n        /* \"#utility.yul\":14117:14126   */\n      dup2\n        /* \"#utility.yul\":14111:14115   */\n      dup2\n        /* \"#utility.yul\":14107:14127   */\n      sub\n        /* \"#utility.yul\":14103:14104   */\n      0x00\n        /* \"#utility.yul\":14092:14101   */\n      dup4\n        /* \"#utility.yul\":14088:14105   */\n      add\n        /* \"#utility.yul\":14081:14128   */\n      mstore\n        /* \"#utility.yul\":14145:14276   */\n      tag_298\n        /* \"#utility.yul\":14271:14275   */\n      dup2\n        /* \"#utility.yul\":14145:14276   */\n      tag_158\n      jump\t// in\n    tag_298:\n        /* \"#utility.yul\":14137:14276   */\n      swap1\n      pop\n        /* \"#utility.yul\":13864:14283   */\n      swap2\n      swap1\n      pop\n      jump\t// out\n        /* \"#utility.yul\":14289:14512   */\n    tag_159:\n        /* \"#utility.yul\":14429:14463   */\n      0x656c6c6970746963206375727665206d756c7469706c69636174696f6e206661\n        /* \"#utility.yul\":14425:14426   */\n      0x00\n        /* \"#utility.yul\":14417:14423   */\n      dup3\n        /* \"#utility.yul\":14413:14427   */\n      add\n        /* \"#utility.yul\":14406:14464   */\n      mstore\n        /* \"#utility.yul\":14498:14504   */\n      0x696c656400000000000000000000000000000000000000000000000000000000\n        /* \"#utility.yul\":14493:14495   */\n      0x20\n        /* \"#utility.yul\":14485:14491   */\n      dup3\n        /* \"#utility.yul\":14481:14496   */\n      add\n        /* \"#utility.yul\":14474:14505   */\n      mstore\n        /* \"#utility.yul\":14289:14512   */\n      pop\n      jump\t// out\n        /* \"#utility.yul\":14518:14884   */\n    tag_160:\n        /* \"#utility.yul\":14660:14663   */\n      0x00\n        /* \"#utility.yul\":14681:14748   */\n      tag_301\n        /* \"#utility.yul\":14745:14747   */\n      0x24\n        /* \"#utility.yul\":14740:14743   */\n      dup4\n        /* \"#utility.yul\":14681:14748   */\n      tag_153\n      jump\t// in\n    tag_301:\n        /* \"#utility.yul\":14674:14748   */\n      swap2\n      pop\n        /* \"#utility.yul\":14757:14850   */\n      tag_302\n        /* \"#utility.yul\":14846:14849   */\n      dup3\n        /* \"#utility.yul\":14757:14850   */\n      tag_159\n      jump\t// in\n    tag_302:\n        /* \"#utility.yul\":14875:14877   */\n      0x40\n        /* \"#utility.yul\":14870:14873   */\n      dup3\n        /* \"#utility.yul\":14866:14878   */\n      add\n        /* \"#utility.yul\":14859:14878   */\n      swap1\n      pop\n        /* \"#utility.yul\":14518:14884   */\n      swap2\n      swap1\n      pop\n      jump\t// out\n        /* \"#utility.yul\":14890:15309   */\n    tag_93:\n        /* \"#utility.yul\":15056:15060   */\n      0x00\n        /* \"#utility.yul\":15094:15096   */\n      0x20\n        /* \"#utility.yul\":15083:15092   */\n      dup3\n        /* \"#utility.yul\":15079:15097   */\n      add\n        /* \"#utility.yul\":15071:15097   */\n      swap1\n      pop\n        /* \"#utility.yul\":15143:15152   */\n      dup2\n        /* \"#utility.yul\":15137:15141   */\n      dup2\n        /* \"#utility.yul\":15133:15153   */\n      sub\n        /* \"#utility.yul\":15129:15130   */\n      0x00\n        /* \"#utility.yul\":15118:15127   */\n      dup4\n        /* \"#utility.yul\":15114:15131   */\n      add\n        /* \"#utility.yul\":15107:15154   */\n      mstore\n        /* \"#utility.yul\":15171:15302   */\n      tag_304\n        /* \"#utility.yul\":15297:15301   */\n      dup2\n        /* \"#utility.yul\":15171:15302   */\n      tag_160\n      jump\t// in\n    tag_304:\n        /* \"#utility.yul\":15163:15302   */\n      swap1\n      pop\n        /* \"#utility.yul\":14890:15309   */\n      swap2\n      swap1\n      pop\n      jump\t// out\n        /* \"#utility.yul\":15315:15489   */\n    tag_161:\n        /* \"#utility.yul\":15455:15481   */\n      0x536166654d6174683a206d6f64756c6f206279207a65726f0000000000000000\n        /* \"#utility.yul\":15451:15452   */\n      0x00\n        /* \"#utility.yul\":15443:15449   */\n      dup3\n        /* \"#utility.yul\":15439:15453   */\n      add\n        /* \"#utility.yul\":15432:15482   */\n      mstore\n        /* \"#utility.yul\":15315:15489   */\n      pop\n      jump\t// out\n        /* \"#utility.yul\":15495:15861   */\n    tag_162:\n        /* \"#utility.yul\":15637:15640   */\n      0x00\n        /* \"#utility.yul\":15658:15725   */\n      tag_307\n        /* \"#utility.yul\":15722:15724   */\n      0x18\n        /* \"#utility.yul\":15717:15720   */\n      dup4\n        /* \"#utility.yul\":15658:15725   */\n      tag_153\n      jump\t// in\n    tag_307:\n        /* \"#utility.yul\":15651:15725   */\n      swap2\n      pop\n        /* \"#utility.yul\":15734:15827   */\n      tag_308\n        /* \"#utility.yul\":15823:15826   */\n      dup3\n        /* \"#utility.yul\":15734:15827   */\n      tag_161\n      jump\t// in\n    tag_308:\n        /* \"#utility.yul\":15852:15854   */\n      0x20\n        /* \"#utility.yul\":15847:15850   */\n      dup3\n        /* \"#utility.yul\":15843:15855   */\n      add\n        /* \"#utility.yul\":15836:15855   */\n      swap1\n      pop\n        /* \"#utility.yul\":15495:15861   */\n      swap2\n      swap1\n      pop\n      jump\t// out\n        /* \"#utility.yul\":15867:16286   */\n    tag_101:\n        /* \"#utility.yul\":16033:16037   */\n      0x00\n        /* \"#utility.yul\":16071:16073   */\n      0x20\n        /* \"#utility.yul\":16060:16069   */\n      dup3\n        /* \"#utility.yul\":16056:16074   */\n      add\n        /* \"#utility.yul\":16048:16074   */\n      swap1\n      pop\n        /* \"#utility.yul\":16120:16129   */\n      dup2\n        /* \"#utility.yul\":16114:16118   */\n      dup2\n        /* \"#utility.yul\":16110:16130   */\n      sub\n        /* \"#utility.yul\":16106:16107   */\n      0x00\n        /* \"#utility.yul\":16095:16104   */\n      dup4\n        /* \"#utility.yul\":16091:16108   */\n      add\n        /* \"#utility.yul\":16084:16131   */\n      mstore\n        /* \"#utility.yul\":16148:16279   */\n      tag_310\n        /* \"#utility.yul\":16274:16278   */\n      dup2\n        /* \"#utility.yul\":16148:16279   */\n      tag_162\n      jump\t// in\n    tag_310:\n        /* \"#utility.yul\":16140:16279   */\n      swap1\n      pop\n        /* \"#utility.yul\":15867:16286   */\n      swap2\n      swap1\n      pop\n      jump\t// out\n        /* \"#utility.yul\":16292:16451   */\n    tag_163:\n        /* \"#utility.yul\":16432:16443   */\n      0x3f3f3f3f3f3f3f3f3f0000000000000000000000000000000000000000000000\n        /* \"#utility.yul\":16428:16429   */\n      0x00\n        /* \"#utility.yul\":16420:16426   */\n      dup3\n        /* \"#utility.yul\":16416:16430   */\n      add\n        /* \"#utility.yul\":16409:16444   */\n      mstore\n        /* \"#utility.yul\":16292:16451   */\n      pop\n      jump\t// out\n        /* \"#utility.yul\":16457:16822   */\n    tag_164:\n        /* \"#utility.yul\":16599:16602   */\n      0x00\n        /* \"#utility.yul\":16620:16686   */\n      tag_313\n        /* \"#utility.yul\":16684:16685   */\n      0x09\n        /* \"#utility.yul\":16679:16682   */\n      dup4\n        /* \"#utility.yul\":16620:16686   */\n      tag_153\n      jump\t// in\n    tag_313:\n        /* \"#utility.yul\":16613:16686   */\n      swap2\n      pop\n        /* \"#utility.yul\":16695:16788   */\n      tag_314\n        /* \"#utility.yul\":16784:16787   */\n      dup3\n        /* \"#utility.yul\":16695:16788   */\n      tag_163\n      jump\t// in\n    tag_314:\n        /* \"#utility.yul\":16813:16815   */\n      0x20\n        /* \"#utility.yul\":16808:16811   */\n      dup3\n        /* \"#utility.yul\":16804:16816   */\n      add\n        /* \"#utility.yul\":16797:16816   */\n      swap1\n      pop\n        /* \"#utility.yul\":16457:16822   */\n      swap2\n      swap1\n      pop\n      jump\t// out\n        /* \"#utility.yul\":16828:17247   */\n    tag_127:\n        /* \"#utility.yul\":16994:16998   */\n      0x00\n        /* \"#utility.yul\":17032:17034   */\n      0x20\n        /* \"#utility.yul\":17021:17030   */\n      dup3\n        /* \"#utility.yul\":17017:17035   */\n      add\n        /* \"#utility.yul\":17009:17035   */\n      swap1\n      pop\n        /* \"#utility.yul\":17081:17090   */\n      dup2\n        /* \"#utility.yul\":17075:17079   */\n      dup2\n        /* \"#utility.yul\":17071:17091   */\n      sub\n        /* \"#utility.yul\":17067:17068   */\n      0x00\n        /* \"#utility.yul\":17056:17065   */\n      dup4\n        /* \"#utility.yul\":17052:17069   */\n      add\n        /* \"#utility.yul\":17045:17092   */\n      mstore\n        /* \"#utility.yul\":17109:17240   */\n      tag_316\n        /* \"#utility.yul\":17235:17239   */\n      dup2\n        /* \"#utility.yul\":17109:17240   */\n      tag_164\n      jump\t// in\n    tag_316:\n        /* \"#utility.yul\":17101:17240   */\n      swap1\n      pop\n        /* \"#utility.yul\":16828:17247   */\n      swap2\n      swap1\n      pop\n      jump\t// out\n\n    auxdata: 0xa2646970667358221220af97543035b06914d72bce81e862732f36d0e801c0254e67ecb928616da6bd4b64736f6c63430008160033\n}\n",
				"bytecode": {
					"linkReferences": {},
					"object": "608060405234801561000f575f80fd5b5061105c8061001d5f395ff3fe608060405234801561000f575f80fd5b5060043610610091575f3560e01c806396b41bdd1161006457806396b41bdd1461011f578063c11b8ad71461014f578063d42dadde1461016d578063eeeac01e1461019d578063f43f523a146101bb57610091565b806303a507be146100955780634e93d4a2146100b357806358163b92146100d15780637a308a4c14610101575b5f80fd5b61009d6101eb565b6040516100aa91906107f5565b60405180910390f35b6100bb6101f0565b6040516100c891906107f5565b60405180910390f35b6100eb60048036038101906100e69190610bcc565b610214565b6040516100f891906107f5565b60405180910390f35b610109610263565b60405161011691906107f5565b60405180910390f35b61013960048036038101906101349190610c4c565b610268565b6040516101469190610cc6565b60405180910390f35b6101576103ce565b60405161016491906107f5565b60405180910390f35b61018760048036038101906101829190610cdf565b6103f2565b6040516101949190610cc6565b60405180910390f35b6101a5610508565b6040516101b291906107f5565b60405180910390f35b6101d560048036038101906101d09190610d1d565b61052c565b6040516101e291906107f5565b60405180910390f35b600181565b7f0b1fd6eda65bd4e6866a28bccfee143309bfb597378217a2002e5cac8cfe645f81565b5f7fcf34ef537ac33ee1ac626ca1587a0a7e8e51561e5514f8cb36afa1c5102b3bab60405161024290610db5565b60405180910390a161025b855f0151866040015161057f565b949350505050565b600281565b61027061075f565b610278610777565b835f0151815f6004811061028f5761028e610dd3565b5b6020020181815250508360200151816001600481106102b1576102b0610dd3565b5b602002018181525050825f0151816002600481106102d2576102d1610dd3565b5b60200201818152505082602001517f30644e72e131a029b85045b68181585d97816a916871ca8d3c208c16d87cfd4761030b9190610e2d565b8160036004811061031f5761031e610dd3565b5b6020020181815250505f610331610799565b6040816080855f60065f19f191508161037f576040517f08c379a000000000000000000000000000000000000000000000000000000000815260040161037690610eaa565b60405180910390fd5b6040518060400160405280825f6002811061039d5761039c610dd3565b5b60200201518152602001826001600281106103bb576103ba610dd3565b5b6020020151815250935050505092915050565b7f1581953bcf3ce078038fa19d974e26e4757a0e65573d9628ec8939bb77a6fd0481565b6103fa61075f565b6104026107bb565b835f0151815f6003811061041957610418610dd3565b5b60200201818152505083602001518160016003811061043b5761043a610dd3565b5b602002018181525050828160026003811061045957610458610dd3565b5b6020020181815250505f61046b610799565b6040816060855f60075f19f19150816104b9576040517f08c379a00000000000000000000000000000000000000000000000000000000081526004016104b090610f38565b60405180910390fd5b6040518060400160405280825f600281106104d7576104d6610dd3565b5b60200201518152602001826001600281106104f5576104f4610dd3565b5b6020020151815250935050505092915050565b7f30644e72e131a029b85045b68181585d97816a916871ca8d3c208c16d87cfd4781565b5f80820361056f576040517f08c379a000000000000000000000000000000000000000000000000000000000815260040161056690610fa0565b60405180910390fd5b5f82840690508091505092915050565b5f6001825161058e9190610e2d565b9050610598610777565b5f80845f815181106105ad576105ac610dd3565b5b60200260200101519050805f0151835f600481106105ce576105cd610dd3565b5b6020020181815250508060200151836001600481106105f0576105ef610dd3565b5b6020020181815250505f600190505b84811015610684575f86828151811061061b5761061a610dd3565b5b60200260200101519050805f01518560026004811061063d5761063c610dd3565b5b60200201818152505080602001518560036004811061065f5761065e610dd3565b5b6020020181815250506060856080875f60065f19f193505080806001019150506105ff565b507f2012ef02e82e91abf55727cc31c3b6e3375003aa9e879f855db72d9e78822c40835f600481106106b9576106b8610dd3565b5b60200201516040516106cb91906107f5565b60405180910390a17f2012ef02e82e91abf55727cc31c3b6e3375003aa9e879f855db72d9e78822c408360016004811061070857610707610dd3565b5b602002015160405161071a91906107f5565b60405180910390a17fcf34ef537ac33ee1ac626ca1587a0a7e8e51561e5514f8cb36afa1c5102b3bab60405161074f90611008565b60405180910390a1505050505050565b60405180604001604052805f81526020015f81525090565b6040518060800160405280600490602082028036833780820191505090505090565b6040518060400160405280600290602082028036833780820191505090505090565b6040518060600160405280600390602082028036833780820191505090505090565b5f819050919050565b6107ef816107dd565b82525050565b5f6020820190506108085f8301846107e6565b92915050565b5f604051905090565b5f80fd5b5f80fd5b5f80fd5b5f601f19601f8301169050919050565b7f4e487b71000000000000000000000000000000000000000000000000000000005f52604160045260245ffd5b61086982610823565b810181811067ffffffffffffffff8211171561088857610887610833565b5b80604052505050565b5f61089a61080e565b90506108a68282610860565b919050565b5f80fd5b6108b8816107dd565b81146108c2575f80fd5b50565b5f813590506108d3816108af565b92915050565b5f604082840312156108ee576108ed61081f565b5b6108f86040610891565b90505f610907848285016108c5565b5f83015250602061091a848285016108c5565b60208301525092915050565b5f80fd5b5f67ffffffffffffffff82111561094457610943610833565b5b602082029050602081019050919050565b5f80fd5b5f61096b6109668461092a565b610891565b9050808382526020820190506040840283018581111561098e5761098d610955565b5b835b818110156109b757806109a388826108d9565b845260208401935050604081019050610990565b5050509392505050565b5f82601f8301126109d5576109d4610926565b5b81356109e5848260208601610959565b91505092915050565b5f67ffffffffffffffff821115610a0857610a07610833565b5b602082029050602081019050919050565b5f610a2b610a26846109ee565b610891565b90508083825260208201905060208402830185811115610a4e57610a4d610955565b5b835b81811015610a775780610a6388826108c5565b845260208401935050602081019050610a50565b5050509392505050565b5f82601f830112610a9557610a94610926565b5b8135610aa5848260208601610a19565b91505092915050565b5f6101608284031215610ac457610ac361081f565b5b610acf610100610891565b90505f610ade848285016108d9565b5f83015250604082013567ffffffffffffffff811115610b0157610b006108ab565b5b610b0d848285016109c1565b602083015250606082013567ffffffffffffffff811115610b3157610b306108ab565b5b610b3d848285016109c1565b6040830152506080610b51848285016108d9565b60608301525060c0610b65848285016108d9565b608083015250610100610b7a848285016108c5565b60a083015250610120610b8f848285016108c5565b60c08301525061014082013567ffffffffffffffff811115610bb457610bb36108ab565b5b610bc084828501610a81565b60e08301525092915050565b5f805f8060808587031215610be457610be3610817565b5b5f85013567ffffffffffffffff811115610c0157610c0061081b565b5b610c0d87828801610aae565b9450506020610c1e878288016108c5565b9350506040610c2f878288016108c5565b9250506060610c40878288016108c5565b91505092959194509250565b5f8060808385031215610c6257610c61610817565b5b5f610c6f858286016108d9565b9250506040610c80858286016108d9565b9150509250929050565b610c93816107dd565b82525050565b604082015f820151610cad5f850182610c8a565b506020820151610cc06020850182610c8a565b50505050565b5f604082019050610cd95f830184610c99565b92915050565b5f8060608385031215610cf557610cf4610817565b5b5f610d02858286016108d9565b9250506040610d13858286016108c5565b9150509250929050565b5f8060408385031215610d3357610d32610817565b5b5f610d40858286016108c5565b9250506020610d51858286016108c5565b9150509250929050565b5f82825260208201905092915050565b7f31313131313131313131313100000000000000000000000000000000000000005f82015250565b5f610d9f600c83610d5b565b9150610daa82610d6b565b602082019050919050565b5f6020820190508181035f830152610dcc81610d93565b9050919050565b7f4e487b71000000000000000000000000000000000000000000000000000000005f52603260045260245ffd5b7f4e487b71000000000000000000000000000000000000000000000000000000005f52601160045260245ffd5b5f610e37826107dd565b9150610e42836107dd565b9250828203905081811115610e5a57610e59610e00565b5b92915050565b7f626e323536207375627472616374696f6e206661696c656400000000000000005f82015250565b5f610e94601883610d5b565b9150610e9f82610e60565b602082019050919050565b5f6020820190508181035f830152610ec181610e88565b9050919050565b7f656c6c6970746963206375727665206d756c7469706c69636174696f6e2066615f8201527f696c656400000000000000000000000000000000000000000000000000000000602082015250565b5f610f22602483610d5b565b9150610f2d82610ec8565b604082019050919050565b5f6020820190508181035f830152610f4f81610f16565b9050919050565b7f536166654d6174683a206d6f64756c6f206279207a65726f00000000000000005f82015250565b5f610f8a601883610d5b565b9150610f9582610f56565b602082019050919050565b5f6020820190508181035f830152610fb781610f7e565b9050919050565b7f3f3f3f3f3f3f3f3f3f00000000000000000000000000000000000000000000005f82015250565b5f610ff2600983610d5b565b9150610ffd82610fbe565b602082019050919050565b5f6020820190508181035f83015261101f81610fe6565b905091905056fea2646970667358221220af97543035b06914d72bce81e862732f36d0e801c0254e67ecb928616da6bd4b64736f6c63430008160033",
					"opcodes": "PUSH1 0x80 PUSH1 0x40 MSTORE CALLVALUE DUP1 ISZERO PUSH2 0xF JUMPI PUSH0 DUP1 REVERT JUMPDEST POP PUSH2 0x105C DUP1 PUSH2 0x1D PUSH0 CODECOPY PUSH0 RETURN INVALID PUSH1 0x80 PUSH1 0x40 MSTORE CALLVALUE DUP1 ISZERO PUSH2 0xF JUMPI PUSH0 DUP1 REVERT JUMPDEST POP PUSH1 0x4 CALLDATASIZE LT PUSH2 0x91 JUMPI PUSH0 CALLDATALOAD PUSH1 0xE0 SHR DUP1 PUSH4 0x96B41BDD GT PUSH2 0x64 JUMPI DUP1 PUSH4 0x96B41BDD EQ PUSH2 0x11F JUMPI DUP1 PUSH4 0xC11B8AD7 EQ PUSH2 0x14F JUMPI DUP1 PUSH4 0xD42DADDE EQ PUSH2 0x16D JUMPI DUP1 PUSH4 0xEEEAC01E EQ PUSH2 0x19D JUMPI DUP1 PUSH4 0xF43F523A EQ PUSH2 0x1BB JUMPI PUSH2 0x91 JUMP JUMPDEST DUP1 PUSH4 0x3A507BE EQ PUSH2 0x95 JUMPI DUP1 PUSH4 0x4E93D4A2 EQ PUSH2 0xB3 JUMPI DUP1 PUSH4 0x58163B92 EQ PUSH2 0xD1 JUMPI DUP1 PUSH4 0x7A308A4C EQ PUSH2 0x101 JUMPI JUMPDEST PUSH0 DUP1 REVERT JUMPDEST PUSH2 0x9D PUSH2 0x1EB JUMP JUMPDEST PUSH1 0x40 MLOAD PUSH2 0xAA SWAP2 SWAP1 PUSH2 0x7F5 JUMP JUMPDEST PUSH1 0x40 MLOAD DUP1 SWAP2 SUB SWAP1 RETURN JUMPDEST PUSH2 0xBB PUSH2 0x1F0 JUMP JUMPDEST PUSH1 0x40 MLOAD PUSH2 0xC8 SWAP2 SWAP1 PUSH2 0x7F5 JUMP JUMPDEST PUSH1 0x40 MLOAD DUP1 SWAP2 SUB SWAP1 RETURN JUMPDEST PUSH2 0xEB PUSH1 0x4 DUP1 CALLDATASIZE SUB DUP2 ADD SWAP1 PUSH2 0xE6 SWAP2 SWAP1 PUSH2 0xBCC JUMP JUMPDEST PUSH2 0x214 JUMP JUMPDEST PUSH1 0x40 MLOAD PUSH2 0xF8 SWAP2 SWAP1 PUSH2 0x7F5 JUMP JUMPDEST PUSH1 0x40 MLOAD DUP1 SWAP2 SUB SWAP1 RETURN JUMPDEST PUSH2 0x109 PUSH2 0x263 JUMP JUMPDEST PUSH1 0x40 MLOAD PUSH2 0x116 SWAP2 SWAP1 PUSH2 0x7F5 JUMP JUMPDEST PUSH1 0x40 MLOAD DUP1 SWAP2 SUB SWAP1 RETURN JUMPDEST PUSH2 0x139 PUSH1 0x4 DUP1 CALLDATASIZE SUB DUP2 ADD SWAP1 PUSH2 0x134 SWAP2 SWAP1 PUSH2 0xC4C JUMP JUMPDEST PUSH2 0x268 JUMP JUMPDEST PUSH1 0x40 MLOAD PUSH2 0x146 SWAP2 SWAP1 PUSH2 0xCC6 JUMP JUMPDEST PUSH1 0x40 MLOAD DUP1 SWAP2 SUB SWAP1 RETURN JUMPDEST PUSH2 0x157 PUSH2 0x3CE JUMP JUMPDEST PUSH1 0x40 MLOAD PUSH2 0x164 SWAP2 SWAP1 PUSH2 0x7F5 JUMP JUMPDEST PUSH1 0x40 MLOAD DUP1 SWAP2 SUB SWAP1 RETURN JUMPDEST PUSH2 0x187 PUSH1 0x4 DUP1 CALLDATASIZE SUB DUP2 ADD SWAP1 PUSH2 0x182 SWAP2 SWAP1 PUSH2 0xCDF JUMP JUMPDEST PUSH2 0x3F2 JUMP JUMPDEST PUSH1 0x40 MLOAD PUSH2 0x194 SWAP2 SWAP1 PUSH2 0xCC6 JUMP JUMPDEST PUSH1 0x40 MLOAD DUP1 SWAP2 SUB SWAP1 RETURN JUMPDEST PUSH2 0x1A5 PUSH2 0x508 JUMP JUMPDEST PUSH1 0x40 MLOAD PUSH2 0x1B2 SWAP2 SWAP1 PUSH2 0x7F5 JUMP JUMPDEST PUSH1 0x40 MLOAD DUP1 SWAP2 SUB SWAP1 RETURN JUMPDEST PUSH2 0x1D5 PUSH1 0x4 DUP1 CALLDATASIZE SUB DUP2 ADD SWAP1 PUSH2 0x1D0 SWAP2 SWAP1 PUSH2 0xD1D JUMP JUMPDEST PUSH2 0x52C JUMP JUMPDEST PUSH1 0x40 MLOAD PUSH2 0x1E2 SWAP2 SWAP1 PUSH2 0x7F5 JUMP JUMPDEST PUSH1 0x40 MLOAD DUP1 SWAP2 SUB SWAP1 RETURN JUMPDEST PUSH1 0x1 DUP2 JUMP JUMPDEST PUSH32 0xB1FD6EDA65BD4E6866A28BCCFEE143309BFB597378217A2002E5CAC8CFE645F DUP2 JUMP JUMPDEST PUSH0 PUSH32 0xCF34EF537AC33EE1AC626CA1587A0A7E8E51561E5514F8CB36AFA1C5102B3BAB PUSH1 0x40 MLOAD PUSH2 0x242 SWAP1 PUSH2 0xDB5 JUMP JUMPDEST PUSH1 0x40 MLOAD DUP1 SWAP2 SUB SWAP1 LOG1 PUSH2 0x25B DUP6 PUSH0 ADD MLOAD DUP7 PUSH1 0x40 ADD MLOAD PUSH2 0x57F JUMP JUMPDEST SWAP5 SWAP4 POP POP POP POP JUMP JUMPDEST PUSH1 0x2 DUP2 JUMP JUMPDEST PUSH2 0x270 PUSH2 0x75F JUMP JUMPDEST PUSH2 0x278 PUSH2 0x777 JUMP JUMPDEST DUP4 PUSH0 ADD MLOAD DUP2 PUSH0 PUSH1 0x4 DUP2 LT PUSH2 0x28F JUMPI PUSH2 0x28E PUSH2 0xDD3 JUMP JUMPDEST JUMPDEST PUSH1 0x20 MUL ADD DUP2 DUP2 MSTORE POP POP DUP4 PUSH1 0x20 ADD MLOAD DUP2 PUSH1 0x1 PUSH1 0x4 DUP2 LT PUSH2 0x2B1 JUMPI PUSH2 0x2B0 PUSH2 0xDD3 JUMP JUMPDEST JUMPDEST PUSH1 0x20 MUL ADD DUP2 DUP2 MSTORE POP POP DUP3 PUSH0 ADD MLOAD DUP2 PUSH1 0x2 PUSH1 0x4 DUP2 LT PUSH2 0x2D2 JUMPI PUSH2 0x2D1 PUSH2 0xDD3 JUMP JUMPDEST JUMPDEST PUSH1 0x20 MUL ADD DUP2 DUP2 MSTORE POP POP DUP3 PUSH1 0x20 ADD MLOAD PUSH32 0x30644E72E131A029B85045B68181585D97816A916871CA8D3C208C16D87CFD47 PUSH2 0x30B SWAP2 SWAP1 PUSH2 0xE2D JUMP JUMPDEST DUP2 PUSH1 0x3 PUSH1 0x4 DUP2 LT PUSH2 0x31F JUMPI PUSH2 0x31E PUSH2 0xDD3 JUMP JUMPDEST JUMPDEST PUSH1 0x20 MUL ADD DUP2 DUP2 MSTORE POP POP PUSH0 PUSH2 0x331 PUSH2 0x799 JUMP JUMPDEST PUSH1 0x40 DUP2 PUSH1 0x80 DUP6 PUSH0 PUSH1 0x6 PUSH0 NOT CALL SWAP2 POP DUP2 PUSH2 0x37F JUMPI PUSH1 0x40 MLOAD PUSH32 0x8C379A000000000000000000000000000000000000000000000000000000000 DUP2 MSTORE PUSH1 0x4 ADD PUSH2 0x376 SWAP1 PUSH2 0xEAA JUMP JUMPDEST PUSH1 0x40 MLOAD DUP1 SWAP2 SUB SWAP1 REVERT JUMPDEST PUSH1 0x40 MLOAD DUP1 PUSH1 0x40 ADD PUSH1 0x40 MSTORE DUP1 DUP3 PUSH0 PUSH1 0x2 DUP2 LT PUSH2 0x39D JUMPI PUSH2 0x39C PUSH2 0xDD3 JUMP JUMPDEST JUMPDEST PUSH1 0x20 MUL ADD MLOAD DUP2 MSTORE PUSH1 0x20 ADD DUP3 PUSH1 0x1 PUSH1 0x2 DUP2 LT PUSH2 0x3BB JUMPI PUSH2 0x3BA PUSH2 0xDD3 JUMP JUMPDEST JUMPDEST PUSH1 0x20 MUL ADD MLOAD DUP2 MSTORE POP SWAP4 POP POP POP POP SWAP3 SWAP2 POP POP JUMP JUMPDEST PUSH32 0x1581953BCF3CE078038FA19D974E26E4757A0E65573D9628EC8939BB77A6FD04 DUP2 JUMP JUMPDEST PUSH2 0x3FA PUSH2 0x75F JUMP JUMPDEST PUSH2 0x402 PUSH2 0x7BB JUMP JUMPDEST DUP4 PUSH0 ADD MLOAD DUP2 PUSH0 PUSH1 0x3 DUP2 LT PUSH2 0x419 JUMPI PUSH2 0x418 PUSH2 0xDD3 JUMP JUMPDEST JUMPDEST PUSH1 0x20 MUL ADD DUP2 DUP2 MSTORE POP POP DUP4 PUSH1 0x20 ADD MLOAD DUP2 PUSH1 0x1 PUSH1 0x3 DUP2 LT PUSH2 0x43B JUMPI PUSH2 0x43A PUSH2 0xDD3 JUMP JUMPDEST JUMPDEST PUSH1 0x20 MUL ADD DUP2 DUP2 MSTORE POP POP DUP3 DUP2 PUSH1 0x2 PUSH1 0x3 DUP2 LT PUSH2 0x459 JUMPI PUSH2 0x458 PUSH2 0xDD3 JUMP JUMPDEST JUMPDEST PUSH1 0x20 MUL ADD DUP2 DUP2 MSTORE POP POP PUSH0 PUSH2 0x46B PUSH2 0x799 JUMP JUMPDEST PUSH1 0x40 DUP2 PUSH1 0x60 DUP6 PUSH0 PUSH1 0x7 PUSH0 NOT CALL SWAP2 POP DUP2 PUSH2 0x4B9 JUMPI PUSH1 0x40 MLOAD PUSH32 0x8C379A000000000000000000000000000000000000000000000000000000000 DUP2 MSTORE PUSH1 0x4 ADD PUSH2 0x4B0 SWAP1 PUSH2 0xF38 JUMP JUMPDEST PUSH1 0x40 MLOAD DUP1 SWAP2 SUB SWAP1 REVERT JUMPDEST PUSH1 0x40 MLOAD DUP1 PUSH1 0x40 ADD PUSH1 0x40 MSTORE DUP1 DUP3 PUSH0 PUSH1 0x2 DUP2 LT PUSH2 0x4D7 JUMPI PUSH2 0x4D6 PUSH2 0xDD3 JUMP JUMPDEST JUMPDEST PUSH1 0x20 MUL ADD MLOAD DUP2 MSTORE PUSH1 0x20 ADD DUP3 PUSH1 0x1 PUSH1 0x2 DUP2 LT PUSH2 0x4F5 JUMPI PUSH2 0x4F4 PUSH2 0xDD3 JUMP JUMPDEST JUMPDEST PUSH1 0x20 MUL ADD MLOAD DUP2 MSTORE POP SWAP4 POP POP POP POP SWAP3 SWAP2 POP POP JUMP JUMPDEST PUSH32 0x30644E72E131A029B85045B68181585D97816A916871CA8D3C208C16D87CFD47 DUP2 JUMP JUMPDEST PUSH0 DUP1 DUP3 SUB PUSH2 0x56F JUMPI PUSH1 0x40 MLOAD PUSH32 0x8C379A000000000000000000000000000000000000000000000000000000000 DUP2 MSTORE PUSH1 0x4 ADD PUSH2 0x566 SWAP1 PUSH2 0xFA0 JUMP JUMPDEST PUSH1 0x40 MLOAD DUP1 SWAP2 SUB SWAP1 REVERT JUMPDEST PUSH0 DUP3 DUP5 MOD SWAP1 POP DUP1 SWAP2 POP POP SWAP3 SWAP2 POP POP JUMP JUMPDEST PUSH0 PUSH1 0x1 DUP3 MLOAD PUSH2 0x58E SWAP2 SWAP1 PUSH2 0xE2D JUMP JUMPDEST SWAP1 POP PUSH2 0x598 PUSH2 0x777 JUMP JUMPDEST PUSH0 DUP1 DUP5 PUSH0 DUP2 MLOAD DUP2 LT PUSH2 0x5AD JUMPI PUSH2 0x5AC PUSH2 0xDD3 JUMP JUMPDEST JUMPDEST PUSH1 0x20 MUL PUSH1 0x20 ADD ADD MLOAD SWAP1 POP DUP1 PUSH0 ADD MLOAD DUP4 PUSH0 PUSH1 0x4 DUP2 LT PUSH2 0x5CE JUMPI PUSH2 0x5CD PUSH2 0xDD3 JUMP JUMPDEST JUMPDEST PUSH1 0x20 MUL ADD DUP2 DUP2 MSTORE POP POP DUP1 PUSH1 0x20 ADD MLOAD DUP4 PUSH1 0x1 PUSH1 0x4 DUP2 LT PUSH2 0x5F0 JUMPI PUSH2 0x5EF PUSH2 0xDD3 JUMP JUMPDEST JUMPDEST PUSH1 0x20 MUL ADD DUP2 DUP2 MSTORE POP POP PUSH0 PUSH1 0x1 SWAP1 POP JUMPDEST DUP5 DUP2 LT ISZERO PUSH2 0x684 JUMPI PUSH0 DUP7 DUP3 DUP2 MLOAD DUP2 LT PUSH2 0x61B JUMPI PUSH2 0x61A PUSH2 0xDD3 JUMP JUMPDEST JUMPDEST PUSH1 0x20 MUL PUSH1 0x20 ADD ADD MLOAD SWAP1 POP DUP1 PUSH0 ADD MLOAD DUP6 PUSH1 0x2 PUSH1 0x4 DUP2 LT PUSH2 0x63D JUMPI PUSH2 0x63C PUSH2 0xDD3 JUMP JUMPDEST JUMPDEST PUSH1 0x20 MUL ADD DUP2 DUP2 MSTORE POP POP DUP1 PUSH1 0x20 ADD MLOAD DUP6 PUSH1 0x3 PUSH1 0x4 DUP2 LT PUSH2 0x65F JUMPI PUSH2 0x65E PUSH2 0xDD3 JUMP JUMPDEST JUMPDEST PUSH1 0x20 MUL ADD DUP2 DUP2 MSTORE POP POP PUSH1 0x60 DUP6 PUSH1 0x80 DUP8 PUSH0 PUSH1 0x6 PUSH0 NOT CALL SWAP4 POP POP DUP1 DUP1 PUSH1 0x1 ADD SWAP2 POP POP PUSH2 0x5FF JUMP JUMPDEST POP PUSH32 0x2012EF02E82E91ABF55727CC31C3B6E3375003AA9E879F855DB72D9E78822C40 DUP4 PUSH0 PUSH1 0x4 DUP2 LT PUSH2 0x6B9 JUMPI PUSH2 0x6B8 PUSH2 0xDD3 JUMP JUMPDEST JUMPDEST PUSH1 0x20 MUL ADD MLOAD PUSH1 0x40 MLOAD PUSH2 0x6CB SWAP2 SWAP1 PUSH2 0x7F5 JUMP JUMPDEST PUSH1 0x40 MLOAD DUP1 SWAP2 SUB SWAP1 LOG1 PUSH32 0x2012EF02E82E91ABF55727CC31C3B6E3375003AA9E879F855DB72D9E78822C40 DUP4 PUSH1 0x1 PUSH1 0x4 DUP2 LT PUSH2 0x708 JUMPI PUSH2 0x707 PUSH2 0xDD3 JUMP JUMPDEST JUMPDEST PUSH1 0x20 MUL ADD MLOAD PUSH1 0x40 MLOAD PUSH2 0x71A SWAP2 SWAP1 PUSH2 0x7F5 JUMP JUMPDEST PUSH1 0x40 MLOAD DUP1 SWAP2 SUB SWAP1 LOG1 PUSH32 0xCF34EF537AC33EE1AC626CA1587A0A7E8E51561E5514F8CB36AFA1C5102B3BAB PUSH1 0x40 MLOAD PUSH2 0x74F SWAP1 PUSH2 0x1008 JUMP JUMPDEST PUSH1 0x40 MLOAD DUP1 SWAP2 SUB SWAP1 LOG1 POP POP POP POP POP POP JUMP JUMPDEST PUSH1 0x40 MLOAD DUP1 PUSH1 0x40 ADD PUSH1 0x40 MSTORE DUP1 PUSH0 DUP2 MSTORE PUSH1 0x20 ADD PUSH0 DUP2 MSTORE POP SWAP1 JUMP JUMPDEST PUSH1 0x40 MLOAD DUP1 PUSH1 0x80 ADD PUSH1 0x40 MSTORE DUP1 PUSH1 0x4 SWAP1 PUSH1 0x20 DUP3 MUL DUP1 CALLDATASIZE DUP4 CALLDATACOPY DUP1 DUP3 ADD SWAP2 POP POP SWAP1 POP POP SWAP1 JUMP JUMPDEST PUSH1 0x40 MLOAD DUP1 PUSH1 0x40 ADD PUSH1 0x40 MSTORE DUP1 PUSH1 0x2 SWAP1 PUSH1 0x20 DUP3 MUL DUP1 CALLDATASIZE DUP4 CALLDATACOPY DUP1 DUP3 ADD SWAP2 POP POP SWAP1 POP POP SWAP1 JUMP JUMPDEST PUSH1 0x40 MLOAD DUP1 PUSH1 0x60 ADD PUSH1 0x40 MSTORE DUP1 PUSH1 0x3 SWAP1 PUSH1 0x20 DUP3 MUL DUP1 CALLDATASIZE DUP4 CALLDATACOPY DUP1 DUP3 ADD SWAP2 POP POP SWAP1 POP POP SWAP1 JUMP JUMPDEST PUSH0 DUP2 SWAP1 POP SWAP2 SWAP1 POP JUMP JUMPDEST PUSH2 0x7EF DUP2 PUSH2 0x7DD JUMP JUMPDEST DUP3 MSTORE POP POP JUMP JUMPDEST PUSH0 PUSH1 0x20 DUP3 ADD SWAP1 POP PUSH2 0x808 PUSH0 DUP4 ADD DUP5 PUSH2 0x7E6 JUMP JUMPDEST SWAP3 SWAP2 POP POP JUMP JUMPDEST PUSH0 PUSH1 0x40 MLOAD SWAP1 POP SWAP1 JUMP JUMPDEST PUSH0 DUP1 REVERT JUMPDEST PUSH0 DUP1 REVERT JUMPDEST PUSH0 DUP1 REVERT JUMPDEST PUSH0 PUSH1 0x1F NOT PUSH1 0x1F DUP4 ADD AND SWAP1 POP SWAP2 SWAP1 POP JUMP JUMPDEST PUSH32 0x4E487B7100000000000000000000000000000000000000000000000000000000 PUSH0 MSTORE PUSH1 0x41 PUSH1 0x4 MSTORE PUSH1 0x24 PUSH0 REVERT JUMPDEST PUSH2 0x869 DUP3 PUSH2 0x823 JUMP JUMPDEST DUP2 ADD DUP2 DUP2 LT PUSH8 0xFFFFFFFFFFFFFFFF DUP3 GT OR ISZERO PUSH2 0x888 JUMPI PUSH2 0x887 PUSH2 0x833 JUMP JUMPDEST JUMPDEST DUP1 PUSH1 0x40 MSTORE POP POP POP JUMP JUMPDEST PUSH0 PUSH2 0x89A PUSH2 0x80E JUMP JUMPDEST SWAP1 POP PUSH2 0x8A6 DUP3 DUP3 PUSH2 0x860 JUMP JUMPDEST SWAP2 SWAP1 POP JUMP JUMPDEST PUSH0 DUP1 REVERT JUMPDEST PUSH2 0x8B8 DUP2 PUSH2 0x7DD JUMP JUMPDEST DUP2 EQ PUSH2 0x8C2 JUMPI PUSH0 DUP1 REVERT JUMPDEST POP JUMP JUMPDEST PUSH0 DUP2 CALLDATALOAD SWAP1 POP PUSH2 0x8D3 DUP2 PUSH2 0x8AF JUMP JUMPDEST SWAP3 SWAP2 POP POP JUMP JUMPDEST PUSH0 PUSH1 0x40 DUP3 DUP5 SUB SLT ISZERO PUSH2 0x8EE JUMPI PUSH2 0x8ED PUSH2 0x81F JUMP JUMPDEST JUMPDEST PUSH2 0x8F8 PUSH1 0x40 PUSH2 0x891 JUMP JUMPDEST SWAP1 POP PUSH0 PUSH2 0x907 DUP5 DUP3 DUP6 ADD PUSH2 0x8C5 JUMP JUMPDEST PUSH0 DUP4 ADD MSTORE POP PUSH1 0x20 PUSH2 0x91A DUP5 DUP3 DUP6 ADD PUSH2 0x8C5 JUMP JUMPDEST PUSH1 0x20 DUP4 ADD MSTORE POP SWAP3 SWAP2 POP POP JUMP JUMPDEST PUSH0 DUP1 REVERT JUMPDEST PUSH0 PUSH8 0xFFFFFFFFFFFFFFFF DUP3 GT ISZERO PUSH2 0x944 JUMPI PUSH2 0x943 PUSH2 0x833 JUMP JUMPDEST JUMPDEST PUSH1 0x20 DUP3 MUL SWAP1 POP PUSH1 0x20 DUP2 ADD SWAP1 POP SWAP2 SWAP1 POP JUMP JUMPDEST PUSH0 DUP1 REVERT JUMPDEST PUSH0 PUSH2 0x96B PUSH2 0x966 DUP5 PUSH2 0x92A JUMP JUMPDEST PUSH2 0x891 JUMP JUMPDEST SWAP1 POP DUP1 DUP4 DUP3 MSTORE PUSH1 0x20 DUP3 ADD SWAP1 POP PUSH1 0x40 DUP5 MUL DUP4 ADD DUP6 DUP2 GT ISZERO PUSH2 0x98E JUMPI PUSH2 0x98D PUSH2 0x955 JUMP JUMPDEST JUMPDEST DUP4 JUMPDEST DUP2 DUP2 LT ISZERO PUSH2 0x9B7 JUMPI DUP1 PUSH2 0x9A3 DUP9 DUP3 PUSH2 0x8D9 JUMP JUMPDEST DUP5 MSTORE PUSH1 0x20 DUP5 ADD SWAP4 POP POP PUSH1 0x40 DUP2 ADD SWAP1 POP PUSH2 0x990 JUMP JUMPDEST POP POP POP SWAP4 SWAP3 POP POP POP JUMP JUMPDEST PUSH0 DUP3 PUSH1 0x1F DUP4 ADD SLT PUSH2 0x9D5 JUMPI PUSH2 0x9D4 PUSH2 0x926 JUMP JUMPDEST JUMPDEST DUP2 CALLDATALOAD PUSH2 0x9E5 DUP5 DUP3 PUSH1 0x20 DUP7 ADD PUSH2 0x959 JUMP JUMPDEST SWAP2 POP POP SWAP3 SWAP2 POP POP JUMP JUMPDEST PUSH0 PUSH8 0xFFFFFFFFFFFFFFFF DUP3 GT ISZERO PUSH2 0xA08 JUMPI PUSH2 0xA07 PUSH2 0x833 JUMP JUMPDEST JUMPDEST PUSH1 0x20 DUP3 MUL SWAP1 POP PUSH1 0x20 DUP2 ADD SWAP1 POP SWAP2 SWAP1 POP JUMP JUMPDEST PUSH0 PUSH2 0xA2B PUSH2 0xA26 DUP5 PUSH2 0x9EE JUMP JUMPDEST PUSH2 0x891 JUMP JUMPDEST SWAP1 POP DUP1 DUP4 DUP3 MSTORE PUSH1 0x20 DUP3 ADD SWAP1 POP PUSH1 0x20 DUP5 MUL DUP4 ADD DUP6 DUP2 GT ISZERO PUSH2 0xA4E JUMPI PUSH2 0xA4D PUSH2 0x955 JUMP JUMPDEST JUMPDEST DUP4 JUMPDEST DUP2 DUP2 LT ISZERO PUSH2 0xA77 JUMPI DUP1 PUSH2 0xA63 DUP9 DUP3 PUSH2 0x8C5 JUMP JUMPDEST DUP5 MSTORE PUSH1 0x20 DUP5 ADD SWAP4 POP POP PUSH1 0x20 DUP2 ADD SWAP1 POP PUSH2 0xA50 JUMP JUMPDEST POP POP POP SWAP4 SWAP3 POP POP POP JUMP JUMPDEST PUSH0 DUP3 PUSH1 0x1F DUP4 ADD SLT PUSH2 0xA95 JUMPI PUSH2 0xA94 PUSH2 0x926 JUMP JUMPDEST JUMPDEST DUP2 CALLDATALOAD PUSH2 0xAA5 DUP5 DUP3 PUSH1 0x20 DUP7 ADD PUSH2 0xA19 JUMP JUMPDEST SWAP2 POP POP SWAP3 SWAP2 POP POP JUMP JUMPDEST PUSH0 PUSH2 0x160 DUP3 DUP5 SUB SLT ISZERO PUSH2 0xAC4 JUMPI PUSH2 0xAC3 PUSH2 0x81F JUMP JUMPDEST JUMPDEST PUSH2 0xACF PUSH2 0x100 PUSH2 0x891 JUMP JUMPDEST SWAP1 POP PUSH0 PUSH2 0xADE DUP5 DUP3 DUP6 ADD PUSH2 0x8D9 JUMP JUMPDEST PUSH0 DUP4 ADD MSTORE POP PUSH1 0x40 DUP3 ADD CALLDATALOAD PUSH8 0xFFFFFFFFFFFFFFFF DUP2 GT ISZERO PUSH2 0xB01 JUMPI PUSH2 0xB00 PUSH2 0x8AB JUMP JUMPDEST JUMPDEST PUSH2 0xB0D DUP5 DUP3 DUP6 ADD PUSH2 0x9C1 JUMP JUMPDEST PUSH1 0x20 DUP4 ADD MSTORE POP PUSH1 0x60 DUP3 ADD CALLDATALOAD PUSH8 0xFFFFFFFFFFFFFFFF DUP2 GT ISZERO PUSH2 0xB31 JUMPI PUSH2 0xB30 PUSH2 0x8AB JUMP JUMPDEST JUMPDEST PUSH2 0xB3D DUP5 DUP3 DUP6 ADD PUSH2 0x9C1 JUMP JUMPDEST PUSH1 0x40 DUP4 ADD MSTORE POP PUSH1 0x80 PUSH2 0xB51 DUP5 DUP3 DUP6 ADD PUSH2 0x8D9 JUMP JUMPDEST PUSH1 0x60 DUP4 ADD MSTORE POP PUSH1 0xC0 PUSH2 0xB65 DUP5 DUP3 DUP6 ADD PUSH2 0x8D9 JUMP JUMPDEST PUSH1 0x80 DUP4 ADD MSTORE POP PUSH2 0x100 PUSH2 0xB7A DUP5 DUP3 DUP6 ADD PUSH2 0x8C5 JUMP JUMPDEST PUSH1 0xA0 DUP4 ADD MSTORE POP PUSH2 0x120 PUSH2 0xB8F DUP5 DUP3 DUP6 ADD PUSH2 0x8C5 JUMP JUMPDEST PUSH1 0xC0 DUP4 ADD MSTORE POP PUSH2 0x140 DUP3 ADD CALLDATALOAD PUSH8 0xFFFFFFFFFFFFFFFF DUP2 GT ISZERO PUSH2 0xBB4 JUMPI PUSH2 0xBB3 PUSH2 0x8AB JUMP JUMPDEST JUMPDEST PUSH2 0xBC0 DUP5 DUP3 DUP6 ADD PUSH2 0xA81 JUMP JUMPDEST PUSH1 0xE0 DUP4 ADD MSTORE POP SWAP3 SWAP2 POP POP JUMP JUMPDEST PUSH0 DUP1 PUSH0 DUP1 PUSH1 0x80 DUP6 DUP8 SUB SLT ISZERO PUSH2 0xBE4 JUMPI PUSH2 0xBE3 PUSH2 0x817 JUMP JUMPDEST JUMPDEST PUSH0 DUP6 ADD CALLDATALOAD PUSH8 0xFFFFFFFFFFFFFFFF DUP2 GT ISZERO PUSH2 0xC01 JUMPI PUSH2 0xC00 PUSH2 0x81B JUMP JUMPDEST JUMPDEST PUSH2 0xC0D DUP8 DUP3 DUP9 ADD PUSH2 0xAAE JUMP JUMPDEST SWAP5 POP POP PUSH1 0x20 PUSH2 0xC1E DUP8 DUP3 DUP9 ADD PUSH2 0x8C5 JUMP JUMPDEST SWAP4 POP POP PUSH1 0x40 PUSH2 0xC2F DUP8 DUP3 DUP9 ADD PUSH2 0x8C5 JUMP JUMPDEST SWAP3 POP POP PUSH1 0x60 PUSH2 0xC40 DUP8 DUP3 DUP9 ADD PUSH2 0x8C5 JUMP JUMPDEST SWAP2 POP POP SWAP3 SWAP6 SWAP2 SWAP5 POP SWAP3 POP JUMP JUMPDEST PUSH0 DUP1 PUSH1 0x80 DUP4 DUP6 SUB SLT ISZERO PUSH2 0xC62 JUMPI PUSH2 0xC61 PUSH2 0x817 JUMP JUMPDEST JUMPDEST PUSH0 PUSH2 0xC6F DUP6 DUP3 DUP7 ADD PUSH2 0x8D9 JUMP JUMPDEST SWAP3 POP POP PUSH1 0x40 PUSH2 0xC80 DUP6 DUP3 DUP7 ADD PUSH2 0x8D9 JUMP JUMPDEST SWAP2 POP POP SWAP3 POP SWAP3 SWAP1 POP JUMP JUMPDEST PUSH2 0xC93 DUP2 PUSH2 0x7DD JUMP JUMPDEST DUP3 MSTORE POP POP JUMP JUMPDEST PUSH1 0x40 DUP3 ADD PUSH0 DUP3 ADD MLOAD PUSH2 0xCAD PUSH0 DUP6 ADD DUP3 PUSH2 0xC8A JUMP JUMPDEST POP PUSH1 0x20 DUP3 ADD MLOAD PUSH2 0xCC0 PUSH1 0x20 DUP6 ADD DUP3 PUSH2 0xC8A JUMP JUMPDEST POP POP POP POP JUMP JUMPDEST PUSH0 PUSH1 0x40 DUP3 ADD SWAP1 POP PUSH2 0xCD9 PUSH0 DUP4 ADD DUP5 PUSH2 0xC99 JUMP JUMPDEST SWAP3 SWAP2 POP POP JUMP JUMPDEST PUSH0 DUP1 PUSH1 0x60 DUP4 DUP6 SUB SLT ISZERO PUSH2 0xCF5 JUMPI PUSH2 0xCF4 PUSH2 0x817 JUMP JUMPDEST JUMPDEST PUSH0 PUSH2 0xD02 DUP6 DUP3 DUP7 ADD PUSH2 0x8D9 JUMP JUMPDEST SWAP3 POP POP PUSH1 0x40 PUSH2 0xD13 DUP6 DUP3 DUP7 ADD PUSH2 0x8C5 JUMP JUMPDEST SWAP2 POP POP SWAP3 POP SWAP3 SWAP1 POP JUMP JUMPDEST PUSH0 DUP1 PUSH1 0x40 DUP4 DUP6 SUB SLT ISZERO PUSH2 0xD33 JUMPI PUSH2 0xD32 PUSH2 0x817 JUMP JUMPDEST JUMPDEST PUSH0 PUSH2 0xD40 DUP6 DUP3 DUP7 ADD PUSH2 0x8C5 JUMP JUMPDEST SWAP3 POP POP PUSH1 0x20 PUSH2 0xD51 DUP6 DUP3 DUP7 ADD PUSH2 0x8C5 JUMP JUMPDEST SWAP2 POP POP SWAP3 POP SWAP3 SWAP1 POP JUMP JUMPDEST PUSH0 DUP3 DUP3 MSTORE PUSH1 0x20 DUP3 ADD SWAP1 POP SWAP3 SWAP2 POP POP JUMP JUMPDEST PUSH32 0x3131313131313131313131310000000000000000000000000000000000000000 PUSH0 DUP3 ADD MSTORE POP JUMP JUMPDEST PUSH0 PUSH2 0xD9F PUSH1 0xC DUP4 PUSH2 0xD5B JUMP JUMPDEST SWAP2 POP PUSH2 0xDAA DUP3 PUSH2 0xD6B JUMP JUMPDEST PUSH1 0x20 DUP3 ADD SWAP1 POP SWAP2 SWAP1 POP JUMP JUMPDEST PUSH0 PUSH1 0x20 DUP3 ADD SWAP1 POP DUP2 DUP2 SUB PUSH0 DUP4 ADD MSTORE PUSH2 0xDCC DUP2 PUSH2 0xD93 JUMP JUMPDEST SWAP1 POP SWAP2 SWAP1 POP JUMP JUMPDEST PUSH32 0x4E487B7100000000000000000000000000000000000000000000000000000000 PUSH0 MSTORE PUSH1 0x32 PUSH1 0x4 MSTORE PUSH1 0x24 PUSH0 REVERT JUMPDEST PUSH32 0x4E487B7100000000000000000000000000000000000000000000000000000000 PUSH0 MSTORE PUSH1 0x11 PUSH1 0x4 MSTORE PUSH1 0x24 PUSH0 REVERT JUMPDEST PUSH0 PUSH2 0xE37 DUP3 PUSH2 0x7DD JUMP JUMPDEST SWAP2 POP PUSH2 0xE42 DUP4 PUSH2 0x7DD JUMP JUMPDEST SWAP3 POP DUP3 DUP3 SUB SWAP1 POP DUP2 DUP2 GT ISZERO PUSH2 0xE5A JUMPI PUSH2 0xE59 PUSH2 0xE00 JUMP JUMPDEST JUMPDEST SWAP3 SWAP2 POP POP JUMP JUMPDEST PUSH32 0x626E323536207375627472616374696F6E206661696C65640000000000000000 PUSH0 DUP3 ADD MSTORE POP JUMP JUMPDEST PUSH0 PUSH2 0xE94 PUSH1 0x18 DUP4 PUSH2 0xD5B JUMP JUMPDEST SWAP2 POP PUSH2 0xE9F DUP3 PUSH2 0xE60 JUMP JUMPDEST PUSH1 0x20 DUP3 ADD SWAP1 POP SWAP2 SWAP1 POP JUMP JUMPDEST PUSH0 PUSH1 0x20 DUP3 ADD SWAP1 POP DUP2 DUP2 SUB PUSH0 DUP4 ADD MSTORE PUSH2 0xEC1 DUP2 PUSH2 0xE88 JUMP JUMPDEST SWAP1 POP SWAP2 SWAP1 POP JUMP JUMPDEST PUSH32 0x656C6C6970746963206375727665206D756C7469706C69636174696F6E206661 PUSH0 DUP3 ADD MSTORE PUSH32 0x696C656400000000000000000000000000000000000000000000000000000000 PUSH1 0x20 DUP3 ADD MSTORE POP JUMP JUMPDEST PUSH0 PUSH2 0xF22 PUSH1 0x24 DUP4 PUSH2 0xD5B JUMP JUMPDEST SWAP2 POP PUSH2 0xF2D DUP3 PUSH2 0xEC8 JUMP JUMPDEST PUSH1 0x40 DUP3 ADD SWAP1 POP SWAP2 SWAP1 POP JUMP JUMPDEST PUSH0 PUSH1 0x20 DUP3 ADD SWAP1 POP DUP2 DUP2 SUB PUSH0 DUP4 ADD MSTORE PUSH2 0xF4F DUP2 PUSH2 0xF16 JUMP JUMPDEST SWAP1 POP SWAP2 SWAP1 POP JUMP JUMPDEST PUSH32 0x536166654D6174683A206D6F64756C6F206279207A65726F0000000000000000 PUSH0 DUP3 ADD MSTORE POP JUMP JUMPDEST PUSH0 PUSH2 0xF8A PUSH1 0x18 DUP4 PUSH2 0xD5B JUMP JUMPDEST SWAP2 POP PUSH2 0xF95 DUP3 PUSH2 0xF56 JUMP JUMPDEST PUSH1 0x20 DUP3 ADD SWAP1 POP SWAP2 SWAP1 POP JUMP JUMPDEST PUSH0 PUSH1 0x20 DUP3 ADD SWAP1 POP DUP2 DUP2 SUB PUSH0 DUP4 ADD MSTORE PUSH2 0xFB7 DUP2 PUSH2 0xF7E JUMP JUMPDEST SWAP1 POP SWAP2 SWAP1 POP JUMP JUMPDEST PUSH32 0x3F3F3F3F3F3F3F3F3F0000000000000000000000000000000000000000000000 PUSH0 DUP3 ADD MSTORE POP JUMP JUMPDEST PUSH0 PUSH2 0xFF2 PUSH1 0x9 DUP4 PUSH2 0xD5B JUMP JUMPDEST SWAP2 POP PUSH2 0xFFD DUP3 PUSH2 0xFBE JUMP JUMPDEST PUSH1 0x20 DUP3 ADD SWAP1 POP SWAP2 SWAP1 POP JUMP JUMPDEST PUSH0 PUSH1 0x20 DUP3 ADD SWAP1 POP DUP2 DUP2 SUB PUSH0 DUP4 ADD MSTORE PUSH2 0x101F DUP2 PUSH2 0xFE6 JUMP JUMPDEST SWAP1 POP SWAP2 SWAP1 POP JUMP INVALID LOG2 PUSH5 0x6970667358 0x22 SLT KECCAK256 0xAF SWAP8 SLOAD ADDRESS CALLDATALOAD 0xB0 PUSH10 0x14D72BCE81E862732F36 0xD0 0xE8 ADD 0xC0 0x25 0x4E PUSH8 0xECB928616DA6BD4B PUSH5 0x736F6C6343 STOP ADDMOD AND STOP CALLER "
				},
				"gasEstimates": {
					"creation": {
						"codeDepositCost": "837600",
						"executionCost": "868",
						"totalCost": "838468"
					},
					"external": {
						"GX()": "326",
						"GY()": "392",
						"HX()": "347",
						"HY()": "348",
						"PP()": "391",
						"mod(uint256,uint256)": "infinite",
						"multiply((uint256,uint256),uint256)": "infinite",
						"sub((uint256,uint256),(uint256,uint256))": "infinite",
						"verifyRangeArgument(((uint256,uint256),(uint256,uint256)[],(uint256,uint256)[],(uint256,uint256),(uint256,uint256),uint256,uint256,uint256[]),uint256,uint256,uint256)": "infinite"
					},
					"internal": {
						"add(struct Type1.Point memory,struct Type1.Point memory)": "infinite",
						"assertCond3(struct Type1.Point memory,struct Type1.Point memory[] memory)": "infinite",
						"modExp(uint256,uint256,uint256)": "infinite"
					}
				},
				"methodIdentifiers": {
					"GX()": "03a507be",
					"GY()": "7a308a4c",
					"HX()": "c11b8ad7",
					"HY()": "4e93d4a2",
					"PP()": "eeeac01e",
					"mod(uint256,uint256)": "f43f523a",
					"multiply((uint256,uint256),uint256)": "d42dadde",
					"sub((uint256,uint256),(uint256,uint256))": "96b41bdd",
					"verifyRangeArgument(((uint256,uint256),(uint256,uint256)[],(uint256,uint256)[],(uint256,uint256),(uint256,uint256),uint256,uint256,uint256[]),uint256,uint256,uint256)": "58163b92"
				}
			},
			"storageLayout": {
				"storage": [],
				"types": null
			},
			"userdoc": {
				"kind": "user",
				"methods": {},
				"version": 1
			}
		}
	}
}