{
  "contractName": "BIC",
  "abi": [
    {
      "inputs": [],
      "name": "B",
      "outputs": [
        {
          "internalType": "int256",
          "name": "",
          "type": "int256"
        }
      ],
      "stateMutability": "view",
      "type": "function"
    },
    {
      "inputs": [],
      "name": "GX",
      "outputs": [
        {
          "internalType": "int256",
          "name": "",
          "type": "int256"
        }
      ],
      "stateMutability": "view",
      "type": "function"
    },
    {
      "inputs": [],
      "name": "GY",
      "outputs": [
        {
          "internalType": "int256",
          "name": "",
          "type": "int256"
        }
      ],
      "stateMutability": "view",
      "type": "function"
    },
    {
      "inputs": [],
      "name": "HX",
      "outputs": [
        {
          "internalType": "int256",
          "name": "",
          "type": "int256"
        }
      ],
      "stateMutability": "view",
      "type": "function"
    },
    {
      "inputs": [],
      "name": "HY",
      "outputs": [
        {
          "internalType": "int256",
          "name": "",
          "type": "int256"
        }
      ],
      "stateMutability": "view",
      "type": "function"
    },
    {
      "inputs": [],
      "name": "PP",
      "outputs": [
        {
          "internalType": "uint256",
          "name": "",
          "type": "uint256"
        }
      ],
      "stateMutability": "view",
      "type": "function"
    },
    {
      "inputs": [
        {
          "components": [
            {
              "internalType": "int256[]",
              "name": "zi",
              "type": "int256[]"
            },
            {
              "internalType": "int256[]",
              "name": "ti",
              "type": "int256[]"
            },
            {
              "internalType": "int256",
              "name": "tao",
              "type": "int256"
            }
          ],
          "internalType": "struct BIC.Part1",
          "name": "part1",
          "type": "tuple"
        },
        {
          "components": [
            {
              "components": [
                {
                  "internalType": "int256",
                  "name": "x",
                  "type": "int256"
                },
                {
                  "internalType": "int256",
                  "name": "y",
                  "type": "int256"
                }
              ],
              "internalType": "struct BIC.Point[]",
              "name": "ci",
              "type": "tuple[]"
            },
            {
              "internalType": "uint256",
              "name": "delta",
              "type": "uint256"
            },
            {
              "components": [
                {
                  "internalType": "int256",
                  "name": "x",
                  "type": "int256"
                },
                {
                  "internalType": "int256",
                  "name": "y",
                  "type": "int256"
                }
              ],
              "internalType": "struct BIC.Point",
              "name": "C",
              "type": "tuple"
            },
            {
              "internalType": "int256",
              "name": "gamma",
              "type": "int256"
            }
          ],
          "internalType": "struct BIC.Part2",
          "name": "part2",
          "type": "tuple"
        }
      ],
      "name": "verifyBIC",
      "outputs": [
        {
          "internalType": "uint256",
          "name": "",
          "type": "uint256"
        }
      ],
      "stateMutability": "nonpayable",
      "type": "function"
    }
  ],
  "bytecode": "0x608060405234801561001057600080fd5b50611420806100206000396000f3fe608060405234801561001057600080fd5b506004361061007d5760003560e01c80637a308a4c1161005b5780637a308a4c146100b05780639f79a8a5146100b8578063c11b8ad7146100cb578063eeeac01e146100d35761007d565b806303a507be1461008257806332e7c5bf146100a05780634e93d4a2146100a8575b600080fd5b61008a6100db565b60405161009791906111f6565b60405180910390f35b61008a6100e0565b61008a6100e9565b61008a61010d565b61008a6100c63660046110ee565b610112565b61008a610167565b61008a61018b565b600181565b64010000000081565b7f0b1fd6eda65bd4e6866a28bccfee143309bfb597378217a2002e5cac8cfe645f81565b600281565b60008061011e836101af565b9050600061012d8585846102cf565b9050600061013b86866106c9565b905060006101498383610ba2565b9050600061015a8860000151610df6565b9050505050505092915050565b7f1581953bcf3ce078038fa19d974e26e4757a0e65573d9628ec8939bb77a6fd0481565b7f30644e72e131a029b85045b68181585d97816a916871ca8d3c208c16d87cfd4781565b6101b7610e8c565b6101bf610e8c565b6101c7610ea6565b6101cf610ec4565b604085018051518352516020015160009083600160200201527fffffffffffffffffffffffffffffffffffffffffffffffffffffffffffffffff8360026020020152606082608085600060077ffffffffffffffffffffffffffffffffffffffffffffffffffffffffffffffffff160018452600260208501526401000000006040808601919091529091506060908301608085600060077ffffffffffffffffffffffffffffffffffffffffffffffffffffffffffffffffff19050606082608081600060067ffffffffffffffffffffffffffffffffffffffffffffffffffffffffffffffffff1505080518352602090810151908301525090505b919050565b6102d7610ee2565b6102df610ee2565b60005b60048110156106c0576102f3610ea6565b6102fb610f0f565b6001825260026020830152875180516000919085908110610345577f4e487b7100000000000000000000000000000000000000000000000000000000600052603260045260246000fd5b602002602001015183600260038110610387577f4e487b7100000000000000000000000000000000000000000000000000000000600052603260045260246000fd5b6020020152606082608085600060077ffffffffffffffffffffffffffffffffffffffffffffffffffffffffffffffffff17f1581953bcf3ce078038fa19d974e26e4757a0e65573d9628ec8939bb77a6fd0484527f0b1fd6eda65bd4e6866a28bccfee143309bfb597378217a2002e5cac8cfe645f6020808601919091528a015180519192509085908110610445577f4e487b7100000000000000000000000000000000000000000000000000000000600052603260045260246000fd5b602002602001015183600260038110610487577f4e487b7100000000000000000000000000000000000000000000000000000000600052603260045260246000fd5b6020020152606060408301608085600060077ffffffffffffffffffffffffffffffffffffffffffffffffffffffffffffffffff19050836104d55786518352602080880151908401526105a5565b8751805185908110610510577f4e487b7100000000000000000000000000000000000000000000000000000000600052603260045260246000fd5b60209081029190910101515183528751805185908110610559577f4e487b7100000000000000000000000000000000000000000000000000000000600052603260045260246000fd5b6020026020010151602001518360016003811061059f577f4e487b7100000000000000000000000000000000000000000000000000000000600052603260045260246000fd5b60200201525b87606001516105b390611356565b8360026020020152606060408301608085600060077ffffffffffffffffffffffffffffffffffffffffffffffffffffffffffffffffff19050606082608081600060067ffffffffffffffffffffffffffffffffffffffffffffffffffffffffffffffffff18251909150858560048110610656577f4e487b7100000000000000000000000000000000000000000000000000000000600052603260045260246000fd5b602002015152816001602002015185856004811061069d577f4e487b7100000000000000000000000000000000000000000000000000000000600052603260045260246000fd5b6020020151602001818152505050505080806106b89061131d565b9150506102e2565b50949350505050565b6106d1610e8c565b6106d9610e8c565b6106e1610ea6565b6106e9610f2d565b7f1581953bcf3ce078038fa19d974e26e4757a0e65573d9628ec8939bb77a6fd0482527f0b1fd6eda65bd4e6866a28bccfee143309bfb597378217a2002e5cac8cfe645f60208301526040868101519083015260006060826080858460077ffffffffffffffffffffffffffffffffffffffffffffffffffffffffffffffffff16001845260026020850152606087810151604080870191909152919250908301608085600060077ffffffffffffffffffffffffffffffffffffffffffffffffffffffffffffffffff16040870180515185525160200151909150836001602002015286518051600090610805577f4e487b7100000000000000000000000000000000000000000000000000000000600052603260045260246000fd5b602002602001015160046108199190611265565b8360026020020152606060408301608085600060077ffffffffffffffffffffffffffffffffffffffffffffffffffffffffffffffffff1905061085a610ec4565b865180516001908110610896577f4e487b7100000000000000000000000000000000000000000000000000000000600052603260045260246000fd5b60209081029190910101515184528651805160019081106108e0577f4e487b7100000000000000000000000000000000000000000000000000000000600052603260045260246000fd5b60200260200101516020015184600160038110610926577f4e487b7100000000000000000000000000000000000000000000000000000000600052603260045260246000fd5b6020020152875180516001908110610967577f4e487b7100000000000000000000000000000000000000000000000000000000600052603260045260246000fd5b602002602001015161097890611356565b6040850152606081608086600060077ffffffffffffffffffffffffffffffffffffffffffffffffffffffffffffffffff1915060025b6004811015610b1d5787518051829081106109f2577f4e487b7100000000000000000000000000000000000000000000000000000000600052603260045260246000fd5b60209081029190910101515185528751805182908110610a3b577f4e487b7100000000000000000000000000000000000000000000000000000000600052603260045260246000fd5b60200260200101516020015185600160038110610a81577f4e487b7100000000000000000000000000000000000000000000000000000000600052603260045260246000fd5b60200201528851805182908110610ac1577f4e487b7100000000000000000000000000000000000000000000000000000000600052603260045260246000fd5b6020026020010151610ad290611356565b8560026020020152606060408301608087600060077ffffffffffffffffffffffffffffffffffffffffffffffffffffffffffffffffff1925080610b158161131d565b9150506109ae565b50606081608081600060067ffffffffffffffffffffffffffffffffffffffffffffffffffffffffffffffffff1815160c0850152602082015160e08501529150606083608081600060067ffffffffffffffffffffffffffffffffffffffffffffffffffffffffffffffffff15050815184525060209081015190830152509392505050565b60408051600a80825261016082019092526000918291906020820161014080368337019050509050826000015181600881518110610c09577f4e487b7100000000000000000000000000000000000000000000000000000000600052603260045260246000fd5b602002602001018181525050826020015181600981518110610c54577f4e487b7100000000000000000000000000000000000000000000000000000000600052603260045260246000fd5b6020026020010181815250506000805b6004811015610da557858160048110610ca6577f4e487b7100000000000000000000000000000000000000000000000000000000600052603260045260246000fd5b602002015160000151838381518110610ce8577f4e487b7100000000000000000000000000000000000000000000000000000000600052603260045260246000fd5b6020908102919091010152610cfe82600161124d565b9150858160048110610d39577f4e487b7100000000000000000000000000000000000000000000000000000000600052603260045260246000fd5b602002015160200151838381518110610d7b577f4e487b7100000000000000000000000000000000000000000000000000000000600052603260045260246000fd5b6020908102919091010152610d9182600161124d565b915080610d9d8161131d565b915050610c64565b5081604051602001610db791906111c0565b604080517fffffffffffffffffffffffffffffffffffffffffffffffffffffffffffffffe0818403018152919052805160209091012095945050505050565b60007801000000000000000000010000000000000000000000000000815b6004811015610e825781848281518110610e57577f4e487b7100000000000000000000000000000000000000000000000000000000600052603260045260246000fd5b60200260200101511315610e70576000925050506102ca565b80610e7a8161131d565b915050610e14565b5060019392505050565b604051806040016040528060008152602001600081525090565b60405180606001604052806003906020820280368337509192915050565b60405180608001604052806004906020820280368337509192915050565b60405180608001604052806004905b610ef9610e8c565b815260200190600190039081610ef15790505090565b6040518060c001604052806006906020820280368337509192915050565b6040518061010001604052806008906020820280368337509192915050565b600082601f830112610f5c578081fd5b81356020610f71610f6c83611229565b6111ff565b8281528181019085830183850287018401881015610f8d578586fd5b855b85811015610fab57813584529284019290840190600101610f8f565b5090979650505050505050565b600060a08284031215610fc9578081fd5b604080516080810167ffffffffffffffff8282108183111715610fee57610fee6113bb565b818452829450853591508082111561100557600080fd5b508401601f8101861361101757600080fd5b80356020611027610f6c83611229565b82815281810190848301878502860184018b101561104457600080fd5b600095505b8486101561106f5761105b8b826110a0565b835260019590950194918301918701611049565b5085525086810135908401525061108a9050858386016110a0565b8282015260808401356060820152505092915050565b6000604082840312156110b1578081fd5b6040516040810181811067ffffffffffffffff821117156110d4576110d46113bb565b604052823581526020928301359281019290925250919050565b60008060408385031215611100578182fd5b823567ffffffffffffffff80821115611117578384fd5b908401906060828703121561112a578384fd5b604051606081018181108382111715611145576111456113bb565b604052823582811115611156578586fd5b61116288828601610f4c565b825250602083013582811115611176578586fd5b61118288828601610f4c565b602083015250604083013560408201528094505060208501359150808211156111a9578283fd5b506111b685828601610fb8565b9150509250929050565b815160009082906020808601845b838110156111ea578151855293820193908201906001016111ce565b50929695505050505050565b90815260200190565b60405181810167ffffffffffffffff81118282101715611221576112216113bb565b604052919050565b600067ffffffffffffffff821115611243576112436113bb565b5060209081020190565b600082198211156112605761126061138c565b500190565b60007f7fffffffffffffffffffffffffffffffffffffffffffffffffffffffffffffff818413828413858304851182821616156112a4576112a461138c565b7f8000000000000000000000000000000000000000000000000000000000000000848712868205881281841616156112de576112de61138c565b8587129250878205871284841616156112f9576112f961138c565b8785058712818416161561130f5761130f61138c565b505050929093029392505050565b60007fffffffffffffffffffffffffffffffffffffffffffffffffffffffffffffffff82141561134f5761134f61138c565b5060010190565b60007f80000000000000000000000000000000000000000000000000000000000000008214156113885761138861138c565b0390565b7f4e487b7100000000000000000000000000000000000000000000000000000000600052601160045260246000fd5b7f4e487b7100000000000000000000000000000000000000000000000000000000600052604160045260246000fdfea26469706673582212209db7d89a555e59e5a95dcfd7f14a073ea580ef237e702f34e4f6dd95193583da64736f6c63430008000033",
  "immutableReferences": {},
  "source": "// SPDX-License-Identifier: GPL-3.0\r\npragma solidity ^0.8.0;\r\npragma experimental ABIEncoderV2;\r\n\r\ncontract BIC {\r\n    struct Point {\r\n        int256 x;\r\n        int256 y;\r\n    }\r\n\r\n    struct Part1 {\r\n        int256[] zi;\r\n        int256[] ti;\r\n        int256 tao;\r\n    }\r\n\r\n    struct Part2 {\r\n        Point[] ci;\r\n        uint256 delta;\r\n        Point C;\r\n        int256 gamma;\r\n    }\r\n\r\n    int256 public constant GX = 1;\r\n    int256 public constant HX = 9727523064272218541460723335320998459488975639302513747055235660443850046724;\r\n    int256 public constant GY = 2;\r\n    int256 public constant HY = 5031696974169251245229961296941447383441169981934237515842977230762345915487;\r\n\r\n    uint256 public constant PP = 0x30644e72e131a029b85045b68181585d97816a916871ca8d3c208c16d87cfd47;\r\n    uint256 internal constant NN = 0x30644e72e131a029b85045b68181585d2833e84879b9709143e1f593f0000001;\r\n    int256 public constant B = 2**32;\r\n    // int256 public constant B = 2**64;\r\n\r\n    function verifyBIC(Part1 memory part1, Part2 memory part2)\r\n        external\r\n        returns (uint256)\r\n    {\r\n        // uint256 memory gamma = computeChallenge(C);\r\n\r\n        // int256 gamma = 0;\r\n        Point memory c0 = computeC0(part2);\r\n        Point[4] memory Fi = computeFi(part1, part2, c0);\r\n        Point memory F = computeF(part1, part2);\r\n        uint256 hash_res = hash(Fi, F);\r\n        bool checkZi = compareZi(part1.zi);\r\n\r\n        // assert (part2.delta == hash_res && checkZi);\r\n\r\n\r\n    }\r\n\r\n\r\n    function computeFi(Part1 memory part1, Part2 memory part2, Point memory c0)\r\n        internal\r\n        returns(Point[4] memory fi)\r\n    {\r\n        Point[4] memory Fi;\r\n\r\n        for (uint i=0;i<4;i++){\r\n            int256[3] memory mul_input;\r\n            int256[6] memory add_input;\r\n            bool success;\r\n\r\n            mul_input[0] = GX;\r\n            mul_input[1] = GY;\r\n            mul_input[2] = part1.zi[i];\r\n            assembly {\r\n                success := call(not(0), 7, 0, mul_input, 0x80, add_input, 0x60)\r\n            }\r\n\r\n            mul_input[0] = HX;\r\n            mul_input[1] = HY;\r\n            mul_input[2] = part1.ti[i];\r\n\r\n            assembly {\r\n                success := call(not(0), 7, 0, mul_input, 0x80, add(add_input, 0x40), 0x60)\r\n            }\r\n            if (i==0){\r\n                mul_input[0] = c0.x;\r\n                mul_input[1] = c0.y;\r\n            }else{\r\n                mul_input[0] = part2.ci[i].x;\r\n                mul_input[1] = part2.ci[i].y;\r\n            }\r\n\r\n            mul_input[2] = -part2.gamma;\r\n\r\n            assembly {\r\n                success := call(not(0), 7, 0, mul_input, 0x80, add(add_input, 0x40), 0x60)\r\n            }\r\n            \r\n            assembly {\r\n                success := call(not(0), 6, 0, add_input, 0x80, add_input, 0x60)\r\n            }\r\n\r\n            Fi[i].x = add_input[0];\r\n            Fi[i].y = add_input[1];\r\n\r\n        }\r\n        return Fi;\r\n    }\r\n\r\n    function computeC0(Part2 memory part2)\r\n        internal\r\n        returns(Point memory f)\r\n    {\r\n        Point memory c0;\r\n\r\n        int256[3] memory mul_input;\r\n        int256[4] memory add_input;\r\n        bool success;\r\n\r\n        mul_input[0] = part2.C.x;\r\n        mul_input[1] = part2.C.y;\r\n        mul_input[2] = -1;\r\n        assembly {\r\n            success := call(not(0), 7, 0, mul_input, 0x80, add_input, 0x60)\r\n        }\r\n\r\n        mul_input[0] = GX;\r\n        mul_input[1] = GY;\r\n        mul_input[2] = B;\r\n\r\n        assembly {\r\n            success := call(not(0), 7, 0, mul_input, 0x80, add(add_input, 0x40), 0x60)\r\n        }\r\n\r\n        assembly {\r\n            success := call(not(0), 6, 0, add_input, 0x80, add_input, 0x60)\r\n        }\r\n        \r\n        c0.x = add_input[0];\r\n        c0.y = add_input[1];\r\n        return c0;\r\n    }\r\n\r\n    function computeF(Part1 memory part1, Part2 memory part2)\r\n        internal\r\n        returns(Point memory f)\r\n    {\r\n        Point memory f;\r\n\r\n        int256[3] memory mul_input;\r\n        int256[8] memory add_input;\r\n        bool success;\r\n\r\n        mul_input[0] = HX;\r\n        mul_input[1] = HY;\r\n        mul_input[2] = part1.tao;\r\n        assembly {\r\n            success := call(not(0), 7, 0, mul_input, 0x80, add_input, 0x60)\r\n        }\r\n\r\n        mul_input[0] = GX;\r\n        mul_input[1] = GY;\r\n        mul_input[2] = part2.gamma;\r\n\r\n        assembly {\r\n            success := call(not(0), 7, 0, mul_input, 0x80, add(add_input, 0x40), 0x60)\r\n        }\r\n\r\n        mul_input[0] = part2.C.x;\r\n        mul_input[1] = part2.C.y;\r\n        mul_input[2] = 4*part1.zi[0];\r\n\r\n        assembly {\r\n            success := call(not(0), 7, 0, mul_input, 0x80, add(add_input, 0x40), 0x60)\r\n        }\r\n\r\n        int256[4] memory add_input_cz;\r\n\r\n        mul_input[0] = part2.ci[1].x;\r\n        mul_input[1] = part2.ci[1].y;\r\n        mul_input[2] = -part1.zi[1];\r\n        assembly {\r\n            success := call(not(0), 7, 0, mul_input, 0x80, add_input_cz, 0x60)\r\n        }\r\n        for(uint i=2;i<4;i++) {\r\n            mul_input[0] = part2.ci[i].x;\r\n            mul_input[1] = part2.ci[i].y;\r\n            mul_input[2] = -part1.zi[i];\r\n            assembly {\r\n                success := call(not(0), 7, 0, mul_input, 0x80, add(add_input_cz, 0x40), 0x60)\r\n            }\r\n        }\r\n        assembly {\r\n            success := call(not(0), 6, 0, add_input_cz, 0x80, add_input_cz, 0x60)\r\n        }\r\n        add_input[6] = add_input_cz[0];\r\n        add_input[7] = add_input_cz[1];\r\n\r\n        assembly {\r\n            success := call(not(0), 6, 0, add_input, 0x80, add_input, 0x60)\r\n        }\r\n        \r\n        f.x = add_input[0];\r\n        f.y = add_input[1];\r\n        return f;\r\n    }\r\n\r\n    function hash(Point[4] memory fi , Point memory f)\r\n        internal\r\n        returns(uint256)\r\n    {\r\n\r\n        int256[] memory hash_f = new int256[](10);\r\n        hash_f[8] = f.x;\r\n        hash_f[9] = f.y;\r\n        uint offset = 0;\r\n        for(uint i=0;i<4;i++){\r\n            hash_f[offset] = fi[i].x;\r\n            offset = offset+1;\r\n            hash_f[offset] = fi[i].y;\r\n            offset = offset+1;\r\n        }\r\n\r\n\t\treturn uint256(keccak256(abi.encodePacked(hash_f)));\r\n\t}\r\n\r\n    function compareZi(int256[] memory zi)\r\n        internal\r\n        returns(bool)\r\n    {\r\n        int256 upperBound = 2**192+2**112;\r\n        for(uint i = 0;i<4;i++){\r\n            if (zi[i] > upperBound) return false;\r\n        }\r\n        return true;\r\n    }\r\n\r\n}",
  "sourcePath": "g:\\PhD-1\\Flashproof\\Flashproof\\contracts\\BIC.sol",
  "compiler": {
    "name": "solc",
    "version": "0.8.0+commit.c7dfd78e.Emscripten.clang"
  },
  "schemaVersion": "3.4.11",
  "updatedAt": "2024-04-03T05:59:34.102Z",
  "networkType": "ethereum",
  "devdoc": {
    "kind": "dev",
    "methods": {},
    "version": 1
  },
  "userdoc": {
    "kind": "user",
    "methods": {},
    "version": 1
  }
}