{
  "contractName": "Flashproof",
  "abi": [
    {
      "inputs": [],
      "name": "GX",
      "outputs": [
        {
          "internalType": "uint256",
          "name": "",
          "type": "uint256"
        }
      ],
      "stateMutability": "view",
      "type": "function",
      "constant": true
    },
    {
      "inputs": [],
      "name": "GY",
      "outputs": [
        {
          "internalType": "uint256",
          "name": "",
          "type": "uint256"
        }
      ],
      "stateMutability": "view",
      "type": "function",
      "constant": true
    },
    {
      "inputs": [],
      "name": "HX",
      "outputs": [
        {
          "internalType": "uint256",
          "name": "",
          "type": "uint256"
        }
      ],
      "stateMutability": "view",
      "type": "function",
      "constant": true
    },
    {
      "inputs": [],
      "name": "HY",
      "outputs": [
        {
          "internalType": "uint256",
          "name": "",
          "type": "uint256"
        }
      ],
      "stateMutability": "view",
      "type": "function",
      "constant": true
    },
    {
      "inputs": [],
      "name": "PP",
      "outputs": [
        {
          "internalType": "uint256",
          "name": "",
          "type": "uint256"
        }
      ],
      "stateMutability": "view",
      "type": "function",
      "constant": true
    },
    {
      "inputs": [
        {
          "internalType": "uint256",
          "name": "",
          "type": "uint256"
        },
        {
          "internalType": "uint256",
          "name": "",
          "type": "uint256"
        }
      ],
      "name": "hadamard",
      "outputs": [
        {
          "internalType": "int256",
          "name": "",
          "type": "int256"
        }
      ],
      "stateMutability": "view",
      "type": "function",
      "constant": true
    },
    {
      "inputs": [
        {
          "components": [
            {
              "internalType": "uint256",
              "name": "x",
              "type": "uint256"
            },
            {
              "internalType": "uint256",
              "name": "y",
              "type": "uint256"
            }
          ],
          "internalType": "struct Flashproof.Point",
          "name": "p",
          "type": "tuple"
        },
        {
          "internalType": "uint256",
          "name": "k",
          "type": "uint256"
        }
      ],
      "name": "multiply",
      "outputs": [
        {
          "components": [
            {
              "internalType": "uint256",
              "name": "x",
              "type": "uint256"
            },
            {
              "internalType": "uint256",
              "name": "y",
              "type": "uint256"
            }
          ],
          "internalType": "struct Flashproof.Point",
          "name": "",
          "type": "tuple"
        }
      ],
      "stateMutability": "nonpayable",
      "type": "function"
    },
    {
      "inputs": [
        {
          "components": [
            {
              "internalType": "uint256",
              "name": "x",
              "type": "uint256"
            },
            {
              "internalType": "uint256",
              "name": "y",
              "type": "uint256"
            }
          ],
          "internalType": "struct Flashproof.Point",
          "name": "p1",
          "type": "tuple"
        },
        {
          "components": [
            {
              "internalType": "uint256",
              "name": "x",
              "type": "uint256"
            },
            {
              "internalType": "uint256",
              "name": "y",
              "type": "uint256"
            }
          ],
          "internalType": "struct Flashproof.Point",
          "name": "p2",
          "type": "tuple"
        }
      ],
      "name": "sub",
      "outputs": [
        {
          "components": [
            {
              "internalType": "uint256",
              "name": "x",
              "type": "uint256"
            },
            {
              "internalType": "uint256",
              "name": "y",
              "type": "uint256"
            }
          ],
          "internalType": "struct Flashproof.Point",
          "name": "",
          "type": "tuple"
        }
      ],
      "stateMutability": "nonpayable",
      "type": "function"
    },
    {
      "inputs": [
        {
          "components": [
            {
              "components": [
                {
                  "internalType": "uint256",
                  "name": "x",
                  "type": "uint256"
                },
                {
                  "internalType": "uint256",
                  "name": "y",
                  "type": "uint256"
                }
              ],
              "internalType": "struct Flashproof.Point",
              "name": "cy",
              "type": "tuple"
            },
            {
              "components": [
                {
                  "internalType": "uint256",
                  "name": "x",
                  "type": "uint256"
                },
                {
                  "internalType": "uint256",
                  "name": "y",
                  "type": "uint256"
                }
              ],
              "internalType": "struct Flashproof.Point[]",
              "name": "css",
              "type": "tuple[]"
            },
            {
              "components": [
                {
                  "internalType": "uint256",
                  "name": "x",
                  "type": "uint256"
                },
                {
                  "internalType": "uint256",
                  "name": "y",
                  "type": "uint256"
                }
              ],
              "internalType": "struct Flashproof.Point[]",
              "name": "cqs",
              "type": "tuple[]"
            },
            {
              "components": [
                {
                  "internalType": "uint256",
                  "name": "x",
                  "type": "uint256"
                },
                {
                  "internalType": "uint256",
                  "name": "y",
                  "type": "uint256"
                }
              ],
              "internalType": "struct Flashproof.Point[]",
              "name": "crk",
              "type": "tuple[]"
            },
            {
              "internalType": "uint256[]",
              "name": "eInvs",
              "type": "uint256[]"
            }
          ],
          "internalType": "struct Flashproof.Part1",
          "name": "part1",
          "type": "tuple"
        },
        {
          "components": [
            {
              "internalType": "int256[][]",
              "name": "vs",
              "type": "int256[][]"
            },
            {
              "internalType": "uint256",
              "name": "u",
              "type": "uint256"
            },
            {
              "internalType": "int256[]",
              "name": "epsilon",
              "type": "int256[]"
            },
            {
              "internalType": "int256[]",
              "name": "a",
              "type": "int256[]"
            }
          ],
          "internalType": "struct Flashproof.Part2",
          "name": "part2",
          "type": "tuple"
        },
        {
          "internalType": "uint256",
          "name": "nbits",
          "type": "uint256"
        },
        {
          "internalType": "uint256",
          "name": "K",
          "type": "uint256"
        },
        {
          "internalType": "uint256",
          "name": "L",
          "type": "uint256"
        }
      ],
      "name": "verifyRangeArgument",
      "outputs": [
        {
          "internalType": "uint256",
          "name": "",
          "type": "uint256"
        }
      ],
      "stateMutability": "nonpayable",
      "type": "function"
    },
    {
      "inputs": [
        {
          "internalType": "uint256",
          "name": "a",
          "type": "uint256"
        },
        {
          "internalType": "uint256",
          "name": "b",
          "type": "uint256"
        }
      ],
      "name": "mod",
      "outputs": [
        {
          "internalType": "uint256",
          "name": "",
          "type": "uint256"
        }
      ],
      "stateMutability": "pure",
      "type": "function",
      "constant": true
    }
  ],
  "bytecode": "0x600161010081815261012082905261014082905261016082905260809081526101808281526000196101a08190526101c08490526101e081905260a09190915261020083815261022084905261024082905261026082905260c0526103006040526102808381526102a08290526102c0919091526102e09290925260e09190915262000090906000906004620000a5565b503480156200009e57600080fd5b50620001aa565b828054828255906000526020600020908101928215620000f1579160200282015b82811115620000f1578251620000e0908390600462000103565b5091602001919060010190620000c6565b50620000ff9291506200014f565b5090565b82805482825590600052602060002090810192821562000141579160200282015b828111156200014157825182559160200191906001019062000124565b50620000ff92915062000170565b80821115620000ff57600062000166828262000187565b506001016200014f565b5b80821115620000ff576000815560010162000171565b5080546000825590600052602060002090810190620001a7919062000170565b50565b61272d80620001ba6000396000f3fe608060405234801561001057600080fd5b50600436106100be5760003560e01c8063d42dadde11610076578063ddb2b6561161005b578063ddb2b6561461013f578063eeeac01e14610152578063f43f523a1461015a576100be565b8063d42dadde14610119578063d5776f701461012c576100be565b80637a308a4c116100a75780637a308a4c146100e957806396b41bdd146100f1578063c11b8ad714610111576100be565b806303a507be146100c35780634e93d4a2146100e1575b600080fd5b6100cb61016d565b6040516100d8919061240e565b60405180910390f35b6100cb610172565b6100cb610196565b6101046100ff366004612359565b61019b565b6040516100d891906124e2565b6100cb610290565b61010461012736600461238d565b6102b4565b6100cb61013a366004612234565b610348565b6100cb61014d3660046123b7565b61036c565b6100cb6103a9565b6100cb6101683660046123b7565b6103cd565b600181565b7f0b1fd6eda65bd4e6866a28bccfee143309bfb597378217a2002e5cac8cfe645f81565b600281565b6101a3611fa0565b6101ab611fba565b8351815260208085015181830152835160408301528301516101ed907f30644e72e131a029b85045b68181585d97816a916871ca8d3c208c16d87cfd47612610565b606082015260006101fc611fd8565b604081608085600060067ffffffffffffffffffffffffffffffffffffffffffffffffffffffffffffffffff191508161026a576040517f08c379a0000000000000000000000000000000000000000000000000000000008152600401610261906124ab565b60405180910390fd5b604080518082019091528151815260208101826001602002015190529695505050505050565b7f1581953bcf3ce078038fa19d974e26e4757a0e65573d9628ec8939bb77a6fd0481565b6102bc611fa0565b6102c4611ff6565b83518152602080850151908201526040810183905260006102e3611fd8565b604081606085600060077ffffffffffffffffffffffffffffffffffffffffffffffffffffffffffffffffff191508161026a576040517f08c379a00000000000000000000000000000000000000000000000000000000081526004016102619061244e565b600080610355878561040c565b9050610362818888610691565b5095945050505050565b6000828154811061037c57600080fd5b90600052602060002001818154811061039457600080fd5b90600052602060002001600091509150505481565b7f30644e72e131a029b85045b68181585d97816a916871ca8d3c208c16d87cfd4781565b600081610406576040517f08c379a000000000000000000000000000000000000000000000000000000000815260040161026190612417565b50900690565b60606000836080015160008151811061044e577f4e487b7100000000000000000000000000000000000000000000000000000000600052603260045260246000fd5b60200260200101519050600061047685600001518660600151876020015188604001516107b5565b905060008467ffffffffffffffff8111156104ba577f4e487b7100000000000000000000000000000000000000000000000000000000600052604160045260246000fd5b6040519080825280602002602001820160405280156104e3578160200160208202803683370190505b50905060007f30644e72e131a029b85045b68181585d2833e84879b9709143e1f593f0000001838409905060007f30644e72e131a029b85045b68181585d2833e84879b9709143e1f593f000000182830990508483600081518110610571577f4e487b7100000000000000000000000000000000000000000000000000000000600052603260045260246000fd5b60200260200101818152505083836001815181106105b8577f4e487b7100000000000000000000000000000000000000000000000000000000600052603260045260246000fd5b60200260200101818152505080836002815181106105ff577f4e487b7100000000000000000000000000000000000000000000000000000000600052603260045260246000fd5b60200260200101818152505086600414156106855760007f30644e72e131a029b85045b68181585d2833e84879b9709143e1f593f000000185830990508084600381518110610677577f4e487b7100000000000000000000000000000000000000000000000000000000600052603260045260246000fd5b602002602001018181525050505b50909695505050505050565b60006106a1848360000151610be7565b90506000806106af83611085565b915091506106bb611ff6565b6106c3611fba565b7f1581953bcf3ce078038fa19d974e26e4757a0e65573d9628ec8939bb77a6fd0482527f0b1fd6eda65bd4e6866a28bccfee143309bfb597378217a2002e5cac8cfe645f6020808401919091528601516000908360026020020152606060408301608085600060077ffffffffffffffffffffffffffffffffffffffffffffffffffffffffffffffffff1858352602083018590529050606082608081600060067ffffffffffffffffffffffffffffffffffffffffffffffffffffffffffffffffff18251602084015160408b015192935090916107a1908c9061129b565b602086015290935250505050505050505050565b825182518251600092919083816107cc8486612547565b6107d69190612547565b6107e190600261255f565b905060008167ffffffffffffffff811115610825577f4e487b7100000000000000000000000000000000000000000000000000000000600052604160045260246000fd5b60405190808252806020026020018201604052801561084e578160200160208202803683370190505b5090506000805b868110156109625760008b8281518110610898577f4e487b7100000000000000000000000000000000000000000000000000000000600052603260045260246000fd5b6020026020010151905080600001518484815181106108e0577f4e487b7100000000000000000000000000000000000000000000000000000000600052603260045260246000fd5b60209081029190910101526108f6836001612547565b92508060200151848481518110610936577f4e487b7100000000000000000000000000000000000000000000000000000000600052603260045260246000fd5b602090810291909101015261094c836001612547565b925050808061095a90612627565b915050610855565b5060005b85811015610a735760008a82815181106109a9577f4e487b7100000000000000000000000000000000000000000000000000000000600052603260045260246000fd5b6020026020010151905080600001518484815181106109f1577f4e487b7100000000000000000000000000000000000000000000000000000000600052603260045260246000fd5b6020908102919091010152610a07836001612547565b92508060200151848481518110610a47577f4e487b7100000000000000000000000000000000000000000000000000000000600052603260045260246000fd5b6020908102919091010152610a5d836001612547565b9250508080610a6b90612627565b915050610966565b5060005b84811015610b84576000898281518110610aba577f4e487b7100000000000000000000000000000000000000000000000000000000600052603260045260246000fd5b602002602001015190508060000151848481518110610b02577f4e487b7100000000000000000000000000000000000000000000000000000000600052603260045260246000fd5b6020908102919091010152610b18836001612547565b92508060200151848481518110610b58577f4e487b7100000000000000000000000000000000000000000000000000000000600052603260045260246000fd5b6020908102919091010152610b6e836001612547565b9250508080610b7c90612627565b915050610a77565b50610bd882604051602001610b9991906123d8565b6040516020818303038152906040528051906020012060001c7f30644e72e131a029b85045b68181585d2833e84879b9709143e1f593f00000016103cd565b9b9a5050505050505050505050565b60408051600480825260a082019092526060916000919060208201608080368337019050509050600080805480602002602001604051908101604052809291908181526020016000905b82821015610c9d57600084815260209081902083018054604080518285028101850190915281815292830182828015610c8957602002820191906000526020600020905b815481526020019060010190808311610c75575b505050505081526020019060010190610c31565b50505050905060005b600481101561107b5760408051600480825260a08201909252600091816020015b6060815260200190600190039081610cc757505060408051600480825260a0820190925291925060009190602082016080803683370190505090506000610d0f84600461255f565b905060005b6004811015610f98576000610d298284612547565b905080610e0457610dbb878381518110610d6c577f4e487b7100000000000000000000000000000000000000000000000000000000600052603260045260246000fd5b60200260200101518c600081518110610dae577f4e487b7100000000000000000000000000000000000000000000000000000000600052603260045260246000fd5b6020026020010151611728565b858381518110610df4577f4e487b7100000000000000000000000000000000000000000000000000000000600052603260045260246000fd5b6020026020010181905250610f38565b610ef3878381518110610e40577f4e487b7100000000000000000000000000000000000000000000000000000000600052603260045260246000fd5b60200260200101517f30644e72e131a029b85045b68181585d2833e84879b9709143e1f593f000000180610e9d577f4e487b7100000000000000000000000000000000000000000000000000000000600052601260045260246000fd5b610ea8600185612610565b6002901b8e8681518110610ee5577f4e487b7100000000000000000000000000000000000000000000000000000000600052603260045260246000fd5b602002602001015109611728565b858381518110610f2c577f4e487b7100000000000000000000000000000000000000000000000000000000600052603260045260246000fd5b60200260200101819052505b610f82858381518110610f74577f4e487b7100000000000000000000000000000000000000000000000000000000600052603260045260246000fd5b60200260200101518561181d565b9350508080610f9090612627565b915050610d14565b506000888581518110610fd4577f4e487b7100000000000000000000000000000000000000000000000000000000600052603260045260246000fd5b60200260200101519050610fe8838261194a565b92507f30644e72e131a029b85045b68181585d2833e84879b9709143e1f593f00000016110158483611be9565b61101f9190612660565b878681518110611058577f4e487b7100000000000000000000000000000000000000000000000000000000600052603260045260246000fd5b60200260200101818152505050505050808061107390612627565b915050610ca6565b5090949350505050565b600080611090611ff6565b611098611fba565b6000808252602082018190528551816110b082611cb2565b905060005b828110156112835760008282815181106110f8577f4e487b7100000000000000000000000000000000000000000000000000000000600052603260045260246000fd5b60200260200101519050806000015187600060038110611141577f4e487b7100000000000000000000000000000000000000000000000000000000600052603260045260246000fd5b602002018181525050806020015187600160038110611189577f4e487b7100000000000000000000000000000000000000000000000000000000600052603260045260246000fd5b602002015289518a90839081106111c9577f4e487b7100000000000000000000000000000000000000000000000000000000600052603260045260246000fd5b60200260200101518760026003811061120b577f4e487b7100000000000000000000000000000000000000000000000000000000600052603260045260246000fd5b6020020152606060408701608089600060077ffffffffffffffffffffffffffffffffffffffffffffffffffffffffffffffffff19450606086608081600060067ffffffffffffffffffffffffffffffffffffffffffffffffffffffffffffffffff1945050808061127b90612627565b9150506110b5565b50508251602090930151929792965091945050505050565b6000806000600184516112ae9190612610565b90506112b8611ff6565b6112c0611fba565b600080876000815181106112fd577f4e487b7100000000000000000000000000000000000000000000000000000000600052603260045260246000fd5b60200260200101519050806000015184600060038110611346577f4e487b7100000000000000000000000000000000000000000000000000000000600052603260045260246000fd5b60200201818152505080602001518460016003811061138e577f4e487b7100000000000000000000000000000000000000000000000000000000600052603260045260246000fd5b6020020152885189906000906113cd577f4e487b7100000000000000000000000000000000000000000000000000000000600052603260045260246000fd5b60200260200101518460026003811061140f577f4e487b7100000000000000000000000000000000000000000000000000000000600052603260045260246000fd5b6020020152606083608086600060077ffffffffffffffffffffffffffffffffffffffffffffffffffffffffffffffffff1915060015b85811015611613576000898281518110611488577f4e487b7100000000000000000000000000000000000000000000000000000000600052603260045260246000fd5b602002602001015190508060000151866000600381106114d1577f4e487b7100000000000000000000000000000000000000000000000000000000600052603260045260246000fd5b602002018181525050806020015186600160038110611519577f4e487b7100000000000000000000000000000000000000000000000000000000600052603260045260246000fd5b60200201528a518b9083908110611559577f4e487b7100000000000000000000000000000000000000000000000000000000600052603260045260246000fd5b60200260200101518660026003811061159b577f4e487b7100000000000000000000000000000000000000000000000000000000600052603260045260246000fd5b6020020152606060408601608088600060077ffffffffffffffffffffffffffffffffffffffffffffffffffffffffffffffffff19350606085608081600060067ffffffffffffffffffffffffffffffffffffffffffffffffffffffffffffffffff1935050808061160b90612627565b915050611445565b5087858151811061164d577f4e487b7100000000000000000000000000000000000000000000000000000000600052603260045260246000fd5b60200260200101519050806000015183600260048110611696577f4e487b7100000000000000000000000000000000000000000000000000000000600052603260045260246000fd5b6020020181815250508060200151836003600481106116de577f4e487b7100000000000000000000000000000000000000000000000000000000600052603260045260246000fd5b6020020152606083608081600060067ffffffffffffffffffffffffffffffffffffffffffffffffffffffffffffffffff15050815160209092015191989197509095505050505050565b60408051600480825260a08201909252606091600091906020820160808036833701905050905060005b6004811015611815577f30644e72e131a029b85045b68181585d2833e84879b9709143e1f593f0000001848683815181106117b6577f4e487b7100000000000000000000000000000000000000000000000000000000600052603260045260246000fd5b6020026020010151098282815181106117f8577f4e487b7100000000000000000000000000000000000000000000000000000000600052603260045260246000fd5b60209081029190910101528061180d81612627565b915050611752565b509392505050565b60408051600480825260a08201909252606091600091906020820160808036833701905050905060005b6004811015611815577f30644e72e131a029b85045b68181585d2833e84879b9709143e1f593f00000018482815181106118aa577f4e487b7100000000000000000000000000000000000000000000000000000000600052603260045260246000fd5b60200260200101518683815181106118eb577f4e487b7100000000000000000000000000000000000000000000000000000000600052603260045260246000fd5b60200260200101510882828151811061192d577f4e487b7100000000000000000000000000000000000000000000000000000000600052603260045260246000fd5b60209081029190910101528061194281612627565b915050611847565b60408051600480825260a08201909252606091600091906020820160808036833701905050905060005b6004811015611815578381815181106119b6577f4e487b7100000000000000000000000000000000000000000000000000000000600052603260045260246000fd5b60200260200101518582815181106119f7577f4e487b7100000000000000000000000000000000000000000000000000000000600052603260045260246000fd5b602002602001015112611ada57838181518110611a3d577f4e487b7100000000000000000000000000000000000000000000000000000000600052603260045260246000fd5b6020026020010151858281518110611a7e577f4e487b7100000000000000000000000000000000000000000000000000000000600052603260045260246000fd5b6020026020010151611a90919061259c565b828281518110611ac9577f4e487b7100000000000000000000000000000000000000000000000000000000600052603260045260246000fd5b602002602001018181525050611bd7565b848181518110611b13577f4e487b7100000000000000000000000000000000000000000000000000000000600052603260045260246000fd5b6020026020010151848281518110611b54577f4e487b7100000000000000000000000000000000000000000000000000000000600052603260045260246000fd5b60200260200101517f30644e72e131a029b85045b68181585d2833e84879b9709143e1f593f0000001611b879190612610565b611b919190612547565b828281518110611bca577f4e487b7100000000000000000000000000000000000000000000000000000000600052603260045260246000fd5b6020026020010181815250505b80611be181612627565b915050611974565b600080805b6004811015611815577f30644e72e131a029b85045b68181585d2833e84879b9709143e1f593f000000180858381518110611c52577f4e487b7100000000000000000000000000000000000000000000000000000000600052603260045260246000fd5b6020026020010151878481518110611c93577f4e487b7100000000000000000000000000000000000000000000000000000000600052603260045260246000fd5b6020026020010151098308915080611caa81612627565b915050611bee565b606060008267ffffffffffffffff811115611cf6577f4e487b7100000000000000000000000000000000000000000000000000000000600052604160045260246000fd5b604051908082528060200260200182016040528015611d2f57816020015b611d1c611fa0565b815260200190600190039081611d145790505b50905060405180604001604052807f178312f4ea77eefacdc938aa5c308e67f2911c3707aecb57aba4eab707ef885481526020017f07f2126e5be0f143a9669a1b40a005757ccae0ec05ac24abd7cf151c505064da81525081600081518110611dc1577f4e487b7100000000000000000000000000000000000000000000000000000000600052603260045260246000fd5b602002602001018190525060405180604001604052807f2156ae43c9012d4b45a11510bbf674029c1f1d34a2576a03c3c17caef57dafca81526020017f069efd3d1728186ce8564633fb9ef5d0c05bec680e18ee08240bd33eecdf8b0d81525081600181518110611e5b577f4e487b7100000000000000000000000000000000000000000000000000000000600052603260045260246000fd5b602002602001018190525060405180604001604052807f0d42c343d4a2ff56bef152f6f8e525ca6e813166c5701b0e5688f7c9ca3cc54781526020017f140e48c56512ac501067977d51063e23ee293041e8fe394f26fb6d3980897a2c81525081600281518110611ef5577f4e487b7100000000000000000000000000000000000000000000000000000000600052603260045260246000fd5b602002602001018190525060405180604001604052807f248823f60a7a1fbc0bb2e67c05191e74b5cb53c441fd7523f41ef33b68d3f2a281526020017f0d598ed082faf231cdee36314919eb019b1547104a7e13cc1e43c42932b38f9e81525081600381518110611f8f577f4e487b7100000000000000000000000000000000000000000000000000000000600052603260045260246000fd5b602090810291909101015292915050565b604051806040016040528060008152602001600081525090565b60405180608001604052806004906020820280368337509192915050565b60405180604001604052806002906020820280368337509192915050565b60405180606001604052806003906020820280368337509192915050565b600082601f830112612024578081fd5b8135602061203961203483612523565b6124f9565b82815281810190858301855b8581101561206e5761205c898684358b010161207b565b84529284019290840190600101612045565b5090979650505050505050565b600082601f83011261208b578081fd5b8135602061209b61203483612523565b82815281810190858301838502870184018810156120b7578586fd5b855b8581101561206e578135845292840192908401906001016120b9565b600082601f8301126120e5578081fd5b813560206120f561203483612523565b82815281810190858301604080860288018501891015612113578687fd5b865b86811015612139576121278a846121e6565b85529385019391810191600101612115565b509198975050505050505050565b600060808284031215612158578081fd5b61216260806124f9565b9050813567ffffffffffffffff8082111561217c57600080fd5b61218885838601612014565b83526020840135602084015260408401359150808211156121a857600080fd5b6121b48583860161207b565b604084015260608401359150808211156121cd57600080fd5b506121da8482850161207b565b60608301525092915050565b6000604082840312156121f7578081fd5b6040516040810181811067ffffffffffffffff8211171561221a5761221a6126c8565b604052823581526020928301359281019290925250919050565b600080600080600060a0868803121561224b578081fd5b853567ffffffffffffffff80821115612262578283fd5b9087019060c0828a031215612275578283fd5b61227f60a06124f9565b6122898a846121e6565b815260408301358281111561229c578485fd5b6122a88b8286016120d5565b6020830152506060830135828111156122bf578485fd5b6122cb8b8286016120d5565b6040830152506080830135828111156122e2578485fd5b6122ee8b8286016120d5565b60608301525060a083013582811115612305578485fd5b6123118b82860161207b565b6080830152509650602088013591508082111561232c578283fd5b5061233988828901612147565b959895975050505060408401359360608101359360809091013592509050565b6000806080838503121561236b578182fd5b61237584846121e6565b915061238484604085016121e6565b90509250929050565b6000806060838503121561239f578182fd5b6123a984846121e6565b946040939093013593505050565b600080604083850312156123c9578182fd5b50508035926020909101359150565b815160009082906020808601845b83811015612402578151855293820193908201906001016123e6565b50929695505050505050565b90815260200190565b60208082526018908201527f536166654d6174683a206d6f64756c6f206279207a65726f0000000000000000604082015260600190565b60208082526024908201527f656c6c6970746963206375727665206d756c7469706c69636174696f6e20666160408201527f696c656400000000000000000000000000000000000000000000000000000000606082015260800190565b60208082526018908201527f626e323536207375627472616374696f6e206661696c65640000000000000000604082015260600190565b815181526020918201519181019190915260400190565b60405181810167ffffffffffffffff8111828210171561251b5761251b6126c8565b604052919050565b600067ffffffffffffffff82111561253d5761253d6126c8565b5060209081020190565b6000821982111561255a5761255a612699565b500190565b6000817fffffffffffffffffffffffffffffffffffffffffffffffffffffffffffffffff048311821515161561259757612597612699565b500290565b6000808312837f8000000000000000000000000000000000000000000000000000000000000000018312811516156125d6576125d6612699565b837f7fffffffffffffffffffffffffffffffffffffffffffffffffffffffffffffff01831381161561260a5761260a612699565b50500390565b60008282101561262257612622612699565b500390565b60007fffffffffffffffffffffffffffffffffffffffffffffffffffffffffffffffff82141561265957612659612699565b5060010190565b600082612694577f4e487b710000000000000000000000000000000000000000000000000000000081526012600452602481fd5b500690565b7f4e487b7100000000000000000000000000000000000000000000000000000000600052601160045260246000fd5b7f4e487b7100000000000000000000000000000000000000000000000000000000600052604160045260246000fdfea2646970667358221220c6cd1c3d1969e047a2182323efb1763fe39b772127125de04b2b5784dcf533dc64736f6c63430008000033",
  "immutableReferences": {},
  "source": "// SPDX-License-Identifier: GPL-3.0\npragma solidity ^0.8.0;\npragma experimental ABIEncoderV2;\n\n/**\nThis code implements the range arguments of Flashproofs.\n*/\n\ncontract Flashproof {\n\n    // using SafeMath for uint[];\n\n    struct Point {\n        uint256 x;\n        uint256 y;\n    }\n\n    struct Part1 {\n        Point cy;\n        // Point[] cts;\n        Point[] css;\n        Point[] cqs;\n        Point[] crk;\n        uint256[] eInvs;\n    }\n\n    struct Part2 {\n        int256[][] vs;\n        uint256 u;\n        int256[] epsilon;\n        int256[] a;\n    }\n\n    uint256 public constant GX = 1;\n    uint256 public constant HX = 9727523064272218541460723335320998459488975639302513747055235660443850046724;\n    uint256 public constant GY = 2;\n    uint256 public constant HY = 5031696974169251245229961296941447383441169981934237515842977230762345915487;\n\n    uint256 internal constant AA = 0;\n    uint256 internal constant BB = 3;\n    uint256 public constant PP = 0x30644e72e131a029b85045b68181585d97816a916871ca8d3c208c16d87cfd47;\n    uint256 internal constant NN = 0x30644e72e131a029b85045b68181585d2833e84879b9709143e1f593f0000001;\n\n    uint256 private constant G1X = 10634783317254738331264664985092831821376621286957316213969233667217643505748;\n    uint256 private constant G1Y = 3593894136463563836927847830567934263138852783181300960240960063050894828762;\n    uint256 private constant G2X = 15079475582167754912076991092891442787377018931665830331839902737242049589194;\n    uint256 private constant G2Y = 2994786716555744767228318303490139874612995833883024157075109374536749910797;\n    uint256 private constant G3X = 5998026607105146355656696147154635391947958755485950806629481563238770197831;\n    uint256 private constant G3Y = 9071495078062910622295597859043028737780972268539387614597098676522874141228;\n    uint256 private constant G4X = 16523801944179829840198169326704340952379740918805059924608153703458536682146;\n    uint256 private constant G4Y = 6038302089791721424956127465108246322480323157317821739578233683122154868638;\n\n    int256[][] public hadamard = [\n        [int256(1),int256(1),int256(1),int256(1)],\n        [int256(1),int256(-1),int256(1),int256(-1)],\n        [int256(1),int256(1),int256(-1), int256(-1)],\n        [int256(1),int256(-1),int256(-1), int256(1)]\n    ];\n\n    function multiply(Point memory p, uint256 k)\n        public\n        returns (Point memory)\n    {\n        uint256[3] memory input;\n        input[0] = p.x;\n        input[1] = p.y;\n        input[2] = k;\n\n        bool success;\n        uint256[2] memory result;\n\n        assembly {\n            success := call(not(0), 0x07, 0, input, 96, result, 64)\n        }\n        require(success, \"elliptic curve multiplication failed\");\n\n        return Point(result[0], result[1]);\n    }\n\n    function add(Point memory p1, Point memory p2)\n        internal\n        returns (Point memory)\n    {\n        uint256[4] memory input;\n        input[0] = p1.x;\n        input[1] = p1.y;\n        input[2] = p2.x;\n        input[3] = p2.y;\n\n        bool success;\n        uint256[2] memory result;\n        assembly {\n            success := call(not(0), 0x06, 0, input, 128, result, 64)\n        }\n\n        require(success, \"bn256 addition failed\");\n        return Point(result[0], result[1]);\n    }\n\n    function sub(Point memory p1, Point memory p2)\n        public\n        returns (Point memory)\n    {\n        uint256[4] memory input;\n        input[0] = p1.x;\n        input[1] = p1.y;\n        input[2] = p2.x;\n        input[3] = PP - p2.y;\n\n        bool success;\n        uint256[2] memory result;\n        assembly {\n            success := call(not(0), 0x06, 0, input, 128, result, 64)\n        }\n\n        require(success, \"bn256 subtraction failed\");\n        return Point(result[0], result[1]);\n    }\n\n    function mulConstant(int256[] memory a, int256 b) internal pure returns (int256[] memory) {\n        int256[] memory result = new int256[](4);\n        for (uint i=0; i<4; i++) {\n            result[i] = int(mulmod(uint(a[i]),uint(b),NN));\n        }\n        return result;\n    }\n\n    function addVector(int256[] memory a, int256[] memory b) internal returns (int256[] memory) {\n        int256[] memory result = new int256[](4);\n        for (uint i=0; i<4; i++) {\n            result[i] = int(addmod(uint(a[i]),uint(b[i]),NN));\n        }\n        return result;\n    }\n\n    function subVector(int256[] memory a, int256[] memory b) internal returns (int256[] memory) {\n        int256[] memory result = new int256[](4);\n        for (uint i=0; i<4; i++) {\n            if (a[i] >= b[i]){\n                result[i] = a[i] - b[i];\n            }else{\n                result[i] = int(NN - uint(b[i]) + uint(a[i]));\n            }\n            \n        }\n        return result;\n    }\n\n    function dot(int256[] memory a, int256[] memory b) internal returns (int256) {\n        uint256 total = 0;\n        for (uint i=0; i<4; i++) {\n            total = addmod(total, mulmod(uint(a[i]), uint(b[i]), NN), NN);\n        }\n        return int(total);\n    }\n\n    function verifyRangeArgument(Part1 memory part1, Part2 memory part2, uint nbits, uint K, uint L)\n        external\n        returns (uint256)\n    {\n        uint256[] memory challenges = computeChallenges(part1, K);\n\n        checkCond1(challenges, part1, part2);\n\n        // checkCond2(challenges, part1, part2);\n\n        // checkCond3(part1.cy, part1.css);\n    }\n\n    function generateGS(uint L)\n        internal\n        returns (Point[] memory)\n    {\n        Point[] memory gs = new Point[](L);\n        gs[0] = Point(G1X, G1Y);\n        gs[1] = Point(G2X, G2Y);\n        gs[2] = Point(G3X, G3Y);\n        gs[3] = Point(G4X, G4Y);\n        // gs[4] = Point(G5X, G5Y);\n        // gs[5] = Point(G6X, G6Y);\n        // gs[6] = Point(G7X, G7Y);\n        // gs[7] = Point(G8X, G8Y);\n        // gs[8] = Point(G9X, G9Y);\n        // gs[9] = Point(G10X, G10Y);\n        // gs[10] = Point(G11X, G11Y);\n\n        // if(L == 16){\n        //     gs[11] = Point(G12X, G12Y);\n        //     gs[12] = Point(G13X, G13Y);\n        //     gs[13] = Point(G14X, G14Y);\n        //     gs[14] = Point(G15X, G15Y);\n        //     gs[15] = Point(G16X, G16Y);\n        // }\n\n        return gs;\n    }\n\n    function computeBaseChallenge(Point memory cy, Point[] memory cts, Point[] memory css, Point[] memory cqs)\n        internal\n        returns (uint256)\n    {\n        uint ctlength = cts.length;\n        uint cslength = css.length;\n        uint cqlength = cqs.length;\n\n        uint256 size = 2 * (ctlength + cslength + cqlength);\n        uint256[] memory cs = new uint256[](size);\n        uint offset = 0;\n        for(uint i=0;i<ctlength;i++) {\n            Point memory p = cts[i];\n            cs[offset] = p.x;\n            offset = offset + 1;\n            cs[offset] = p.y;\n            offset = offset + 1;\n        }\n        for(uint i=0;i<cslength;i++) {\n            Point memory p = css[i];\n            cs[offset] = p.x;\n            offset = offset + 1;\n            cs[offset] = p.y;\n            offset = offset + 1;\n        }\n        for(uint i=0;i<cqlength;i++) {\n            Point memory p = cqs[i];\n            cs[offset] = p.x;\n            offset = offset + 1;\n            cs[offset] = p.y;\n            offset = offset + 1;\n        }\n\n        return mod(uint256(keccak256(abi.encodePacked(cs))), NN);\n    }\n\n    function mod(uint256 a, uint256 b)\n        public\n        pure\n        returns (uint256)\n    {\n        require(b != 0, \"SafeMath: modulo by zero\");\n\n        uint256 c;\n        assembly {\n            c := mod(a, b)\n        }\n\n        return c;\n    }\n\n    function computeChallenges(Part1 memory part1, uint K)\n        internal\n        returns (uint256[] memory)\n    {\n        uint256 challengeNeg1 = part1.eInvs[0];\n\n        uint256 challenge = computeBaseChallenge(part1.cy, part1.crk, part1.css, part1.cqs);\n        // require (mulmod(challenge, challengeNeg1, NN) == 1);\n\n        uint256[] memory challenges = new uint256[](K);\n\n        uint256 challenge2 = mulmod(challenge, challenge, NN);\n        uint256 challenge4 = mulmod(challenge2, challenge2, NN);\n        challenges[0] = challengeNeg1;\n        challenges[1] = challenge;\n        challenges[2] = challenge4;\n\n        if(K == 4) {\n            uint256 challenge5 = mulmod(challenge4, challenge, NN);\n            challenges[3] = challenge5;\n        }\n\n        return challenges;\n    }\n\n    function checkCond1(uint256[] memory challenges, Part1 memory part1, Part2 memory part2)\n        internal\n    {\n        uint256[] memory fvs = computeFV(challenges, part2.vs);\n        (uint256 fvpx, uint256 fvpy) = computeFVPoint(fvs);\n\n        uint256[3] memory mul_input;\n        uint256[4] memory add_input;\n        bool success;\n        mul_input[0] = HX;\n        mul_input[1] = HY;\n        mul_input[2] = part2.u;\n        assembly {\n            success := call(not(0), 7, 0, mul_input, 0x80, add(add_input, 0x40), 0x60)\n        }\n\n        add_input[0] = fvpx;\n        add_input[1] = fvpy;\n        assembly {\n            success := call(not(0), 6, 0, add_input, 0x80, add_input, 0x60)\n        }\n\n        uint256 ret1x = add_input[0];\n        uint256 ret1y = add_input[1];\n\n        (add_input[0], add_input[1]) = computeCQS(challenges, part1.cqs);\n\n        // assert (add_input[0] == ret1x && add_input[1] == ret1y);\n    }\n\n    function computeCQS(uint256[] memory challenges, Point[] memory cqs)\n        internal\n        returns (uint256 x, uint256 y)\n    {\n        uint size = cqs.length-1;\n\n        uint256[3] memory mul_input;\n        uint256[4] memory add_input;\n        bool success;\n\n        Point memory p = cqs[0];\n        mul_input[0] = p.x;\n        mul_input[1] = p.y;\n        mul_input[2] = challenges[0];\n        assembly {\n            success := call(not(0), 7, 0, mul_input, 0x80, add(add_input, 0x0), 0x60)\n        }\n\n        for(uint i=1;i<size;i++){\n            Point memory p = cqs[i];\n            mul_input[0] = p.x;\n            mul_input[1] = p.y;\n            mul_input[2] = challenges[i];\n\n            assembly {\n                success := call(not(0), 7, 0, mul_input, 0x80, add(add_input, 0x40), 0x60)\n            }\n\n            assembly {\n                success := call(not(0), 6, 0, add_input, 0x80, add_input, 0x60)\n            }\n        }\n\n        p = cqs[size];\n        add_input[2] = p.x;\n        add_input[3] = p.y;\n\n        assembly {\n            success := call(not(0), 6, 0, add_input, 0x80, add_input, 0x60)\n        }\n\n        return (add_input[0], add_input[1]);\n    }\n\n    function checkCond2(uint256[] memory challenges, Part1 memory part1, Part2 memory part2)\n        internal\n    {\n        \n        uint vsize = part2.vs.length;\n        int256[] memory vl = new int256[](vsize);\n        // int256[] memory a = new int256[](vsize);\n        for(uint i=0;i<vsize;i++) {\n            vl = addVector(vl, part2.vs[i]);\n        }\n        int256 vsum = dot(vl, part2.a);\n\n        uint256[3] memory mul_input;\n        uint256[4] memory add_input;\n        bool success;\n\n        mul_input[0] = GX;\n        mul_input[1] = GY;\n        mul_input[2] = uint(vsum);\n        assembly {\n            success := call(not(0), 7, 0, mul_input, 0x80, add_input, 0x60)\n        }\n\n        mul_input[0] = HX;\n        mul_input[1] = HY;\n\n        int256 epsilon_sum = dot(part2.epsilon, part2.a);\n\n        mul_input[2] = uint(epsilon_sum);\n        assembly {\n            success := call(not(0), 7, 0, mul_input, 0x80, add(add_input, 0x40), 0x60)\n        }\n\n        assembly {\n            success := call(not(0), 6, 0, add_input, 0x80, add_input, 0x60)\n        }\n\n        uint256 ret1x = add_input[0];\n        uint256 ret1y = add_input[1];\n\n        (add_input[0], add_input[1]) = computeCSK(challenges, part2.a, part1.css);\n        (add_input[2], add_input[3]) = computeCRK(part2.a, part1.crk);\n        assembly {\n            success := call(not(0), 6, 0, add_input, 0x80, add_input, 0x60)\n        }\n\n        // assert (ret1x == add_input[0] && ret1y == add_input[1]);\n    }\n\n    function checkCond3(Point memory cy, Point[] memory css)\n        internal\n    {\n        uint wsize = css.length - 1;\n        uint256[4] memory add_input;\n        bool success;\n\n        Point memory p = css[0];\n        add_input[0] = p.x;\n        add_input[1] = p.y;\n        for(uint i=1;i<wsize;i++) {\n            Point memory p = css[i];\n            add_input[2] = p.x;\n            add_input[3] = p.y;\n            assembly {\n                success := call(not(0), 6, 0, add_input, 0x80, add_input, 0x60)\n            }\n        }\n\n        // assert (cy.x == add_input[0] && cy.y == add_input[1]);\n    }\n\n    function computeFV(uint256[] memory challenges, int256[][] memory vs)\n        internal\n        returns (uint256[] memory)\n    {\n\n        uint256[] memory fvs = new uint256[](4);\n        int256[][] memory ha = hadamard;\n\n        for(uint i=0;i<4;i++) {\n            int256[][] memory f = new int256[][](4);\n            int256[] memory f_sum = new int256[](4);\n            uint base = i * 4;\n            for(uint j=0;j<4;j++) {\n                uint idx = base + j;\n                if(idx == 0) {\n                    f[j] = mulConstant(ha[j], int(challenges[0]));\n                } else {\n                    f[j] = mulConstant(ha[j], int(mulmod(challenges[j], 2 << (idx-1), NN)));\n                }\n             \n                f_sum = addVector(f[j], f_sum);\n            }\n\n            int256[] memory v = vs[i];\n            f_sum = subVector(f_sum, v);\n            fvs[i] = uint(dot(f_sum, v)) % NN;\n        }\n\n        return fvs;\n    }\n\n    function computeFVPoint(uint256[] memory fvs)\n        internal\n        returns (uint256 x, uint256 y)\n    {\n        uint256[3] memory mul_input;\n        uint256[4] memory add_input;\n        bool success;\n\n        add_input[0] = 0;\n        add_input[1] = 0;\n        uint size = fvs.length;\n\n        Point[] memory gs = generateGS(size);\n        for(uint i=0;i<size;i++) {\n            Point memory g = gs[i];\n            mul_input[0] = g.x;\n            mul_input[1] = g.y;\n            mul_input[2] = fvs[i];\n\n            assembly {\n                success := call(not(0), 7, 0, mul_input, 0x80, add(add_input, 0x40), 0x60)\n            }\n\n            assembly {\n                success := call(not(0), 6, 0, add_input, 0x80, add_input, 0x60)\n            }\n        }\n\n        return (add_input[0], add_input[1]);\n    }\n\n    function computeCRK(int256[] memory a, Point[] memory crk)\n        internal\n        returns (uint256 x, uint256 y)\n    {\n        uint size = crk.length-1;\n\n        uint256[3] memory mul_input;\n        uint256[4] memory add_input;\n        bool success;\n\n        Point memory p = crk[0];\n        mul_input[0] = p.x;\n        mul_input[1] = p.y;\n        mul_input[2] = uint(a[0]);\n        assembly {\n            success := call(not(0), 7, 0, mul_input, 0x80, add(add_input, 0x0), 0x60)\n        }\n\n        for(uint i=1;i<size;i++){\n            Point memory p = crk[i];\n            mul_input[0] = p.x;\n            mul_input[1] = p.y;\n            mul_input[2] = uint(a[i]);\n\n            assembly {\n                success := call(not(0), 7, 0, mul_input, 0x80, add(add_input, 0x40), 0x60)\n            }\n\n            assembly {\n                success := call(not(0), 6, 0, add_input, 0x80, add_input, 0x60)\n            }\n        }\n\n        return (add_input[0], add_input[1]);\n    }\n\n    function computeCSK(uint256[] memory challenges, int256[] memory a, Point[] memory css)\n        internal\n        returns (uint256 x, uint256 y)\n    {\n        uint size = css.length-1;\n\n        uint256[3] memory mul_input;\n        uint256[4] memory add_input;\n        int256[][] memory ha = hadamard;\n        bool success;\n\n        Point memory p = css[0];\n        mul_input[0] = p.x;\n        mul_input[1] = p.y;\n        // int256 hka = dot(hadamard[0],a);\n        mul_input[2] = mulmod(challenges[0], uint(dot(ha[0],a)), NN);\n        assembly {\n            success := call(not(0), 7, 0, mul_input, 0x80, add_input, 0x60)\n        }\n\n        // // uint wsize = css.length - 1;\n        for(uint i=1;i<size;i++) {\n            Point memory p = css[i];\n            mul_input[0] = p.x;\n            mul_input[1] = p.y;\n\n            // int256 hka = dot(hadamard[i],a);\n\n            mul_input[2] = mulmod(challenges[i], uint(dot(ha[i],a)), NN);\n\n            assembly {\n                success := call(not(0), 7, 0, mul_input, 0x80, add(add_input, 0x40), 0x60)\n            }\n\n            assembly {\n                success := call(not(0), 6, 0, add_input, 0x80, add_input, 0x60)\n            }\n        }\n\n        return (add_input[0], add_input[1]);\n    }\n}",
  "sourcePath": "g:\\PhD-1\\Flashproof\\Flashproof\\contracts\\Flashproof.sol",
  "compiler": {
    "name": "solc",
    "version": "0.8.0+commit.c7dfd78e.Emscripten.clang"
  },
  "schemaVersion": "3.4.11",
  "updatedAt": "2022-12-08T04:53:22.757Z",
  "networkType": "ethereum",
  "devdoc": {
    "kind": "dev",
    "methods": {},
    "version": 1
  },
  "userdoc": {
    "kind": "user",
    "methods": {},
    "notice": "This code implements the range arguments of Flashproofs.",
    "version": 1
  }
}