{
  "contractName": "SafeMath",
  "abi": [
    {
      "inputs": [
        {
          "internalType": "uint256",
          "name": "a",
          "type": "uint256"
        },
        {
          "internalType": "uint8",
          "name": "sign_a",
          "type": "uint8"
        },
        {
          "internalType": "uint256",
          "name": "b",
          "type": "uint256"
        },
        {
          "internalType": "uint8",
          "name": "sign_b",
          "type": "uint8"
        }
      ],
      "name": "sub",
      "outputs": [
        {
          "internalType": "uint256",
          "name": "",
          "type": "uint256"
        },
        {
          "internalType": "uint8",
          "name": "",
          "type": "uint8"
        }
      ],
      "stateMutability": "pure",
      "type": "function"
    },
    {
      "inputs": [
        {
          "internalType": "uint256",
          "name": "a",
          "type": "uint256"
        },
        {
          "internalType": "uint8",
          "name": "sign",
          "type": "uint8"
        },
        {
          "internalType": "uint256",
          "name": "p",
          "type": "uint256"
        }
      ],
      "name": "mod",
      "outputs": [
        {
          "internalType": "uint256",
          "name": "",
          "type": "uint256"
        }
      ],
      "stateMutability": "pure",
      "type": "function"
    },
    {
      "inputs": [
        {
          "internalType": "uint256",
          "name": "a",
          "type": "uint256"
        },
        {
          "internalType": "uint256",
          "name": "b",
          "type": "uint256"
        }
      ],
      "name": "mod",
      "outputs": [
        {
          "internalType": "uint256",
          "name": "",
          "type": "uint256"
        }
      ],
      "stateMutability": "pure",
      "type": "function"
    },
    {
      "inputs": [
        {
          "internalType": "uint256",
          "name": "x",
          "type": "uint256"
        }
      ],
      "name": "inv",
      "outputs": [
        {
          "internalType": "uint256",
          "name": "",
          "type": "uint256"
        }
      ],
      "stateMutability": "pure",
      "type": "function"
    },
    {
      "inputs": [
        {
          "internalType": "uint256",
          "name": "a",
          "type": "uint256"
        },
        {
          "internalType": "uint8",
          "name": "sign",
          "type": "uint8"
        },
        {
          "internalType": "uint256",
          "name": "p",
          "type": "uint256"
        }
      ],
      "name": "modInv",
      "outputs": [
        {
          "internalType": "uint256",
          "name": "",
          "type": "uint256"
        }
      ],
      "stateMutability": "pure",
      "type": "function"
    },
    {
      "inputs": [
        {
          "internalType": "uint256",
          "name": "x",
          "type": "uint256"
        },
        {
          "internalType": "uint256",
          "name": "p",
          "type": "uint256"
        }
      ],
      "name": "modInv",
      "outputs": [
        {
          "internalType": "uint256",
          "name": "",
          "type": "uint256"
        }
      ],
      "stateMutability": "pure",
      "type": "function"
    },
    {
      "inputs": [
        {
          "internalType": "uint256",
          "name": "a",
          "type": "uint256"
        },
        {
          "internalType": "uint8",
          "name": "sign_a",
          "type": "uint8"
        },
        {
          "internalType": "uint256",
          "name": "b",
          "type": "uint256"
        },
        {
          "internalType": "uint8",
          "name": "sign_b",
          "type": "uint8"
        },
        {
          "internalType": "uint256",
          "name": "q",
          "type": "uint256"
        }
      ],
      "name": "submod",
      "outputs": [
        {
          "internalType": "uint256",
          "name": "",
          "type": "uint256"
        }
      ],
      "stateMutability": "pure",
      "type": "function"
    },
    {
      "inputs": [
        {
          "internalType": "uint256",
          "name": "a",
          "type": "uint256"
        },
        {
          "internalType": "uint256",
          "name": "b",
          "type": "uint256"
        },
        {
          "internalType": "uint256",
          "name": "q",
          "type": "uint256"
        }
      ],
      "name": "submod",
      "outputs": [
        {
          "internalType": "uint256",
          "name": "",
          "type": "uint256"
        }
      ],
      "stateMutability": "pure",
      "type": "function"
    },
    {
      "inputs": [
        {
          "internalType": "uint256",
          "name": "a",
          "type": "uint256"
        },
        {
          "internalType": "uint8",
          "name": "sign_a",
          "type": "uint8"
        },
        {
          "internalType": "uint256",
          "name": "b",
          "type": "uint256"
        },
        {
          "internalType": "uint8",
          "name": "sign_b",
          "type": "uint8"
        }
      ],
      "name": "add",
      "outputs": [
        {
          "internalType": "uint256",
          "name": "",
          "type": "uint256"
        },
        {
          "internalType": "uint8",
          "name": "",
          "type": "uint8"
        }
      ],
      "stateMutability": "pure",
      "type": "function"
    }
  ],
  "bytecode": "0x610bde61003a600b82828239805160001a60731461002d57634e487b7160e01b600052600060045260246000fd5b30600052607381538281f3fe73000000000000000000000000000000000000000030146080604052600436106100ad5760003560e01c80637a142f2e11610080578063992aec0b11610065578063992aec0b14610148578063a9008ad61461015b578063f43f523a1461016e576100ad565b80637a142f2e1461012257806394ef44ec14610135576100ad565b80630878cdb9146100b25780632c6d3bfe146100dc57806339f6aa17146100fc57806340c91c051461010f575b600080fd5b6100c56100c036600461083a565b610181565b6040516100d3929190610943565b60405180910390f35b6100ef6100ea366004610806565b610256565b6040516100d3919061093a565b6100ef61010a36600461087f565b6102e4565b6100ef61011d3660046107db565b6103f7565b6100ef6101303660046107a2565b61049d565b6100c561014336600461083a565b610572565b6100ef610156366004610806565b610621565b6100ef6101693660046107ba565b61063f565b6100ef61017c3660046107ba565b610752565b6000806000808660ff16600114801561019d57508460ff166001145b156101d557858811156101bf576101b48689610ae9565b9150600190506101d0565b6101c98887610ae9565b9150600090505b610249565b8660ff1660011480156101e9575060ff8516155b15610203576101f88689610954565b915060019050610249565b60ff871615801561021757508460ff166001145b15610226576101c98689610954565b85881115610238576101c98689610ae9565b6102428887610ae9565b9150600190505b9097909650945050505050565b600081610298576040517f08c379a000000000000000000000000000000000000000000000000000000000815260040161028f906108cc565b60405180910390fd5b60006102a48584610752565b90508360ff16600114156102b95790506102dd565b806102c55790506102dd565b6102cf8584610752565b6102d99084610ae9565b9150505b9392505050565b60008460ff1660011480156102fc57508260ff166001145b156103135761030c8685846103f7565b90506103ee565b8460ff166001148015610327575060ff8316155b1561036b578180610361577f4e487b7100000000000000000000000000000000000000000000000000000000600052601260045260246000fd5b84870890506103ee565b60ff851615801561037f57508260ff166001145b156103c65781806103b9577f4e487b7100000000000000000000000000000000000000000000000000000000600052601260045260246000fd5b84870861030c9083610ae9565b838611156103e3576103d98685846103f7565b61030c9083610ae9565b61030c8487846103f7565b95945050505050565b60008284111561044a578180610436577f4e487b7100000000000000000000000000000000000000000000000000000000600052601260045260246000fd5b60006104428587610ae9565b0890506102dd565b818061047f577f4e487b7100000000000000000000000000000000000000000000000000000000600052601260045260246000fd5b600061048b8686610ae9565b086104969083610ae9565b90506102dd565b60007f30644e72e131a029b85045b68181585d2833e84879b9709143e1f593f000000182806104d15760009250505061056d565b818111156104e6576104e38282610b00565b90505b600060018383835b8115610539576104fe828461096c565b90508361050b8183610980565b6105159087610a75565b836105208185610a38565b61052a9087610ae9565b929750909550935091506104ee565b60008512156105635761054b85610b14565b6105559088610ae9565b97505050505050505061056d565b5092955050505050505b919050565b6000806000808660ff16600114801561058e57508460ff166001145b1561059d576101f88689610954565b8660ff1660011480156105b1575060ff8516155b156105c857858811156101bf576101b48689610ae9565b60ff87161580156105dc57508460ff166001145b1561060857858811156105fe576105f38689610ae9565b9150600090506101d0565b6101f88887610ae9565b6106128689610954565b98600098509650505050505050565b60008060ff8416610639576106368584610752565b90505b6102d981845b600082158015906106505750818314155b801561065b57508115155b610691576040517f08c379a000000000000000000000000000000000000000000000000000000000815260040161028f90610903565b6000600183825b8615610747576106a8878361096c565b90508286806106e0577f4e487b7100000000000000000000000000000000000000000000000000000000600052601260045260246000fd5b8780610715577f4e487b7100000000000000000000000000000000000000000000000000000000600052601260045260246000fd5b8584096107229089610ae9565b86089094509250866107348183610a38565b61073e9084610ae9565b97509150610698565b509195945050505050565b60008161078b576040517f08c379a000000000000000000000000000000000000000000000000000000000815260040161028f906108cc565b50900690565b803560ff8116811461056d57600080fd5b6000602082840312156107b3578081fd5b5035919050565b600080604083850312156107cc578081fd5b50508035926020909101359150565b6000806000606084860312156107ef578081fd5b505081359360208301359350604090920135919050565b60008060006060848603121561081a578283fd5b8335925061082a60208501610791565b9150604084013590509250925092565b6000806000806080858703121561084f578081fd5b8435935061085f60208601610791565b92506040850135915061087460608601610791565b905092959194509250565b600080600080600060a08688031215610896578081fd5b853594506108a660208701610791565b9350604086013592506108bb60608701610791565b949793965091946080013592915050565b60208082526018908201527f536166654d6174683a206d6f64756c6f206279207a65726f0000000000000000604082015260600190565b6020808252600e908201527f496e76616c6964206e756d626572000000000000000000000000000000000000604082015260600190565b90815260200190565b91825260ff16602082015260400190565b6000821982111561096757610967610b4a565b500190565b60008261097b5761097b610b79565b500490565b60007f7fffffffffffffffffffffffffffffffffffffffffffffffffffffffffffffff818413828413858304851182821616156109bf576109bf610b4a565b7f8000000000000000000000000000000000000000000000000000000000000000848712868205881281841616156109f9576109f9610b4a565b858712925087820587128484161615610a1457610a14610b4a565b87850587128184161615610a2a57610a2a610b4a565b505050929093029392505050565b6000817fffffffffffffffffffffffffffffffffffffffffffffffffffffffffffffffff0483118215151615610a7057610a70610b4a565b500290565b6000808312837f800000000000000000000000000000000000000000000000000000000000000001831281151615610aaf57610aaf610b4a565b837f7fffffffffffffffffffffffffffffffffffffffffffffffffffffffffffffff018313811615610ae357610ae3610b4a565b50500390565b600082821015610afb57610afb610b4a565b500390565b600082610b0f57610b0f610b79565b500690565b60007f8000000000000000000000000000000000000000000000000000000000000000821415610b4657610b46610b4a565b0390565b7f4e487b7100000000000000000000000000000000000000000000000000000000600052601160045260246000fd5b7f4e487b7100000000000000000000000000000000000000000000000000000000600052601260045260246000fdfea26469706673582212202355fbea8c760f262a85424959ce6d9a8499370fd45dae7284054d10d546ee6664736f6c63430008000033",
  "immutableReferences": {},
  "source": "// SPDX-License-Identifier: GPL-3.0\npragma solidity ^0.8.0;\n\n// import \"prb-math/contracts/PRBMathSD59x18.sol\";\n\n/**\n * Author: Nan Wang\n * Date: 12-01-2021\n **/\nlibrary SafeMath {\n\n    function add(uint256 a, uint8 sign_a, uint256 b, uint8 sign_b)\n        public\n        pure\n        returns (uint256, uint8)\n    {\n        uint256 c;\n        uint8 s;\n        if (sign_a == 1 && sign_b == 1) {\n            c = a + b;\n            s = 1;\n        } else if (sign_a == 1 && sign_b == 0) {\n            if (a > b) {\n                c = a - b;\n                s = 1;\n            } else {\n                c = b - a;\n                s = 0;\n            }\n        } else if (sign_a == 0 && sign_b == 1) {\n            if (a > b) {\n                c = a - b;\n                s = 0;\n            } else {\n                c = b - a;\n                s = 1;\n            }\n        } else {\n            c = a + b;\n            s = 0;\n        }\n\n        return (c, s);\n    }\n\n    function sub(uint256 a, uint8 sign_a, uint256 b, uint8 sign_b)\n        public\n        pure\n        returns (uint256, uint8)\n    {\n        uint256 c;\n        uint8 s;\n        if (sign_a == 1 && sign_b == 1) {\n            if (a > b) {\n                c = a - b;\n                s = 1;\n            } else {\n                c = b - a;\n                s = 0;\n            }\n        } else if (sign_a == 1 && sign_b == 0) {\n            c = a + b;\n            s = 1;\n        } else if (sign_a == 0 && sign_b == 1) {\n            c = a + b;\n            s = 0;\n        } else {\n            if (a > b) {\n                c = a - b;\n                s = 0;\n            } else {\n                c = b - a;\n                s = 1;\n            }\n        }\n\n        return (c, s);\n    }\n\n    function mod(uint256 a, uint256 b)\n        public\n        pure\n        returns (uint256)\n    {\n        require(b != 0, \"SafeMath: modulo by zero\");\n\n        uint256 c;\n        assembly {\n            c := mod(a, b)\n        }\n\n        return c;\n    }\n\n    function mod(uint256 a, uint8 sign, uint256 p)\n        public\n        pure\n        returns (uint256)\n    {\n        require(p != 0, \"SafeMath: modulo by zero\");\n\n        uint256 ret = mod(a, p);\n\n        if(sign == 1) {\n            return ret;\n        } else if (ret == 0) {\n            return ret;\n        } else {\n            return p - mod(a, p);\n        }\n    }\n\n    function inv(uint256 x) public pure returns (uint) {\n        uint256 p = 21888242871839275222246405745257275088548364400416034343698204186575808495617;\n        uint256 a = x;\n        if (a == 0)\n            return 0;\n        if (a > p)\n            a = a % p;\n        int t1;\n        int t2 = 1;\n        uint r1 = p;\n        uint r2 = a;\n        uint q;\n        while (r2 != 0) {\n            q = r1 / r2;\n            (t1, t2, r1, r2) = (t2, t1 - int(q) * t2, r2, r1 - q * r2);\n        }\n        if (t1 < 0)\n            return (p - uint(-t1));\n        return uint(t1);\n    }\n\n     function modInv(uint256 x, uint256 p)\n        public\n        pure\n        returns (uint256)\n    {\n        require(x != 0 && x != p && p != 0, \"Invalid number\");\n        uint256 q = 0;\n        uint256 newT = 1;\n        uint256 r = p;\n        uint256 t;\n        while (x != 0) {\n            t = r / x;\n            (q, newT) = (newT, addmod(q, (p - mulmod(t, newT, p)), p));\n            (r, x) = (x, r - t * x);\n        }\n\n        return q;\n    }\n\n    function modInv(uint256 a, uint8 sign, uint256 p)\n        public\n        pure\n        returns (uint256)\n    {\n        uint256 c;\n        if(sign == 0) {\n            c = mod(a, p);\n        }\n\n        return modInv(c, p);\n    }\n\n    // a - b = c;\n    function submod(uint256 a, uint256 b, uint256 q)\n        public\n        pure\n        returns (uint256)\n    {\n        if(a > b) {\n           return addmod(a - b, 0, q);\n        } else {\n            return q - addmod(b - a, 0, q);\n        }\n    }\n\n    function submod(uint256 a, uint8 sign_a, uint256 b, uint8 sign_b, uint256 q)\n        public\n        pure\n        returns (uint256)\n    {\n        if(sign_a == 1 && sign_b == 1) {\n            return submod(a, b, q);\n        } else if (sign_a == 1 && sign_b == 0) {\n            return addmod(a, b, q);\n        } else if (sign_a == 0 && sign_b == 1) {\n            return q - addmod(a, b, q);\n        } else {\n            if (a > b) {\n                return q - submod(a, b, q);\n            } else {\n                return submod(b, a, q);\n            }\n        }\n    }\n\n    function createMatrix(uint dim1, uint dim2) internal pure returns (int256[][] memory) {\n        int256[][] memory result = new int256[][](dim1);\n        for (uint i=0; i<dim1; i++) {\n            result[i] = new int256[](dim2);\n        }\n        return result;\n    }\n\n    function mul(int256[][] memory a, int256 b) internal pure returns (int256[][] memory) {\n        int256[][] memory result = createMatrix(a.length, a[0].length);\n        for (uint i=0; i<a.length; i++) {\n            for (uint j=0; j<a[0].length; j++) {\n                result[i][j] = a[i][j] * b;\n            }\n        }\n        return result;\n    }\n\n    function dot(int256[][] memory a, int256[][] memory b) internal pure returns (int256[][] memory) {\n        uint l1 = a.length;\n        uint l2 = b[0].length;\n        uint zipsize = b.length;\n        int256[][] memory c = new int256[][](l1);\n        for (uint fi=0; fi<l1; fi++) {\n            c[fi] = new int256[](l2);\n            for (uint fj=0; fj<l2; fj++) {\n                int256 entry = 0e18;\n                for (uint i=0; i<zipsize; i++) {\n                    entry += a[fi][i] * b[i][fj];\n                }\n                c[fi][fj] = entry;\n            }\n        }\n        return c;\n    }\n\n    function add(int256[][] memory a, int256[][] memory b) internal pure returns (int256[][] memory) {\n        int256[][] memory result = createMatrix(a.length, a[0].length);\n        for (uint i=0; i<a.length; i++) {\n            for (uint j=0; j<a[0].length; j++) {\n                result[i][j] = a[i][j] + b[i][j];\n            }\n        }\n        return result;\n    }\n\n    function dot(int256[] memory a, int256[] memory b) internal pure returns (int256) {\n        int256 total = 0e18;\n        for (uint i=0; i<a.length; i++) {\n            total += a[i] * b[i];\n        }\n        return total;\n    }\n\n    function add(int256[] memory a, int256[] memory b) internal pure returns (int256[] memory) {\n        int256[] memory result = new int256[](a.length);\n        for (uint i=0; i<a.length; i++) {\n            result[i] = a[i] + b[i];\n        }\n        return result;\n    }\n\n    function mul(int256[] memory a, int256 b) internal pure returns (int256[] memory) {\n        int256[] memory result = new int256[](a.length);\n        for (uint i=0; i<a.length; i++) {\n            result[i] = a[i] * b;\n        }\n        return result;\n    }\n\n}\n",
  "sourcePath": "g:\\PhD-1\\Flashproof\\Flashproof\\contracts\\SafeMath.sol",
  "compiler": {
    "name": "solc",
    "version": "0.8.0+commit.c7dfd78e.Emscripten.clang"
  },
  "schemaVersion": "3.4.11",
  "updatedAt": "2024-04-03T05:59:31.498Z",
  "devdoc": {
    "kind": "dev",
    "methods": {},
    "version": 1
  },
  "userdoc": {
    "kind": "user",
    "methods": {},
    "notice": "Author: Nan Wang Date: 12-01-2021*",
    "version": 1
  }
}