{
  "contractName": "Swiftrange",
  "abi": [
    {
      "inputs": [],
      "name": "GX",
      "outputs": [
        {
          "internalType": "uint256",
          "name": "",
          "type": "uint256"
        }
      ],
      "stateMutability": "view",
      "type": "function"
    },
    {
      "inputs": [],
      "name": "GY",
      "outputs": [
        {
          "internalType": "uint256",
          "name": "",
          "type": "uint256"
        }
      ],
      "stateMutability": "view",
      "type": "function"
    },
    {
      "inputs": [],
      "name": "HX",
      "outputs": [
        {
          "internalType": "uint256",
          "name": "",
          "type": "uint256"
        }
      ],
      "stateMutability": "view",
      "type": "function"
    },
    {
      "inputs": [],
      "name": "HY",
      "outputs": [
        {
          "internalType": "uint256",
          "name": "",
          "type": "uint256"
        }
      ],
      "stateMutability": "view",
      "type": "function"
    },
    {
      "inputs": [],
      "name": "PP",
      "outputs": [
        {
          "internalType": "uint256",
          "name": "",
          "type": "uint256"
        }
      ],
      "stateMutability": "view",
      "type": "function"
    },
    {
      "inputs": [
        {
          "components": [
            {
              "internalType": "uint256",
              "name": "x",
              "type": "uint256"
            },
            {
              "internalType": "uint256",
              "name": "y",
              "type": "uint256"
            }
          ],
          "internalType": "struct Swiftrange.Point",
          "name": "p",
          "type": "tuple"
        },
        {
          "internalType": "uint256",
          "name": "k",
          "type": "uint256"
        }
      ],
      "name": "multiply",
      "outputs": [
        {
          "components": [
            {
              "internalType": "uint256",
              "name": "x",
              "type": "uint256"
            },
            {
              "internalType": "uint256",
              "name": "y",
              "type": "uint256"
            }
          ],
          "internalType": "struct Swiftrange.Point",
          "name": "",
          "type": "tuple"
        }
      ],
      "stateMutability": "nonpayable",
      "type": "function"
    },
    {
      "inputs": [
        {
          "internalType": "uint256",
          "name": "a",
          "type": "uint256"
        },
        {
          "internalType": "uint256",
          "name": "b",
          "type": "uint256"
        }
      ],
      "name": "mod",
      "outputs": [
        {
          "internalType": "uint256",
          "name": "",
          "type": "uint256"
        }
      ],
      "stateMutability": "pure",
      "type": "function"
    },
    {
      "inputs": [
        {
          "internalType": "uint256",
          "name": "x",
          "type": "uint256"
        },
        {
          "internalType": "uint256",
          "name": "p",
          "type": "uint256"
        }
      ],
      "name": "modInv",
      "outputs": [
        {
          "internalType": "uint256",
          "name": "",
          "type": "uint256"
        }
      ],
      "stateMutability": "pure",
      "type": "function"
    },
    {
      "inputs": [
        {
          "components": [
            {
              "internalType": "uint256",
              "name": "x",
              "type": "uint256"
            },
            {
              "internalType": "uint256",
              "name": "y",
              "type": "uint256"
            }
          ],
          "internalType": "struct Swiftrange.Point",
          "name": "p1",
          "type": "tuple"
        },
        {
          "components": [
            {
              "internalType": "uint256",
              "name": "x",
              "type": "uint256"
            },
            {
              "internalType": "uint256",
              "name": "y",
              "type": "uint256"
            }
          ],
          "internalType": "struct Swiftrange.Point",
          "name": "p2",
          "type": "tuple"
        }
      ],
      "name": "sub",
      "outputs": [
        {
          "components": [
            {
              "internalType": "uint256",
              "name": "x",
              "type": "uint256"
            },
            {
              "internalType": "uint256",
              "name": "y",
              "type": "uint256"
            }
          ],
          "internalType": "struct Swiftrange.Point",
          "name": "",
          "type": "tuple"
        }
      ],
      "stateMutability": "nonpayable",
      "type": "function"
    },
    {
      "inputs": [
        {
          "components": [
            {
              "components": [
                {
                  "internalType": "uint256",
                  "name": "x",
                  "type": "uint256"
                },
                {
                  "internalType": "uint256",
                  "name": "y",
                  "type": "uint256"
                }
              ],
              "internalType": "struct Swiftrange.Point",
              "name": "X",
              "type": "tuple"
            },
            {
              "components": [
                {
                  "internalType": "uint256",
                  "name": "x",
                  "type": "uint256"
                },
                {
                  "internalType": "uint256",
                  "name": "y",
                  "type": "uint256"
                }
              ],
              "internalType": "struct Swiftrange.Point",
              "name": "T",
              "type": "tuple"
            },
            {
              "components": [
                {
                  "internalType": "uint256",
                  "name": "x",
                  "type": "uint256"
                },
                {
                  "internalType": "uint256",
                  "name": "y",
                  "type": "uint256"
                }
              ],
              "internalType": "struct Swiftrange.Point",
              "name": "Q",
              "type": "tuple"
            },
            {
              "internalType": "uint256",
              "name": "s",
              "type": "uint256"
            },
            {
              "internalType": "uint256[]",
              "name": "zs",
              "type": "uint256[]"
            },
            {
              "components": [
                {
                  "internalType": "uint256",
                  "name": "x",
                  "type": "uint256"
                },
                {
                  "internalType": "uint256",
                  "name": "y",
                  "type": "uint256"
                }
              ],
              "internalType": "struct Swiftrange.Point[][]",
              "name": "ws",
              "type": "tuple[][]"
            }
          ],
          "internalType": "struct Swiftrange.Part1",
          "name": "part1",
          "type": "tuple"
        },
        {
          "internalType": "uint256",
          "name": "nbits",
          "type": "uint256"
        }
      ],
      "name": "verifyRangeArgument",
      "outputs": [
        {
          "internalType": "uint256",
          "name": "",
          "type": "uint256"
        }
      ],
      "stateMutability": "nonpayable",
      "type": "function"
    }
  ],
  "bytecode": "0x608060405234801561001057600080fd5b506159ed80620000216000396000f3fe608060405234801561001057600080fd5b50600436106100be5760003560e01c8063a9008ad611610076578063d42dadde1161005b578063d42dadde1461013f578063eeeac01e14610152578063f43f523a1461015a576100be565b8063a9008ad614610124578063c11b8ad714610137576100be565b80637a308a4c116100a75780637a308a4c146100e957806382a4bde0146100f157806396b41bdd14610104576100be565b806303a507be146100c35780634e93d4a2146100e1575b600080fd5b6100cb61016d565b6040516100d89190615824565b60405180910390f35b6100cb610172565b6100cb610196565b6100cb6100ff36600461557e565b61019b565b610117610112366004615656565b6107d6565b6040516100d8919061580d565b6100cb6101323660046156b4565b6108cb565b6100cb6109de565b61011761014d36600461568a565b610a02565b6100cb610a96565b6100cb6101683660046156b4565b610aba565b600181565b7f0b1fd6eda65bd4e6866a28bccfee143309bfb597378217a2002e5cac8cfe645f81565b600281565b6000806101b084600001518560400151610af9565b905060006101c2856020015183610ca8565b90506000806101d2878585610da0565b9150915060006101e187610fda565b905060006101f5896020015183888b6136e0565b9050816102068a868685858b613d9c565b60808e0151519398509196509350915060009067ffffffffffffffff811115610258577f4e487b7100000000000000000000000000000000000000000000000000000000600052604160045260246000fd5b604051908082528060200260200182016040528015610281578160200160208202803683370190505b50905060005b8b6080015151811015610396577f30644e72e131a029b85045b68181585d2833e84879b9709143e1f593f00000018c6080015182815181106102f2577f4e487b7100000000000000000000000000000000000000000000000000000000600052603260045260246000fd5b60200260200101518d608001518381518110610337577f4e487b7100000000000000000000000000000000000000000000000000000000600052603260045260246000fd5b602002602001015109828281518110610379577f4e487b7100000000000000000000000000000000000000000000000000000000600052603260045260246000fd5b60209081029190910101528061038e81615920565b915050610287565b5061039f61539b565b6103a76153b9565b600080825260208201819052805b8e6080015151811015610585578681815181106103fb577f4e487b7100000000000000000000000000000000000000000000000000000000600052603260045260246000fd5b60209081029190910101515184528651879082908110610444577f4e487b7100000000000000000000000000000000000000000000000000000000600052603260045260246000fd5b6020026020010151602001518460016003811061048a577f4e487b7100000000000000000000000000000000000000000000000000000000600052603260045260246000fd5b602002015260808f01518051829081106104cd577f4e487b7100000000000000000000000000000000000000000000000000000000600052603260045260246000fd5b60200260200101518460026003811061050f577f4e487b7100000000000000000000000000000000000000000000000000000000600052603260045260246000fd5b6020020152606060408401608086600060077ffffffffffffffffffffffffffffffffffffffffffffffffffffffffffffffffff19150606083608081600060067ffffffffffffffffffffffffffffffffffffffffffffffffffffffffffffffffff191508061057d81615920565b9150506103b5565b5061058e61539b565b6105966153b9565b6000808252602082018190525b865181101561076c578781815181106105e5577f4e487b7100000000000000000000000000000000000000000000000000000000600052603260045260246000fd5b6020908102919091010151518352875188908290811061062e577f4e487b7100000000000000000000000000000000000000000000000000000000600052603260045260246000fd5b60200260200101516020015183600160038110610674577f4e487b7100000000000000000000000000000000000000000000000000000000600052603260045260246000fd5b602002015286518790829081106106b4577f4e487b7100000000000000000000000000000000000000000000000000000000600052603260045260246000fd5b6020026020010151836002600381106106f6577f4e487b7100000000000000000000000000000000000000000000000000000000600052603260045260246000fd5b6020020152606060408301608085600060077ffffffffffffffffffffffffffffffffffffffffffffffffffffffffffffffffff19350606082608081600060067ffffffffffffffffffffffffffffffffffffffffffffffffffffffffffffffffff193508061076481615920565b9150506105a3565b506107756153b9565b84518152602080860151828201528251604083015282015160608083019190915281608081600060067ffffffffffffffffffffffffffffffffffffffffffffffffffffffffffffffffff19350505050505050505050505050505092915050565b6107de6153d7565b6107e66153b9565b835181526020808501518183015283516040830152830151610828907f30644e72e131a029b85045b68181585d97816a916871ca8d3c208c16d87cfd47615909565b606082015260006108376153f1565b604081608085600060067ffffffffffffffffffffffffffffffffffffffffffffffffffffffffffffffffff19150816108a5576040517f08c379a000000000000000000000000000000000000000000000000000000000815260040161089c9061579f565b60405180910390fd5b604080518082019091528151815260208101826001602002015190529695505050505050565b600082158015906108dc5750818314155b80156108e757508115155b61091d576040517f08c379a000000000000000000000000000000000000000000000000000000000815260040161089c906157d6565b6000600183825b86156109d3576109348783615893565b905082868061096c577f4e487b7100000000000000000000000000000000000000000000000000000000600052601260045260246000fd5b87806109a1577f4e487b7100000000000000000000000000000000000000000000000000000000600052601260045260246000fd5b8584096109ae9089615909565b86089094509250866109c081836158cc565b6109ca9084615909565b97509150610924565b509195945050505050565b7f1581953bcf3ce078038fa19d974e26e4757a0e65573d9628ec8939bb77a6fd0481565b610a0a6153d7565b610a1261539b565b8351815260208085015190820152604081018390526000610a316153f1565b604081606085600060077ffffffffffffffffffffffffffffffffffffffffffffffffffffffffffffffffff19150816108a5576040517f08c379a000000000000000000000000000000000000000000000000000000000815260040161089c90615742565b7f30644e72e131a029b85045b68181585d97816a916871ca8d3c208c16d87cfd4781565b600081610af3576040517f08c379a000000000000000000000000000000000000000000000000000000000815260040161089c9061570b565b50900690565b60408051600480825260a082019092526000919082908260208201608080368337019050509050846000015181600081518110610b5f577f4e487b7100000000000000000000000000000000000000000000000000000000600052603260045260246000fd5b602002602001018181525050846020015181600181518110610baa577f4e487b7100000000000000000000000000000000000000000000000000000000600052603260045260246000fd5b602002602001018181525050836000015181600281518110610bf5577f4e487b7100000000000000000000000000000000000000000000000000000000600052603260045260246000fd5b602002602001018181525050836020015181600381518110610c40577f4e487b7100000000000000000000000000000000000000000000000000000000600052603260045260246000fd5b602002602001018181525050610c9f81604051602001610c6091906156d5565b6040516020818303038152906040528051906020012060001c7f30644e72e131a029b85045b68181585d2833e84879b9709143e1f593f0000001610aba565b95945050505050565b604080516003808252608082019092526000919082908260208201606080368337019050509050846000015181600081518110610d0e577f4e487b7100000000000000000000000000000000000000000000000000000000600052603260045260246000fd5b602002602001018181525050846020015181600181518110610d59577f4e487b7100000000000000000000000000000000000000000000000000000000600052603260045260246000fd5b6020026020010181815250508381600281518110610c40577f4e487b7100000000000000000000000000000000000000000000000000000000600052603260045260246000fd5b600080610dab61539b565b610db36153b9565b7f1581953bcf3ce078038fa19d974e26e4757a0e65573d9628ec8939bb77a6fd0482527f0b1fd6eda65bd4e6866a28bccfee143309bfb597378217a2002e5cac8cfe645f60208301526060878101516040840152600090826080858460077ffffffffffffffffffffffffffffffffffffffffffffffffffffffffffffffffff1885151845288516020908101519085015260408085018990529091506060908301608085600060077ffffffffffffffffffffffffffffffffffffffffffffffffffffffffffffffffff19050606082608081600060067ffffffffffffffffffffffffffffffffffffffffffffffffffffffffffffffffff160208981018051518652518101519085015260408085018890529091506060908301608085600060077ffffffffffffffffffffffffffffffffffffffffffffffffffffffffffffffffff19050606082608081600060067ffffffffffffffffffffffffffffffffffffffffffffffffffffffffffffffffff1604089018051518552516020908101519085015290507f30644e72e131a029b85045b68181585d2833e84879b9709143e1f593f00000018680098360026020020152606060408301608085600060077ffffffffffffffffffffffffffffffffffffffffffffffffffffffffffffffffff19050606082608081600060067ffffffffffffffffffffffffffffffffffffffffffffffffffffffffffffffffff1505080516020909101519097909650945050505050565b606060008267ffffffffffffffff81111561101e577f4e487b7100000000000000000000000000000000000000000000000000000000600052604160045260246000fd5b60405190808252806020026020018201604052801561105757816020015b6110446153d7565b81526020019060019003908161103c5790505b50905060405180604001604052807f178312f4ea77eefacdc938aa5c308e67f2911c3707aecb57aba4eab707ef885481526020017f07f2126e5be0f143a9669a1b40a005757ccae0ec05ac24abd7cf151c505064da815250816000815181106110e9577f4e487b7100000000000000000000000000000000000000000000000000000000600052603260045260246000fd5b602002602001018190525060405180604001604052807f2156ae43c9012d4b45a11510bbf674029c1f1d34a2576a03c3c17caef57dafca81526020017f069efd3d1728186ce8564633fb9ef5d0c05bec680e18ee08240bd33eecdf8b0d81525081600181518110611183577f4e487b7100000000000000000000000000000000000000000000000000000000600052603260045260246000fd5b602002602001018190525060405180604001604052807f0d42c343d4a2ff56bef152f6f8e525ca6e813166c5701b0e5688f7c9ca3cc54781526020017f140e48c56512ac501067977d51063e23ee293041e8fe394f26fb6d3980897a2c8152508160028151811061121d577f4e487b7100000000000000000000000000000000000000000000000000000000600052603260045260246000fd5b602002602001018190525060405180604001604052807f248823f60a7a1fbc0bb2e67c05191e74b5cb53c441fd7523f41ef33b68d3f2a281526020017f0d598ed082faf231cdee36314919eb019b1547104a7e13cc1e43c42932b38f9e815250816003815181106112b7577f4e487b7100000000000000000000000000000000000000000000000000000000600052603260045260246000fd5b602002602001018190525060405180604001604052807f1acac51260a2a4aff6f446219481417b939f2aa9f722f6180e12c4d4694ce8a081526020017f074b34e004175a4ed53bd048766419211c231923d4e278ceb3215fd21731e7ef81525081600481518110611351577f4e487b7100000000000000000000000000000000000000000000000000000000600052603260045260246000fd5b602002602001018190525060405180604001604052807f1e002b36f979170fcf45cbf813260b9c53031159a41ef16f1a4693f72363b75081526020017f0db304d955d4dedc9e7bfded658b29bf29d42bdd76cf1011e275127281db72b2815250816005815181106113eb577f4e487b7100000000000000000000000000000000000000000000000000000000600052603260045260246000fd5b602002602001018190525060405180604001604052807f0f533b1f35c86ad720e6c03e67d759ce1cfdaf8f6a4f2d202e579f31b994ada181526020017f2ed9da347a855d4aa2062fefd6f470fa6195db80e288ecdb439b4ede6920e06a81525081600681518110611485577f4e487b7100000000000000000000000000000000000000000000000000000000600052603260045260246000fd5b602002602001018190525060405180604001604052807f0871599eb07ea8bf6b411ca64eb76aaa629de3145c3b77701dbb90a6cc7ae44a81526020017f1954ae682c6b6a44aceb902e6bf4ca21881e77b536619117cdfc2b055c31f0438152508160078151811061151f577f4e487b7100000000000000000000000000000000000000000000000000000000600052603260045260246000fd5b602002602001018190525060405180604001604052807f25445f3dc16f71672e36e4cabaeec8f613e91a2f876f36f94a68eb9108c80a4981526020017f130c00235305a865718397f6320183605f9161fe314a8903144a31fd9bf3acde815250816008815181106115b9577f4e487b7100000000000000000000000000000000000000000000000000000000600052603260045260246000fd5b602002602001018190525060405180604001604052807f1b4267a8672c202413ada37b3e5f459e78130cadac8386153bc5b2e4a4bfd3aa81526020017f14abd3366d20ae04900dd55c87abaf8e40666bb1ac549ceecda03c97473b4ad081525081600981518110611653577f4e487b7100000000000000000000000000000000000000000000000000000000600052603260045260246000fd5b602002602001018190525060405180604001604052807f22f9746865c9831e36387fcccd7072d2492a4f95afce361cb840af75b8b07c7c81526020017f25ceba84666786f9cc8c300361e138bf119e1cc725b98eb16a11db2762a54b5e81525081600a815181106116ed577f4e487b7100000000000000000000000000000000000000000000000000000000600052603260045260246000fd5b602002602001018190525060405180604001604052807f0dff3b996757600826692dfadf796c3c26f5a19ce5d8a00894d21d3ed55a7b7381526020017f290f2e8a01a9380f12a9980d965a9f9d25e3a9282f80367f6ca237795742a7b681525081600b81518110611787577f4e487b7100000000000000000000000000000000000000000000000000000000600052603260045260246000fd5b602002602001018190525060405180604001604052807f178312f4ea77eefacdc938aa5c308e67f2911c3707aecb57aba4eab707ef885481526020017f07f2126e5be0f143a9669a1b40a005757ccae0ec05ac24abd7cf151c505064da81525081600c81518110611821577f4e487b7100000000000000000000000000000000000000000000000000000000600052603260045260246000fd5b602002602001018190525060405180604001604052807f2156ae43c9012d4b45a11510bbf674029c1f1d34a2576a03c3c17caef57dafca81526020017f069efd3d1728186ce8564633fb9ef5d0c05bec680e18ee08240bd33eecdf8b0d81525081600d815181106118bb577f4e487b7100000000000000000000000000000000000000000000000000000000600052603260045260246000fd5b602002602001018190525060405180604001604052807f0d42c343d4a2ff56bef152f6f8e525ca6e813166c5701b0e5688f7c9ca3cc54781526020017f140e48c56512ac501067977d51063e23ee293041e8fe394f26fb6d3980897a2c81525081600e81518110611955577f4e487b7100000000000000000000000000000000000000000000000000000000600052603260045260246000fd5b602002602001018190525060405180604001604052807f248823f60a7a1fbc0bb2e67c05191e74b5cb53c441fd7523f41ef33b68d3f2a281526020017f0d598ed082faf231cdee36314919eb019b1547104a7e13cc1e43c42932b38f9e81525081600f815181106119ef577f4e487b7100000000000000000000000000000000000000000000000000000000600052603260045260246000fd5b602002602001018190525060405180604001604052807f1acac51260a2a4aff6f446219481417b939f2aa9f722f6180e12c4d4694ce8a081526020017f074b34e004175a4ed53bd048766419211c231923d4e278ceb3215fd21731e7ef81525081601081518110611a89577f4e487b7100000000000000000000000000000000000000000000000000000000600052603260045260246000fd5b602002602001018190525060405180604001604052807f1e002b36f979170fcf45cbf813260b9c53031159a41ef16f1a4693f72363b75081526020017f0db304d955d4dedc9e7bfded658b29bf29d42bdd76cf1011e275127281db72b281525081601181518110611b23577f4e487b7100000000000000000000000000000000000000000000000000000000600052603260045260246000fd5b602002602001018190525060405180604001604052807f0f533b1f35c86ad720e6c03e67d759ce1cfdaf8f6a4f2d202e579f31b994ada181526020017f2ed9da347a855d4aa2062fefd6f470fa6195db80e288ecdb439b4ede6920e06a81525081601281518110611bbd577f4e487b7100000000000000000000000000000000000000000000000000000000600052603260045260246000fd5b602002602001018190525060405180604001604052807f0871599eb07ea8bf6b411ca64eb76aaa629de3145c3b77701dbb90a6cc7ae44a81526020017f1954ae682c6b6a44aceb902e6bf4ca21881e77b536619117cdfc2b055c31f04381525081601381518110611c57577f4e487b7100000000000000000000000000000000000000000000000000000000600052603260045260246000fd5b602002602001018190525060405180604001604052807f25445f3dc16f71672e36e4cabaeec8f613e91a2f876f36f94a68eb9108c80a4981526020017f130c00235305a865718397f6320183605f9161fe314a8903144a31fd9bf3acde81525081601481518110611cf1577f4e487b7100000000000000000000000000000000000000000000000000000000600052603260045260246000fd5b602002602001018190525060405180604001604052807f1b4267a8672c202413ada37b3e5f459e78130cadac8386153bc5b2e4a4bfd3aa81526020017f14abd3366d20ae04900dd55c87abaf8e40666bb1ac549ceecda03c97473b4ad081525081601581518110611d8b577f4e487b7100000000000000000000000000000000000000000000000000000000600052603260045260246000fd5b602002602001018190525060405180604001604052807f22f9746865c9831e36387fcccd7072d2492a4f95afce361cb840af75b8b07c7c81526020017f25ceba84666786f9cc8c300361e138bf119e1cc725b98eb16a11db2762a54b5e81525081601681518110611e25577f4e487b7100000000000000000000000000000000000000000000000000000000600052603260045260246000fd5b602002602001018190525060405180604001604052807f0dff3b996757600826692dfadf796c3c26f5a19ce5d8a00894d21d3ed55a7b7381526020017f290f2e8a01a9380f12a9980d965a9f9d25e3a9282f80367f6ca237795742a7b681525081601781518110611ebf577f4e487b7100000000000000000000000000000000000000000000000000000000600052603260045260246000fd5b602002602001018190525060405180604001604052807f178312f4ea77eefacdc938aa5c308e67f2911c3707aecb57aba4eab707ef885481526020017f07f2126e5be0f143a9669a1b40a005757ccae0ec05ac24abd7cf151c505064da81525081601881518110611f59577f4e487b7100000000000000000000000000000000000000000000000000000000600052603260045260246000fd5b602002602001018190525060405180604001604052807f2156ae43c9012d4b45a11510bbf674029c1f1d34a2576a03c3c17caef57dafca81526020017f069efd3d1728186ce8564633fb9ef5d0c05bec680e18ee08240bd33eecdf8b0d81525081601981518110611ff3577f4e487b7100000000000000000000000000000000000000000000000000000000600052603260045260246000fd5b602002602001018190525060405180604001604052807f0d42c343d4a2ff56bef152f6f8e525ca6e813166c5701b0e5688f7c9ca3cc54781526020017f140e48c56512ac501067977d51063e23ee293041e8fe394f26fb6d3980897a2c81525081601a8151811061208d577f4e487b7100000000000000000000000000000000000000000000000000000000600052603260045260246000fd5b602002602001018190525060405180604001604052807f248823f60a7a1fbc0bb2e67c05191e74b5cb53c441fd7523f41ef33b68d3f2a281526020017f0d598ed082faf231cdee36314919eb019b1547104a7e13cc1e43c42932b38f9e81525081601b81518110612127577f4e487b7100000000000000000000000000000000000000000000000000000000600052603260045260246000fd5b602002602001018190525060405180604001604052807f1acac51260a2a4aff6f446219481417b939f2aa9f722f6180e12c4d4694ce8a081526020017f074b34e004175a4ed53bd048766419211c231923d4e278ceb3215fd21731e7ef81525081601c815181106121c1577f4e487b7100000000000000000000000000000000000000000000000000000000600052603260045260246000fd5b602002602001018190525060405180604001604052807f1e002b36f979170fcf45cbf813260b9c53031159a41ef16f1a4693f72363b75081526020017f0db304d955d4dedc9e7bfded658b29bf29d42bdd76cf1011e275127281db72b281525081601d8151811061225b577f4e487b7100000000000000000000000000000000000000000000000000000000600052603260045260246000fd5b602002602001018190525060405180604001604052807f0f533b1f35c86ad720e6c03e67d759ce1cfdaf8f6a4f2d202e579f31b994ada181526020017f2ed9da347a855d4aa2062fefd6f470fa6195db80e288ecdb439b4ede6920e06a81525081601e815181106122f5577f4e487b7100000000000000000000000000000000000000000000000000000000600052603260045260246000fd5b602002602001018190525060405180604001604052807f0871599eb07ea8bf6b411ca64eb76aaa629de3145c3b77701dbb90a6cc7ae44a81526020017f1954ae682c6b6a44aceb902e6bf4ca21881e77b536619117cdfc2b055c31f04381525081601f8151811061238f577f4e487b7100000000000000000000000000000000000000000000000000000000600052603260045260246000fd5b602002602001018190525060405180604001604052807f178312f4ea77eefacdc938aa5c308e67f2911c3707aecb57aba4eab707ef885481526020017f07f2126e5be0f143a9669a1b40a005757ccae0ec05ac24abd7cf151c505064da81525081602081518110612429577f4e487b7100000000000000000000000000000000000000000000000000000000600052603260045260246000fd5b602002602001018190525060405180604001604052807f2156ae43c9012d4b45a11510bbf674029c1f1d34a2576a03c3c17caef57dafca81526020017f069efd3d1728186ce8564633fb9ef5d0c05bec680e18ee08240bd33eecdf8b0d815250816021815181106124c3577f4e487b7100000000000000000000000000000000000000000000000000000000600052603260045260246000fd5b602002602001018190525060405180604001604052807f0d42c343d4a2ff56bef152f6f8e525ca6e813166c5701b0e5688f7c9ca3cc54781526020017f140e48c56512ac501067977d51063e23ee293041e8fe394f26fb6d3980897a2c8152508160228151811061255d577f4e487b7100000000000000000000000000000000000000000000000000000000600052603260045260246000fd5b602002602001018190525060405180604001604052807f248823f60a7a1fbc0bb2e67c05191e74b5cb53c441fd7523f41ef33b68d3f2a281526020017f0d598ed082faf231cdee36314919eb019b1547104a7e13cc1e43c42932b38f9e815250816023815181106125f7577f4e487b7100000000000000000000000000000000000000000000000000000000600052603260045260246000fd5b602002602001018190525060405180604001604052807f1acac51260a2a4aff6f446219481417b939f2aa9f722f6180e12c4d4694ce8a081526020017f074b34e004175a4ed53bd048766419211c231923d4e278ceb3215fd21731e7ef81525081602481518110612691577f4e487b7100000000000000000000000000000000000000000000000000000000600052603260045260246000fd5b602002602001018190525060405180604001604052807f1e002b36f979170fcf45cbf813260b9c53031159a41ef16f1a4693f72363b75081526020017f0db304d955d4dedc9e7bfded658b29bf29d42bdd76cf1011e275127281db72b28152508160258151811061272b577f4e487b7100000000000000000000000000000000000000000000000000000000600052603260045260246000fd5b602002602001018190525060405180604001604052807f0f533b1f35c86ad720e6c03e67d759ce1cfdaf8f6a4f2d202e579f31b994ada181526020017f2ed9da347a855d4aa2062fefd6f470fa6195db80e288ecdb439b4ede6920e06a815250816026815181106127c5577f4e487b7100000000000000000000000000000000000000000000000000000000600052603260045260246000fd5b602002602001018190525060405180604001604052807f0871599eb07ea8bf6b411ca64eb76aaa629de3145c3b77701dbb90a6cc7ae44a81526020017f1954ae682c6b6a44aceb902e6bf4ca21881e77b536619117cdfc2b055c31f0438152508160278151811061285f577f4e487b7100000000000000000000000000000000000000000000000000000000600052603260045260246000fd5b602002602001018190525060405180604001604052807f25445f3dc16f71672e36e4cabaeec8f613e91a2f876f36f94a68eb9108c80a4981526020017f130c00235305a865718397f6320183605f9161fe314a8903144a31fd9bf3acde815250816028815181106128f9577f4e487b7100000000000000000000000000000000000000000000000000000000600052603260045260246000fd5b602002602001018190525060405180604001604052807f1b4267a8672c202413ada37b3e5f459e78130cadac8386153bc5b2e4a4bfd3aa81526020017f14abd3366d20ae04900dd55c87abaf8e40666bb1ac549ceecda03c97473b4ad081525081602981518110612993577f4e487b7100000000000000000000000000000000000000000000000000000000600052603260045260246000fd5b602002602001018190525060405180604001604052807f22f9746865c9831e36387fcccd7072d2492a4f95afce361cb840af75b8b07c7c81526020017f25ceba84666786f9cc8c300361e138bf119e1cc725b98eb16a11db2762a54b5e81525081602a81518110612a2d577f4e487b7100000000000000000000000000000000000000000000000000000000600052603260045260246000fd5b602002602001018190525060405180604001604052807f0dff3b996757600826692dfadf796c3c26f5a19ce5d8a00894d21d3ed55a7b7381526020017f290f2e8a01a9380f12a9980d965a9f9d25e3a9282f80367f6ca237795742a7b681525081602b81518110612ac7577f4e487b7100000000000000000000000000000000000000000000000000000000600052603260045260246000fd5b602002602001018190525060405180604001604052807f178312f4ea77eefacdc938aa5c308e67f2911c3707aecb57aba4eab707ef885481526020017f07f2126e5be0f143a9669a1b40a005757ccae0ec05ac24abd7cf151c505064da81525081602c81518110612b61577f4e487b7100000000000000000000000000000000000000000000000000000000600052603260045260246000fd5b602002602001018190525060405180604001604052807f2156ae43c9012d4b45a11510bbf674029c1f1d34a2576a03c3c17caef57dafca81526020017f069efd3d1728186ce8564633fb9ef5d0c05bec680e18ee08240bd33eecdf8b0d81525081602d81518110612bfb577f4e487b7100000000000000000000000000000000000000000000000000000000600052603260045260246000fd5b602002602001018190525060405180604001604052807f0d42c343d4a2ff56bef152f6f8e525ca6e813166c5701b0e5688f7c9ca3cc54781526020017f140e48c56512ac501067977d51063e23ee293041e8fe394f26fb6d3980897a2c81525081602e81518110612c95577f4e487b7100000000000000000000000000000000000000000000000000000000600052603260045260246000fd5b602002602001018190525060405180604001604052807f248823f60a7a1fbc0bb2e67c05191e74b5cb53c441fd7523f41ef33b68d3f2a281526020017f0d598ed082faf231cdee36314919eb019b1547104a7e13cc1e43c42932b38f9e81525081602f81518110612d2f577f4e487b7100000000000000000000000000000000000000000000000000000000600052603260045260246000fd5b602002602001018190525060405180604001604052807f1acac51260a2a4aff6f446219481417b939f2aa9f722f6180e12c4d4694ce8a081526020017f074b34e004175a4ed53bd048766419211c231923d4e278ceb3215fd21731e7ef81525081603081518110612dc9577f4e487b7100000000000000000000000000000000000000000000000000000000600052603260045260246000fd5b602002602001018190525060405180604001604052807f1e002b36f979170fcf45cbf813260b9c53031159a41ef16f1a4693f72363b75081526020017f0db304d955d4dedc9e7bfded658b29bf29d42bdd76cf1011e275127281db72b281525081603181518110612e63577f4e487b7100000000000000000000000000000000000000000000000000000000600052603260045260246000fd5b602002602001018190525060405180604001604052807f0f533b1f35c86ad720e6c03e67d759ce1cfdaf8f6a4f2d202e579f31b994ada181526020017f2ed9da347a855d4aa2062fefd6f470fa6195db80e288ecdb439b4ede6920e06a81525081603281518110612efd577f4e487b7100000000000000000000000000000000000000000000000000000000600052603260045260246000fd5b602002602001018190525060405180604001604052807f0871599eb07ea8bf6b411ca64eb76aaa629de3145c3b77701dbb90a6cc7ae44a81526020017f1954ae682c6b6a44aceb902e6bf4ca21881e77b536619117cdfc2b055c31f04381525081603381518110612f97577f4e487b7100000000000000000000000000000000000000000000000000000000600052603260045260246000fd5b602002602001018190525060405180604001604052807f25445f3dc16f71672e36e4cabaeec8f613e91a2f876f36f94a68eb9108c80a4981526020017f130c00235305a865718397f6320183605f9161fe314a8903144a31fd9bf3acde81525081603481518110613031577f4e487b7100000000000000000000000000000000000000000000000000000000600052603260045260246000fd5b602002602001018190525060405180604001604052807f1b4267a8672c202413ada37b3e5f459e78130cadac8386153bc5b2e4a4bfd3aa81526020017f14abd3366d20ae04900dd55c87abaf8e40666bb1ac549ceecda03c97473b4ad0815250816035815181106130cb577f4e487b7100000000000000000000000000000000000000000000000000000000600052603260045260246000fd5b602002602001018190525060405180604001604052807f22f9746865c9831e36387fcccd7072d2492a4f95afce361cb840af75b8b07c7c81526020017f25ceba84666786f9cc8c300361e138bf119e1cc725b98eb16a11db2762a54b5e81525081603681518110613165577f4e487b7100000000000000000000000000000000000000000000000000000000600052603260045260246000fd5b602002602001018190525060405180604001604052807f0dff3b996757600826692dfadf796c3c26f5a19ce5d8a00894d21d3ed55a7b7381526020017f290f2e8a01a9380f12a9980d965a9f9d25e3a9282f80367f6ca237795742a7b6815250816037815181106131ff577f4e487b7100000000000000000000000000000000000000000000000000000000600052603260045260246000fd5b602002602001018190525060405180604001604052807f178312f4ea77eefacdc938aa5c308e67f2911c3707aecb57aba4eab707ef885481526020017f07f2126e5be0f143a9669a1b40a005757ccae0ec05ac24abd7cf151c505064da81525081603881518110613299577f4e487b7100000000000000000000000000000000000000000000000000000000600052603260045260246000fd5b602002602001018190525060405180604001604052807f2156ae43c9012d4b45a11510bbf674029c1f1d34a2576a03c3c17caef57dafca81526020017f069efd3d1728186ce8564633fb9ef5d0c05bec680e18ee08240bd33eecdf8b0d81525081603981518110613333577f4e487b7100000000000000000000000000000000000000000000000000000000600052603260045260246000fd5b602002602001018190525060405180604001604052807f0d42c343d4a2ff56bef152f6f8e525ca6e813166c5701b0e5688f7c9ca3cc54781526020017f140e48c56512ac501067977d51063e23ee293041e8fe394f26fb6d3980897a2c81525081603a815181106133cd577f4e487b7100000000000000000000000000000000000000000000000000000000600052603260045260246000fd5b602002602001018190525060405180604001604052807f248823f60a7a1fbc0bb2e67c05191e74b5cb53c441fd7523f41ef33b68d3f2a281526020017f0d598ed082faf231cdee36314919eb019b1547104a7e13cc1e43c42932b38f9e81525081603b81518110613467577f4e487b7100000000000000000000000000000000000000000000000000000000600052603260045260246000fd5b602002602001018190525060405180604001604052807f1acac51260a2a4aff6f446219481417b939f2aa9f722f6180e12c4d4694ce8a081526020017f074b34e004175a4ed53bd048766419211c231923d4e278ceb3215fd21731e7ef81525081603c81518110613501577f4e487b7100000000000000000000000000000000000000000000000000000000600052603260045260246000fd5b602002602001018190525060405180604001604052807f1e002b36f979170fcf45cbf813260b9c53031159a41ef16f1a4693f72363b75081526020017f0db304d955d4dedc9e7bfded658b29bf29d42bdd76cf1011e275127281db72b281525081603d8151811061359b577f4e487b7100000000000000000000000000000000000000000000000000000000600052603260045260246000fd5b602002602001018190525060405180604001604052807f0f533b1f35c86ad720e6c03e67d759ce1cfdaf8f6a4f2d202e579f31b994ada181526020017f2ed9da347a855d4aa2062fefd6f470fa6195db80e288ecdb439b4ede6920e06a81525081603e81518110613635577f4e487b7100000000000000000000000000000000000000000000000000000000600052603260045260246000fd5b602002602001018190525060405180604001604052807f0871599eb07ea8bf6b411ca64eb76aaa629de3145c3b77701dbb90a6cc7ae44a81526020017f1954ae682c6b6a44aceb902e6bf4ca21881e77b536619117cdfc2b055c31f04381525081603f815181106136cf577f4e487b7100000000000000000000000000000000000000000000000000000000600052603260045260246000fd5b602090810291909101015292915050565b60606136ea61539b565b6136f26153b9565b60018252600260208301526040820185905260006060826080858460077ffffffffffffffffffffffffffffffffffffffffffffffffffffffffffffffffff182516020840151919250906137446153d7565b82815260208082018390526001875260029087015260408087018a90526060908601608088600060077ffffffffffffffffffffffffffffffffffffffffffffffffffffffffffffffffff19350606085608081600060067ffffffffffffffffffffffffffffffffffffffffffffffffffffffffffffffffff193506137c76153d7565b855181526020808701519082015260008967ffffffffffffffff811115613817577f4e487b7100000000000000000000000000000000000000000000000000000000600052604160045260246000fd5b60405190808252806020026020018201604052801561385057816020015b61383d6153d7565b8152602001906001900390816138355790505b509050828160008151811061388e577f4e487b7100000000000000000000000000000000000000000000000000000000600052603260045260246000fd5b602002602001018190525060005b6138a760018c615909565b811015613a855760008282815181106138e9577f4e487b7100000000000000000000000000000000000000000000000000000000600052603260045260246000fd5b60200260200101519050806000015189600060048110613932577f4e487b7100000000000000000000000000000000000000000000000000000000600052603260045260246000fd5b60200201818152505080602001518960016004811061397a577f4e487b7100000000000000000000000000000000000000000000000000000000600052603260045260246000fd5b60209081029190910191909152815160408b01528101518960036020020152606089608081600060067ffffffffffffffffffffffffffffffffffffffffffffffffffffffffffffffffff18951909850836139d684600161587b565b81518110613a0d577f4e487b7100000000000000000000000000000000000000000000000000000000600052603260045260246000fd5b602090810291909101015152886001602002015183613a2d84600161587b565b81518110613a64577f4e487b7100000000000000000000000000000000000000000000000000000000600052603260045260246000fd5b60209081029190910181015101525080613a7d81615920565b91505061389c565b5060008a67ffffffffffffffff811115613ac8577f4e487b7100000000000000000000000000000000000000000000000000000000600052604160045260246000fd5b604051908082528060200260200182016040528015613b0157816020015b613aee6153d7565b815260200190600190039081613ae65790505b50905060005b8b811015613d8a57828181518110613b48577f4e487b7100000000000000000000000000000000000000000000000000000000600052603260045260246000fd5b60209081029190910101515189528251839082908110613b91577f4e487b7100000000000000000000000000000000000000000000000000000000600052603260045260246000fd5b60200260200101516020015189600160048110613bd7577f4e487b7100000000000000000000000000000000000000000000000000000000600052603260045260246000fd5b60200201528d518e9082908110613c17577f4e487b7100000000000000000000000000000000000000000000000000000000600052603260045260246000fd5b60209081029190910101515160408a01528d518e9082908110613c63577f4e487b7100000000000000000000000000000000000000000000000000000000600052603260045260246000fd5b60200260200101516020015189600360048110613ca9577f4e487b7100000000000000000000000000000000000000000000000000000000600052603260045260246000fd5b6020020152606089608081600060067ffffffffffffffffffffffffffffffffffffffffffffffffffffffffffffffffff197508860006020020151828281518110613d1d577f4e487b7100000000000000000000000000000000000000000000000000000000600052603260045260246000fd5b6020908102919091010151528860016020020151828281518110613d6a577f4e487b7100000000000000000000000000000000000000000000000000000000600052603260045260246000fd5b602090810291909101810151015280613d8281615920565b915050613b07565b509d9c50505050505050505050505050565b600080606080613daa6153b9565b60005b8b60a0015151811015613e625760008c60a001518281518110613df9577f4e487b7100000000000000000000000000000000000000000000000000000000600052603260045260246000fd5b60200260200101519050613e0d8189613e75565b6060870152604086015260208501528352613e2a8c8c83866143f3565b909c509a50613e498a8a8560026020020151866003602002015161490b565b909a509850819050613e5a81615920565b915050613dad565b50989a9799509597509395945050505050565b60408051600980825261014082019092526000918291829182918291602082016101208036833701905050905086600081518110613edc577f4e487b7100000000000000000000000000000000000000000000000000000000600052603260045260246000fd5b60200260200101516000015181600081518110613f22577f4e487b7100000000000000000000000000000000000000000000000000000000600052603260045260246000fd5b60200260200101818152505086600081518110613f68577f4e487b7100000000000000000000000000000000000000000000000000000000600052603260045260246000fd5b60200260200101516020015181600181518110613fae577f4e487b7100000000000000000000000000000000000000000000000000000000600052603260045260246000fd5b60200260200101818152505086600181518110613ff4577f4e487b7100000000000000000000000000000000000000000000000000000000600052603260045260246000fd5b6020026020010151600001518160028151811061403a577f4e487b7100000000000000000000000000000000000000000000000000000000600052603260045260246000fd5b60200260200101818152505086600181518110614080577f4e487b7100000000000000000000000000000000000000000000000000000000600052603260045260246000fd5b602002602001015160200151816003815181106140c6577f4e487b7100000000000000000000000000000000000000000000000000000000600052603260045260246000fd5b6020026020010181815250508660028151811061410c577f4e487b7100000000000000000000000000000000000000000000000000000000600052603260045260246000fd5b60200260200101516000015181600481518110614152577f4e487b7100000000000000000000000000000000000000000000000000000000600052603260045260246000fd5b60200260200101818152505086600281518110614198577f4e487b7100000000000000000000000000000000000000000000000000000000600052603260045260246000fd5b602002602001015160200151816005815181106141de577f4e487b7100000000000000000000000000000000000000000000000000000000600052603260045260246000fd5b60200260200101818152505086600381518110614224577f4e487b7100000000000000000000000000000000000000000000000000000000600052603260045260246000fd5b6020026020010151600001518160068151811061426a577f4e487b7100000000000000000000000000000000000000000000000000000000600052603260045260246000fd5b602002602001018181525050866003815181106142b0577f4e487b7100000000000000000000000000000000000000000000000000000000600052603260045260246000fd5b602002602001015160200151816007815181106142f6577f4e487b7100000000000000000000000000000000000000000000000000000000600052603260045260246000fd5b602002602001018181525050858160088151811061433d577f4e487b7100000000000000000000000000000000000000000000000000000000600052603260045260246000fd5b602002602001018181525050600061435f82604051602001610c6091906156d5565b965086905060007f30644e72e131a029b85045b68181585d2833e84879b9709143e1f593f0000001828309905060006143b8837f30644e72e131a029b85045b68181585d2833e84879b9709143e1f593f00000016108cb565b905060007f30644e72e131a029b85045b68181585d2833e84879b9709143e1f593f0000001828309939b929a50909850919650945050505050565b6000806143fe61539b565b6144066153b9565b600086600081518110614442577f4e487b7100000000000000000000000000000000000000000000000000000000600052603260045260246000fd5b60209081029190910101515183528651879060009061448a577f4e487b7100000000000000000000000000000000000000000000000000000000600052603260045260246000fd5b602002602001015160200151836001600381106144d0577f4e487b7100000000000000000000000000000000000000000000000000000000600052603260045260246000fd5b6020020152606080870151604085015282608085600060077ffffffffffffffffffffffffffffffffffffffffffffffffffffffffffffffffff1905086600181518110614546577f4e487b7100000000000000000000000000000000000000000000000000000000600052603260045260246000fd5b6020908102919091010151518352865187906001908110614590577f4e487b7100000000000000000000000000000000000000000000000000000000600052603260045260246000fd5b602002602001015160200151836001600381106145d6577f4e487b7100000000000000000000000000000000000000000000000000000000600052603260045260246000fd5b6020020152604080870151848201526060908301608085600060077ffffffffffffffffffffffffffffffffffffffffffffffffffffffffffffffffff19050606082608081600060067ffffffffffffffffffffffffffffffffffffffffffffffffffffffffffffffffff1604083018a905260608084018a905290915082608081600060067ffffffffffffffffffffffffffffffffffffffffffffffffffffffffffffffffff19050866002815181106146b9577f4e487b7100000000000000000000000000000000000000000000000000000000600052603260045260246000fd5b6020908102919091010151518352865187906002908110614703577f4e487b7100000000000000000000000000000000000000000000000000000000600052603260045260246000fd5b60200260200101516020015183600160038110614749577f4e487b7100000000000000000000000000000000000000000000000000000000600052603260045260246000fd5b602002015285516040808501919091526060908301608085600060077ffffffffffffffffffffffffffffffffffffffffffffffffffffffffffffffffff19050606082608081600060067ffffffffffffffffffffffffffffffffffffffffffffffffffffffffffffffffff19050866003815181106147f1577f4e487b7100000000000000000000000000000000000000000000000000000000600052603260045260246000fd5b602090810291909101015151835286518790600390811061483b577f4e487b7100000000000000000000000000000000000000000000000000000000600052603260045260246000fd5b60200260200101516020015183600160038110614881577f4e487b7100000000000000000000000000000000000000000000000000000000600052603260045260246000fd5b602002015285600160200201518360026020020152606060408301608085600060077ffffffffffffffffffffffffffffffffffffffffffffffffffffffffffffffffff19050606082608081600060067ffffffffffffffffffffffffffffffffffffffffffffffffffffffffffffffffff150508051602090910151909890975095505050505050565b83516060908190600061491f600283615893565b90506000808267ffffffffffffffff811115614964577f4e487b7100000000000000000000000000000000000000000000000000000000600052604160045260246000fd5b60405190808252806020026020018201604052801561499d57816020015b61498a6153d7565b8152602001906001900390816149825790505b50905060006149ac8486615909565b67ffffffffffffffff8111156149eb577f4e487b7100000000000000000000000000000000000000000000000000000000600052604160045260246000fd5b604051908082528060200260200182016040528015614a2457816020015b614a116153d7565b815260200190600190039081614a095790505b50905060008467ffffffffffffffff811115614a69577f4e487b7100000000000000000000000000000000000000000000000000000000600052604160045260246000fd5b604051908082528060200260200182016040528015614aa257816020015b614a8f6153d7565b815260200190600190039081614a875790505b5090506000614ab18688615909565b67ffffffffffffffff811115614af0577f4e487b7100000000000000000000000000000000000000000000000000000000600052604160045260246000fd5b604051908082528060200260200182016040528015614b2957816020015b614b166153d7565b815260200190600190039081614b0e5790505b50905060005b86811015614c54578d8181518110614b70577f4e487b7100000000000000000000000000000000000000000000000000000000600052603260045260246000fd5b6020026020010151858281518110614bb1577f4e487b7100000000000000000000000000000000000000000000000000000000600052603260045260246000fd5b60200260200101819052508c8181518110614bf5577f4e487b7100000000000000000000000000000000000000000000000000000000600052603260045260246000fd5b6020026020010151838281518110614c36577f4e487b7100000000000000000000000000000000000000000000000000000000600052603260045260246000fd5b60200260200101819052508080614c4c90615920565b915050614b2f565b5060005b614c628789615909565b811015614d98578d614c74888361587b565b81518110614cab577f4e487b7100000000000000000000000000000000000000000000000000000000600052603260045260246000fd5b6020026020010151848281518110614cec577f4e487b7100000000000000000000000000000000000000000000000000000000600052603260045260246000fd5b60209081029190910101528c614d02888361587b565b81518110614d39577f4e487b7100000000000000000000000000000000000000000000000000000000600052603260045260246000fd5b6020026020010151828281518110614d7a577f4e487b7100000000000000000000000000000000000000000000000000000000600052603260045260246000fd5b60200260200101819052508080614d9090615920565b915050614c58565b50614da58d85858e614dc4565b9c50614db38c83838d6150b7565b9c9d9b505050505050505050505050565b83516060906000614dd6600283615893565b90506000614de261539b565b614dea6153b9565b60005b848110156150a8576000898281518110614e30577f4e487b7100000000000000000000000000000000000000000000000000000000600052603260045260246000fd5b60200260200101519050806000015184600060038110614e79577f4e487b7100000000000000000000000000000000000000000000000000000000600052603260045260246000fd5b602002018181525050806020015184600160038110614ec1577f4e487b7100000000000000000000000000000000000000000000000000000000600052603260045260246000fd5b602002015260408401899052606083608086600060077ffffffffffffffffffffffffffffffffffffffffffffffffffffffffffffffffff194508a8281518110614f34577f4e487b7100000000000000000000000000000000000000000000000000000000600052603260045260246000fd5b60209081029190910101515160408401528a518b9083908110614f80577f4e487b7100000000000000000000000000000000000000000000000000000000600052603260045260246000fd5b60200260200101516020015183600360048110614fc6577f4e487b7100000000000000000000000000000000000000000000000000000000600052603260045260246000fd5b6020020152606083608081600060067ffffffffffffffffffffffffffffffffffffffffffffffffffffffffffffffffff1945082600060200201518c838151811061503a577f4e487b7100000000000000000000000000000000000000000000000000000000600052603260045260246000fd5b60209081029190910101515282600160200201518c8381518110615087577f4e487b7100000000000000000000000000000000000000000000000000000000600052603260045260246000fd5b602090810291909101810151015250806150a081615920565b915050614ded565b50989998505050505050505050565b835160609060006150c9600283615893565b905060006150d561539b565b6150dd6153b9565b60005b848110156150a8576000898281518110615123577f4e487b7100000000000000000000000000000000000000000000000000000000600052603260045260246000fd5b6020026020010151905080600001518460006003811061516c577f4e487b7100000000000000000000000000000000000000000000000000000000600052603260045260246000fd5b6020020181815250508060200151846001600381106151b4577f4e487b7100000000000000000000000000000000000000000000000000000000600052603260045260246000fd5b602002015260408401899052606083608086600060077ffffffffffffffffffffffffffffffffffffffffffffffffffffffffffffffffff194508a8281518110615227577f4e487b7100000000000000000000000000000000000000000000000000000000600052603260045260246000fd5b60209081029190910101515160408401528a518b9083908110615273577f4e487b7100000000000000000000000000000000000000000000000000000000600052603260045260246000fd5b602002602001015160200151836003600481106152b9577f4e487b7100000000000000000000000000000000000000000000000000000000600052603260045260246000fd5b6020020152606083608081600060067ffffffffffffffffffffffffffffffffffffffffffffffffffffffffffffffffff1945082600060200201518c838151811061532d577f4e487b7100000000000000000000000000000000000000000000000000000000600052603260045260246000fd5b60209081029190910101515282600160200201518c838151811061537a577f4e487b7100000000000000000000000000000000000000000000000000000000600052603260045260246000fd5b6020908102919091018101510152508061539381615920565b9150506150e0565b60405180606001604052806003906020820280368337509192915050565b60405180608001604052806004906020820280368337509192915050565b604051806040016040528060008152602001600081525090565b60405180604001604052806002906020820280368337509192915050565b600082601f83011261541f578081fd5b8135602061543461542f83615857565b61582d565b82815281810190858301855b858110156154c9578135880189603f82011261545a578788fd5b85810135604061546c61542f83615857565b82815288810190848301838502860184018f1015615488578c8dfd5b8c95505b848610156154b25761549e8f82615530565b835260019590950194918a0191830161548c565b508852505050938501935090840190600101615440565b5090979650505050505050565b600082601f8301126154e6578081fd5b813560206154f661542f83615857565b8281528181019085830183850287018401881015615512578586fd5b855b858110156154c957813584529284019290840190600101615514565b600060408284031215615541578081fd5b6040516040810181811067ffffffffffffffff8211171561556457615564615988565b604052823581526020928301359281019290925250919050565b60008060408385031215615590578182fd5b823567ffffffffffffffff808211156155a7578384fd5b9084019061012082870312156155bb578384fd5b6155c560c061582d565b6155cf8784615530565b81526155de8760408501615530565b60208201526155f08760808501615530565b604082015260c0830135606082015260e083013582811115615610578586fd5b61561c888286016154d6565b60808301525061010083013582811115615634578586fd5b6156408882860161540f565b60a0830152509660209590950135955050505050565b60008060808385031215615668578182fd5b6156728484615530565b91506156818460408501615530565b90509250929050565b6000806060838503121561569c578182fd5b6156a68484615530565b946040939093013593505050565b600080604083850312156156c6578182fd5b50508035926020909101359150565b815160009082906020808601845b838110156156ff578151855293820193908201906001016156e3565b50929695505050505050565b60208082526018908201527f536166654d6174683a206d6f64756c6f206279207a65726f0000000000000000604082015260600190565b60208082526024908201527f656c6c6970746963206375727665206d756c7469706c69636174696f6e20666160408201527f696c656400000000000000000000000000000000000000000000000000000000606082015260800190565b60208082526018908201527f626e323536207375627472616374696f6e206661696c65640000000000000000604082015260600190565b6020808252600e908201527f496e76616c6964206e756d626572000000000000000000000000000000000000604082015260600190565b815181526020918201519181019190915260400190565b90815260200190565b60405181810167ffffffffffffffff8111828210171561584f5761584f615988565b604052919050565b600067ffffffffffffffff82111561587157615871615988565b5060209081020190565b6000821982111561588e5761588e615959565b500190565b6000826158c7577f4e487b710000000000000000000000000000000000000000000000000000000081526012600452602481fd5b500490565b6000817fffffffffffffffffffffffffffffffffffffffffffffffffffffffffffffffff048311821515161561590457615904615959565b500290565b60008282101561591b5761591b615959565b500390565b60007fffffffffffffffffffffffffffffffffffffffffffffffffffffffffffffffff82141561595257615952615959565b5060010190565b7f4e487b7100000000000000000000000000000000000000000000000000000000600052601160045260246000fd5b7f4e487b7100000000000000000000000000000000000000000000000000000000600052604160045260246000fdfea26469706673582212208fe775d7dea75cb4255ddd39e1d0cb285bc7a9c093c6569739dab1a04bdb2d2664736f6c63430008000033",
  "immutableReferences": {},
  "source": "pragma solidity ^0.8.0;\r\npragma experimental ABIEncoderV2;\r\n\r\ncontract Swiftrange {\r\n    struct Point {\r\n        uint256 x;\r\n        uint256 y;\r\n    }\r\n\r\n    struct Part1 {\r\n        Point X;\r\n        Point T;\r\n        Point Q;\r\n        uint256 s;\r\n        uint256[] zs;\r\n        Point[][] ws;\r\n    }\r\n\r\n\r\n    uint256 public constant GX = 1;\r\n    uint256 public constant HX = 9727523064272218541460723335320998459488975639302513747055235660443850046724;\r\n    uint256 public constant GY = 2;\r\n    uint256 public constant HY = 5031696974169251245229961296941447383441169981934237515842977230762345915487;\r\n\r\n    // uint256 internal constant AA = 0;\r\n    // uint256 internal constant BB = 3;\r\n    uint256 public constant PP = 0x30644e72e131a029b85045b68181585d97816a916871ca8d3c208c16d87cfd47;\r\n    uint256 internal constant NN = 0x30644e72e131a029b85045b68181585d2833e84879b9709143e1f593f0000001;\r\n\r\n    uint256 private constant G1X = 10634783317254738331264664985092831821376621286957316213969233667217643505748;\r\n    uint256 private constant G1Y = 3593894136463563836927847830567934263138852783181300960240960063050894828762;\r\n    uint256 private constant G2X = 15079475582167754912076991092891442787377018931665830331839902737242049589194;\r\n    uint256 private constant G2Y = 2994786716555744767228318303490139874612995833883024157075109374536749910797;\r\n    uint256 private constant G3X = 5998026607105146355656696147154635391947958755485950806629481563238770197831;\r\n    uint256 private constant G3Y = 9071495078062910622295597859043028737780972268539387614597098676522874141228;\r\n    uint256 private constant G4X = 16523801944179829840198169326704340952379740918805059924608153703458536682146;\r\n    uint256 private constant G4Y = 6038302089791721424956127465108246322480323157317821739578233683122154868638;\r\n    uint256 private constant G5X = 12118397309736405059200255390820856272335184322136103314456373515523090868384;\r\n    uint256 private constant G5Y = 3299068400210186031537495205944296158829957843773210327992629444571521214447;\r\n    uint256 private constant G6X = 13569683714700597868720693802606454625784876902328159148425602640793284360016;\r\n    uint256 private constant G6Y = 6196366122510722436252226379612342063576138922717891371699758504638443909810;\r\n    uint256 private constant G7X = 6931749079582407422004463406148477362357661472338328270508373724106071518625;\r\n    uint256 private constant G7Y = 21191302843410952823242789471696212271196775028224076743387772065534892367978;\r\n    uint256 private constant G8X = 3818775040669594200577093816348913853129511932617816368937601194351220417610;\r\n    uint256 private constant G8Y = 11457440080399767781624111424667375708460721196045291561100911147854033186883;\r\n    uint256 private constant G9X = 16856378328816595579144346936425326333732976124866714942794663389927527942729;\r\n    uint256 private constant G9Y = 8615147240200783032869516315617482186645983361490736606108099797176368213214;\r\n    uint256 private constant G10X = 12329774238033643601677353420174969544762152665590909463734924154613306217386;\r\n    uint256 private constant G10Y = 9349845555551207787110530432977444099219845456919646677037398830926083607248;\r\n    uint256 private constant G11X = 15819385188090994752881147747997045863063544769706761541586812145860428725372;\r\n    uint256 private constant G11Y = 17100833187243109040711678632824159418785961748506921615441797818807296019294;\r\n    uint256 private constant G12X = 6331024371890361853402322881256862237801465545397987055303359505174258940787;\r\n    uint256 private constant G12Y = 18571650698865115063332538959090545189492566919425356834234934402133902141366;\r\n\r\n    uint256 private constant G13X = 10634783317254738331264664985092831821376621286957316213969233667217643505748;\r\n    uint256 private constant G13Y = 3593894136463563836927847830567934263138852783181300960240960063050894828762;\r\n    uint256 private constant G14X = 15079475582167754912076991092891442787377018931665830331839902737242049589194;\r\n    uint256 private constant G14Y = 2994786716555744767228318303490139874612995833883024157075109374536749910797;\r\n    uint256 private constant G15X = 5998026607105146355656696147154635391947958755485950806629481563238770197831;\r\n    uint256 private constant G15Y = 9071495078062910622295597859043028737780972268539387614597098676522874141228;\r\n    uint256 private constant G16X = 16523801944179829840198169326704340952379740918805059924608153703458536682146;\r\n    uint256 private constant G16Y = 6038302089791721424956127465108246322480323157317821739578233683122154868638;\r\n    uint256 private constant G17X = 12118397309736405059200255390820856272335184322136103314456373515523090868384;\r\n    uint256 private constant G17Y = 3299068400210186031537495205944296158829957843773210327992629444571521214447;\r\n    uint256 private constant G18X = 13569683714700597868720693802606454625784876902328159148425602640793284360016;\r\n    uint256 private constant G18Y = 6196366122510722436252226379612342063576138922717891371699758504638443909810;\r\n    uint256 private constant G19X = 6931749079582407422004463406148477362357661472338328270508373724106071518625;\r\n    uint256 private constant G19Y = 21191302843410952823242789471696212271196775028224076743387772065534892367978;\r\n    uint256 private constant G20X = 3818775040669594200577093816348913853129511932617816368937601194351220417610;\r\n    uint256 private constant G20Y = 11457440080399767781624111424667375708460721196045291561100911147854033186883;\r\n    uint256 private constant G21X = 16856378328816595579144346936425326333732976124866714942794663389927527942729;\r\n    uint256 private constant G21Y = 8615147240200783032869516315617482186645983361490736606108099797176368213214;\r\n    uint256 private constant G22X = 12329774238033643601677353420174969544762152665590909463734924154613306217386;\r\n    uint256 private constant G22Y = 9349845555551207787110530432977444099219845456919646677037398830926083607248;\r\n    uint256 private constant G23X = 15819385188090994752881147747997045863063544769706761541586812145860428725372;\r\n    uint256 private constant G23Y = 17100833187243109040711678632824159418785961748506921615441797818807296019294;\r\n    uint256 private constant G24X = 6331024371890361853402322881256862237801465545397987055303359505174258940787;\r\n    uint256 private constant G24Y = 18571650698865115063332538959090545189492566919425356834234934402133902141366;\r\n\r\n    uint256 private constant G25X = 10634783317254738331264664985092831821376621286957316213969233667217643505748;\r\n    uint256 private constant G25Y = 3593894136463563836927847830567934263138852783181300960240960063050894828762;\r\n    uint256 private constant G26X = 15079475582167754912076991092891442787377018931665830331839902737242049589194;\r\n    uint256 private constant G26Y = 2994786716555744767228318303490139874612995833883024157075109374536749910797;\r\n    uint256 private constant G27X = 5998026607105146355656696147154635391947958755485950806629481563238770197831;\r\n    uint256 private constant G27Y = 9071495078062910622295597859043028737780972268539387614597098676522874141228;\r\n    uint256 private constant G28X = 16523801944179829840198169326704340952379740918805059924608153703458536682146;\r\n    uint256 private constant G28Y = 6038302089791721424956127465108246322480323157317821739578233683122154868638;\r\n    uint256 private constant G29X = 12118397309736405059200255390820856272335184322136103314456373515523090868384;\r\n    uint256 private constant G29Y = 3299068400210186031537495205944296158829957843773210327992629444571521214447;\r\n    uint256 private constant G30X = 13569683714700597868720693802606454625784876902328159148425602640793284360016;\r\n    uint256 private constant G30Y = 6196366122510722436252226379612342063576138922717891371699758504638443909810;\r\n    uint256 private constant G31X = 6931749079582407422004463406148477362357661472338328270508373724106071518625;\r\n    uint256 private constant G31Y = 21191302843410952823242789471696212271196775028224076743387772065534892367978;\r\n    uint256 private constant G32X = 3818775040669594200577093816348913853129511932617816368937601194351220417610;\r\n    uint256 private constant G32Y = 11457440080399767781624111424667375708460721196045291561100911147854033186883;\r\n\r\n\r\n    function multiply(Point memory p, uint256 k)\r\n        public\r\n        returns (Point memory)\r\n    {\r\n        uint256[3] memory input;\r\n        input[0] = p.x;\r\n        input[1] = p.y;\r\n        input[2] = k;\r\n\r\n        bool success;\r\n        uint256[2] memory result;\r\n\r\n        assembly {\r\n            success := call(not(0), 0x07, 0, input, 96, result, 64)\r\n        }\r\n        require(success, \"elliptic curve multiplication failed\");\r\n\r\n        return Point(result[0], result[1]);\r\n    }\r\n\r\n    function mod(uint256 a, uint256 b)\r\n        public\r\n        pure\r\n        returns (uint256)\r\n    {\r\n        require(b != 0, \"SafeMath: modulo by zero\");\r\n\r\n        uint256 c;\r\n        assembly {\r\n            c := mod(a, b)\r\n        }\r\n\r\n        return c;\r\n    }\r\n\r\n    function add(Point memory p1, Point memory p2)\r\n        internal\r\n        returns (Point memory)\r\n    {\r\n        uint256[4] memory input;\r\n        input[0] = p1.x;\r\n        input[1] = p1.y;\r\n        input[2] = p2.x;\r\n        input[3] = p2.y;\r\n\r\n        bool success;\r\n        uint256[2] memory result;\r\n        assembly {\r\n            success := call(not(0), 0x06, 0, input, 128, result, 64)\r\n        }\r\n\r\n        require(success, \"bn256 addition failed\");\r\n        return Point(result[0], result[1]);\r\n    }\r\n\r\n    function modInv(uint256 x, uint256 p)\r\n        public\r\n        pure\r\n        returns (uint256)\r\n    {\r\n        require(x != 0 && x != p && p != 0, \"Invalid number\");\r\n        uint256 q = 0;\r\n        uint256 newT = 1;\r\n        uint256 r = p;\r\n        uint256 t;\r\n        while (x != 0) {\r\n            t = r / x;\r\n            (q, newT) = (newT, addmod(q, (p - mulmod(t, newT, p)), p));\r\n            (r, x) = (x, r - t * x);\r\n        }\r\n\r\n        return q;\r\n    }\r\n\r\n    function sub(Point memory p1, Point memory p2)\r\n        public\r\n        returns (Point memory)\r\n    {\r\n        uint256[4] memory input;\r\n        input[0] = p1.x;\r\n        input[1] = p1.y;\r\n        input[2] = p2.x;\r\n        input[3] = PP - p2.y;\r\n\r\n        bool success;\r\n        uint256[2] memory result;\r\n        assembly {\r\n            success := call(not(0), 0x06, 0, input, 128, result, 64)\r\n        }\r\n\r\n        require(success, \"bn256 subtraction failed\");\r\n        return Point(result[0], result[1]);\r\n    }\r\n\r\n    function addVector(int256[] memory a, int256[] memory b) internal pure returns (int256[] memory) {\r\n        int256[] memory result = new int256[](4);\r\n        for (uint i=0; i<4; i++) {\r\n            result[i] = int(addmod(uint(a[i]),uint(b[i]),NN));\r\n        }\r\n        return result;\r\n    }\r\n\r\n    function subVector(int256[] memory a, int256[] memory b) internal pure returns (int256[] memory) {\r\n        int256[] memory result = new int256[](4);\r\n        for (uint i=0; i<4; i++) {\r\n            if (a[i] >= b[i]){\r\n                result[i] = a[i] - b[i];\r\n            }else{\r\n                result[i] = int(NN - uint(b[i]) + uint(a[i]));\r\n            }\r\n            \r\n        }\r\n        return result;\r\n    }\r\n\r\n    function dot(int256[] memory a, int256[] memory b) internal pure returns (int256) {\r\n        uint256 total = 0;\r\n        for (uint i=0; i<4; i++) {\r\n            total = addmod(total, mulmod(uint(a[i]), uint(b[i]), NN), NN);\r\n        }\r\n        return int(total);\r\n    }\r\n\r\n    function verifyRangeArgument(Part1 memory part1, uint256 nbits)\r\n        external\r\n        returns (uint256)\r\n    {\r\n        uint256 e = computeE(part1.X, part1.Q);\r\n        uint256 y = computeY(part1.T, e);\r\n        (uint256 Fx, uint256 Fy) = computeF(part1, e, y);\r\n\r\n        Point[] memory gs = generateGS(nbits);\r\n        Point[] memory gprimes = computeG(part1.T, gs, e, nbits);\r\n        Point[] memory hprimes = gs;\r\n\r\n        // uint256 challenge = y;\r\n\r\n        (Fx, Fy, gprimes, hprimes) = computeGHprime(part1, Fx, Fy, gprimes, hprimes, y);\r\n\r\n\r\n        uint256[] memory z2s = new uint256[](part1.zs.length);\r\n        for(uint i=0;i<part1.zs.length;i++){\r\n            // z2s[i] = -mulmod(part1.zs[i], part1.zs[i], NN);\r\n            z2s[i] = mulmod(part1.zs[i], part1.zs[i], NN);\r\n        }\r\n\r\n        uint256[3] memory ret_mul_input;\r\n        uint256[4] memory ret_add_input;\r\n        bool success;\r\n\r\n        ret_add_input[0] = 0;\r\n        ret_add_input[1] = 0;\r\n\r\n        for(uint i=0;i<part1.zs.length;i++) {\r\n            // Point memory g = gprimes[i];\r\n            ret_mul_input[0] = gprimes[i].x;\r\n            ret_mul_input[1] = gprimes[i].y;\r\n            ret_mul_input[2] = part1.zs[i];\r\n\r\n            assembly {\r\n                success := call(not(0), 7, 0, ret_mul_input, 0x80, add(ret_add_input, 0x40), 0x60)\r\n            }\r\n\r\n            assembly {\r\n                success := call(not(0), 6, 0, ret_add_input, 0x80, ret_add_input, 0x60)\r\n            }\r\n        }\r\n\r\n        uint256[3] memory ret2_mul_input;\r\n        uint256[4] memory ret2_add_input;\r\n\r\n        ret2_add_input[0] = 0;\r\n        ret2_add_input[1] = 0;\r\n\r\n        for(uint i=0;i<z2s.length;i++) {\r\n            // Point memory h = hprimes[i];\r\n            ret2_mul_input[0] = hprimes[i].x;\r\n            ret2_mul_input[1] = hprimes[i].y;\r\n            ret2_mul_input[2] = z2s[i];\r\n\r\n            assembly {\r\n                success := call(not(0), 7, 0, ret2_mul_input, 0x80, add(ret2_add_input, 0x40), 0x60)\r\n            }\r\n\r\n            assembly {\r\n                success := call(not(0), 6, 0, ret2_add_input, 0x80, ret2_add_input, 0x60)\r\n            }\r\n        }\r\n\r\n        uint256[4] memory ret_add_input_total;\r\n        ret_add_input_total[0]  = ret_add_input[0];\r\n        ret_add_input_total[1]  = ret_add_input[1];\r\n        ret_add_input_total[2]  = ret2_add_input[0];\r\n        ret_add_input_total[3]  = ret2_add_input[1];\r\n\r\n        assembly {\r\n            success := call(not(0), 6, 0, ret_add_input_total, 0x80, ret_add_input_total, 0x60)\r\n        }\r\n        \r\n        // assert (ret_add_input_total[0] == Fx && ret_add_input_total[1] == Fy);\r\n\r\n    }\r\n\r\n    function computeGHprime(Part1 memory part1, uint256 Fx, uint256 Fy, Point[] memory gprimes, Point[] memory hprimes, uint256 challenge)\r\n        internal\r\n        returns(uint256 fx, uint256 fy, Point[] memory gprime, Point[] memory hprime)\r\n    {\r\n        // uint wSize = part1.ws.length;\r\n\r\n        uint256[4] memory cs;\r\n        for(uint i=0;i<part1.ws.length;i++) {\r\n\r\n            Point[] memory elements = part1.ws[i];\r\n            // Point memory A = elements[0];\r\n            // Point memory B = elements[1];\r\n            // Point memory D = elements[2];\r\n            // Point memory E = elements[3];\r\n\r\n            // uint256 ABDEsize = 4*2+1;\r\n\r\n            (cs[0], cs[1], cs[2], cs[3]) = computeChallenge(elements, challenge);\r\n\r\n            (Fx, Fy) = computeABDE(Fx,Fy,elements,cs);\r\n\r\n            (gprimes, hprimes) = computeGHhalf(gprimes, hprimes, cs[2], cs[3]);\r\n        }\r\n        return(Fx, Fy, gprimes, hprimes);\r\n    }\r\n\r\n    function computeABDE(uint256 Fx, uint256 Fy, Point[] memory elements,uint256[4] memory cs)\r\n        internal\r\n        returns(uint256 fx, uint256 fy)\r\n    {\r\n        uint256[3] memory mul_input;\r\n        uint256[4] memory add_input;\r\n\r\n        bool success;\r\n\r\n        mul_input[0] = elements[0].x;\r\n        mul_input[1] = elements[0].y;\r\n        mul_input[2] = cs[3];\r\n        assembly {\r\n            success := call(not(0), 7, 0, mul_input, 0x80, add_input, 0x60)\r\n        }\r\n\r\n        mul_input[0] = elements[1].x;\r\n        mul_input[1] = elements[1].y;\r\n        mul_input[2] = cs[2];\r\n\r\n        assembly {\r\n            success := call(not(0), 7, 0, mul_input, 0x80, add(add_input, 0x40), 0x60)\r\n        }\r\n\r\n        assembly {\r\n            success := call(not(0), 6, 0, add_input, 0x80, add_input, 0x60)\r\n        }\r\n\r\n        add_input[2] = Fx;\r\n        add_input[3] = Fy;\r\n\r\n        assembly {\r\n            success := call(not(0), 6, 0, add_input, 0x80, add_input, 0x60)\r\n        }\r\n\r\n        mul_input[0] = elements[2].x;\r\n        mul_input[1] = elements[2].y;\r\n        mul_input[2] = cs[0];\r\n\r\n        assembly {\r\n            success := call(not(0), 7, 0, mul_input, 0x80, add(add_input, 0x40), 0x60)\r\n        }\r\n\r\n        assembly {\r\n            success := call(not(0), 6, 0, add_input, 0x80, add_input, 0x60)\r\n        }\r\n\r\n        mul_input[0] = elements[3].x;\r\n        mul_input[1] = elements[3].y;\r\n        mul_input[2] = cs[1];\r\n\r\n        assembly {\r\n            success := call(not(0), 7, 0, mul_input, 0x80, add(add_input, 0x40), 0x60)\r\n        }\r\n\r\n        assembly {\r\n            success := call(not(0), 6, 0, add_input, 0x80, add_input, 0x60)\r\n        }\r\n        // Fx = add_input[0];\r\n        // Fy = add_input[1];\r\n        return (add_input[0], add_input[1]);\r\n    }\r\n\r\n    function computeChallenge(Point[] memory elements, uint256 challenge)\r\n        internal\r\n        returns(uint256 c1, uint256 c22, uint256 c3, uint256 c4)\r\n    {\r\n        uint256[] memory cs = new uint256[](4*2+1);\r\n        cs[0] = elements[0].x;\r\n        cs[1] = elements[0].y;\r\n        cs[2] = elements[1].x;\r\n        cs[3] = elements[1].y;\r\n        cs[4] = elements[2].x;\r\n        cs[5] = elements[2].y;\r\n        cs[6] = elements[3].x;\r\n        cs[7] = elements[3].y;\r\n        cs[8] = challenge;\r\n\r\n        uint256 c= mod(uint256(keccak256(abi.encodePacked(cs))), NN);\r\n        challenge = c;\r\n        uint256 c2 = mulmod(c, c, NN);\r\n        uint256 cinv = modInv(c, NN);\r\n        uint256 c2inv = mulmod(cinv, cinv, NN);\r\n        \r\n        return(c, c2, cinv, c2inv);\r\n    }\r\n\r\n    function computeGHhalf(Point[] memory gprimes, Point[] memory hprimes, uint256 cinv, uint256 c2inv)\r\n        internal\r\n        returns(Point[] memory gprime, Point[] memory hprime)\r\n    {\r\n            uint size = gprimes.length;\r\n            uint halfSize = size / 2;\r\n\r\n            bool success;\r\n            // Point[] memory gL = gprimes[0:halfSize];\r\n            // Point[] memory gR = gprimes[halfSize:size];\r\n\r\n            // Point[] memory hL = hprimes[0:halfSize];\r\n            // Point[] memory hR = hprimes[halfSize:size];\r\n\r\n            Point[] memory gL = new Point[](halfSize);\r\n            Point[] memory gR = new Point[](size-halfSize);\r\n            Point[] memory hL = new Point[](halfSize);\r\n            Point[] memory hR = new Point[](size-halfSize);\r\n\r\n\r\n            for(uint i=0;i<halfSize;i++){\r\n                gL[i] = gprimes[i];\r\n                hL[i] = hprimes[i];\r\n            }\r\n\r\n            for(uint i=0;i<size-halfSize;i++){\r\n                gR[i] = gprimes[i+halfSize];\r\n                hR[i] = hprimes[i+halfSize];\r\n            }\r\n\r\n            gprimes = computeGHhalf1(gprimes, gL, gR, cinv);\r\n            hprimes = computeGHhalf2(hprimes, hL, hR, c2inv);\r\n\r\n            return(gprimes, hprimes);\r\n    }\r\n\r\n    function computeGHhalf1(Point[] memory gprimes, Point[] memory gL, Point[] memory gR, uint256 cinv)\r\n        internal\r\n        returns(Point[] memory gprime)\r\n    {\r\n        uint size = gprimes.length;\r\n        uint halfSize = size / 2;\r\n        bool success;\r\n        uint256[3] memory gL_mul_input;\r\n        uint256[4] memory gL_add_input;\r\n\r\n        \r\n        for(uint i=0;i<halfSize;i++){\r\n            // calculate gprime = gL.addP(gR.mulB(cinv));\r\n            Point memory _gR = gR[i];\r\n            gL_mul_input[0] = _gR.x;\r\n            gL_mul_input[1] = _gR.y;\r\n            gL_mul_input[2] = cinv;\r\n\r\n            assembly {\r\n                success := call(not(0), 7, 0, gL_mul_input, 0x80, gL_add_input, 0x60)\r\n            }\r\n\r\n            gL_add_input[2] = gL[i].x;\r\n            gL_add_input[3] = gL[i].y;\r\n\r\n            assembly {\r\n                success := call(not(0), 6, 0, gL_add_input, 0x80, gL_add_input, 0x60)\r\n            }\r\n\r\n            gprimes[i].x = gL_add_input[0];\r\n            gprimes[i].y = gL_add_input[1];\r\n\r\n            // calculate hprime = hL.addP(hR.mulB(c2inv));\r\n\r\n\r\n        }\r\n        return gprimes;\r\n    }\r\n\r\n    function computeGHhalf2(Point[] memory hprimes, Point[] memory hL, Point[] memory hR,uint256 c2inv)\r\n        internal\r\n        returns(Point[] memory hprime)\r\n    {   \r\n        uint size = hprimes.length;\r\n        uint halfSize = size / 2;\r\n        bool success;\r\n\r\n        uint256[3] memory hL_mul_input;\r\n        uint256[4] memory hL_add_input;\r\n\r\n        \r\n        for(uint i=0;i<halfSize;i++){\r\n            Point memory _hR = hR[i];\r\n            hL_mul_input[0] = _hR.x;\r\n            hL_mul_input[1] = _hR.y;\r\n            hL_mul_input[2] = c2inv;\r\n\r\n            assembly {\r\n                success := call(not(0), 7, 0, hL_mul_input, 0x80, hL_add_input, 0x60)\r\n            }\r\n\r\n            hL_add_input[2] = hL[i].x;\r\n            hL_add_input[3] = hL[i].y;\r\n\r\n            assembly {\r\n                success := call(not(0), 6, 0, hL_add_input, 0x80, hL_add_input, 0x60)\r\n            }\r\n\r\n            hprimes[i].x = hL_add_input[0];\r\n            hprimes[i].y = hL_add_input[1];\r\n        }\r\n\r\n        return hprimes;\r\n    }\r\n\r\n    function computeE(Point memory X, Point memory Q)\r\n        internal\r\n        returns (uint256)\r\n    {\r\n        uint256 size = 2 * 2;\r\n        uint256[] memory cs = new uint256[](size);\r\n        cs[0] = X.x;\r\n        cs[1] = X.y;\r\n        cs[2] = Q.x;\r\n        cs[3] = Q.y;\r\n\r\n        return mod(uint256(keccak256(abi.encodePacked(cs))), NN);\r\n    }\r\n\r\n    function computeY(Point memory T, uint256 e)\r\n        internal\r\n        returns (uint256)\r\n    {\r\n        uint256 size = 3;\r\n        uint256[] memory cs = new uint256[](size);\r\n        cs[0] = T.x;\r\n        cs[1] = T.y;\r\n        cs[2] = e;\r\n        return mod(uint256(keccak256(abi.encodePacked(cs))), NN);\r\n    }\r\n\r\n    function computeG(Point memory T, Point[] memory gs, uint256 e, uint256 nbits)\r\n        internal\r\n        returns (Point[] memory)\r\n    {\r\n        uint256[3] memory mul_input;\r\n        uint256[4] memory add_input;\r\n        bool success;\r\n        mul_input[0] = GX;\r\n        mul_input[1] = GY;\r\n        mul_input[2] = e;\r\n        assembly {\r\n            success := call(not(0), 7, 0, mul_input, 0x80, add_input, 0x60)\r\n        }\r\n\r\n        \r\n        uint256 gex = add_input[0];\r\n        uint256 gey = add_input[1];\r\n        Point memory ge;\r\n        ge.x = gex;\r\n        ge.y = gey;\r\n\r\n        mul_input[0] = GX;\r\n        mul_input[1] = GY;\r\n        mul_input[2] = e;\r\n        assembly {\r\n            success := call(not(0), 7, 0, mul_input, 0x80, add(add_input, 0x40), 0x60)\r\n        }  \r\n        assembly {\r\n            success := call(not(0), 6, 0, add_input, 0x80, add_input, 0x60)\r\n        }\r\n\r\n        Point memory ge2power;\r\n        ge2power.x = add_input[0];\r\n        ge2power.y = add_input[1];\r\n\r\n        Point[] memory ge2powers = new Point[](nbits);\r\n        ge2powers[0] = ge;\r\n\r\n        for(uint i=0;i<nbits-1;i++) {\r\n            Point memory tmp = ge2powers[i];\r\n            add_input[0] = tmp.x;\r\n            add_input[1] = tmp.y;\r\n            add_input[2] = tmp.x;\r\n            add_input[3] = tmp.y;\r\n            assembly {\r\n                success := call(not(0), 6, 0, add_input, 0x80, add_input, 0x60)\r\n            }\r\n\r\n            ge2powers[i+1].x = add_input[0];\r\n            ge2powers[i+1].y = add_input[1];\r\n\r\n        }\r\n        Point[] memory gprimes = new Point[](nbits);\r\n        for(uint i=0;i<nbits;i++) {\r\n            add_input[0] = ge2powers[i].x;\r\n            add_input[1] = ge2powers[i].y;\r\n            add_input[2] = gs[i].x;\r\n            add_input[3] = gs[i].y;\r\n            assembly {\r\n                success := call(not(0), 6, 0, add_input, 0x80, add_input, 0x60)\r\n            }\r\n            gprimes[i].x = add_input[0];\r\n            gprimes[i].y = add_input[1];\r\n        }\r\n        return gprimes;\r\n    }\r\n\r\n\r\n    function generateGS(uint256 nbits)\r\n        internal\r\n        returns (Point[] memory)\r\n    {\r\n        Point[] memory gs = new Point[](nbits);\r\n        gs[0] = Point(G1X, G1Y);\r\n        gs[1] = Point(G2X, G2Y);\r\n        gs[2] = Point(G3X, G3Y);\r\n        gs[3] = Point(G4X, G4Y);\r\n        gs[4] = Point(G5X, G5Y);\r\n        gs[5] = Point(G6X, G6Y);\r\n        gs[6] = Point(G7X, G7Y);\r\n        gs[7] = Point(G8X, G8Y);\r\n        gs[8] = Point(G9X, G9Y);\r\n        gs[9] = Point(G10X, G10Y);\r\n        gs[10] = Point(G11X, G11Y);\r\n        gs[11] = Point(G12X, G12Y);\r\n        gs[12] = Point(G13X, G13Y);\r\n        gs[13] = Point(G14X, G14Y);\r\n        gs[14] = Point(G15X, G15Y);\r\n        gs[15] = Point(G16X, G16Y);\r\n        gs[16] = Point(G17X, G17Y);\r\n        gs[17] = Point(G18X, G18Y);\r\n        gs[18] = Point(G19X, G19Y);\r\n        gs[19] = Point(G20X, G20Y);\r\n        gs[20] = Point(G21X, G21Y);\r\n        gs[21] = Point(G22X, G22Y);\r\n        gs[22] = Point(G23X, G23Y);\r\n        gs[23] = Point(G24X, G24Y);\r\n        gs[24] = Point(G25X, G25Y);\r\n        gs[25] = Point(G26X, G26Y);\r\n        gs[26] = Point(G27X, G27Y);\r\n        gs[27] = Point(G28X, G28Y);\r\n        gs[28] = Point(G29X, G29Y);\r\n        gs[29] = Point(G30X, G30Y);\r\n        gs[30] = Point(G31X, G31Y);\r\n        gs[31] = Point(G32X, G32Y);\r\n\r\n        gs[32] = Point(G1X, G1Y);\r\n        gs[33] = Point(G2X, G2Y);\r\n        gs[34] = Point(G3X, G3Y);\r\n        gs[35] = Point(G4X, G4Y);\r\n        gs[36] = Point(G5X, G5Y);\r\n        gs[37] = Point(G6X, G6Y);\r\n        gs[38] = Point(G7X, G7Y);\r\n        gs[39] = Point(G8X, G8Y);\r\n        gs[40] = Point(G9X, G9Y);\r\n        gs[41] = Point(G10X, G10Y);\r\n        gs[42] = Point(G11X, G11Y);\r\n        gs[43] = Point(G12X, G12Y);\r\n        gs[44] = Point(G13X, G13Y);\r\n        gs[45] = Point(G14X, G14Y);\r\n        gs[46] = Point(G15X, G15Y);\r\n        gs[47] = Point(G16X, G16Y);\r\n        gs[48] = Point(G17X, G17Y);\r\n        gs[49] = Point(G18X, G18Y);\r\n        gs[50] = Point(G19X, G19Y);\r\n        gs[51] = Point(G20X, G20Y);\r\n        gs[52] = Point(G21X, G21Y);\r\n        gs[53] = Point(G22X, G22Y);\r\n        gs[54] = Point(G23X, G23Y);\r\n        gs[55] = Point(G24X, G24Y);\r\n        gs[56] = Point(G25X, G25Y);\r\n        gs[57] = Point(G26X, G26Y);\r\n        gs[58] = Point(G27X, G27Y);\r\n        gs[59] = Point(G28X, G28Y);\r\n        gs[60] = Point(G29X, G29Y);\r\n        gs[61] = Point(G30X, G30Y);\r\n        gs[62] = Point(G31X, G31Y);\r\n        gs[63] = Point(G32X, G32Y);\r\n        // gs[32] = Point(G33X, G33Y);\r\n\r\n\r\n        return gs;\r\n    }\r\n\r\n\r\n    function computeF(Part1 memory part1, uint256 e, uint256 y)\r\n        internal\r\n         returns (uint256 x, uint256 z)\r\n    {\r\n        uint256[3] memory mul_input;\r\n        uint256[4] memory add_input;\r\n        bool success;\r\n        mul_input[0] = HX;\r\n        mul_input[1] = HY;\r\n        // mul_input[2] = -part1.s;\r\n        mul_input[2] = part1.s;\r\n        assembly {\r\n            success := call(not(0), 7, 0, mul_input, 0x80, add_input, 0x60)\r\n        }\r\n\r\n        mul_input[0] = part1.X.x;\r\n        mul_input[1] = part1.X.y;\r\n        mul_input[2] = e;\r\n\r\n        assembly {\r\n            success := call(not(0), 7, 0, mul_input, 0x80, add(add_input, 0x40), 0x60)\r\n        }\r\n\r\n        assembly {\r\n            success := call(not(0), 6, 0, add_input, 0x80, add_input, 0x60)\r\n        }\r\n\r\n        mul_input[0] = part1.T.x;\r\n        mul_input[1] = part1.T.y;\r\n        mul_input[2] = y;\r\n\r\n        assembly {\r\n            success := call(not(0), 7, 0, mul_input, 0x80, add(add_input, 0x40), 0x60)\r\n        }\r\n\r\n        assembly {\r\n            success := call(not(0), 6, 0, add_input, 0x80, add_input, 0x60)\r\n        }\r\n\r\n        mul_input[0] = part1.Q.x;\r\n        mul_input[1] = part1.Q.y;\r\n        mul_input[2] = mulmod(y, y, NN);\r\n\r\n        assembly {\r\n            success := call(not(0), 7, 0, mul_input, 0x80, add(add_input, 0x40), 0x60)\r\n        }\r\n\r\n        assembly {\r\n            success := call(not(0), 6, 0, add_input, 0x80, add_input, 0x60)\r\n        }\r\n\r\n        return (add_input[0], add_input[1]);\r\n\r\n    }\r\n\r\n}",
  "sourcePath": "g:\\PhD-1\\Flashproof\\Flashproof\\contracts\\Swiftrange.sol",
  "compiler": {
    "name": "solc",
    "version": "0.8.0+commit.c7dfd78e.Emscripten.clang"
  },
  "schemaVersion": "3.4.11",
  "updatedAt": "2024-04-03T05:59:34.117Z",
  "networkType": "ethereum",
  "devdoc": {
    "kind": "dev",
    "methods": {},
    "version": 1
  },
  "userdoc": {
    "kind": "user",
    "methods": {},
    "version": 1
  }
}