{
  "contractName": "Type1",
  "abi": [
    {
      "inputs": [],
      "name": "GX",
      "outputs": [
        {
          "internalType": "uint256",
          "name": "",
          "type": "uint256"
        }
      ],
      "stateMutability": "view",
      "type": "function",
      "constant": true
    },
    {
      "inputs": [],
      "name": "GY",
      "outputs": [
        {
          "internalType": "uint256",
          "name": "",
          "type": "uint256"
        }
      ],
      "stateMutability": "view",
      "type": "function",
      "constant": true
    },
    {
      "inputs": [],
      "name": "HX",
      "outputs": [
        {
          "internalType": "uint256",
          "name": "",
          "type": "uint256"
        }
      ],
      "stateMutability": "view",
      "type": "function",
      "constant": true
    },
    {
      "inputs": [],
      "name": "HY",
      "outputs": [
        {
          "internalType": "uint256",
          "name": "",
          "type": "uint256"
        }
      ],
      "stateMutability": "view",
      "type": "function",
      "constant": true
    },
    {
      "inputs": [],
      "name": "PP",
      "outputs": [
        {
          "internalType": "uint256",
          "name": "",
          "type": "uint256"
        }
      ],
      "stateMutability": "view",
      "type": "function",
      "constant": true
    },
    {
      "inputs": [
        {
          "components": [
            {
              "internalType": "uint256",
              "name": "x",
              "type": "uint256"
            },
            {
              "internalType": "uint256",
              "name": "y",
              "type": "uint256"
            }
          ],
          "internalType": "struct Type1.Point",
          "name": "p",
          "type": "tuple"
        },
        {
          "internalType": "uint256",
          "name": "k",
          "type": "uint256"
        }
      ],
      "name": "multiply",
      "outputs": [
        {
          "components": [
            {
              "internalType": "uint256",
              "name": "x",
              "type": "uint256"
            },
            {
              "internalType": "uint256",
              "name": "y",
              "type": "uint256"
            }
          ],
          "internalType": "struct Type1.Point",
          "name": "",
          "type": "tuple"
        }
      ],
      "stateMutability": "nonpayable",
      "type": "function"
    },
    {
      "inputs": [
        {
          "internalType": "uint256",
          "name": "a",
          "type": "uint256"
        },
        {
          "internalType": "uint256",
          "name": "b",
          "type": "uint256"
        }
      ],
      "name": "mod",
      "outputs": [
        {
          "internalType": "uint256",
          "name": "",
          "type": "uint256"
        }
      ],
      "stateMutability": "pure",
      "type": "function",
      "constant": true
    },
    {
      "inputs": [
        {
          "components": [
            {
              "internalType": "uint256",
              "name": "x",
              "type": "uint256"
            },
            {
              "internalType": "uint256",
              "name": "y",
              "type": "uint256"
            }
          ],
          "internalType": "struct Type1.Point",
          "name": "p1",
          "type": "tuple"
        },
        {
          "components": [
            {
              "internalType": "uint256",
              "name": "x",
              "type": "uint256"
            },
            {
              "internalType": "uint256",
              "name": "y",
              "type": "uint256"
            }
          ],
          "internalType": "struct Type1.Point",
          "name": "p2",
          "type": "tuple"
        }
      ],
      "name": "sub",
      "outputs": [
        {
          "components": [
            {
              "internalType": "uint256",
              "name": "x",
              "type": "uint256"
            },
            {
              "internalType": "uint256",
              "name": "y",
              "type": "uint256"
            }
          ],
          "internalType": "struct Type1.Point",
          "name": "",
          "type": "tuple"
        }
      ],
      "stateMutability": "nonpayable",
      "type": "function"
    },
    {
      "inputs": [
        {
          "components": [
            {
              "components": [
                {
                  "internalType": "uint256",
                  "name": "x",
                  "type": "uint256"
                },
                {
                  "internalType": "uint256",
                  "name": "y",
                  "type": "uint256"
                }
              ],
              "internalType": "struct Type1.Point",
              "name": "cy",
              "type": "tuple"
            },
            {
              "components": [
                {
                  "internalType": "uint256",
                  "name": "x",
                  "type": "uint256"
                },
                {
                  "internalType": "uint256",
                  "name": "y",
                  "type": "uint256"
                }
              ],
              "internalType": "struct Type1.Point[]",
              "name": "cts",
              "type": "tuple[]"
            },
            {
              "components": [
                {
                  "internalType": "uint256",
                  "name": "x",
                  "type": "uint256"
                },
                {
                  "internalType": "uint256",
                  "name": "y",
                  "type": "uint256"
                }
              ],
              "internalType": "struct Type1.Point[]",
              "name": "cws",
              "type": "tuple[]"
            },
            {
              "components": [
                {
                  "internalType": "uint256",
                  "name": "x",
                  "type": "uint256"
                },
                {
                  "internalType": "uint256",
                  "name": "y",
                  "type": "uint256"
                }
              ],
              "internalType": "struct Type1.Point",
              "name": "bigS",
              "type": "tuple"
            },
            {
              "components": [
                {
                  "internalType": "uint256",
                  "name": "x",
                  "type": "uint256"
                },
                {
                  "internalType": "uint256",
                  "name": "y",
                  "type": "uint256"
                }
              ],
              "internalType": "struct Type1.Point",
              "name": "bigR",
              "type": "tuple"
            },
            {
              "internalType": "uint256",
              "name": "eta1",
              "type": "uint256"
            },
            {
              "internalType": "uint256",
              "name": "eta2",
              "type": "uint256"
            },
            {
              "internalType": "uint256[]",
              "name": "vs",
              "type": "uint256[]"
            }
          ],
          "internalType": "struct Type1.Part1",
          "name": "zkp1",
          "type": "tuple"
        },
        {
          "internalType": "uint256",
          "name": "nbits",
          "type": "uint256"
        },
        {
          "internalType": "uint256",
          "name": "K",
          "type": "uint256"
        },
        {
          "internalType": "uint256",
          "name": "L",
          "type": "uint256"
        }
      ],
      "name": "verifyRangeArgument",
      "outputs": [
        {
          "internalType": "uint256",
          "name": "",
          "type": "uint256"
        }
      ],
      "stateMutability": "nonpayable",
      "type": "function"
    }
  ],
  "bytecode": "0x608060405234801561001057600080fd5b50610b00806100206000396000f3fe608060405234801561001057600080fd5b50600436106100a35760003560e01c806396b41bdd11610076578063d42dadde1161005b578063d42dadde14610111578063eeeac01e14610124578063f43f523a1461012c576100a3565b806396b41bdd146100e9578063c11b8ad714610109576100a3565b806303a507be146100a85780634e93d4a2146100c657806358163b92146100ce5780637a308a4c146100e1575b600080fd5b6100b061013f565b6040516100bd91906109c5565b60405180910390f35b6100b0610144565b6100b06100dc36600461074d565b610168565b6100b0610184565b6100fc6100f7366004610864565b610189565b6040516100bd91906109ae565b6100b061027e565b6100fc61011f366004610898565b6102a2565b6100b0610336565b6100b061013a3660046108c2565b61035a565b600181565b7f0b1fd6eda65bd4e6866a28bccfee143309bfb597378217a2002e5cac8cfe645f81565b600061017c85600001518660400151610399565b949350505050565b600281565b6101916105ad565b6101996105c7565b8351815260208085015181830152835160408301528301516101db907f30644e72e131a029b85045b68181585d97816a916871ca8d3c208c16d87cfd47610a1c565b606082015260006101ea6105e5565b604081608085600060067ffffffffffffffffffffffffffffffffffffffffffffffffffffffffffffffffff1915081610258576040517f08c379a000000000000000000000000000000000000000000000000000000000815260040161024f90610977565b60405180910390fd5b604080518082019091528151815260208101826001602002015190529695505050505050565b7f1581953bcf3ce078038fa19d974e26e4757a0e65573d9628ec8939bb77a6fd0481565b6102aa6105ad565b6102b2610603565b83518152602080850151908201526040810183905260006102d16105e5565b604081606085600060077ffffffffffffffffffffffffffffffffffffffffffffffffffffffffffffffffff1915081610258576040517f08c379a000000000000000000000000000000000000000000000000000000000815260040161024f9061091a565b7f30644e72e131a029b85045b68181585d97816a916871ca8d3c208c16d87cfd4781565b600081610393576040517f08c379a000000000000000000000000000000000000000000000000000000000815260040161024f906108e3565b50900690565b6000600182516103a99190610a1c565b90506103b36105c7565b600080846000815181106103f0577f4e487b7100000000000000000000000000000000000000000000000000000000600052603260045260246000fd5b60200260200101519050806000015183600060048110610439577f4e487b7100000000000000000000000000000000000000000000000000000000600052603260045260246000fd5b602002018181525050806020015183600160048110610481577f4e487b7100000000000000000000000000000000000000000000000000000000600052603260045260246000fd5b602002015260015b848110156105a45760008682815181106104cc577f4e487b7100000000000000000000000000000000000000000000000000000000600052603260045260246000fd5b60200260200101519050806000015185600260048110610515577f4e487b7100000000000000000000000000000000000000000000000000000000600052603260045260246000fd5b60200201818152505080602001518560036004811061055d577f4e487b7100000000000000000000000000000000000000000000000000000000600052603260045260246000fd5b6020020152606085608081600060067ffffffffffffffffffffffffffffffffffffffffffffffffffffffffffffffffff1935050808061059c90610a33565b915050610489565b50505050505050565b604051806040016040528060008152602001600081525090565b60405180608001604052806004906020820280368337509192915050565b60405180604001604052806002906020820280368337509192915050565b60405180606001604052806003906020820280368337509192915050565b600082601f830112610631578081fd5b81356020610646610641836109f8565b6109ce565b82815281810190858301604080860288018501891015610664578687fd5b865b8681101561068a576106788a846106ff565b85529385019391810191600101610666565b509198975050505050505050565b600082601f8301126106a8578081fd5b813560206106b8610641836109f8565b82815281810190858301838502870184018810156106d4578586fd5b855b858110156106f2578135845292840192908401906001016106d6565b5090979650505050505050565b600060408284031215610710578081fd5b6040516040810181811067ffffffffffffffff8211171561073357610733610a9b565b604052823581526020928301359281019290925250919050565b60008060008060808587031215610762578384fd5b843567ffffffffffffffff80821115610779578586fd5b90860190610160828903121561078d578586fd5b610100610799816109ce565b6107a38a856106ff565b81526040840135838111156107b6578889fd5b6107c28b828701610621565b6020830152506060840135838111156107d9578889fd5b6107e58b828701610621565b6040830152506107f88a608086016106ff565b606082015261080a8a60c086016106ff565b60808201529083013560a082015261012083013560c08201526101408301359082821115610836578788fd5b6108428a838601610698565b60e0820152996020890135995060408901359860600135975095505050505050565b60008060808385031215610876578182fd5b61088084846106ff565b915061088f84604085016106ff565b90509250929050565b600080606083850312156108aa578182fd5b6108b484846106ff565b946040939093013593505050565b600080604083850312156108d4578182fd5b50508035926020909101359150565b60208082526018908201527f536166654d6174683a206d6f64756c6f206279207a65726f0000000000000000604082015260600190565b60208082526024908201527f656c6c6970746963206375727665206d756c7469706c69636174696f6e20666160408201527f696c656400000000000000000000000000000000000000000000000000000000606082015260800190565b60208082526018908201527f626e323536207375627472616374696f6e206661696c65640000000000000000604082015260600190565b815181526020918201519181019190915260400190565b90815260200190565b60405181810167ffffffffffffffff811182821017156109f0576109f0610a9b565b604052919050565b600067ffffffffffffffff821115610a1257610a12610a9b565b5060209081020190565b600082821015610a2e57610a2e610a6c565b500390565b60007fffffffffffffffffffffffffffffffffffffffffffffffffffffffffffffffff821415610a6557610a65610a6c565b5060010190565b7f4e487b7100000000000000000000000000000000000000000000000000000000600052601160045260246000fd5b7f4e487b7100000000000000000000000000000000000000000000000000000000600052604160045260246000fdfea26469706673582212202c046041246a031f8b8972967de4a6d51689158dd583e77e1d9c5801f5d4fbbd64736f6c63430008000033",
  "immutableReferences": {},
  "source": "// // SPDX-License-Identifier: GPL-3.0\npragma solidity ^0.8.0;\npragma experimental ABIEncoderV2;\n\n// import \"./SafeMath.sol\";\n\ncontract Type1 {\n\n    // using SafeMath for uint256;\n\n    struct Point {\n        uint256 x;\n        uint256 y;\n    }\n\n    struct Part1 {\n        Point cy;\n        Point[] cts;\n        Point[] cws;\n        Point bigS;\n        Point bigR;\n        uint256 eta1;\n        uint256 eta2;\n        uint256[] vs;\n    }\n\n    uint256 public constant GX = 1;\n    uint256 public constant HX = 9727523064272218541460723335320998459488975639302513747055235660443850046724;\n    uint256 public constant GY = 2;\n    uint256 public constant HY = 5031696974169251245229961296941447383441169981934237515842977230762345915487;\n\n    uint256 internal constant AA = 0;\n    uint256 internal constant BB = 3;\n    uint256 public constant PP = 0x30644e72e131a029b85045b68181585d97816a916871ca8d3c208c16d87cfd47;\n    uint256 internal constant NN = 0x30644e72e131a029b85045b68181585d2833e84879b9709143e1f593f0000001;\n\n    uint256 private constant G1X = 21871886701493130361926597484985460784651606145915560862277255597415428127538;\n    uint256 private constant G1Y = 14168579922397207572133519311254623297736995350973905034230793576329479423017;\n    uint256 private constant G2X = 3861092573143301462882865378032464797233831178581441319277915171099149340388;\n    uint256 private constant G2Y = 16212715446020966836912155202497880495582444714344537740432770371881295961042;\n    uint256 private constant G3X = 17794022419177434728897824542566505814587001823159641908137099628854091668081;\n    uint256 private constant G3Y = 13473761247781730607154210747240463721136746570364501287304052785869615090214;\n    uint256 private constant G4X = 1490220474682548387770409241561453863587190076247163652312282216479401208354;\n    uint256 private constant G4Y = 15115332596133951741661710010089587977215063328170306798503144254393751950166;\n    uint256 private constant G5X = 11325069489588978759632423529668215834299092517085120462579240534513196371701;\n    uint256 private constant G5Y = 9762504875223381538844348071714748915417739968132942646026028449705316406568;\n    uint256 private constant G6X = 15408585882762304857413510108108366373097088344307315633728870759606852236838;\n    uint256 private constant G6Y = 3460328023718523836356475474588502585794210452489449185809203925671722931362;\n    // uint256 private constant G7X = 6931749079582407422004463406148477362357661472338328270508373724106071518625;\n    // uint256 private constant G7Y = 21191302843410952823242789471696212271196775028224076743387772065534892367978;\n    // uint256 private constant G8X = 3818775040669594200577093816348913853129511932617816368937601194351220417610;\n    // uint256 private constant G8Y = 11457440080399767781624111424667375708460721196045291561100911147854033186883;\n    // uint256 private constant G9X = 16856378328816595579144346936425326333732976124866714942794663389927527942729;\n    // uint256 private constant G9Y = 8615147240200783032869516315617482186645983361490736606108099797176368213214;\n    // uint256 private constant G10X = 12329774238033643601677353420174969544762152665590909463734924154613306217386;\n    // uint256 private constant G10Y = 9349845555551207787110530432977444099219845456919646677037398830926083607248;\n    // uint256 private constant G11X = 15819385188090994752881147747997045863063544769706761541586812145860428725372;\n    // uint256 private constant G11Y = 17100833187243109040711678632824159418785961748506921615441797818807296019294;\n    // uint256 private constant G12X = 6331024371890361853402322881256862237801465545397987055303359505174258940787;\n    // uint256 private constant G12Y = 18571650698865115063332538959090545189492566919425356834234934402133902141366;\n    // uint256 private constant G13X = 7105985838448748955209439322478761515339875326287256355331470413548705695561;\n    // uint256 private constant G13Y = 18438173537644615561966541251456414954420156418562019789648878978333737520283;\n    // uint256 private constant G14X = 19021747983670190184630514322277256890031751525022704695742421493992173130370;\n    // uint256 private constant G14Y = 14483250175521306424840452131620408095676413044004913447506078614599443973015;\n    // uint256 private constant G15X = 12939943061190834182361325225540663473273714337397365880767331596410557127634;\n    // uint256 private constant G15Y = 21625625012093072106792496546825573499928322833210005959334070047102115545386;\n    // uint256 private constant G16X = 6590246720507402136630326950618777059699581927789913511934337513344857421023;\n    // uint256 private constant G16Y = 889573739332574916127485194837452655567667481149713859993862188238306657777;\n\n\n\n    function multiply(Point memory p, uint256 k)\n        public\n        returns (Point memory)\n    {\n        uint256[3] memory input;\n        input[0] = p.x;\n        input[1] = p.y;\n        input[2] = k;\n\n        bool success;\n        uint256[2] memory result;\n\n        assembly {\n            success := call(not(0), 0x07, 0, input, 96, result, 64)\n        }\n        require(success, \"elliptic curve multiplication failed\");\n\n        return Point(result[0], result[1]);\n    }\n    function mod(uint256 a, uint256 b)\n        public\n        pure\n        returns (uint256)\n    {\n        require(b != 0, \"SafeMath: modulo by zero\");\n\n        uint256 c;\n        assembly {\n            c := mod(a, b)\n        }\n\n        return c;\n    }\n\n    function add(Point memory p1, Point memory p2)\n        internal\n        returns (Point memory)\n    {\n        uint256[4] memory input;\n        input[0] = p1.x;\n        input[1] = p1.y;\n        input[2] = p2.x;\n        input[3] = p2.y;\n\n        bool success;\n        uint256[2] memory result;\n        assembly {\n            success := call(not(0), 0x06, 0, input, 128, result, 64)\n        }\n\n        require(success, \"bn256 addition failed\");\n        return Point(result[0], result[1]);\n    }\n\n    function sub(Point memory p1, Point memory p2)\n        public\n        returns (Point memory)\n    {\n        uint256[4] memory input;\n        input[0] = p1.x;\n        input[1] = p1.y;\n        input[2] = p2.x;\n        input[3] = PP - p2.y;\n\n        bool success;\n        uint256[2] memory result;\n        assembly {\n            success := call(not(0), 0x06, 0, input, 128, result, 64)\n        }\n\n        require(success, \"bn256 subtraction failed\");\n        return Point(result[0], result[1]);\n    }\n\n    function modExp(uint256 base, uint256 exponent, uint256 modulus)\n        internal view returns\n        (uint256)\n    {\n        uint256[6] memory input;\n        uint256[1] memory output;\n        input[0] = 0x20;  // length_of_BASE\n        input[1] = 0x20;  // length_of_EXPONENT\n        input[2] = 0x20;  // length_of_MODULUS\n        input[3] = base;\n        input[4] = exponent;\n        input[5] = modulus;\n        assembly {\n            if iszero(staticcall(not(0), 5, input, 0xc0, output, 0x20)) {\n                revert(0, 0)\n            }\n        }\n        return output[0];\n    }\n\n    function verifyRangeArgument(Part1 memory zkp1, uint nbits, uint K, uint L)\n        external\n        returns (uint256)\n    {\n        // uint256[] memory betas = computeBetas(zkp1, K);\n\n        // assertCond1(betas, zkp1, nbits, K, L);\n\n        // assertCond2(betas, zkp1);\n\n        assertCond3(zkp1.cy, zkp1.cws);\n    }\n\n    // function generateGS(uint L)\n    //     internal\n    //     returns (Point[] memory)\n    // {\n    //     Point[] memory gs = new Point[](L);\n    //     gs[0] = Point(G1X, G1Y);\n    //     gs[1] = Point(G2X, G2Y);\n    //     gs[2] = Point(G3X, G3Y);\n    //     gs[3] = Point(G4X, G4Y);\n    //     gs[4] = Point(G5X, G5Y);\n    //     gs[5] = Point(G6X, G6Y);\n    //     gs[6] = Point(G7X, G7Y);\n    //     gs[7] = Point(G8X, G8Y);\n    //     gs[8] = Point(G9X, G9Y);\n    //     gs[9] = Point(G10X, G10Y);\n    //     gs[10] = Point(G11X, G11Y);\n    //     gs[11] = Point(G12X, G12Y);\n    //     gs[12] = Point(G13X, G13Y);\n    //     gs[13] = Point(G14X, G14Y);\n    //     gs[14] = Point(G15X, G15Y);\n    //     gs[15] = Point(G16X, G16Y);\n    //     gs[16] = Point(G17X, G17Y);\n    //     gs[17] = Point(G18X, G18Y);\n    //     gs[18] = Point(G19X, G19Y);\n    //     gs[19] = Point(G20X, G20Y);\n    //     gs[20] = Point(G21X, G21Y);\n    //     gs[21] = Point(G22X, G22Y);\n    //     gs[22] = Point(G23X, G23Y);\n    //     gs[23] = Point(G24X, G24Y);\n    //     gs[24] = Point(G25X, G25Y);\n    //     gs[25] = Point(G26X, G26Y);\n\n    //     // if(L == 16){\n    //     //     gs[11] = Point(G12X, G12Y);\n    //     //     gs[12] = Point(G13X, G13Y);\n    //     //     gs[13] = Point(G14X, G14Y);\n    //     //     gs[14] = Point(G15X, G15Y);\n    //     //     gs[15] = Point(G16X, G16Y);\n    //     // }\n\n    //     return gs;\n    // }\n\n    // function computeBaseBeta(Point memory cy, Point[] memory cts, Point[] memory cws, Point[] memory css)\n    //     internal\n    //     returns (uint256)\n    // {\n    //     uint ctlength = cts.length;\n    //     uint cwlength = cws.length;\n    //     uint cslength = css.length;\n\n    //     uint256 size = 2 * (ctlength + cwlength + cslength);\n    //     uint256[] memory cs = new uint256[](size);\n    //     uint offset = 0;\n    //     for(uint i=0;i<ctlength;i++) {\n    //         Point memory p = cts[i];\n    //         cs[offset] = p.x;\n    //         offset = offset + 1;\n    //         cs[offset] = p.y;\n    //         offset = offset + 1;\n    //     }\n    //     for(uint i=0;i<cwlength;i++) {\n    //         Point memory p = cws[i];\n    //         cs[offset] = p.x;\n    //         offset = offset + 1;\n    //         cs[offset] = p.y;\n    //         offset = offset + 1;\n    //     }\n    //     for(uint i=0;i<cslength;i++) {\n    //         Point memory p = css[i];\n    //         cs[offset] = p.x;\n    //         offset = offset + 1;\n    //         cs[offset] = p.y;\n    //         offset = offset + 1;\n    //     }\n\n    //     return mod(uint256(keccak256(abi.encodePacked(cs))), NN);\n    // }\n\n    // function computeBetas(Part1 memory zkp1, uint K)\n    //     internal\n    //     returns (uint256[] memory)\n    // {\n    //     uint256 betaN1 = zkp1.eInvs[0];\n\n    //     uint256 beta = computeBaseBeta(zkp1.cy, zkp1.cts, zkp1.cws, zkp1.css);\n    //     // require (mulmod(beta, betaN1, NN) == 1);\n\n    //     uint256[] memory betas = new uint256[](K);\n\n    //     uint256 beta2 = mulmod(beta, beta, NN);\n    //     uint256 beta4 = mulmod(beta2, beta2, NN);\n    //     betas[0] = betaN1;\n    //     betas[1] = beta;\n    //     betas[2] = beta4;\n    //     uint256 beta5 = mulmod(beta4, beta, NN);\n    //     betas[3] = beta4;\n    //     betas[4] = beta5;\n\n    //     // if(K == 4) {\n    //     //     uint256 beta5 = mulmod(beta4, beta, NN);\n    //     //     betas[3] = beta5;\n    //     // }\n\n    //     return betas;\n    // }\n\n    // function assertCond1(uint256[] memory betas, Part1 memory zkp1, uint nbits, uint256 K, uint256 L)\n    //     internal\n    // {\n    //     uint256[] memory fvs = computeFV(betas, zkp2.vs, nbits, K, L);\n    //     (uint256 fvpx, uint256 fvpy) = computeFVPoint(fvs);\n\n    //     uint256[3] memory mul_input;\n    //     uint256[4] memory add_input;\n    //     bool success;\n    //     mul_input[0] = HX;\n    //     mul_input[1] = HY;\n    //     mul_input[2] = zkp2.u;\n    //     assembly {\n    //         success := call(not(0), 7, 0, mul_input, 0x80, add(add_input, 0x40), 0x60)\n    //     }\n\n    //     add_input[0] = fvpx;\n    //     add_input[1] = fvpy;\n    //     assembly {\n    //         success := call(not(0), 6, 0, add_input, 0x80, add_input, 0x60)\n    //     }\n\n    //     uint256 ret1x = add_input[0];\n    //     uint256 ret1y = add_input[1];\n\n    //     if(K == 3) {\n    //         (add_input[0], add_input[1]) = computeRet2ForK3(betas, zkp1.cts);\n    //     } else if(K == 4) {\n    //         (add_input[0], add_input[1]) = computeRet2ForK4(betas, zkp1.cts);\n    //     }else if(K == 5) {\n    //         (add_input[0], add_input[1]) = computeRet2ForK5(betas, zkp1.cts);\n    //     }\n\n    //     (add_input[2], add_input[3]) = computeCSS(betas, zkp1.css);\n    //     assembly {\n    //         success := call(not(0), 6, 0, add_input, 0x80, add_input, 0x60)\n    //     }\n\n    //     // assert (add_input[0] == ret1x && add_input[1] == ret1y);\n    // }\n\n    // function computeCSS(uint256[] memory betas, Point[] memory css)\n    //     internal\n    //     returns (uint256 x, uint256 y)\n    // {\n    //     uint size = css.length-1;\n\n    //     uint256[3] memory mul_input;\n    //     uint256[4] memory add_input;\n    //     bool success;\n\n    //     Point memory p = css[0];\n    //     mul_input[0] = p.x;\n    //     mul_input[1] = p.y;\n    //     mul_input[2] = betas[0];\n    //     assembly {\n    //         success := call(not(0), 7, 0, mul_input, 0x80, add(add_input, 0x0), 0x60)\n    //     }\n\n    //     for(uint i=1;i<size;i++){\n    //         Point memory p = css[i];\n    //         mul_input[0] = p.x;\n    //         mul_input[1] = p.y;\n    //         mul_input[2] = betas[i];\n\n    //         assembly {\n    //             success := call(not(0), 7, 0, mul_input, 0x80, add(add_input, 0x40), 0x60)\n    //         }\n\n    //         assembly {\n    //             success := call(not(0), 6, 0, add_input, 0x80, add_input, 0x60)\n    //         }\n    //     }\n\n    //     p = css[size];\n    //     add_input[2] = p.x;\n    //     add_input[3] = p.y;\n\n    //     assembly {\n    //         success := call(not(0), 6, 0, add_input, 0x80, add_input, 0x60)\n    //     }\n\n    //     return (add_input[0], add_input[1]);\n    // }\n\n    // function assertCond2(uint256[] memory betas, Point[] memory cws, uint256[] memory vs, uint256 d)\n    //     internal\n    //     returns (Point memory)\n    // {\n    //     uint256 vsum = 0;\n    //     uint vsize = vs.length;\n    //     for(uint i=0;i<vsize;i++) {\n    //         vsum = addmod(vsum, vs[i], NN);\n    //     }\n\n    //     uint256[3] memory mul_input;\n    //     uint256[4] memory add_input;\n    //     bool success;\n\n    //     mul_input[0] = GX;\n    //     mul_input[1] = GY;\n    //     mul_input[2] = vsum;\n    //     assembly {\n    //         success := call(not(0), 7, 0, mul_input, 0x80, add_input, 0x60)\n    //     }\n\n    //     mul_input[0] = HX;\n    //     mul_input[1] = HY;\n    //     mul_input[2] = d;\n    //     assembly {\n    //         success := call(not(0), 7, 0, mul_input, 0x80, add(add_input, 0x40), 0x60)\n    //     }\n\n    //     assembly {\n    //         success := call(not(0), 6, 0, add_input, 0x80, add_input, 0x60)\n    //     }\n\n    //     uint256 ret1x = add_input[0];\n    //     uint256 ret1y = add_input[1];\n\n    //     Point memory p = cws[0];\n    //     mul_input[0] = p.x;\n    //     mul_input[1] = p.y;\n    //     mul_input[2] = betas[0];\n    //     assembly {\n    //         success := call(not(0), 7, 0, mul_input, 0x80, add_input, 0x60)\n    //     }\n\n    //     uint wsize = cws.length - 1;\n    //     for(uint i=1;i<wsize;i++) {\n    //         Point memory p = cws[i];\n    //         mul_input[0] = p.x;\n    //         mul_input[1] = p.y;\n    //         mul_input[2] = betas[i];\n\n    //         assembly {\n    //             success := call(not(0), 7, 0, mul_input, 0x80, add(add_input, 0x40), 0x60)\n    //         }\n\n    //         assembly {\n    //             success := call(not(0), 6, 0, add_input, 0x80, add_input, 0x60)\n    //         }\n    //     }\n\n    //     p = cws[wsize];\n    //     add_input[2] = p.x;\n    //     add_input[3] = p.y;\n\n    //     assembly {\n    //         success := call(not(0), 6, 0, add_input, 0x80, add_input, 0x60)\n    //     }\n\n    //     // assert (ret1x == add_input[0] && ret1y == add_input[1]);\n    // }\n\n    function assertCond3(Point memory cy, Point[] memory cws)\n        internal\n    {\n        uint wsize = cws.length - 1;\n        uint256[4] memory add_input;\n        bool success;\n\n        Point memory p = cws[0];\n        add_input[0] = p.x;\n        add_input[1] = p.y;\n        for(uint i=1;i<wsize;i++) {\n            Point memory p = cws[i];\n            add_input[2] = p.x;\n            add_input[3] = p.y;\n            assembly {\n                success := call(not(0), 6, 0, add_input, 0x80, add_input, 0x60)\n            }\n        }\n\n\n        // assert (cy.x == add_input[0] && cy.y == add_input[1]);\n    }\n\n    // function computeFV(uint256[] memory betas, uint256[] memory vs, uint nbits, uint K, uint L)\n    //     internal\n    //     returns (uint256[] memory)\n    // {\n    //     uint256[] memory fvs = new uint256[](L);\n\n    //     for(uint i=0;i<L;i++) {\n    //         uint256 f = 0;\n    //         uint base = i * K;\n    //         for(uint j=0;j<K;j++) {\n    //             uint idx = base + j;\n    //             if(idx == 0) {\n    //                 f = betas[0];\n    //             } else if(idx < nbits) {\n    //                 f = addmod(f, mulmod(betas[j], 2 << (idx-1), NN), NN);\n    //             }\n    //         }\n    //         uint256 v = vs[i];\n    //         if(f >= v) {\n    //             f = f - v;\n    //         } else {\n    //             f = NN - v + f;\n    //         }\n    //         fvs[i] = mulmod(f, v, NN);\n    //     }\n\n    //     return fvs;\n    // }\n\n    // function computeFVPoint(uint256[] memory fvs)\n    //     internal\n    //     returns (uint256 x, uint256 y)\n    // {\n    //     uint256[3] memory mul_input;\n    //     uint256[4] memory add_input;\n    //     bool success;\n\n    //     add_input[0] = 0;\n    //     add_input[1] = 0;\n    //     uint size = fvs.length;\n\n    //     Point[] memory gs = generateGS(size);\n    //     for(uint i=0;i<size;i++) {\n    //         Point memory g = gs[i];\n    //         mul_input[0] = g.x;\n    //         mul_input[1] = g.y;\n    //         mul_input[2] = fvs[i];\n\n    //         assembly {\n    //             success := call(not(0), 7, 0, mul_input, 0x80, add(add_input, 0x40), 0x60)\n    //         }\n\n    //         assembly {\n    //             success := call(not(0), 6, 0, add_input, 0x80, add_input, 0x60)\n    //         }\n    //     }\n\n    //     return (add_input[0], add_input[1]);\n    // }\n\n}\n\n",
  "sourcePath": "g:\\PhD-1\\Flashproof\\Flashproof\\contracts\\Type1.sol",
  "compiler": {
    "name": "solc",
    "version": "0.8.0+commit.c7dfd78e.Emscripten.clang"
  },
  "schemaVersion": "3.4.11",
  "updatedAt": "2024-04-03T05:59:34.089Z",
  "networkType": "ethereum",
  "devdoc": {
    "kind": "dev",
    "methods": {},
    "version": 1
  },
  "userdoc": {
    "kind": "user",
    "methods": {},
    "version": 1
  }
}