{
  "contractName": "Type3",
  "abi": [
    {
      "inputs": [],
      "name": "GX",
      "outputs": [
        {
          "internalType": "uint256",
          "name": "",
          "type": "uint256"
        }
      ],
      "stateMutability": "view",
      "type": "function"
    },
    {
      "inputs": [],
      "name": "GY",
      "outputs": [
        {
          "internalType": "uint256",
          "name": "",
          "type": "uint256"
        }
      ],
      "stateMutability": "view",
      "type": "function"
    },
    {
      "inputs": [],
      "name": "HX",
      "outputs": [
        {
          "internalType": "uint256",
          "name": "",
          "type": "uint256"
        }
      ],
      "stateMutability": "view",
      "type": "function"
    },
    {
      "inputs": [],
      "name": "HY",
      "outputs": [
        {
          "internalType": "uint256",
          "name": "",
          "type": "uint256"
        }
      ],
      "stateMutability": "view",
      "type": "function"
    },
    {
      "inputs": [],
      "name": "PP",
      "outputs": [
        {
          "internalType": "uint256",
          "name": "",
          "type": "uint256"
        }
      ],
      "stateMutability": "view",
      "type": "function"
    },
    {
      "inputs": [
        {
          "internalType": "uint256",
          "name": "a",
          "type": "uint256"
        },
        {
          "internalType": "uint256",
          "name": "b",
          "type": "uint256"
        }
      ],
      "name": "mod",
      "outputs": [
        {
          "internalType": "uint256",
          "name": "",
          "type": "uint256"
        }
      ],
      "stateMutability": "pure",
      "type": "function"
    },
    {
      "inputs": [
        {
          "components": [
            {
              "components": [
                {
                  "internalType": "uint256",
                  "name": "x",
                  "type": "uint256"
                },
                {
                  "internalType": "uint256",
                  "name": "y",
                  "type": "uint256"
                }
              ],
              "internalType": "struct Type3.Point",
              "name": "cy",
              "type": "tuple"
            },
            {
              "components": [
                {
                  "internalType": "uint256",
                  "name": "x",
                  "type": "uint256"
                },
                {
                  "internalType": "uint256",
                  "name": "y",
                  "type": "uint256"
                }
              ],
              "internalType": "struct Type3.Point",
              "name": "cR1",
              "type": "tuple"
            },
            {
              "components": [
                {
                  "internalType": "uint256",
                  "name": "x",
                  "type": "uint256"
                },
                {
                  "internalType": "uint256",
                  "name": "y",
                  "type": "uint256"
                }
              ],
              "internalType": "struct Type3.Point",
              "name": "cR2",
              "type": "tuple"
            },
            {
              "internalType": "uint256",
              "name": "r1_hat",
              "type": "uint256"
            },
            {
              "internalType": "uint256",
              "name": "r2_hat",
              "type": "uint256"
            },
            {
              "internalType": "uint256",
              "name": "l0_value",
              "type": "uint256"
            },
            {
              "internalType": "uint256",
              "name": "yP",
              "type": "uint256"
            },
            {
              "internalType": "uint256",
              "name": "yU",
              "type": "uint256"
            },
            {
              "internalType": "uint256[]",
              "name": "dv_value",
              "type": "uint256[]"
            },
            {
              "internalType": "uint256[]",
              "name": "bv_value",
              "type": "uint256[]"
            },
            {
              "internalType": "uint256[]",
              "name": "luxs",
              "type": "uint256[]"
            },
            {
              "internalType": "uint256[]",
              "name": "pi_px",
              "type": "uint256[]"
            },
            {
              "internalType": "uint256[]",
              "name": "pi_ux",
              "type": "uint256[]"
            },
            {
              "components": [
                {
                  "internalType": "uint256",
                  "name": "x",
                  "type": "uint256"
                },
                {
                  "internalType": "uint256",
                  "name": "y",
                  "type": "uint256"
                }
              ],
              "internalType": "struct Type3.Point[]",
              "name": "cDs",
              "type": "tuple[]"
            },
            {
              "components": [
                {
                  "internalType": "uint256",
                  "name": "x",
                  "type": "uint256"
                },
                {
                  "internalType": "uint256",
                  "name": "y",
                  "type": "uint256"
                }
              ],
              "internalType": "struct Type3.Point[]",
              "name": "cWs",
              "type": "tuple[]"
            },
            {
              "components": [
                {
                  "internalType": "uint256",
                  "name": "x",
                  "type": "uint256"
                },
                {
                  "internalType": "uint256",
                  "name": "y",
                  "type": "uint256"
                }
              ],
              "internalType": "struct Type3.Point[]",
              "name": "cmp",
              "type": "tuple[]"
            },
            {
              "components": [
                {
                  "internalType": "uint256",
                  "name": "x",
                  "type": "uint256"
                },
                {
                  "internalType": "uint256",
                  "name": "y",
                  "type": "uint256"
                }
              ],
              "internalType": "struct Type3.Point[]",
              "name": "cmu",
              "type": "tuple[]"
            }
          ],
          "internalType": "struct Type3.Part1",
          "name": "part1",
          "type": "tuple"
        },
        {
          "internalType": "uint256",
          "name": "K",
          "type": "uint256"
        },
        {
          "internalType": "uint256",
          "name": "B",
          "type": "uint256"
        }
      ],
      "name": "verifyRangeArgument",
      "outputs": [
        {
          "internalType": "uint256",
          "name": "",
          "type": "uint256"
        }
      ],
      "stateMutability": "nonpayable",
      "type": "function"
    }
  ],
  "bytecode": "0x608060405234801561001057600080fd5b50610604806100206000396000f3fe608060405234801561001057600080fd5b506004361061007d5760003560e01c80637a308a4c1161005b5780637a308a4c146100bb578063c11b8ad7146100c3578063eeeac01e146100cb578063f43f523a146100d35761007d565b806303a507be1461008257806342806b8e146100a05780634e93d4a2146100b3575b600080fd5b61008a6100e6565b6040516100979190610548565b60405180910390f35b61008a6100ae3660046102d9565b6100eb565b61008a6100f4565b61008a610118565b61008a61011d565b61008a610141565b61008a6100e13660046104f0565b610165565b600181565b60009392505050565b7f0b1fd6eda65bd4e6866a28bccfee143309bfb597378217a2002e5cac8cfe645f81565b600281565b7f1581953bcf3ce078038fa19d974e26e4757a0e65573d9628ec8939bb77a6fd0481565b7f30644e72e131a029b85045b68181585d97816a916871ca8d3c208c16d87cfd4781565b6000816101a7576040517f08c379a000000000000000000000000000000000000000000000000000000000815260040161019e90610511565b60405180910390fd5b50900690565b600082601f8301126101bd578081fd5b813560206101d26101cd8361057b565b610551565b828152818101908583016040808602880185018910156101f0578687fd5b865b86811015610216576102048a8461028b565b855293850193918101916001016101f2565b509198975050505050505050565b600082601f830112610234578081fd5b813560206102446101cd8361057b565b8281528181019085830183850287018401881015610260578586fd5b855b8581101561027e57813584529284019290840190600101610262565b5090979650505050505050565b60006040828403121561029c578081fd5b6040516040810181811067ffffffffffffffff821117156102bf576102bf61059f565b604052823581526020928301359281019290925250919050565b6000806000606084860312156102ed578283fd5b833567ffffffffffffffff80821115610304578485fd5b908501906102808288031215610318578485fd5b61022061032481610551565b61032e898561028b565b815261033d896040860161028b565b602082015261034f896080860161028b565b604082015260c0840135606082015260e084013560808201526101008085013560a08301526101208086013560c08401526101408087013560e0850152610160808801358781111561039f578b8cfd5b6103ab8e828b01610224565b8587015250610180935083880135878111156103c5578b8cfd5b6103d18e828b01610224565b84870152506101a0925082880135878111156103eb578b8cfd5b6103f78e828b01610224565b83870152506101c091508188013587811115610411578b8cfd5b61041d8e828b01610224565b8287015250506101e08088013587811115610436578b8cfd5b6104428e828b01610224565b85870152506102009350838801358781111561045c578b8cfd5b6104688e828b016101ad565b868501525094870135948686111561047e578a8bfd5b61048a8d878a016101ad565b828601526102408801359550868611156104a2578a8bfd5b6104ae8d878a016101ad565b9085015250506102608501359250838311156104c8578788fd5b6104d48a8487016101ad565b9082015298602088013598506040909701359695505050505050565b60008060408385031215610502578182fd5b50508035926020909101359150565b60208082526018908201527f536166654d6174683a206d6f64756c6f206279207a65726f0000000000000000604082015260600190565b90815260200190565b60405181810167ffffffffffffffff811182821017156105735761057361059f565b604052919050565b600067ffffffffffffffff8211156105955761059561059f565b5060209081020190565b7f4e487b7100000000000000000000000000000000000000000000000000000000600052604160045260246000fdfea26469706673582212208de0ce2737f4cbef5fdf1ba17113b8d949725c88b66f0bb0dd50cbcdfdce36c064736f6c63430008000033",
  "immutableReferences": {},
  "source": "pragma solidity ^0.8.0;\r\npragma experimental ABIEncoderV2;\r\n\r\ncontract Type3 {\r\n    struct Point {\r\n        uint256 x;\r\n        uint256 y;\r\n    }\r\n\r\n    struct Part1 {\r\n        Point cy;\r\n        Point cR1;\r\n        Point cR2;\r\n        uint256 r1_hat;\r\n        uint256 r2_hat;\r\n        uint256 l0_value;\r\n        uint256 yP;\r\n        uint256 yU;\r\n        uint256[] dv_value;\r\n        uint256[] bv_value;\r\n        uint256[] luxs;\r\n        uint256[] pi_px;\r\n        uint256[] pi_ux;\r\n        Point[] cDs;\r\n        Point[] cWs;\r\n        Point[] cmp;\r\n        Point[] cmu;\r\n    }\r\n\r\n\r\n    uint256 public constant GX = 1;\r\n    uint256 public constant HX = 9727523064272218541460723335320998459488975639302513747055235660443850046724;\r\n    uint256 public constant GY = 2;\r\n    uint256 public constant HY = 5031696974169251245229961296941447383441169981934237515842977230762345915487;\r\n\r\n    uint256 public constant PP = 0x30644e72e131a029b85045b68181585d97816a916871ca8d3c208c16d87cfd47;\r\n    uint256 internal constant NN = 0x30644e72e131a029b85045b68181585d2833e84879b9709143e1f593f0000001;\r\n\r\n    uint256 private constant G1X = 10634783317254738331264664985092831821376621286957316213969233667217643505748;\r\n    uint256 private constant G1Y = 3593894136463563836927847830567934263138852783181300960240960063050894828762;\r\n    uint256 private constant G2X = 15079475582167754912076991092891442787377018931665830331839902737242049589194;\r\n    uint256 private constant G2Y = 2994786716555744767228318303490139874612995833883024157075109374536749910797;\r\n    uint256 private constant G3X = 5998026607105146355656696147154635391947958755485950806629481563238770197831;\r\n    uint256 private constant G3Y = 9071495078062910622295597859043028737780972268539387614597098676522874141228;\r\n    uint256 private constant G4X = 16523801944179829840198169326704340952379740918805059924608153703458536682146;\r\n    uint256 private constant G4Y = 6038302089791721424956127465108246322480323157317821739578233683122154868638;\r\n    uint256 private constant G5X = 12118397309736405059200255390820856272335184322136103314456373515523090868384;\r\n    uint256 private constant G5Y = 3299068400210186031537495205944296158829957843773210327992629444571521214447;\r\n    uint256 private constant G6X = 13569683714700597868720693802606454625784876902328159148425602640793284360016;\r\n    uint256 private constant G6Y = 6196366122510722436252226379612342063576138922717891371699758504638443909810;\r\n    uint256 private constant G7X = 6931749079582407422004463406148477362357661472338328270508373724106071518625;\r\n    uint256 private constant G7Y = 21191302843410952823242789471696212271196775028224076743387772065534892367978;\r\n\r\n    function mod(uint256 a, uint256 b)\r\n        public\r\n        pure\r\n        returns (uint256)\r\n    {\r\n        require(b != 0, \"SafeMath: modulo by zero\");\r\n\r\n        uint256 c;\r\n        assembly {\r\n            c := mod(a, b)\r\n        }\r\n\r\n        return c;\r\n    }\r\n\r\n    function verifyRangeArgument(Part1 memory part1, uint256 K, uint256 B)\r\n        external\r\n        returns (uint256)\r\n    {\r\n        // (uint256[] memory betas, uint256 x) = computeChallenges(part1, K);\r\n\r\n        // checkPolyVerify(part1.cmp, part1.pi_px, x, K);\r\n        // checkPolyVerify(part1.cmu, part1.pi_ux, x, K);\r\n\r\n        // checkCond1(part1, K);\r\n\r\n        // checkCond2(betas, part1, K, B);\r\n\r\n        // checkCond3(part1);\r\n\r\n        // checkCond4(part1.cy, part1.cWs);\r\n\r\n        // assert (ret_add_input_total[0] == Fx && ret_add_input_total[1] == Fy);\r\n\r\n    }\r\n\r\n    function checkPolyVerify(Point[] memory cmp, uint256[] memory pi_px, uint256 x, uint K)\r\n        internal\r\n    {\r\n        uint256[3] memory mul_input;\r\n        uint256[4] memory add_input;\r\n        bool success;\r\n\r\n        uint256 size = K;\r\n        Point[] memory gs = generateGS(size);\r\n        // Point memory p = cmp[0];\r\n        // mul_input[0] = p.x;\r\n        // mul_input[1] = p.y;\r\n        // mul_input[2] = 1;\r\n        // assembly {\r\n        //     success := call(not(0), 7, 0, mul_input, 0x80, add(add_input, 0x0), 0x60)\r\n        // }\r\n\r\n        // for(uint i=1;i<size;i++){\r\n        //     Point memory p = cmp[i];\r\n        //     mul_input[0] = p.x;\r\n        //     mul_input[1] = p.y;\r\n        //     // mul_input[2] = mod(x ** i, NN);\r\n        //     mul_input[2] = x;\r\n\r\n        //     assembly {\r\n        //         success := call(not(0), 7, 0, mul_input, 0x80, add(add_input, 0x40), 0x60)\r\n        //     }\r\n\r\n        //     assembly {\r\n        //         success := call(not(0), 6, 0, add_input, 0x80, add_input, 0x60)\r\n        //     }\r\n        // }\r\n\r\n\r\n        // uint256 eqn2_1 = pi_px[0];\r\n\r\n        // for(uint256 i = 1; i < K; i++){\r\n        //     uint256 exp = (i-1)*K + K - K*K;\r\n        //     // uint256 pix = addmod(pi_px[i], mod(x ** exp, NN), NN);\r\n        //     uint256 pix = addmod(pi_px[i], x, NN);\r\n        //     eqn2_1 = addmod(eqn2_1, pix, NN);\r\n        // }\r\n\r\n\r\n        for(uint i=0;i<size;i++) {\r\n            Point memory g = gs[i];\r\n            mul_input[0] = g.x;\r\n            mul_input[1] = g.y;\r\n            mul_input[2] = pi_px[i];\r\n\r\n            assembly {\r\n                success := call(not(0), 7, 0, mul_input, 0x80, add(add_input, 0x40), 0x60)\r\n            }\r\n\r\n            assembly {\r\n                success := call(not(0), 6, 0, add_input, 0x80, add_input, 0x60)\r\n            }\r\n        }\r\n\r\n\r\n\r\n    }\r\n\r\n    function computeChallenges(Part1 memory part1, uint K)\r\n        internal\r\n        pure\r\n        returns (uint256[] memory x, uint256 y)\r\n    {\r\n\r\n        (uint256 x, uint256 challenge) = computeBaseChallenge(part1.cDs, part1.cWs, part1.cR1, part1.cR2, part1.cmp);\r\n\r\n        uint256[] memory challenges = new uint256[](K+1);\r\n\r\n        uint256 challenge2 = mulmod(challenge, challenge, NN);\r\n        uint256 challenge3 = mulmod(challenge2, challenge, NN);\r\n        uint256 challenge4 = mulmod(challenge2, challenge2, NN);\r\n \r\n\r\n        challenges[0] = 1;\r\n        challenges[1] = challenge;\r\n        challenges[2] = challenge2;\r\n        challenges[3] = challenge3;\r\n        challenges[4] = challenge4;\r\n\r\n        if (K == 5){\r\n            uint256 challenge5 = mulmod(challenge2, challenge3, NN);\r\n            challenges[5] = challenge5;\r\n        }\r\n        if (K == 7){\r\n            uint256 challenge5 = mulmod(challenge2, challenge3, NN);\r\n            uint256 challenge6 = mulmod(challenge3, challenge3, NN);\r\n            uint256 challenge7 = mulmod(challenge3, challenge4, NN);\r\n            challenges[5] = challenge5;\r\n            challenges[6] = challenge6;\r\n            challenges[7] = challenge7;\r\n        }\r\n\r\n        return (challenges, x);\r\n    }\r\n\r\n    function checkCond1(Part1 memory part1, uint256 K)\r\n        internal\r\n    {\r\n        (uint256 dvpx, uint256 dvpy) = computeDVPoint(part1.dv_value);\r\n\r\n        uint256[3] memory mul_input;\r\n        uint256[4] memory add_input;\r\n        bool success;\r\n\r\n        mul_input[0] = HX;\r\n        mul_input[1] = HY;\r\n        mul_input[2] = part1.r1_hat;\r\n        assembly {\r\n            success := call(not(0), 7, 0, mul_input, 0x80, add(add_input, 0x40), 0x60)\r\n        }\r\n\r\n        add_input[0] = dvpx;\r\n        add_input[1] = dvpy;\r\n        assembly {\r\n            success := call(not(0), 6, 0, add_input, 0x80, add_input, 0x60)\r\n        }\r\n\r\n        uint256 ret1x = add_input[0];\r\n        uint256 ret1y = add_input[1];\r\n\r\n        (add_input[0], add_input[1]) = computeCDWS(part1.cDs, part1.cR1, part1.l0_value, part1.luxs);\r\n\r\n        // assert (add_input[0] == ret1x && add_input[1] == ret1y);\r\n    }\r\n\r\n    function checkCond2(uint256[] memory challenges, Part1 memory part1, uint256 K, uint256 B)\r\n        internal\r\n    {\r\n        uint256 betadv = 1;\r\n        for(uint j = 0; j < uint(K); j++){\r\n            for(uint i = 0; i < uint(B); i++){\r\n                uint256 dvi = part1.dv_value[i];\r\n                betadv = mulmod(betadv, dvi - uint256(i), NN);\r\n            }\r\n        }\r\n\r\n        uint256 eqn2_1 = betadv;\r\n\r\n        uint256 eqn2_2 = mulmod(part1.yP, part1.l0_value, NN);\r\n\r\n\r\n        // assert (eqn2_1 == eqn2_2);\r\n\r\n    }\r\n\r\n    function computeCDWS(Point[] memory cs, Point memory cR, uint256 l0_value, uint256[] memory luxs)\r\n        internal\r\n        returns (uint256 x, uint256 y)\r\n    {\r\n       uint size = cs.length;\r\n\r\n        uint256[3] memory mul_input;\r\n        uint256[4] memory add_input;\r\n        bool success;\r\n\r\n        Point memory p = cs[0];\r\n        mul_input[0] = p.x;\r\n        mul_input[1] = p.y;\r\n        mul_input[2] = luxs[0];\r\n        assembly {\r\n            success := call(not(0), 7, 0, mul_input, 0x80, add(add_input, 0x0), 0x60)\r\n        }\r\n\r\n        for(uint i=1;i<size;i++){\r\n            Point memory p = cs[i];\r\n            mul_input[0] = p.x;\r\n            mul_input[1] = p.y;\r\n            mul_input[2] = luxs[i];\r\n\r\n            assembly {\r\n                success := call(not(0), 7, 0, mul_input, 0x80, add(add_input, 0x40), 0x60)\r\n            }\r\n\r\n            assembly {\r\n                success := call(not(0), 6, 0, add_input, 0x80, add_input, 0x60)\r\n            }\r\n        }\r\n\r\n\r\n        mul_input[0] = cR.x;\r\n        mul_input[1] = cR.y;\r\n        mul_input[2] = l0_value;\r\n        assembly {\r\n            success := call(not(0), 7, 0, mul_input, 0x80, add(add_input, 0x40), 0x60)\r\n        }\r\n\r\n        assembly {\r\n            success := call(not(0), 6, 0, add_input, 0x80, add_input, 0x60)\r\n        }\r\n\r\n\r\n        return (add_input[0], add_input[1]);\r\n    }\r\n\r\n\r\n\r\n    function checkCond3(Part1 memory part1)\r\n        internal\r\n    {\r\n        uint256[3] memory mul_input;\r\n        uint256[4] memory add_input;\r\n        bool success;\r\n\r\n        \r\n\r\n        mul_input[0] = GX;\r\n        mul_input[1] = GY;\r\n        // mul_input[2] = uint(part1.Bkeu);\r\n        mul_input[2] = computeGexp(part1.dv_value, part1.l0_value, part1.yU, part1.bv_value);\r\n        assembly {\r\n            success := call(not(0), 7, 0, mul_input, 0x80, add_input, 0x60)\r\n        }\r\n        \r\n        mul_input[0] = HX;\r\n        mul_input[1] = HY;\r\n        mul_input[2] = part1.r2_hat;\r\n\r\n        assembly {\r\n            success := call(not(0), 7, 0, mul_input, 0x80, add(add_input, 0x40), 0x60)\r\n        }\r\n\r\n        assembly {\r\n            success := call(not(0), 6, 0, add_input, 0x80, add_input, 0x60)\r\n        }\r\n\r\n        uint256 ret3x = add_input[0];\r\n        uint256 ret3y = add_input[1];\r\n\r\n        (add_input[0], add_input[1]) = computeCDWS(part1.cWs, part1.cR2, part1.l0_value, part1.luxs);\r\n\r\n        // assert (add_input[0] == ret3x && add_input[1] == ret3y);\r\n\r\n\r\n    }\r\n\r\n    function computeGexp(uint256[] memory dv_value, uint256 l0_value, uint256 yU, uint256[] memory bv_value)\r\n        internal\r\n        pure\r\n        returns (uint256 x)\r\n    {\r\n        uint256 G1_exp = mulmod(yU, l0_value, NN);\r\n        uint256 dvsize = dv_value.length;\r\n        for (uint i = 0; i < dvsize; i++){\r\n            uint256 dvbv = mulmod(dv_value[i], bv_value[i], NN);\r\n            G1_exp = addmod(G1_exp, dvbv, NN);\r\n        }\r\n\r\n        return G1_exp;\r\n    }\r\n\r\n\r\n    function checkCond4(Point memory cy, Point[] memory cws)\r\n        internal\r\n    {\r\n        uint wsize = cws.length - 1;\r\n        uint256[4] memory add_input;\r\n        bool success;\r\n\r\n        Point memory p = cws[0];\r\n        add_input[0] = p.x;\r\n        add_input[1] = p.y;\r\n        for(uint i=1;i<wsize;i++) {\r\n            Point memory p = cws[i];\r\n            add_input[2] = p.x;\r\n            add_input[3] = p.y;\r\n            assembly {\r\n                success := call(not(0), 6, 0, add_input, 0x80, add_input, 0x60)\r\n            }\r\n        }\r\n\r\n        // assert (cy.x == add_input[0] && cy.y == add_input[1]);\r\n    }\r\n\r\n    function computeBaseChallenge(Point[] memory cDs, Point[] memory cWs, Point memory cR1, Point memory cR2, Point[] memory cmp)\r\n        internal\r\n        pure\r\n        returns (uint256 x, uint256 y)\r\n    {\r\n        uint cwslength = cDs.length;\r\n        uint cmslength = cWs.length;\r\n        uint cmplength = cmp.length;\r\n\r\n        uint256 size = 2 * (cwslength + cmslength + cmplength + 2);\r\n        uint256[] memory cs = new uint256[](size);\r\n        uint offset = 0;\r\n        for(uint i=0;i<cwslength;i++) {\r\n            Point memory p = cDs[i];\r\n            cs[offset] = p.x;\r\n            offset = offset + 1;\r\n            cs[offset] = p.y;\r\n            offset = offset + 1;\r\n        }\r\n        for(uint i=0;i<cmslength;i++) {\r\n            Point memory p = cWs[i];\r\n            cs[offset] = p.x;\r\n            offset = offset + 1;\r\n            cs[offset] = p.y;\r\n            offset = offset + 1;\r\n        }\r\n        cs[offset] = cR1.x;\r\n        offset = offset + 1;\r\n        cs[offset] = cR1.y;\r\n        offset = offset + 1;\r\n\r\n        cs[offset] = cR2.x;\r\n        offset = offset + 1;\r\n        cs[offset] = cR2.y;\r\n        offset = offset + 1;\r\n\r\n        uint256 baseChal = mod(uint256(keccak256(abi.encodePacked(cs))), NN);\r\n\r\n        for(uint i=0;i<cmslength;i++) {\r\n            Point memory p = cmp[i];\r\n            cs[offset] = p.x;\r\n            offset = offset + 1;\r\n            cs[offset] = p.y;\r\n            offset = offset + 1;\r\n        }\r\n        uint256 x = mod(uint256(keccak256(abi.encodePacked(cs))), NN);\r\n\r\n        return (x, baseChal);\r\n    }\r\n\r\n    function computeDVPoint(uint256[] memory dv_value)\r\n        internal\r\n        returns (uint256 x, uint256 y)\r\n    {\r\n        uint256[3] memory mul_input;\r\n        uint256[4] memory add_input;\r\n        bool success;\r\n\r\n        add_input[0] = 0;\r\n        add_input[1] = 0;\r\n\r\n        uint size = dv_value.length;\r\n\r\n        Point[] memory gs = generateGS(size);\r\n        for(uint i=0;i<size;i++) {\r\n            Point memory g = gs[i];\r\n            mul_input[0] = g.x;\r\n            mul_input[1] = g.y;\r\n            mul_input[2] = dv_value[i];\r\n\r\n            assembly {\r\n                success := call(not(0), 7, 0, mul_input, 0x80, add(add_input, 0x40), 0x60)\r\n            }\r\n\r\n            assembly {\r\n                success := call(not(0), 6, 0, add_input, 0x80, add_input, 0x60)\r\n            }\r\n        }\r\n\r\n        return (add_input[0], add_input[1]);\r\n    }\r\n\r\n    function generateGS(uint L)\r\n        internal\r\n        pure\r\n        returns (Point[] memory)\r\n    {\r\n        Point[] memory gs = new Point[](L);\r\n        gs[0] = Point(G1X, G1Y);\r\n        gs[1] = Point(G2X, G2Y);\r\n        gs[2] = Point(G3X, G3Y);\r\n        gs[3] = Point(G4X, G4Y);\r\n        if (L == 5){\r\n            gs[4] = Point(G5X, G5Y);\r\n        }\r\n        if (L == 7){\r\n            gs[4] = Point(G5X, G5Y);\r\n            gs[5] = Point(G6X, G6Y);\r\n            gs[6] = Point(G7X, G7Y);\r\n\r\n        }\r\n\r\n        return gs;\r\n    }\r\n\r\n}",
  "sourcePath": "g:\\PhD-1\\Flashproof\\Flashproof\\contracts\\Type3.sol",
  "compiler": {
    "name": "solc",
    "version": "0.8.0+commit.c7dfd78e.Emscripten.clang"
  },
  "schemaVersion": "3.4.11",
  "updatedAt": "2024-04-03T05:59:34.164Z",
  "networkType": "ethereum",
  "devdoc": {
    "kind": "dev",
    "methods": {},
    "version": 1
  },
  "userdoc": {
    "kind": "user",
    "methods": {},
    "version": 1
  }
}