{
  "contractName": "Type2",
  "abi": [
    {
      "inputs": [],
      "name": "GX",
      "outputs": [
        {
          "internalType": "uint256",
          "name": "",
          "type": "uint256"
        }
      ],
      "stateMutability": "view",
      "type": "function"
    },
    {
      "inputs": [],
      "name": "GY",
      "outputs": [
        {
          "internalType": "uint256",
          "name": "",
          "type": "uint256"
        }
      ],
      "stateMutability": "view",
      "type": "function"
    },
    {
      "inputs": [],
      "name": "HX",
      "outputs": [
        {
          "internalType": "uint256",
          "name": "",
          "type": "uint256"
        }
      ],
      "stateMutability": "view",
      "type": "function"
    },
    {
      "inputs": [],
      "name": "HY",
      "outputs": [
        {
          "internalType": "uint256",
          "name": "",
          "type": "uint256"
        }
      ],
      "stateMutability": "view",
      "type": "function"
    },
    {
      "inputs": [],
      "name": "PP",
      "outputs": [
        {
          "internalType": "uint256",
          "name": "",
          "type": "uint256"
        }
      ],
      "stateMutability": "view",
      "type": "function"
    },
    {
      "inputs": [
        {
          "components": [
            {
              "internalType": "uint256",
              "name": "x",
              "type": "uint256"
            },
            {
              "internalType": "uint256",
              "name": "y",
              "type": "uint256"
            }
          ],
          "internalType": "struct Type2.Point",
          "name": "p",
          "type": "tuple"
        },
        {
          "internalType": "uint256",
          "name": "k",
          "type": "uint256"
        }
      ],
      "name": "multiply",
      "outputs": [
        {
          "components": [
            {
              "internalType": "uint256",
              "name": "x",
              "type": "uint256"
            },
            {
              "internalType": "uint256",
              "name": "y",
              "type": "uint256"
            }
          ],
          "internalType": "struct Type2.Point",
          "name": "",
          "type": "tuple"
        }
      ],
      "stateMutability": "nonpayable",
      "type": "function"
    },
    {
      "inputs": [
        {
          "internalType": "uint256",
          "name": "a",
          "type": "uint256"
        },
        {
          "internalType": "uint256",
          "name": "b",
          "type": "uint256"
        }
      ],
      "name": "mod",
      "outputs": [
        {
          "internalType": "uint256",
          "name": "",
          "type": "uint256"
        }
      ],
      "stateMutability": "pure",
      "type": "function"
    },
    {
      "inputs": [
        {
          "internalType": "uint256",
          "name": "x",
          "type": "uint256"
        },
        {
          "internalType": "uint256",
          "name": "p",
          "type": "uint256"
        }
      ],
      "name": "modInv",
      "outputs": [
        {
          "internalType": "uint256",
          "name": "",
          "type": "uint256"
        }
      ],
      "stateMutability": "pure",
      "type": "function"
    },
    {
      "inputs": [
        {
          "components": [
            {
              "internalType": "uint256",
              "name": "x",
              "type": "uint256"
            },
            {
              "internalType": "uint256",
              "name": "y",
              "type": "uint256"
            }
          ],
          "internalType": "struct Type2.Point",
          "name": "p1",
          "type": "tuple"
        },
        {
          "components": [
            {
              "internalType": "uint256",
              "name": "x",
              "type": "uint256"
            },
            {
              "internalType": "uint256",
              "name": "y",
              "type": "uint256"
            }
          ],
          "internalType": "struct Type2.Point",
          "name": "p2",
          "type": "tuple"
        }
      ],
      "name": "sub",
      "outputs": [
        {
          "components": [
            {
              "internalType": "uint256",
              "name": "x",
              "type": "uint256"
            },
            {
              "internalType": "uint256",
              "name": "y",
              "type": "uint256"
            }
          ],
          "internalType": "struct Type2.Point",
          "name": "",
          "type": "tuple"
        }
      ],
      "stateMutability": "nonpayable",
      "type": "function"
    },
    {
      "inputs": [
        {
          "components": [
            {
              "components": [
                {
                  "internalType": "uint256",
                  "name": "x",
                  "type": "uint256"
                },
                {
                  "internalType": "uint256",
                  "name": "y",
                  "type": "uint256"
                }
              ],
              "internalType": "struct Type2.Point",
              "name": "cy",
              "type": "tuple"
            },
            {
              "components": [
                {
                  "internalType": "uint256",
                  "name": "x",
                  "type": "uint256"
                },
                {
                  "internalType": "uint256",
                  "name": "y",
                  "type": "uint256"
                }
              ],
              "internalType": "struct Type2.Point",
              "name": "R",
              "type": "tuple"
            },
            {
              "components": [
                {
                  "internalType": "uint256",
                  "name": "x",
                  "type": "uint256"
                },
                {
                  "internalType": "uint256",
                  "name": "y",
                  "type": "uint256"
                }
              ],
              "internalType": "struct Type2.Point",
              "name": "S",
              "type": "tuple"
            },
            {
              "internalType": "uint256",
              "name": "Bkeu",
              "type": "uint256"
            },
            {
              "internalType": "uint256[]",
              "name": "etas",
              "type": "uint256[]"
            },
            {
              "internalType": "uint256[][]",
              "name": "vs",
              "type": "uint256[][]"
            },
            {
              "internalType": "uint256[][]",
              "name": "us",
              "type": "uint256[][]"
            },
            {
              "components": [
                {
                  "internalType": "uint256",
                  "name": "x",
                  "type": "uint256"
                },
                {
                  "internalType": "uint256",
                  "name": "y",
                  "type": "uint256"
                }
              ],
              "internalType": "struct Type2.Point[]",
              "name": "cws",
              "type": "tuple[]"
            },
            {
              "components": [
                {
                  "internalType": "uint256",
                  "name": "x",
                  "type": "uint256"
                },
                {
                  "internalType": "uint256",
                  "name": "y",
                  "type": "uint256"
                }
              ],
              "internalType": "struct Type2.Point[]",
              "name": "cms",
              "type": "tuple[]"
            },
            {
              "components": [
                {
                  "internalType": "uint256",
                  "name": "x",
                  "type": "uint256"
                },
                {
                  "internalType": "uint256",
                  "name": "y",
                  "type": "uint256"
                }
              ],
              "internalType": "struct Type2.Point[]",
              "name": "cts",
              "type": "tuple[]"
            }
          ],
          "internalType": "struct Type2.Part1",
          "name": "part1",
          "type": "tuple"
        },
        {
          "internalType": "uint256",
          "name": "K",
          "type": "uint256"
        },
        {
          "internalType": "uint256",
          "name": "B",
          "type": "uint256"
        }
      ],
      "name": "verifyRangeArgument",
      "outputs": [
        {
          "internalType": "uint256",
          "name": "",
          "type": "uint256"
        }
      ],
      "stateMutability": "nonpayable",
      "type": "function"
    }
  ],
  "bytecode": "0x608060405234801561001057600080fd5b50613dc4806100206000396000f3fe608060405234801561001057600080fd5b50600436106100be5760003560e01c8063a9008ad611610076578063d42dadde1161005b578063d42dadde1461013f578063eeeac01e14610152578063f43f523a1461015a576100be565b8063a9008ad614610124578063c11b8ad714610137576100be565b80637a308a4c116100a75780637a308a4c146100e957806396b41bdd146100f1578063a099a10014610111576100be565b806303a507be146100c35780634e93d4a2146100e1575b600080fd5b6100cb61016d565b6040516100d89190613bdd565b60405180910390f35b6100cb610172565b6100cb610196565b6101046100ff366004613a0f565b61019b565b6040516100d89190613bc6565b6100cb61011f36600461389a565b610290565b6100cb610132366004613a6d565b6102e4565b6100cb6103f7565b61010461014d366004613a43565b61041b565b6100cb6104af565b6100cb610168366004613a6d565b6104d3565b600181565b7f0b1fd6eda65bd4e6866a28bccfee143309bfb597378217a2002e5cac8cfe645f81565b600281565b6101a36136a5565b6101ab6136bf565b8351815260208085015181830152835160408301528301516101ed907f30644e72e131a029b85045b68181585d97816a916871ca8d3c208c16d87cfd47613c9d565b606082015260006101fc6136dd565b604081608085600060067ffffffffffffffffffffffffffffffffffffffffffffffffffffffffffffffffff191508161026a576040517f08c379a000000000000000000000000000000000000000000000000000000000815260040161026190613b58565b60405180910390fd5b604080518082019091528151815260208101826001602002015190529695505050505050565b6000806000806102a08787610512565b9250925092506102b48184848a8a8a610e62565b6102be8388611013565b6102c881886112a6565b6102da87600001518860e0015161144d565b5050509392505050565b600082158015906102f55750818314155b801561030057508115155b610336576040517f08c379a000000000000000000000000000000000000000000000000000000000815260040161026190613b8f565b6000600183825b86156103ec5761034d8783613c4c565b9050828680610385577f4e487b7100000000000000000000000000000000000000000000000000000000600052601260045260246000fd5b87806103ba577f4e487b7100000000000000000000000000000000000000000000000000000000600052601260045260246000fd5b8584096103c79089613c9d565b86089094509250866103d98183613c60565b6103e39084613c9d565b9750915061033d565b509195945050505050565b7f1581953bcf3ce078038fa19d974e26e4757a0e65573d9628ec8939bb77a6fd0481565b6104236136a5565b61042b6136fb565b835181526020808501519082015260408101839052600061044a6136dd565b604081606085600060077ffffffffffffffffffffffffffffffffffffffffffffffffffffffffffffffffff191508161026a576040517f08c379a000000000000000000000000000000000000000000000000000000000815260040161026190613afb565b7f30644e72e131a029b85045b68181585d97816a916871ca8d3c208c16d87cfd4781565b60008161050c576040517f08c379a000000000000000000000000000000000000000000000000000000000815260040161026190613ac4565b50900690565b60606000806000806105338760e00151886101000151896101200151611661565b9150915060008667ffffffffffffffff811115610579577f4e487b7100000000000000000000000000000000000000000000000000000000600052604160045260246000fd5b6040519080825280602002602001820160405280156105a2578160200160208202803683370190505b50905060008767ffffffffffffffff8111156105e7577f4e487b7100000000000000000000000000000000000000000000000000000000600052604160045260246000fd5b604051908082528060200260200182016040528015610610578160200160208202803683370190505b50905060007f30644e72e131a029b85045b68181585d2833e84879b9709143e1f593f0000001848509905060007f30644e72e131a029b85045b68181585d2833e84879b9709143e1f593f0000001828309905060007f30644e72e131a029b85045b68181585d2833e84879b9709143e1f593f0000001868409905060007f30644e72e131a029b85045b68181585d2833e84879b9709143e1f593f0000001878409905060007f30644e72e131a029b85045b68181585d2833e84879b9709143e1f593f0000001858509905060007f30644e72e131a029b85045b68181585d2833e84879b9709143e1f593f0000001848609905060007f30644e72e131a029b85045b68181585d2833e84879b9709143e1f593f000000186870990508989600081518110610766577f4e487b7100000000000000000000000000000000000000000000000000000000600052603260045260246000fd5b60200260200101818152505086896001815181106107ad577f4e487b7100000000000000000000000000000000000000000000000000000000600052603260045260246000fd5b60200260200101818152505084896002815181106107f4577f4e487b7100000000000000000000000000000000000000000000000000000000600052603260045260246000fd5b602002602001018181525050858960038151811061083b577f4e487b7100000000000000000000000000000000000000000000000000000000600052603260045260246000fd5b6020026020010181815250508688600081518110610882577f4e487b7100000000000000000000000000000000000000000000000000000000600052603260045260246000fd5b60200260200101818152505085886001815181106108c9577f4e487b7100000000000000000000000000000000000000000000000000000000600052603260045260246000fd5b6020026020010181815250508288600281518110610910577f4e487b7100000000000000000000000000000000000000000000000000000000600052603260045260246000fd5b6020026020010181815250508088600381518110610957577f4e487b7100000000000000000000000000000000000000000000000000000000600052603260045260246000fd5b6020026020010181815250508e60061415610adb5760007f30644e72e131a029b85045b68181585d2833e84879b9709143e1f593f0000001858609905060007f30644e72e131a029b85045b68181585d2833e84879b9709143e1f593f00000018586099050858b6004815181106109f7577f4e487b7100000000000000000000000000000000000000000000000000000000600052603260045260246000fd5b602002602001018181525050848b600581518110610a3e577f4e487b7100000000000000000000000000000000000000000000000000000000600052603260045260246000fd5b602002602001018181525050818a600481518110610a85577f4e487b7100000000000000000000000000000000000000000000000000000000600052603260045260246000fd5b602002602001018181525050808a600581518110610acc577f4e487b7100000000000000000000000000000000000000000000000000000000600052603260045260246000fd5b60200260200101818152505050505b8e60081415610dc15760007f30644e72e131a029b85045b68181585d2833e84879b9709143e1f593f0000001858609905060007f30644e72e131a029b85045b68181585d2833e84879b9709143e1f593f0000001858609905060007f30644e72e131a029b85045b68181585d2833e84879b9709143e1f593f0000001858609905060007f30644e72e131a029b85045b68181585d2833e84879b9709143e1f593f00000018586099050878d600481518110610bbf577f4e487b7100000000000000000000000000000000000000000000000000000000600052603260045260246000fd5b602002602001018181525050868d600581518110610c06577f4e487b7100000000000000000000000000000000000000000000000000000000600052603260045260246000fd5b602002602001018181525050858d600681518110610c4d577f4e487b7100000000000000000000000000000000000000000000000000000000600052603260045260246000fd5b602002602001018181525050848d600781518110610c94577f4e487b7100000000000000000000000000000000000000000000000000000000600052603260045260246000fd5b602002602001018181525050838c600481518110610cdb577f4e487b7100000000000000000000000000000000000000000000000000000000600052603260045260246000fd5b602002602001018181525050828c600581518110610d22577f4e487b7100000000000000000000000000000000000000000000000000000000600052603260045260246000fd5b602002602001018181525050818c600681518110610d69577f4e487b7100000000000000000000000000000000000000000000000000000000600052603260045260246000fd5b602002602001018181525050808c600781518110610db0577f4e487b7100000000000000000000000000000000000000000000000000000000600052603260045260246000fd5b602002602001018181525050505050505b87516000805b82811015610e47577f30644e72e131a029b85045b68181585d2833e84879b9709143e1f593f0000001828c8381518110610e2a577f4e487b7100000000000000000000000000000000000000000000000000000000600052603260045260246000fd5b602002602001015108915080610e3f81613cb4565b915050610dc7565b50999e50989c50999a50505050505050505050509250925092565b6000610e7a87878660c001518760a001518787611ab4565b9050600080600080610e8c858a611d95565b9350935093509350610e9c6136fb565b610ea46136bf565b610eac6136dd565b7f1581953bcf3ce078038fa19d974e26e4757a0e65573d9628ec8939bb77a6fd0483527f0b1fd6eda65bd4e6866a28bccfee143309bfb597378217a2002e5cac8cfe645f602084015260808b01518051600091908290610f35577f4e487b7100000000000000000000000000000000000000000000000000000000600052603260045260246000fd5b602002602001015184600260038110610f77577f4e487b7100000000000000000000000000000000000000000000000000000000600052603260045260246000fd5b6020020152606060408401608086600060077ffffffffffffffffffffffffffffffffffffffffffffffffffffffffffffffffff1888452602084018890529050606083608081600060067ffffffffffffffffffffffffffffffffffffffffffffffffffffffffffffffffff1868352602083018690529050610ffb828f8f8f612050565b60208501529092525050505050505050505050505050565b60a0810151805160009190825b818110156110fe5760005b828110156110eb577f30644e72e131a029b85045b68181585d2833e84879b9709143e1f593f000000184838151811061108d577f4e487b7100000000000000000000000000000000000000000000000000000000600052603260045260246000fd5b602002602001015182815181106110cd577f4e487b7100000000000000000000000000000000000000000000000000000000600052603260045260246000fd5b602002602001015186089450806110e381613cb4565b91505061102b565b50806110f681613cb4565b915050611020565b506111076136fb565b61110f6136bf565b60018252600260208301526040820185905260006060826080858460077ffffffffffffffffffffffffffffffffffffffffffffffffffffffffffffffffff17f1581953bcf3ce078038fa19d974e26e4757a0e65573d9628ec8939bb77a6fd0484527f0b1fd6eda65bd4e6866a28bccfee143309bfb597378217a2002e5cac8cfe645f6020850152608088015180519192509060019081106111da577f4e487b7100000000000000000000000000000000000000000000000000000000600052603260045260246000fd5b60200260200101518360026003811061121c577f4e487b7100000000000000000000000000000000000000000000000000000000600052603260045260246000fd5b6020020152606060408301608085600060077ffffffffffffffffffffffffffffffffffffffffffffffffffffffffffffffffff19050606082608081600060067ffffffffffffffffffffffffffffffffffffffffffffffffffffffffffffffffff182516020840151919250906112938a8a61247d565b6020860152909352505050505050505050565b6112ae6136fb565b6112b66136bf565b60018252600260208301526060838101516040840152600090826080858460077ffffffffffffffffffffffffffffffffffffffffffffffffffffffffffffffffff17f1581953bcf3ce078038fa19d974e26e4757a0e65573d9628ec8939bb77a6fd0484527f0b1fd6eda65bd4e6866a28bccfee143309bfb597378217a2002e5cac8cfe645f602085015260808501518051919250906002908110611384577f4e487b7100000000000000000000000000000000000000000000000000000000600052603260045260246000fd5b6020026020010151836002600381106113c6577f4e487b7100000000000000000000000000000000000000000000000000000000600052603260045260246000fd5b6020020152606060408301608085600060077ffffffffffffffffffffffffffffffffffffffffffffffffffffffffffffffffff19050606082608081600060067ffffffffffffffffffffffffffffffffffffffffffffffffffffffffffffffffff1825160208401519192509061143d878761285f565b6020860152909352505050505050565b60006001825161145d9190613c9d565b90506114676136bf565b600080846000815181106114a4577f4e487b7100000000000000000000000000000000000000000000000000000000600052603260045260246000fd5b602002602001015190508060000151836000600481106114ed577f4e487b7100000000000000000000000000000000000000000000000000000000600052603260045260246000fd5b602002018181525050806020015183600160048110611535577f4e487b7100000000000000000000000000000000000000000000000000000000600052603260045260246000fd5b602002015260015b84811015611658576000868281518110611580577f4e487b7100000000000000000000000000000000000000000000000000000000600052603260045260246000fd5b602002602001015190508060000151856002600481106115c9577f4e487b7100000000000000000000000000000000000000000000000000000000600052603260045260246000fd5b602002018181525050806020015185600360048110611611577f4e487b7100000000000000000000000000000000000000000000000000000000600052603260045260246000fd5b6020020152606085608081600060067ffffffffffffffffffffffffffffffffffffffffffffffffffffffffffffffffff1935050808061165090613cb4565b91505061153d565b50505050505050565b82518251825160009283929091838161167a8486613c34565b6116849190613c34565b61168f906002613c60565b905060008167ffffffffffffffff8111156116d3577f4e487b7100000000000000000000000000000000000000000000000000000000600052604160045260246000fd5b6040519080825280602002602001820160405280156116fc578160200160208202803683370190505b5090506000805b868110156118105760008c8281518110611746577f4e487b7100000000000000000000000000000000000000000000000000000000600052603260045260246000fd5b60200260200101519050806000015184848151811061178e577f4e487b7100000000000000000000000000000000000000000000000000000000600052603260045260246000fd5b60209081029190910101526117a4836001613c34565b925080602001518484815181106117e4577f4e487b7100000000000000000000000000000000000000000000000000000000600052603260045260246000fd5b60209081029190910101526117fa836001613c34565b925050808061180890613cb4565b915050611703565b5060005b858110156119215760008b8281518110611857577f4e487b7100000000000000000000000000000000000000000000000000000000600052603260045260246000fd5b60200260200101519050806000015184848151811061189f577f4e487b7100000000000000000000000000000000000000000000000000000000600052603260045260246000fd5b60209081029190910101526118b5836001613c34565b925080602001518484815181106118f5577f4e487b7100000000000000000000000000000000000000000000000000000000600052603260045260246000fd5b602090810291909101015261190b836001613c34565b925050808061191990613cb4565b915050611814565b506000611977836040516020016119389190613a8e565b6040516020818303038152906040528051906020012060001c7f30644e72e131a029b85045b68181585d2833e84879b9709143e1f593f00000016104d3565b905060005b85811015611a895760008b82815181106119bf577f4e487b7100000000000000000000000000000000000000000000000000000000600052603260045260246000fd5b602002602001015190508060000151858581518110611a07577f4e487b7100000000000000000000000000000000000000000000000000000000600052603260045260246000fd5b6020908102919091010152611a1d846001613c34565b93508060200151858581518110611a5d577f4e487b7100000000000000000000000000000000000000000000000000000000600052603260045260246000fd5b6020908102919091010152611a73846001613c34565b9350508080611a8190613cb4565b91505061197c565b506000611aa0846040516020016119389190613a8e565b919d919c50909a5050505050505050505050565b606060008367ffffffffffffffff811115611af8577f4e487b7100000000000000000000000000000000000000000000000000000000600052604160045260246000fd5b604051908082528060200260200182016040528015611b21578160200160208202803683370190505b50905060005b84811015611b95576000611b3b8583612a90565b905080838381518110611b77577f4e487b7100000000000000000000000000000000000000000000000000000000600052603260045260246000fd5b60209081029190910101525080611b8d81613cb4565b915050611b27565b5060008467ffffffffffffffff811115611bd8577f4e487b7100000000000000000000000000000000000000000000000000000000600052604160045260246000fd5b604051908082528060200260200182016040528015611c01578160200160208202803683370190505b50905060008567ffffffffffffffff811115611c46577f4e487b7100000000000000000000000000000000000000000000000000000000600052604160045260246000fd5b604051908082528060200260200182016040528015611c6f578160200160208202803683370190505b5090506000805b87811015611d85576000611c8a868e612b11565b9050611cdf611c99828e612c50565b8b8481518110611cd2577f4e487b7100000000000000000000000000000000000000000000000000000000600052603260045260246000fd5b6020026020010151612dc7565b9450611d2b8b8381518110611d1d577f4e487b7100000000000000000000000000000000000000000000000000000000600052603260045260246000fd5b602002602001015186612f3e565b925082848381518110611d67577f4e487b7100000000000000000000000000000000000000000000000000000000600052603260045260246000fd5b60209081029190910101525080611d7d81613cb4565b915050611c76565b50909a9950505050505050505050565b600080600080611da36136fb565b611dab6136bf565b611db36136fb565b611dbb6136bf565b6000808452602080850182905281835282018190528a5181611ddc82613007565b905060005b82811015612029576000828281518110611e24577f4e487b7100000000000000000000000000000000000000000000000000000000600052603260045260246000fd5b60200260200101519050806000015189600060038110611e6d577f4e487b7100000000000000000000000000000000000000000000000000000000600052603260045260246000fd5b602002018181525050806020015189600160038110611eb5577f4e487b7100000000000000000000000000000000000000000000000000000000600052603260045260246000fd5b60200201528e518f9083908110611ef5577f4e487b7100000000000000000000000000000000000000000000000000000000600052603260045260246000fd5b602002602001015189600260038110611f37577f4e487b7100000000000000000000000000000000000000000000000000000000600052603260045260246000fd5b6020908102919091019190915281518852818101519088015260408088018f9052606090890160808b600060077ffffffffffffffffffffffffffffffffffffffffffffffffffffffffffffffffff19450606088608081600060067ffffffffffffffffffffffffffffffffffffffffffffffffffffffffffffffffff19450606060408701608089600060077ffffffffffffffffffffffffffffffffffffffffffffffffffffffffffffffffff19450606086608081600060067ffffffffffffffffffffffffffffffffffffffffffffffffffffffffffffffffff1945050808061202190613cb4565b915050611de1565b5050845160209586015184519490960151909d959c50929a50919850929650505050505050565b60008060006001846101200151516120689190613c9d565b90506120726136fb565b61207a6136bf565b6000808761012001516000815181106120bc577f4e487b7100000000000000000000000000000000000000000000000000000000600052603260045260246000fd5b60200260200101519050806000015184600060038110612105577f4e487b7100000000000000000000000000000000000000000000000000000000600052603260045260246000fd5b60200201818152505080602001518460016003811061214d577f4e487b7100000000000000000000000000000000000000000000000000000000600052603260045260246000fd5b602002015289518a9060009061218c577f4e487b7100000000000000000000000000000000000000000000000000000000600052603260045260246000fd5b6020026020010151846002600381106121ce577f4e487b7100000000000000000000000000000000000000000000000000000000600052603260045260246000fd5b6020020152606083608086600060077ffffffffffffffffffffffffffffffffffffffffffffffffffffffffffffffffff1915060015b858110156123d7576000896101200151828151811061224c577f4e487b7100000000000000000000000000000000000000000000000000000000600052603260045260246000fd5b60200260200101519050806000015186600060038110612295577f4e487b7100000000000000000000000000000000000000000000000000000000600052603260045260246000fd5b6020020181815250508060200151866001600381106122dd577f4e487b7100000000000000000000000000000000000000000000000000000000600052603260045260246000fd5b60200201528b518c908390811061231d577f4e487b7100000000000000000000000000000000000000000000000000000000600052603260045260246000fd5b60200260200101518660026003811061235f577f4e487b7100000000000000000000000000000000000000000000000000000000600052603260045260246000fd5b6020020152606060408601608088600060077ffffffffffffffffffffffffffffffffffffffffffffffffffffffffffffffffff19350606085608081600060067ffffffffffffffffffffffffffffffffffffffffffffffffffffffffffffffffff193505080806123cf90613cb4565b915050612204565b5060408881018051519185019190915251602001518360036020020152606083608081600060067ffffffffffffffffffffffffffffffffffffffffffffffffffffffffffffffffff18b51604085015260208c015160608086019190915290925083608081600060067ffffffffffffffffffffffffffffffffffffffffffffffffffffffffffffffffff150508151602090920151919a91995090975050505050505050565b600080600060018460e00151516124949190613c9d565b905061249e6136fb565b6124a66136bf565b6000808760e001516000815181106124e7577f4e487b7100000000000000000000000000000000000000000000000000000000600052603260045260246000fd5b60200260200101519050806000015184600060038110612530577f4e487b7100000000000000000000000000000000000000000000000000000000600052603260045260246000fd5b602002018181525050806020015184600160038110612578577f4e487b7100000000000000000000000000000000000000000000000000000000600052603260045260246000fd5b6020020152885189906000906125b7577f4e487b7100000000000000000000000000000000000000000000000000000000600052603260045260246000fd5b6020026020010151846002600381106125f9577f4e487b7100000000000000000000000000000000000000000000000000000000600052603260045260246000fd5b6020020152606083608086600060077ffffffffffffffffffffffffffffffffffffffffffffffffffffffffffffffffff1915060015b858110156128015760008960e001518281518110612676577f4e487b7100000000000000000000000000000000000000000000000000000000600052603260045260246000fd5b602002602001015190508060000151866000600381106126bf577f4e487b7100000000000000000000000000000000000000000000000000000000600052603260045260246000fd5b602002018181525050806020015186600160038110612707577f4e487b7100000000000000000000000000000000000000000000000000000000600052603260045260246000fd5b60200201528a518b9083908110612747577f4e487b7100000000000000000000000000000000000000000000000000000000600052603260045260246000fd5b602002602001015186600260038110612789577f4e487b7100000000000000000000000000000000000000000000000000000000600052603260045260246000fd5b6020020152606060408601608088600060077ffffffffffffffffffffffffffffffffffffffffffffffffffffffffffffffffff19350606085608081600060067ffffffffffffffffffffffffffffffffffffffffffffffffffffffffffffffffff193505080806127f990613cb4565b91505061262f565b50602088810180515160408601525101518360036020020152606083608081600060067ffffffffffffffffffffffffffffffffffffffffffffffffffffffffffffffffff15050815160209092015191989197509095505050505050565b60008060006001846101000151516128779190613c9d565b90506128816136bf565b6000808661010001516000815181106128c3577f4e487b7100000000000000000000000000000000000000000000000000000000600052603260045260246000fd5b6020026020010151905080600001518360006004811061290c577f4e487b7100000000000000000000000000000000000000000000000000000000600052603260045260246000fd5b602002018181525050806020015183600160048110612954577f4e487b7100000000000000000000000000000000000000000000000000000000600052603260045260246000fd5b602002015260015b84811015612a785787610100015181815181106129a2577f4e487b7100000000000000000000000000000000000000000000000000000000600052603260045260246000fd5b602002602001015191508160000151846002600481106129eb577f4e487b7100000000000000000000000000000000000000000000000000000000600052603260045260246000fd5b602002018181525050816020015184600360048110612a33577f4e487b7100000000000000000000000000000000000000000000000000000000600052603260045260246000fd5b6020020152606084608081600060067ffffffffffffffffffffffffffffffffffffffffffffffffffffffffffffffffff1925080612a7081613cb4565b91505061295c565b50508151602090920151919791965090945050505050565b600060015b8215612b0a57612aa6600284613ced565b15612ad2577f30644e72e131a029b85045b68181585d2833e84879b9709143e1f593f000000184820990505b7f30644e72e131a029b85045b68181585d2833e84879b9709143e1f593f00000018485099350612b03600284613c4c565b9250612a95565b9392505050565b60606000835167ffffffffffffffff811115612b56577f4e487b7100000000000000000000000000000000000000000000000000000000600052604160045260246000fd5b604051908082528060200260200182016040528015612b7f578160200160208202803683370190505b50905060005b8451811015612c48577f30644e72e131a029b85045b68181585d2833e84879b9709143e1f593f000000184868381518110612be9577f4e487b7100000000000000000000000000000000000000000000000000000000600052603260045260246000fd5b602002602001015109828281518110612c2b577f4e487b7100000000000000000000000000000000000000000000000000000000600052603260045260246000fd5b602090810291909101015280612c4081613cb4565b915050612b85565b509392505050565b60606000835167ffffffffffffffff811115612c95577f4e487b7100000000000000000000000000000000000000000000000000000000600052604160045260246000fd5b604051908082528060200260200182016040528015612cbe578160200160208202803683370190505b50905060005b8451811015612c48577f30644e72e131a029b85045b68181585d2833e84879b9709143e1f593f0000001848281518110612d27577f4e487b7100000000000000000000000000000000000000000000000000000000600052603260045260246000fd5b6020026020010151868381518110612d68577f4e487b7100000000000000000000000000000000000000000000000000000000600052603260045260246000fd5b602002602001015109828281518110612daa577f4e487b7100000000000000000000000000000000000000000000000000000000600052603260045260246000fd5b602090810291909101015280612dbf81613cb4565b915050612cc4565b60606000835167ffffffffffffffff811115612e0c577f4e487b7100000000000000000000000000000000000000000000000000000000600052604160045260246000fd5b604051908082528060200260200182016040528015612e35578160200160208202803683370190505b50905060005b8451811015612c48577f30644e72e131a029b85045b68181585d2833e84879b9709143e1f593f0000001848281518110612e9e577f4e487b7100000000000000000000000000000000000000000000000000000000600052603260045260246000fd5b6020026020010151868381518110612edf577f4e487b7100000000000000000000000000000000000000000000000000000000600052603260045260246000fd5b602002602001015108828281518110612f21577f4e487b7100000000000000000000000000000000000000000000000000000000600052603260045260246000fd5b602090810291909101015280612f3681613cb4565b915050612e3b565b600080805b6004811015612c48577f30644e72e131a029b85045b68181585d2833e84879b9709143e1f593f000000180858381518110612fa7577f4e487b7100000000000000000000000000000000000000000000000000000000600052603260045260246000fd5b6020026020010151878481518110612fe8577f4e487b7100000000000000000000000000000000000000000000000000000000600052603260045260246000fd5b6020026020010151098308915080612fff81613cb4565b915050612f43565b606060008267ffffffffffffffff81111561304b577f4e487b7100000000000000000000000000000000000000000000000000000000600052604160045260246000fd5b60405190808252806020026020018201604052801561308457816020015b6130716136a5565b8152602001906001900390816130695790505b50905060405180604001604052807f178312f4ea77eefacdc938aa5c308e67f2911c3707aecb57aba4eab707ef885481526020017f07f2126e5be0f143a9669a1b40a005757ccae0ec05ac24abd7cf151c505064da81525081600081518110613116577f4e487b7100000000000000000000000000000000000000000000000000000000600052603260045260246000fd5b602002602001018190525060405180604001604052807f2156ae43c9012d4b45a11510bbf674029c1f1d34a2576a03c3c17caef57dafca81526020017f069efd3d1728186ce8564633fb9ef5d0c05bec680e18ee08240bd33eecdf8b0d815250816001815181106131b0577f4e487b7100000000000000000000000000000000000000000000000000000000600052603260045260246000fd5b602002602001018190525060405180604001604052807f0d42c343d4a2ff56bef152f6f8e525ca6e813166c5701b0e5688f7c9ca3cc54781526020017f140e48c56512ac501067977d51063e23ee293041e8fe394f26fb6d3980897a2c8152508160028151811061324a577f4e487b7100000000000000000000000000000000000000000000000000000000600052603260045260246000fd5b602002602001018190525060405180604001604052807f248823f60a7a1fbc0bb2e67c05191e74b5cb53c441fd7523f41ef33b68d3f2a281526020017f0d598ed082faf231cdee36314919eb019b1547104a7e13cc1e43c42932b38f9e815250816003815181106132e4577f4e487b7100000000000000000000000000000000000000000000000000000000600052603260045260246000fd5b6020026020010181905250826006141561342d5760405180604001604052807f1acac51260a2a4aff6f446219481417b939f2aa9f722f6180e12c4d4694ce8a081526020017f074b34e004175a4ed53bd048766419211c231923d4e278ceb3215fd21731e7ef81525081600481518110613387577f4e487b7100000000000000000000000000000000000000000000000000000000600052603260045260246000fd5b602002602001018190525060405180604001604052807f1e002b36f979170fcf45cbf813260b9c53031159a41ef16f1a4693f72363b75081526020017f0db304d955d4dedc9e7bfded658b29bf29d42bdd76cf1011e275127281db72b281525081600581518110613421577f4e487b7100000000000000000000000000000000000000000000000000000000600052603260045260246000fd5b60200260200101819052505b826008141561369f5760405180604001604052807f1acac51260a2a4aff6f446219481417b939f2aa9f722f6180e12c4d4694ce8a081526020017f074b34e004175a4ed53bd048766419211c231923d4e278ceb3215fd21731e7ef815250816004815181106134c5577f4e487b7100000000000000000000000000000000000000000000000000000000600052603260045260246000fd5b602002602001018190525060405180604001604052807f1e002b36f979170fcf45cbf813260b9c53031159a41ef16f1a4693f72363b75081526020017f0db304d955d4dedc9e7bfded658b29bf29d42bdd76cf1011e275127281db72b28152508160058151811061355f577f4e487b7100000000000000000000000000000000000000000000000000000000600052603260045260246000fd5b602002602001018190525060405180604001604052807f0f533b1f35c86ad720e6c03e67d759ce1cfdaf8f6a4f2d202e579f31b994ada181526020017f2ed9da347a855d4aa2062fefd6f470fa6195db80e288ecdb439b4ede6920e06a815250816006815181106135f9577f4e487b7100000000000000000000000000000000000000000000000000000000600052603260045260246000fd5b602002602001018190525060405180604001604052807f0871599eb07ea8bf6b411ca64eb76aaa629de3145c3b77701dbb90a6cc7ae44a81526020017f1954ae682c6b6a44aceb902e6bf4ca21881e77b536619117cdfc2b055c31f04381525081600781518110613693577f4e487b7100000000000000000000000000000000000000000000000000000000600052603260045260246000fd5b60200260200101819052505b92915050565b604051806040016040528060008152602001600081525090565b60405180608001604052806004906020820280368337509192915050565b60405180604001604052806002906020820280368337509192915050565b60405180606001604052806003906020820280368337509192915050565b600082601f830112613729578081fd5b8135602061373e61373983613c10565b613be6565b82815281810190858301855b8581101561377357613761898684358b01016137f2565b8452928401929084019060010161374a565b5090979650505050505050565b600082601f830112613790578081fd5b813560206137a061373983613c10565b828152818101908583016040808602880185018910156137be578687fd5b865b868110156137e4576137d28a8461384c565b855293850193918101916001016137c0565b509198975050505050505050565b600082601f830112613802578081fd5b8135602061381261373983613c10565b828152818101908583018385028701840188101561382e578586fd5b855b8581101561377357813584529284019290840190600101613830565b60006040828403121561385d578081fd5b6040516040810181811067ffffffffffffffff8211171561388057613880613d5f565b604052823581526020928301359281019290925250919050565b6000806000606084860312156138ae578283fd5b833567ffffffffffffffff808211156138c5578485fd5b908501906101a082880312156138d9578485fd5b6101406138e581613be6565b6138ef898561384c565b81526138fe896040860161384c565b6020820152613910896080860161384c565b604082015260c0840135606082015260e084013583811115613930578788fd5b61393c8a8287016137f2565b6080830152506101008085013584811115613955578889fd5b6139618b828801613719565b60a084015250610120808601358581111561397a57898afd5b6139868c828901613719565b60c08501525092850135928484111561399d578889fd5b6139a98b858801613780565b60e08401526101608601359350848411156139c2578889fd5b6139ce8b858801613780565b828401526101808601359350848411156139e6578889fd5b6139f28b858801613780565b908301525098602088013598506040909701359695505050505050565b60008060808385031215613a21578182fd5b613a2b848461384c565b9150613a3a846040850161384c565b90509250929050565b60008060608385031215613a55578182fd5b613a5f848461384c565b946040939093013593505050565b60008060408385031215613a7f578182fd5b50508035926020909101359150565b815160009082906020808601845b83811015613ab857815185529382019390820190600101613a9c565b50929695505050505050565b60208082526018908201527f536166654d6174683a206d6f64756c6f206279207a65726f0000000000000000604082015260600190565b60208082526024908201527f656c6c6970746963206375727665206d756c7469706c69636174696f6e20666160408201527f696c656400000000000000000000000000000000000000000000000000000000606082015260800190565b60208082526018908201527f626e323536207375627472616374696f6e206661696c65640000000000000000604082015260600190565b6020808252600e908201527f496e76616c6964206e756d626572000000000000000000000000000000000000604082015260600190565b815181526020918201519181019190915260400190565b90815260200190565b60405181810167ffffffffffffffff81118282101715613c0857613c08613d5f565b604052919050565b600067ffffffffffffffff821115613c2a57613c2a613d5f565b5060209081020190565b60008219821115613c4757613c47613d01565b500190565b600082613c5b57613c5b613d30565b500490565b6000817fffffffffffffffffffffffffffffffffffffffffffffffffffffffffffffffff0483118215151615613c9857613c98613d01565b500290565b600082821015613caf57613caf613d01565b500390565b60007fffffffffffffffffffffffffffffffffffffffffffffffffffffffffffffffff821415613ce657613ce6613d01565b5060010190565b600082613cfc57613cfc613d30565b500690565b7f4e487b7100000000000000000000000000000000000000000000000000000000600052601160045260246000fd5b7f4e487b7100000000000000000000000000000000000000000000000000000000600052601260045260246000fd5b7f4e487b7100000000000000000000000000000000000000000000000000000000600052604160045260246000fdfea2646970667358221220b470843504e89318bf4813a03bd526848d0ddf605b31ee2e5435b1ad248add6164736f6c63430008000033",
  "immutableReferences": {},
  "source": "pragma solidity ^0.8.0;\r\npragma experimental ABIEncoderV2;\r\n\r\ncontract Type2 {\r\n    struct Point {\r\n        uint256 x;\r\n        uint256 y;\r\n    }\r\n\r\n    struct Part1 {\r\n        Point cy;\r\n        Point R;\r\n        Point S;\r\n        uint256 Bkeu;\r\n        uint256[] etas;\r\n        uint256[][] vs;\r\n        uint256[][] us;\r\n        Point[] cws;\r\n        Point[] cms;\r\n        Point[] cts;\r\n    }\r\n\r\n\r\n    uint256 public constant GX = 1;\r\n    uint256 public constant HX = 9727523064272218541460723335320998459488975639302513747055235660443850046724;\r\n    uint256 public constant GY = 2;\r\n    uint256 public constant HY = 5031696974169251245229961296941447383441169981934237515842977230762345915487;\r\n\r\n    uint256 public constant PP = 0x30644e72e131a029b85045b68181585d97816a916871ca8d3c208c16d87cfd47;\r\n    uint256 internal constant NN = 0x30644e72e131a029b85045b68181585d2833e84879b9709143e1f593f0000001;\r\n\r\n    uint256 private constant G1X = 10634783317254738331264664985092831821376621286957316213969233667217643505748;\r\n    uint256 private constant G1Y = 3593894136463563836927847830567934263138852783181300960240960063050894828762;\r\n    uint256 private constant G2X = 15079475582167754912076991092891442787377018931665830331839902737242049589194;\r\n    uint256 private constant G2Y = 2994786716555744767228318303490139874612995833883024157075109374536749910797;\r\n    uint256 private constant G3X = 5998026607105146355656696147154635391947958755485950806629481563238770197831;\r\n    uint256 private constant G3Y = 9071495078062910622295597859043028737780972268539387614597098676522874141228;\r\n    uint256 private constant G4X = 16523801944179829840198169326704340952379740918805059924608153703458536682146;\r\n    uint256 private constant G4Y = 6038302089791721424956127465108246322480323157317821739578233683122154868638;\r\n    uint256 private constant G5X = 12118397309736405059200255390820856272335184322136103314456373515523090868384;\r\n    uint256 private constant G5Y = 3299068400210186031537495205944296158829957843773210327992629444571521214447;\r\n    uint256 private constant G6X = 13569683714700597868720693802606454625784876902328159148425602640793284360016;\r\n    uint256 private constant G6Y = 6196366122510722436252226379612342063576138922717891371699758504638443909810;\r\n    uint256 private constant G7X = 6931749079582407422004463406148477362357661472338328270508373724106071518625;\r\n    uint256 private constant G7Y = 21191302843410952823242789471696212271196775028224076743387772065534892367978;\r\n    uint256 private constant G8X = 3818775040669594200577093816348913853129511932617816368937601194351220417610;\r\n    uint256 private constant G8Y = 11457440080399767781624111424667375708460721196045291561100911147854033186883;\r\n\r\n\r\n    function multiply(Point memory p, uint256 k)\r\n        public\r\n        returns (Point memory)\r\n    {\r\n        uint256[3] memory input;\r\n        input[0] = p.x;\r\n        input[1] = p.y;\r\n        input[2] = k;\r\n\r\n        bool success;\r\n        uint256[2] memory result;\r\n\r\n        assembly {\r\n            success := call(not(0), 0x07, 0, input, 96, result, 64)\r\n        }\r\n        require(success, \"elliptic curve multiplication failed\");\r\n\r\n        return Point(result[0], result[1]);\r\n    }\r\n\r\n    function mod(uint256 a, uint256 b)\r\n        public\r\n        pure\r\n        returns (uint256)\r\n    {\r\n        require(b != 0, \"SafeMath: modulo by zero\");\r\n\r\n        uint256 c;\r\n        assembly {\r\n            c := mod(a, b)\r\n        }\r\n\r\n        return c;\r\n    }\r\n\r\n    function add(Point memory p1, Point memory p2)\r\n        internal\r\n        returns (Point memory)\r\n    {\r\n        uint256[4] memory input;\r\n        input[0] = p1.x;\r\n        input[1] = p1.y;\r\n        input[2] = p2.x;\r\n        input[3] = p2.y;\r\n\r\n        bool success;\r\n        uint256[2] memory result;\r\n        assembly {\r\n            success := call(not(0), 0x06, 0, input, 128, result, 64)\r\n        }\r\n\r\n        require(success, \"bn256 addition failed\");\r\n        return Point(result[0], result[1]);\r\n    }\r\n\r\n    function modInv(uint256 x, uint256 p)\r\n        public\r\n        pure\r\n        returns (uint256)\r\n    {\r\n        require(x != 0 && x != p && p != 0, \"Invalid number\");\r\n        uint256 q = 0;\r\n        uint256 newT = 1;\r\n        uint256 r = p;\r\n        uint256 t;\r\n        while (x != 0) {\r\n            t = r / x;\r\n            (q, newT) = (newT, addmod(q, (p - mulmod(t, newT, p)), p));\r\n            (r, x) = (x, r - t * x);\r\n        }\r\n\r\n        return q;\r\n    }\r\n\r\n    function sub(Point memory p1, Point memory p2)\r\n        public\r\n        returns (Point memory)\r\n    {\r\n        uint256[4] memory input;\r\n        input[0] = p1.x;\r\n        input[1] = p1.y;\r\n        input[2] = p2.x;\r\n        input[3] = PP - p2.y;\r\n\r\n        bool success;\r\n        uint256[2] memory result;\r\n        assembly {\r\n            success := call(not(0), 0x06, 0, input, 128, result, 64)\r\n        }\r\n\r\n        require(success, \"bn256 subtraction failed\");\r\n        return Point(result[0], result[1]);\r\n    }\r\n\r\n\r\n    function dot(uint256[] memory a, uint256[] memory b) internal pure returns (uint256) {\r\n        uint256 total = 0;\r\n        for (uint i=0; i<4; i++) {\r\n            total = addmod(total, mulmod(uint(a[i]), uint(b[i]), NN), NN);\r\n        }\r\n        return total;\r\n    }\r\n\r\n    function mul(uint256[] memory a, uint256 b) internal pure returns (uint256[] memory) {\r\n        uint256[] memory result = new uint256[](a.length);\r\n        for (uint i=0; i<a.length; i++) {\r\n            result[i] = mulmod(a[i], b, NN);\r\n        }\r\n        return result;\r\n    }\r\n\r\n    function mul(uint256[] memory a, uint256[] memory b) internal pure returns (uint256[] memory) {\r\n        uint256[] memory result = new uint256[](a.length);\r\n        for (uint i=0; i<a.length; i++) {\r\n            result[i] = mulmod(a[i], b[i], NN);\r\n        }\r\n        return result;\r\n    }\r\n\r\n    function add(uint256[] memory a, uint256[] memory b) internal pure returns (uint256[] memory) {\r\n        uint256[] memory result = new uint256[](a.length);\r\n        for (uint i=0; i<a.length; i++) {\r\n            result[i] = addmod(a[i], b[i], NN);\r\n        }\r\n        return result;\r\n    }\r\n\r\n    function pow(uint256 x, uint256 n) internal pure returns (uint256) {\r\n        uint256 result = 1;\r\n        while (n > 0) {\r\n            if (n % 2 != 0) {\r\n                result = mulmod(result, x, NN);\r\n            }\r\n            x = mulmod(x, x, NN);\r\n            n /= 2;\r\n        }\r\n        return result;\r\n    }\r\n\r\n    function verifyRangeArgument(Part1 memory part1, uint256 K, uint256 B)\r\n        external\r\n        returns (uint256)\r\n    {\r\n        (uint256[] memory betas, uint256 betasPow2, uint256 alpha) = computeChallenges(part1, K);\r\n\r\n        checkCond1(alpha, betas, betasPow2, part1, K, B);\r\n\r\n        checkCond2(betas, part1);\r\n\r\n        checkCond3(alpha, part1);\r\n\r\n        checkCond4(part1.cy, part1.cws);\r\n\r\n        // assert (ret_add_input_total[0] == Fx && ret_add_input_total[1] == Fy);\r\n\r\n    }\r\n\r\n    function computeChallenges(Part1 memory part1, uint K)\r\n        internal\r\n        pure\r\n        returns (uint256[] memory x, uint256 y, uint256 z)\r\n    {\r\n\r\n        (uint256 alpha, uint256 challenge) = computeBaseChallenge(part1.cws, part1.cms, part1.cts);\r\n        // require (mulmod(challenge, challengeNeg1, NN) == 1);\r\n\r\n        uint256[] memory challenges = new uint256[](K);\r\n        uint256[] memory challengesPow2 = new uint256[](K);\r\n\r\n        uint256 challenge2 = mulmod(challenge, challenge, NN);\r\n        uint256 challenge4 = mulmod(challenge2, challenge2, NN);\r\n        uint256 challenge3 = mulmod(challenge2, challenge, NN);\r\n        uint256 challenge5 = mulmod(challenge4, challenge, NN);\r\n        uint256 challenge6 = mulmod(challenge4, challenge2, NN);\r\n        uint256 challenge7 = mulmod(challenge4, challenge3, NN);\r\n        uint256 challenge8 = mulmod(challenge4, challenge4, NN);\r\n\r\n        challenges[0] = challenge;\r\n        challenges[1] = challenge2;\r\n        challenges[2] = challenge3;\r\n        challenges[3] = challenge4;\r\n\r\n        challengesPow2[0] = challenge2;\r\n        challengesPow2[1] = challenge4;\r\n        challengesPow2[2] = challenge6;\r\n        challengesPow2[3] = challenge8;\r\n\r\n        if (K == 6) {\r\n            uint256 challenge10 = mulmod(challenge5, challenge5, NN);\r\n            uint256 challenge12 = mulmod(challenge6, challenge6, NN);\r\n            challenges[4] = challenge5;\r\n            challenges[5] = challenge6;\r\n            challengesPow2[4] = challenge10;\r\n            challengesPow2[5] = challenge12;\r\n        }\r\n\r\n        if (K == 8) {\r\n            uint256 challenge10 = mulmod(challenge5, challenge5, NN);\r\n            uint256 challenge12 = mulmod(challenge6, challenge6, NN);\r\n            uint256 challenge14 = mulmod(challenge7, challenge7, NN);\r\n            uint256 challenge16 = mulmod(challenge8, challenge8, NN);\r\n            challenges[4] = challenge5;\r\n            challenges[5] = challenge6;\r\n            challenges[6] = challenge7;\r\n            challenges[7] = challenge8;\r\n            challengesPow2[4] = challenge10;\r\n            challengesPow2[5] = challenge12;\r\n            challengesPow2[6] = challenge14;\r\n            challengesPow2[7] = challenge16;\r\n        }\r\n\r\n        uint size = challengesPow2.length;\r\n        uint256 chalPow2Sum = 0;\r\n        for(uint i=0;i<size;i++){\r\n            chalPow2Sum = addmod(challengesPow2[i], chalPow2Sum, NN);\r\n        }\r\n\r\n        return (challenges, chalPow2Sum, alpha);\r\n    }\r\n\r\n    function checkCond1(uint256 alpha, uint256[] memory betas, uint256 betasPow2, Part1 memory part1, uint256 K, uint256 B)\r\n        internal\r\n    {\r\n        uint256[] memory fvs = computeUV(alpha, betas, part1.us, part1.vs, K, B);\r\n        (uint256 uvpx, uint256 uvpy, uint256 hbetaspow2px, uint256 hbetaspow2py) = computeUVPoint(fvs, betasPow2);\r\n\r\n        uint256[3] memory mul_input;\r\n        uint256[4] memory add_input;\r\n        uint256[2] memory HbetasPow2;\r\n        bool success;\r\n\r\n        mul_input[0] = HX;\r\n        mul_input[1] = HY;\r\n        mul_input[2] = part1.etas[0];\r\n        assembly {\r\n            success := call(not(0), 7, 0, mul_input, 0x80, add(add_input, 0x40), 0x60)\r\n        }\r\n\r\n        add_input[0] = uvpx;\r\n        add_input[1] = uvpy;\r\n        assembly {\r\n            success := call(not(0), 6, 0, add_input, 0x80, add_input, 0x60)\r\n        }\r\n\r\n        HbetasPow2[0] = hbetaspow2px;\r\n        HbetasPow2[1] = hbetaspow2py;\r\n        (add_input[0], add_input[1]) = computeCTS(HbetasPow2, betas, betasPow2, part1);\r\n    }\r\n\r\n    function checkCond2(uint256[] memory challenges, Part1 memory part1)\r\n        internal\r\n    {\r\n        uint256 vsum = 0;\r\n        uint256[][] memory vs = part1.vs;\r\n        uint vsize = vs.length;\r\n        for(uint i=0;i<vsize;i++) {\r\n            for(uint j=0;j<vsize;j++){\r\n                vsum = addmod(vsum, vs[i][j], NN);\r\n            }\r\n        }\r\n        \r\n        uint256[3] memory mul_input;\r\n        uint256[4] memory add_input;\r\n        bool success;\r\n\r\n        mul_input[0] = GX;\r\n        mul_input[1] = GY;\r\n        mul_input[2] = uint(vsum);\r\n        assembly {\r\n            success := call(not(0), 7, 0, mul_input, 0x80, add_input, 0x60)\r\n        }\r\n\r\n        mul_input[0] = HX;\r\n        mul_input[1] = HY;\r\n        mul_input[2] = part1.etas[1];\r\n\r\n        assembly {\r\n            success := call(not(0), 7, 0, mul_input, 0x80, add(add_input, 0x40), 0x60)\r\n        }\r\n\r\n        assembly {\r\n            success := call(not(0), 6, 0, add_input, 0x80, add_input, 0x60)\r\n        }\r\n\r\n        uint256 ret2x = add_input[0];\r\n        uint256 ret2y = add_input[1];\r\n\r\n        (add_input[0], add_input[1]) = computeCWS(challenges, part1);\r\n\r\n        // assert (add_input[0] == ret2x && add_input[1] == ret2y);\r\n\r\n    }\r\n\r\n    function computeCTS(uint256[2] memory HbetasPow2, uint256[] memory betas, uint256 betasPow2, Part1 memory part1)\r\n        internal\r\n        returns (uint256 x, uint256 y)\r\n    {\r\n       uint size = part1.cts.length-1;\r\n\r\n        uint256[3] memory mul_input;\r\n        uint256[4] memory add_input;\r\n        bool success;\r\n\r\n        Point memory p = part1.cts[0];\r\n        mul_input[0] = p.x;\r\n        mul_input[1] = p.y;\r\n        mul_input[2] = betas[0];\r\n        assembly {\r\n            success := call(not(0), 7, 0, mul_input, 0x80, add(add_input, 0x0), 0x60)\r\n        }\r\n\r\n        for(uint i=1;i<size;i++){\r\n            Point memory p = part1.cts[i];\r\n            mul_input[0] = p.x;\r\n            mul_input[1] = p.y;\r\n            mul_input[2] = betas[i];\r\n\r\n            assembly {\r\n                success := call(not(0), 7, 0, mul_input, 0x80, add(add_input, 0x40), 0x60)\r\n            }\r\n\r\n            assembly {\r\n                success := call(not(0), 6, 0, add_input, 0x80, add_input, 0x60)\r\n            }\r\n        }\r\n\r\n        add_input[2] = part1.S.x;\r\n        add_input[3] = part1.S.y;\r\n\r\n        assembly {\r\n            success := call(not(0), 6, 0, add_input, 0x80, add_input, 0x60)\r\n        }\r\n\r\n        add_input[2] = HbetasPow2[0];\r\n        add_input[3] = HbetasPow2[1];\r\n\r\n        assembly {\r\n            success := call(not(0), 6, 0, add_input, 0x80, add_input, 0x60)\r\n        }\r\n\r\n        return (add_input[0], add_input[1]);\r\n    }\r\n\r\n    function computeCWS(uint256[] memory challenges, Part1 memory part1)\r\n        internal\r\n        returns (uint256 x, uint256 y)\r\n    {\r\n        uint size = part1.cws.length-1;\r\n\r\n        uint256[3] memory mul_input;\r\n        uint256[4] memory add_input;\r\n        bool success;\r\n\r\n        Point memory p = part1.cws[0];\r\n        mul_input[0] = p.x;\r\n        mul_input[1] = p.y;\r\n        mul_input[2] = challenges[0];\r\n        assembly {\r\n            success := call(not(0), 7, 0, mul_input, 0x80, add(add_input, 0x0), 0x60)\r\n        }\r\n\r\n        for(uint i=1;i<size;i++){\r\n            Point memory p = part1.cws[i];\r\n            mul_input[0] = p.x;\r\n            mul_input[1] = p.y;\r\n            mul_input[2] = challenges[i];\r\n\r\n            assembly {\r\n                success := call(not(0), 7, 0, mul_input, 0x80, add(add_input, 0x40), 0x60)\r\n            }\r\n\r\n            assembly {\r\n                success := call(not(0), 6, 0, add_input, 0x80, add_input, 0x60)\r\n            }\r\n        }\r\n\r\n    \r\n        add_input[2] = part1.R.x;\r\n        add_input[3] = part1.R.y;\r\n\r\n        assembly {\r\n            success := call(not(0), 6, 0, add_input, 0x80, add_input, 0x60)\r\n        }\r\n\r\n        return (add_input[0], add_input[1]);\r\n    }\r\n\r\n    function checkCond3(uint256 alpha, Part1 memory part1)\r\n        internal\r\n    {\r\n        uint256[3] memory mul_input;\r\n        uint256[4] memory add_input;\r\n        bool success;\r\n\r\n        mul_input[0] = GX;\r\n        mul_input[1] = GY;\r\n        mul_input[2] = uint(part1.Bkeu);\r\n        assembly {\r\n            success := call(not(0), 7, 0, mul_input, 0x80, add_input, 0x60)\r\n        }\r\n        \r\n        mul_input[0] = HX;\r\n        mul_input[1] = HY;\r\n        mul_input[2] = part1.etas[2];\r\n\r\n        assembly {\r\n            success := call(not(0), 7, 0, mul_input, 0x80, add(add_input, 0x40), 0x60)\r\n        }\r\n\r\n        assembly {\r\n            success := call(not(0), 6, 0, add_input, 0x80, add_input, 0x60)\r\n        }\r\n\r\n        uint256 ret3x = add_input[0];\r\n        uint256 ret3y = add_input[1];\r\n\r\n        (add_input[0], add_input[1]) = computeCMS(alpha, part1);\r\n\r\n        // assert (add_input[0] == ret3x && add_input[1] == ret3y);\r\n\r\n\r\n    }\r\n\r\n    function computeCMS(uint256 alpha, Part1 memory part1)\r\n        internal\r\n        returns (uint256 x, uint256 y)\r\n    {\r\n        uint size = part1.cms.length-1;\r\n        uint256[4] memory add_input;\r\n        bool success;\r\n\r\n        Point memory p = part1.cms[0];\r\n        add_input[0] = p.x;\r\n        add_input[1] = p.y;\r\n        for(uint i=1;i<size;i++) {\r\n            p = part1.cms[i];\r\n            add_input[2] = p.x;\r\n            add_input[3] = p.y;\r\n            assembly {\r\n                success := call(not(0), 6, 0, add_input, 0x80, add_input, 0x60)\r\n            }\r\n        }\r\n\r\n        // uint256[3] memory mul_input;\r\n        // uint256[4] memory add_input;\r\n        // bool success;\r\n\r\n        // Point memory p = part1.cms[0];\r\n        // mul_input[0] = p.x;\r\n        // mul_input[1] = p.y;\r\n        // mul_input[2] = modInv(alpha-1, NN);\r\n        // assembly {\r\n        //     success := call(not(0), 7, 0, mul_input, 0x80, add(add_input, 0x0), 0x60)\r\n        // }\r\n\r\n        // for(uint i=1;i<size;i++){\r\n        //     Point memory p = part1.cms[i];\r\n        //     mul_input[0] = p.x;\r\n        //     mul_input[1] = p.y;\r\n        //     mul_input[2] = modInv(alpha+i-1, NN);\r\n\r\n        //     assembly {\r\n        //         success := call(not(0), 7, 0, mul_input, 0x80, add(add_input, 0x40), 0x60)\r\n        //     }\r\n\r\n        //     assembly {\r\n        //         success := call(not(0), 6, 0, add_input, 0x80, add_input, 0x60)\r\n        //     }\r\n        // }\r\n\r\n        return (add_input[0], add_input[1]);\r\n    }\r\n\r\n    function checkCond4(Point memory cy, Point[] memory cws)\r\n        internal\r\n    {\r\n        uint wsize = cws.length - 1;\r\n        uint256[4] memory add_input;\r\n        bool success;\r\n\r\n        Point memory p = cws[0];\r\n        add_input[0] = p.x;\r\n        add_input[1] = p.y;\r\n        for(uint i=1;i<wsize;i++) {\r\n            Point memory p = cws[i];\r\n            add_input[2] = p.x;\r\n            add_input[3] = p.y;\r\n            assembly {\r\n                success := call(not(0), 6, 0, add_input, 0x80, add_input, 0x60)\r\n            }\r\n        }\r\n\r\n        // assert (cy.x == add_input[0] && cy.y == add_input[1]);\r\n    }\r\n\r\n    function computeBaseChallenge(Point[] memory cws, Point[] memory cms, Point[] memory cts)\r\n        internal\r\n        pure\r\n        returns (uint256 x, uint256 y)\r\n    {\r\n        uint cwslength = cws.length;\r\n        uint cmslength = cms.length;\r\n        uint ctslength = cts.length;\r\n\r\n        uint256 size = 2 * (cwslength + cmslength + ctslength);\r\n        uint256[] memory cs = new uint256[](size);\r\n        uint offset = 0;\r\n        for(uint i=0;i<cwslength;i++) {\r\n            Point memory p = cws[i];\r\n            cs[offset] = p.x;\r\n            offset = offset + 1;\r\n            cs[offset] = p.y;\r\n            offset = offset + 1;\r\n        }\r\n        for(uint i=0;i<cmslength;i++) {\r\n            Point memory p = cms[i];\r\n            cs[offset] = p.x;\r\n            offset = offset + 1;\r\n            cs[offset] = p.y;\r\n            offset = offset + 1;\r\n        }\r\n        uint256 alpha = mod(uint256(keccak256(abi.encodePacked(cs))), NN);\r\n        for(uint i=0;i<ctslength;i++) {\r\n            Point memory p = cts[i];\r\n            cs[offset] = p.x;\r\n            offset = offset + 1;\r\n            cs[offset] = p.y;\r\n            offset = offset + 1;\r\n        }\r\n        uint256 baseChal = mod(uint256(keccak256(abi.encodePacked(cs))), NN);\r\n\r\n        return (alpha, baseChal);\r\n    }\r\n\r\n    function computeUV(uint256 alpha, uint256[] memory betas, uint256[][] memory us, uint256[][] memory vs,uint256 K, uint256 B)\r\n        internal\r\n        returns (uint256[]memory)\r\n    {\r\n\r\n        uint256[] memory Bk = new uint256[](K);\r\n        for(uint i=0; i<K;i++){\r\n           uint256 bPow = pow(B, i);\r\n           Bk[i] = bPow;\r\n        }\r\n        uint256[] memory vprime = new uint256[](K);\r\n        uint256[] memory uvprimes = new uint256[](K);\r\n        uint256 uvprime = 0;\r\n        for(uint i=0;i<K;i++) {\r\n            uint256[] memory alphaBk = mul(Bk, alpha);\r\n            vprime = add(mul(alphaBk, betas), vs[i]);\r\n            uvprime = dot(us[i], vprime);\r\n            uvprimes[i] = uvprime;\r\n        }\r\n\r\n        return uvprimes;\r\n    }\r\n\r\n    function computeUVPoint(uint256[] memory uvs, uint256 betasPow2)\r\n        internal\r\n        returns (uint256 x, uint256 y, uint256 x1, uint256 y1)\r\n    {\r\n        uint256[3] memory mul_input;\r\n        uint256[4] memory add_input;\r\n        uint256[3] memory mul_input1;\r\n        uint256[4] memory add_input1;\r\n        bool success;\r\n\r\n        add_input[0] = 0;\r\n        add_input[1] = 0;\r\n\r\n        add_input1[0] = 0;\r\n        add_input1[1] = 0;\r\n        uint size = uvs.length;\r\n\r\n        Point[] memory gs = generateGS(size);\r\n        for(uint i=0;i<size;i++) {\r\n            Point memory g = gs[i];\r\n            mul_input[0] = g.x;\r\n            mul_input[1] = g.y;\r\n            mul_input[2] = uvs[i];\r\n\r\n            mul_input1[0] = g.x;\r\n            mul_input1[1] = g.y;\r\n            mul_input1[2] = betasPow2;\r\n\r\n            assembly {\r\n                success := call(not(0), 7, 0, mul_input, 0x80, add(add_input, 0x40), 0x60)\r\n            }\r\n\r\n            assembly {\r\n                success := call(not(0), 6, 0, add_input, 0x80, add_input, 0x60)\r\n            }\r\n\r\n            assembly {\r\n                success := call(not(0), 7, 0, mul_input1, 0x80, add(add_input1, 0x40), 0x60)\r\n            }\r\n\r\n            assembly {\r\n                success := call(not(0), 6, 0, add_input1, 0x80, add_input1, 0x60)\r\n            }\r\n        }\r\n\r\n        return (add_input[0], add_input[1], add_input1[0], add_input1[1]);\r\n    }\r\n\r\n    function generateGS(uint L)\r\n        internal\r\n        pure\r\n        returns (Point[] memory)\r\n    {\r\n        Point[] memory gs = new Point[](L);\r\n        gs[0] = Point(G1X, G1Y);\r\n        gs[1] = Point(G2X, G2Y);\r\n        gs[2] = Point(G3X, G3Y);\r\n        gs[3] = Point(G4X, G4Y);\r\n        if (L == 6){\r\n            gs[4] = Point(G5X, G5Y);\r\n            gs[5] = Point(G6X, G6Y);\r\n        }\r\n        if (L == 8){\r\n            gs[4] = Point(G5X, G5Y);\r\n            gs[5] = Point(G6X, G6Y);\r\n            gs[6] = Point(G7X, G7Y);\r\n            gs[7] = Point(G8X, G8Y);\r\n        }\r\n        // gs[4] = Point(G5X, G5Y);\r\n        // gs[5] = Point(G6X, G6Y);\r\n        // gs[6] = Point(G7X, G7Y);\r\n        // gs[7] = Point(G8X, G8Y);\r\n        // gs[8] = Point(G9X, G9Y);\r\n        // gs[9] = Point(G10X, G10Y);\r\n        // gs[10] = Point(G11X, G11Y);\r\n\r\n        // if(L == 16){\r\n        //     gs[11] = Point(G12X, G12Y);\r\n        //     gs[12] = Point(G13X, G13Y);\r\n        //     gs[13] = Point(G14X, G14Y);\r\n        //     gs[14] = Point(G15X, G15Y);\r\n        //     gs[15] = Point(G16X, G16Y);\r\n        // }\r\n\r\n        return gs;\r\n    }\r\n\r\n}",
  "sourcePath": "g:\\PhD-1\\Flashproof\\Flashproof\\contracts\\Type2.sol",
  "compiler": {
    "name": "solc",
    "version": "0.8.0+commit.c7dfd78e.Emscripten.clang"
  },
  "schemaVersion": "3.4.11",
  "updatedAt": "2024-04-03T05:59:34.140Z",
  "networkType": "ethereum",
  "devdoc": {
    "kind": "dev",
    "methods": {},
    "version": 1
  },
  "userdoc": {
    "kind": "user",
    "methods": {},
    "version": 1
  }
}